{
	"9. Data Locations/dataLocations.sol": {
		"DataLocations": {
			"abi": [
				{
					"inputs": [],
					"name": "employes",
					"outputs": [
						{
							"internalType": "string",
							"name": "name",
							"type": "string"
						},
						{
							"internalType": "uint8",
							"name": "age",
							"type": "uint8"
						}
					],
					"stateMutability": "view",
					"type": "function"
				},
				{
					"inputs": [],
					"name": "getEmployes",
					"outputs": [
						{
							"components": [
								{
									"internalType": "string",
									"name": "name",
									"type": "string"
								},
								{
									"internalType": "uint8",
									"name": "age",
									"type": "uint8"
								}
							],
							"internalType": "struct DataLocations.User",
							"name": "",
							"type": "tuple"
						}
					],
					"stateMutability": "view",
					"type": "function"
				},
				{
					"inputs": [],
					"name": "getStudents",
					"outputs": [
						{
							"components": [
								{
									"internalType": "string",
									"name": "name",
									"type": "string"
								},
								{
									"internalType": "uint8",
									"name": "age",
									"type": "uint8"
								}
							],
							"internalType": "struct DataLocations.User",
							"name": "",
							"type": "tuple"
						}
					],
					"stateMutability": "view",
					"type": "function"
				},
				{
					"inputs": [],
					"name": "governents",
					"outputs": [
						{
							"internalType": "string",
							"name": "name",
							"type": "string"
						},
						{
							"internalType": "uint8",
							"name": "age",
							"type": "uint8"
						}
					],
					"stateMutability": "view",
					"type": "function"
				},
				{
					"inputs": [
						{
							"internalType": "string",
							"name": "_name",
							"type": "string"
						},
						{
							"internalType": "uint8",
							"name": "_age",
							"type": "uint8"
						}
					],
					"name": "setEmployes",
					"outputs": [],
					"stateMutability": "nonpayable",
					"type": "function"
				},
				{
					"inputs": [
						{
							"internalType": "string",
							"name": "_name",
							"type": "string"
						},
						{
							"internalType": "uint8",
							"name": "_age",
							"type": "uint8"
						}
					],
					"name": "setStudents",
					"outputs": [],
					"stateMutability": "nonpayable",
					"type": "function"
				},
				{
					"inputs": [],
					"name": "students",
					"outputs": [
						{
							"internalType": "string",
							"name": "name",
							"type": "string"
						},
						{
							"internalType": "uint8",
							"name": "age",
							"type": "uint8"
						}
					],
					"stateMutability": "view",
					"type": "function"
				},
				{
					"inputs": [],
					"name": "users",
					"outputs": [
						{
							"components": [
								{
									"internalType": "string",
									"name": "name",
									"type": "string"
								},
								{
									"internalType": "uint8",
									"name": "age",
									"type": "uint8"
								}
							],
							"internalType": "struct DataLocations.User",
							"name": "",
							"type": "tuple"
						}
					],
					"stateMutability": "view",
					"type": "function"
				}
			],
			"devdoc": {
				"kind": "dev",
				"methods": {},
				"version": 1
			},
			"evm": {
				"assembly": "    /* \"9. Data Locations/dataLocations.sol\":57:908  contract DataLocations {... */\n  mstore(0x40, 0x80)\n  callvalue\n  dup1\n  iszero\n  tag_1\n  jumpi\n  revert(0x00, 0x00)\ntag_1:\n  pop\n  dataSize(sub_0)\n  dup1\n  dataOffset(sub_0)\n  0x00\n  codecopy\n  0x00\n  return\nstop\n\nsub_0: assembly {\n        /* \"9. Data Locations/dataLocations.sol\":57:908  contract DataLocations {... */\n      mstore(0x40, 0x80)\n      callvalue\n      dup1\n      iszero\n      tag_1\n      jumpi\n      revert(0x00, 0x00)\n    tag_1:\n      pop\n      jumpi(tag_2, lt(calldatasize, 0x04))\n      shr(0xe0, calldataload(0x00))\n      dup1\n      0x818fb1f6\n      gt\n      tag_11\n      jumpi\n      dup1\n      0x818fb1f6\n      eq\n      tag_7\n      jumpi\n      dup1\n      0xecf944f8\n      eq\n      tag_8\n      jumpi\n      dup1\n      0xf1d064b3\n      eq\n      tag_9\n      jumpi\n      dup1\n      0xf2020275\n      eq\n      tag_10\n      jumpi\n      jump(tag_2)\n    tag_11:\n      dup1\n      0x382d441b\n      eq\n      tag_3\n      jumpi\n      dup1\n      0x460deaa1\n      eq\n      tag_4\n      jumpi\n      dup1\n      0x4840bc97\n      eq\n      tag_5\n      jumpi\n      dup1\n      0x7d6a5dc9\n      eq\n      tag_6\n      jumpi\n    tag_2:\n      revert(0x00, 0x00)\n        /* \"9. Data Locations/dataLocations.sol\":438:575  function setEmployes(string memory _name , uint8 _age) public{... */\n    tag_3:\n      tag_12\n      0x04\n      dup1\n      calldatasize\n      sub\n      dup2\n      add\n      swap1\n      tag_13\n      swap2\n      swap1\n      tag_14\n      jump\t// in\n    tag_13:\n      tag_15\n      jump\t// in\n    tag_12:\n      stop\n        /* \"9. Data Locations/dataLocations.sol\":581:713  function setStudents(string memory _name  , uint8 _age) public {... */\n    tag_4:\n      tag_16\n      0x04\n      dup1\n      calldatasize\n      sub\n      dup2\n      add\n      swap1\n      tag_17\n      swap2\n      swap1\n      tag_14\n      jump\t// in\n    tag_17:\n      tag_18\n      jump\t// in\n    tag_16:\n      stop\n        /* \"9. Data Locations/dataLocations.sol\":814:903  function getEmployes() public view returns (User memory) {... */\n    tag_5:\n      tag_19\n      tag_20\n      jump\t// in\n    tag_19:\n      mload(0x40)\n      tag_21\n      swap2\n      swap1\n      tag_22\n      jump\t// in\n    tag_21:\n      mload(0x40)\n      dup1\n      swap2\n      sub\n      swap1\n      return\n        /* \"9. Data Locations/dataLocations.sol\":153:173  User public employes */\n    tag_6:\n      tag_23\n      tag_24\n      jump\t// in\n    tag_23:\n      mload(0x40)\n      tag_25\n      swap3\n      swap2\n      swap1\n      tag_26\n      jump\t// in\n    tag_25:\n      mload(0x40)\n      dup1\n      swap2\n      sub\n      swap1\n      return\n        /* \"9. Data Locations/dataLocations.sol\":205:227  User public governents */\n    tag_7:\n      tag_27\n      tag_28\n      jump\t// in\n    tag_27:\n      mload(0x40)\n      tag_29\n      swap3\n      swap2\n      swap1\n      tag_26\n      jump\t// in\n    tag_29:\n      mload(0x40)\n      dup1\n      swap2\n      sub\n      swap1\n      return\n        /* \"9. Data Locations/dataLocations.sol\":179:199  User public students */\n    tag_8:\n      tag_30\n      tag_31\n      jump\t// in\n    tag_30:\n      mload(0x40)\n      tag_32\n      swap3\n      swap2\n      swap1\n      tag_26\n      jump\t// in\n    tag_32:\n      mload(0x40)\n      dup1\n      swap2\n      sub\n      swap1\n      return\n        /* \"9. Data Locations/dataLocations.sol\":719:808  function getStudents() public view  returns(User memory){... */\n    tag_9:\n      tag_33\n      tag_34\n      jump\t// in\n    tag_33:\n      mload(0x40)\n      tag_35\n      swap2\n      swap1\n      tag_22\n      jump\t// in\n    tag_35:\n      mload(0x40)\n      dup1\n      swap2\n      sub\n      swap1\n      return\n        /* \"9. Data Locations/dataLocations.sol\":234:431  function  users() public view returns(User memory) {... */\n    tag_10:\n      tag_36\n      tag_37\n      jump\t// in\n    tag_36:\n      mload(0x40)\n      tag_38\n      swap2\n      swap1\n      tag_22\n      jump\t// in\n    tag_38:\n      mload(0x40)\n      dup1\n      swap2\n      sub\n      swap1\n      return\n        /* \"9. Data Locations/dataLocations.sol\":438:575  function setEmployes(string memory _name , uint8 _age) public{... */\n    tag_15:\n        /* \"9. Data Locations/dataLocations.sol\":525:530  _name */\n      dup2\n        /* \"9. Data Locations/dataLocations.sol\":509:517  employes */\n      0x00\n        /* \"9. Data Locations/dataLocations.sol\":509:522  employes.name */\n      0x00\n      add\n        /* \"9. Data Locations/dataLocations.sol\":509:530  employes.name = _name */\n      swap1\n      dup2\n      tag_40\n      swap2\n      swap1\n      tag_41\n      jump\t// in\n    tag_40:\n      pop\n        /* \"9. Data Locations/dataLocations.sol\":555:559  _age */\n      dup1\n        /* \"9. Data Locations/dataLocations.sol\":540:548  employes */\n      0x00\n        /* \"9. Data Locations/dataLocations.sol\":540:552  employes.age */\n      0x01\n      add\n      0x00\n        /* \"9. Data Locations/dataLocations.sol\":540:559  employes.age = _age */\n      0x0100\n      exp\n      dup2\n      sload\n      dup2\n      0xff\n      mul\n      not\n      and\n      swap1\n      dup4\n      0xff\n      and\n      mul\n      or\n      swap1\n      sstore\n      pop\n        /* \"9. Data Locations/dataLocations.sol\":438:575  function setEmployes(string memory _name , uint8 _age) public{... */\n      pop\n      pop\n      jump\t// out\n        /* \"9. Data Locations/dataLocations.sol\":581:713  function setStudents(string memory _name  , uint8 _age) public {... */\n    tag_18:\n        /* \"9. Data Locations/dataLocations.sol\":670:675  _name */\n      dup2\n        /* \"9. Data Locations/dataLocations.sol\":654:662  students */\n      0x02\n        /* \"9. Data Locations/dataLocations.sol\":654:667  students.name */\n      0x00\n      add\n        /* \"9. Data Locations/dataLocations.sol\":654:675  students.name = _name */\n      swap1\n      dup2\n      tag_43\n      swap2\n      swap1\n      tag_41\n      jump\t// in\n    tag_43:\n      pop\n        /* \"9. Data Locations/dataLocations.sol\":702:706  _age */\n      dup1\n        /* \"9. Data Locations/dataLocations.sol\":687:695  students */\n      0x02\n        /* \"9. Data Locations/dataLocations.sol\":687:699  students.age */\n      0x01\n      add\n      0x00\n        /* \"9. Data Locations/dataLocations.sol\":687:706  students.age = _age */\n      0x0100\n      exp\n      dup2\n      sload\n      dup2\n      0xff\n      mul\n      not\n      and\n      swap1\n      dup4\n      0xff\n      and\n      mul\n      or\n      swap1\n      sstore\n      pop\n        /* \"9. Data Locations/dataLocations.sol\":581:713  function setStudents(string memory _name  , uint8 _age) public {... */\n      pop\n      pop\n      jump\t// out\n        /* \"9. Data Locations/dataLocations.sol\":814:903  function getEmployes() public view returns (User memory) {... */\n    tag_20:\n        /* \"9. Data Locations/dataLocations.sol\":858:869  User memory */\n      tag_44\n      tag_45\n      jump\t// in\n    tag_44:\n        /* \"9. Data Locations/dataLocations.sol\":888:896  employes */\n      0x00\n        /* \"9. Data Locations/dataLocations.sol\":881:896  return employes */\n      mload(0x40)\n      dup1\n      0x40\n      add\n      0x40\n      mstore\n      swap1\n      dup2\n      0x00\n      dup3\n      add\n      dup1\n      sload\n      tag_47\n      swap1\n      tag_48\n      jump\t// in\n    tag_47:\n      dup1\n      0x1f\n      add\n      0x20\n      dup1\n      swap2\n      div\n      mul\n      0x20\n      add\n      mload(0x40)\n      swap1\n      dup2\n      add\n      0x40\n      mstore\n      dup1\n      swap3\n      swap2\n      swap1\n      dup2\n      dup2\n      mstore\n      0x20\n      add\n      dup3\n      dup1\n      sload\n      tag_49\n      swap1\n      tag_48\n      jump\t// in\n    tag_49:\n      dup1\n      iszero\n      tag_50\n      jumpi\n      dup1\n      0x1f\n      lt\n      tag_51\n      jumpi\n      0x0100\n      dup1\n      dup4\n      sload\n      div\n      mul\n      dup4\n      mstore\n      swap2\n      0x20\n      add\n      swap2\n      jump(tag_50)\n    tag_51:\n      dup3\n      add\n      swap2\n      swap1\n      0x00\n      mstore\n      keccak256(0x00, 0x20)\n      swap1\n    tag_52:\n      dup2\n      sload\n      dup2\n      mstore\n      swap1\n      0x01\n      add\n      swap1\n      0x20\n      add\n      dup1\n      dup4\n      gt\n      tag_52\n      jumpi\n      dup3\n      swap1\n      sub\n      0x1f\n      and\n      dup3\n      add\n      swap2\n    tag_50:\n      pop\n      pop\n      pop\n      pop\n      pop\n      dup2\n      mstore\n      0x20\n      add\n      0x01\n      dup3\n      add\n      0x00\n      swap1\n      sload\n      swap1\n      0x0100\n      exp\n      swap1\n      div\n      0xff\n      and\n      0xff\n      and\n      0xff\n      and\n      dup2\n      mstore\n      pop\n      pop\n      swap1\n      pop\n        /* \"9. Data Locations/dataLocations.sol\":814:903  function getEmployes() public view returns (User memory) {... */\n      swap1\n      jump\t// out\n        /* \"9. Data Locations/dataLocations.sol\":153:173  User public employes */\n    tag_24:\n      0x00\n      dup1\n      0x00\n      add\n      dup1\n      sload\n      tag_53\n      swap1\n      tag_48\n      jump\t// in\n    tag_53:\n      dup1\n      0x1f\n      add\n      0x20\n      dup1\n      swap2\n      div\n      mul\n      0x20\n      add\n      mload(0x40)\n      swap1\n      dup2\n      add\n      0x40\n      mstore\n      dup1\n      swap3\n      swap2\n      swap1\n      dup2\n      dup2\n      mstore\n      0x20\n      add\n      dup3\n      dup1\n      sload\n      tag_54\n      swap1\n      tag_48\n      jump\t// in\n    tag_54:\n      dup1\n      iszero\n      tag_55\n      jumpi\n      dup1\n      0x1f\n      lt\n      tag_56\n      jumpi\n      0x0100\n      dup1\n      dup4\n      sload\n      div\n      mul\n      dup4\n      mstore\n      swap2\n      0x20\n      add\n      swap2\n      jump(tag_55)\n    tag_56:\n      dup3\n      add\n      swap2\n      swap1\n      0x00\n      mstore\n      keccak256(0x00, 0x20)\n      swap1\n    tag_57:\n      dup2\n      sload\n      dup2\n      mstore\n      swap1\n      0x01\n      add\n      swap1\n      0x20\n      add\n      dup1\n      dup4\n      gt\n      tag_57\n      jumpi\n      dup3\n      swap1\n      sub\n      0x1f\n      and\n      dup3\n      add\n      swap2\n    tag_55:\n      pop\n      pop\n      pop\n      pop\n      pop\n      swap1\n      dup1\n      0x01\n      add\n      0x00\n      swap1\n      sload\n      swap1\n      0x0100\n      exp\n      swap1\n      div\n      0xff\n      and\n      swap1\n      pop\n      dup3\n      jump\t// out\n        /* \"9. Data Locations/dataLocations.sol\":205:227  User public governents */\n    tag_28:\n      0x04\n      dup1\n      0x00\n      add\n      dup1\n      sload\n      tag_58\n      swap1\n      tag_48\n      jump\t// in\n    tag_58:\n      dup1\n      0x1f\n      add\n      0x20\n      dup1\n      swap2\n      div\n      mul\n      0x20\n      add\n      mload(0x40)\n      swap1\n      dup2\n      add\n      0x40\n      mstore\n      dup1\n      swap3\n      swap2\n      swap1\n      dup2\n      dup2\n      mstore\n      0x20\n      add\n      dup3\n      dup1\n      sload\n      tag_59\n      swap1\n      tag_48\n      jump\t// in\n    tag_59:\n      dup1\n      iszero\n      tag_60\n      jumpi\n      dup1\n      0x1f\n      lt\n      tag_61\n      jumpi\n      0x0100\n      dup1\n      dup4\n      sload\n      div\n      mul\n      dup4\n      mstore\n      swap2\n      0x20\n      add\n      swap2\n      jump(tag_60)\n    tag_61:\n      dup3\n      add\n      swap2\n      swap1\n      0x00\n      mstore\n      keccak256(0x00, 0x20)\n      swap1\n    tag_62:\n      dup2\n      sload\n      dup2\n      mstore\n      swap1\n      0x01\n      add\n      swap1\n      0x20\n      add\n      dup1\n      dup4\n      gt\n      tag_62\n      jumpi\n      dup3\n      swap1\n      sub\n      0x1f\n      and\n      dup3\n      add\n      swap2\n    tag_60:\n      pop\n      pop\n      pop\n      pop\n      pop\n      swap1\n      dup1\n      0x01\n      add\n      0x00\n      swap1\n      sload\n      swap1\n      0x0100\n      exp\n      swap1\n      div\n      0xff\n      and\n      swap1\n      pop\n      dup3\n      jump\t// out\n        /* \"9. Data Locations/dataLocations.sol\":179:199  User public students */\n    tag_31:\n      0x02\n      dup1\n      0x00\n      add\n      dup1\n      sload\n      tag_63\n      swap1\n      tag_48\n      jump\t// in\n    tag_63:\n      dup1\n      0x1f\n      add\n      0x20\n      dup1\n      swap2\n      div\n      mul\n      0x20\n      add\n      mload(0x40)\n      swap1\n      dup2\n      add\n      0x40\n      mstore\n      dup1\n      swap3\n      swap2\n      swap1\n      dup2\n      dup2\n      mstore\n      0x20\n      add\n      dup3\n      dup1\n      sload\n      tag_64\n      swap1\n      tag_48\n      jump\t// in\n    tag_64:\n      dup1\n      iszero\n      tag_65\n      jumpi\n      dup1\n      0x1f\n      lt\n      tag_66\n      jumpi\n      0x0100\n      dup1\n      dup4\n      sload\n      div\n      mul\n      dup4\n      mstore\n      swap2\n      0x20\n      add\n      swap2\n      jump(tag_65)\n    tag_66:\n      dup3\n      add\n      swap2\n      swap1\n      0x00\n      mstore\n      keccak256(0x00, 0x20)\n      swap1\n    tag_67:\n      dup2\n      sload\n      dup2\n      mstore\n      swap1\n      0x01\n      add\n      swap1\n      0x20\n      add\n      dup1\n      dup4\n      gt\n      tag_67\n      jumpi\n      dup3\n      swap1\n      sub\n      0x1f\n      and\n      dup3\n      add\n      swap2\n    tag_65:\n      pop\n      pop\n      pop\n      pop\n      pop\n      swap1\n      dup1\n      0x01\n      add\n      0x00\n      swap1\n      sload\n      swap1\n      0x0100\n      exp\n      swap1\n      div\n      0xff\n      and\n      swap1\n      pop\n      dup3\n      jump\t// out\n        /* \"9. Data Locations/dataLocations.sol\":719:808  function getStudents() public view  returns(User memory){... */\n    tag_34:\n        /* \"9. Data Locations/dataLocations.sol\":763:774  User memory */\n      tag_68\n      tag_45\n      jump\t// in\n    tag_68:\n        /* \"9. Data Locations/dataLocations.sol\":793:801  students */\n      0x02\n        /* \"9. Data Locations/dataLocations.sol\":785:801  return  students */\n      mload(0x40)\n      dup1\n      0x40\n      add\n      0x40\n      mstore\n      swap1\n      dup2\n      0x00\n      dup3\n      add\n      dup1\n      sload\n      tag_70\n      swap1\n      tag_48\n      jump\t// in\n    tag_70:\n      dup1\n      0x1f\n      add\n      0x20\n      dup1\n      swap2\n      div\n      mul\n      0x20\n      add\n      mload(0x40)\n      swap1\n      dup2\n      add\n      0x40\n      mstore\n      dup1\n      swap3\n      swap2\n      swap1\n      dup2\n      dup2\n      mstore\n      0x20\n      add\n      dup3\n      dup1\n      sload\n      tag_71\n      swap1\n      tag_48\n      jump\t// in\n    tag_71:\n      dup1\n      iszero\n      tag_72\n      jumpi\n      dup1\n      0x1f\n      lt\n      tag_73\n      jumpi\n      0x0100\n      dup1\n      dup4\n      sload\n      div\n      mul\n      dup4\n      mstore\n      swap2\n      0x20\n      add\n      swap2\n      jump(tag_72)\n    tag_73:\n      dup3\n      add\n      swap2\n      swap1\n      0x00\n      mstore\n      keccak256(0x00, 0x20)\n      swap1\n    tag_74:\n      dup2\n      sload\n      dup2\n      mstore\n      swap1\n      0x01\n      add\n      swap1\n      0x20\n      add\n      dup1\n      dup4\n      gt\n      tag_74\n      jumpi\n      dup3\n      swap1\n      sub\n      0x1f\n      and\n      dup3\n      add\n      swap2\n    tag_72:\n      pop\n      pop\n      pop\n      pop\n      pop\n      dup2\n      mstore\n      0x20\n      add\n      0x01\n      dup3\n      add\n      0x00\n      swap1\n      sload\n      swap1\n      0x0100\n      exp\n      swap1\n      div\n      0xff\n      and\n      0xff\n      and\n      0xff\n      and\n      dup2\n      mstore\n      pop\n      pop\n      swap1\n      pop\n        /* \"9. Data Locations/dataLocations.sol\":719:808  function getStudents() public view  returns(User memory){... */\n      swap1\n      jump\t// out\n        /* \"9. Data Locations/dataLocations.sol\":234:431  function  users() public view returns(User memory) {... */\n    tag_37:\n        /* \"9. Data Locations/dataLocations.sol\":272:283  User memory */\n      tag_75\n      tag_45\n      jump\t// in\n    tag_75:\n        /* \"9. Data Locations/dataLocations.sol\":295:313  User memory parent */\n      0x00\n        /* \"9. Data Locations/dataLocations.sol\":316:324  employes */\n      0x00\n        /* \"9. Data Locations/dataLocations.sol\":295:324  User memory parent = employes */\n      mload(0x40)\n      dup1\n      0x40\n      add\n      0x40\n      mstore\n      swap1\n      dup2\n      0x00\n      dup3\n      add\n      dup1\n      sload\n      tag_77\n      swap1\n      tag_48\n      jump\t// in\n    tag_77:\n      dup1\n      0x1f\n      add\n      0x20\n      dup1\n      swap2\n      div\n      mul\n      0x20\n      add\n      mload(0x40)\n      swap1\n      dup2\n      add\n      0x40\n      mstore\n      dup1\n      swap3\n      swap2\n      swap1\n      dup2\n      dup2\n      mstore\n      0x20\n      add\n      dup3\n      dup1\n      sload\n      tag_78\n      swap1\n      tag_48\n      jump\t// in\n    tag_78:\n      dup1\n      iszero\n      tag_79\n      jumpi\n      dup1\n      0x1f\n      lt\n      tag_80\n      jumpi\n      0x0100\n      dup1\n      dup4\n      sload\n      div\n      mul\n      dup4\n      mstore\n      swap2\n      0x20\n      add\n      swap2\n      jump(tag_79)\n    tag_80:\n      dup3\n      add\n      swap2\n      swap1\n      0x00\n      mstore\n      keccak256(0x00, 0x20)\n      swap1\n    tag_81:\n      dup2\n      sload\n      dup2\n      mstore\n      swap1\n      0x01\n      add\n      swap1\n      0x20\n      add\n      dup1\n      dup4\n      gt\n      tag_81\n      jumpi\n      dup3\n      swap1\n      sub\n      0x1f\n      and\n      dup3\n      add\n      swap2\n    tag_79:\n      pop\n      pop\n      pop\n      pop\n      pop\n      dup2\n      mstore\n      0x20\n      add\n      0x01\n      dup3\n      add\n      0x00\n      swap1\n      sload\n      swap1\n      0x0100\n      exp\n      swap1\n      div\n      0xff\n      and\n      0xff\n      and\n      0xff\n      and\n      dup2\n      mstore\n      pop\n      pop\n      swap1\n      pop\n        /* \"9. Data Locations/dataLocations.sol\":335:374  parent.name = \"Bapak Fardan Nurhidayat\" */\n      mload(0x40)\n      dup1\n      0x40\n      add\n      0x40\n      mstore\n      dup1\n      0x17\n      dup2\n      mstore\n      0x20\n      add\n      0x426170616b2046617264616e204e757268696461796174000000000000000000\n      dup2\n      mstore\n      pop\n        /* \"9. Data Locations/dataLocations.sol\":335:341  parent */\n      dup2\n        /* \"9. Data Locations/dataLocations.sol\":335:346  parent.name */\n      0x00\n      add\n        /* \"9. Data Locations/dataLocations.sol\":335:374  parent.name = \"Bapak Fardan Nurhidayat\" */\n      dup2\n      swap1\n      mstore\n      pop\n        /* \"9. Data Locations/dataLocations.sol\":398:400  23 */\n      0x17\n        /* \"9. Data Locations/dataLocations.sol\":385:391  parent */\n      dup2\n        /* \"9. Data Locations/dataLocations.sol\":385:395  parent.age */\n      0x20\n      add\n        /* \"9. Data Locations/dataLocations.sol\":385:400  parent.age = 23 */\n      swap1\n      0xff\n      and\n      swap1\n      dup2\n      0xff\n      and\n      dup2\n      mstore\n      pop\n      pop\n        /* \"9. Data Locations/dataLocations.sol\":418:424  parent */\n      dup1\n        /* \"9. Data Locations/dataLocations.sol\":411:424  return parent */\n      swap2\n      pop\n      pop\n        /* \"9. Data Locations/dataLocations.sol\":234:431  function  users() public view returns(User memory) {... */\n      swap1\n      jump\t// out\n    tag_45:\n      mload(0x40)\n      dup1\n      0x40\n      add\n      0x40\n      mstore\n      dup1\n      0x60\n      dup2\n      mstore\n      0x20\n      add\n      and(0xff, 0x00)\n      dup2\n      mstore\n      pop\n      swap1\n      jump\t// out\n        /* \"#utility.yul\":7:82   */\n    tag_82:\n        /* \"#utility.yul\":40:46   */\n      0x00\n        /* \"#utility.yul\":73:75   */\n      0x40\n        /* \"#utility.yul\":67:76   */\n      mload\n        /* \"#utility.yul\":57:76   */\n      swap1\n      pop\n        /* \"#utility.yul\":7:82   */\n      swap1\n      jump\t// out\n        /* \"#utility.yul\":88:205   */\n    tag_83:\n        /* \"#utility.yul\":197:198   */\n      0x00\n        /* \"#utility.yul\":194:195   */\n      0x00\n        /* \"#utility.yul\":187:199   */\n      revert\n        /* \"#utility.yul\":211:328   */\n    tag_84:\n        /* \"#utility.yul\":320:321   */\n      0x00\n        /* \"#utility.yul\":317:318   */\n      0x00\n        /* \"#utility.yul\":310:322   */\n      revert\n        /* \"#utility.yul\":334:451   */\n    tag_85:\n        /* \"#utility.yul\":443:444   */\n      0x00\n        /* \"#utility.yul\":440:441   */\n      0x00\n        /* \"#utility.yul\":433:445   */\n      revert\n        /* \"#utility.yul\":457:574   */\n    tag_86:\n        /* \"#utility.yul\":566:567   */\n      0x00\n        /* \"#utility.yul\":563:564   */\n      0x00\n        /* \"#utility.yul\":556:568   */\n      revert\n        /* \"#utility.yul\":580:682   */\n    tag_87:\n        /* \"#utility.yul\":621:627   */\n      0x00\n        /* \"#utility.yul\":672:674   */\n      0x1f\n        /* \"#utility.yul\":668:675   */\n      not\n        /* \"#utility.yul\":663:665   */\n      0x1f\n        /* \"#utility.yul\":656:661   */\n      dup4\n        /* \"#utility.yul\":652:666   */\n      add\n        /* \"#utility.yul\":648:676   */\n      and\n        /* \"#utility.yul\":638:676   */\n      swap1\n      pop\n        /* \"#utility.yul\":580:682   */\n      swap2\n      swap1\n      pop\n      jump\t// out\n        /* \"#utility.yul\":688:868   */\n    tag_88:\n        /* \"#utility.yul\":736:813   */\n      0x4e487b7100000000000000000000000000000000000000000000000000000000\n        /* \"#utility.yul\":733:734   */\n      0x00\n        /* \"#utility.yul\":726:814   */\n      mstore\n        /* \"#utility.yul\":833:837   */\n      0x41\n        /* \"#utility.yul\":830:831   */\n      0x04\n        /* \"#utility.yul\":823:838   */\n      mstore\n        /* \"#utility.yul\":857:861   */\n      0x24\n        /* \"#utility.yul\":854:855   */\n      0x00\n        /* \"#utility.yul\":847:862   */\n      revert\n        /* \"#utility.yul\":874:1155   */\n    tag_89:\n        /* \"#utility.yul\":957:984   */\n      tag_133\n        /* \"#utility.yul\":979:983   */\n      dup3\n        /* \"#utility.yul\":957:984   */\n      tag_87\n      jump\t// in\n    tag_133:\n        /* \"#utility.yul\":949:955   */\n      dup2\n        /* \"#utility.yul\":945:985   */\n      add\n        /* \"#utility.yul\":1087:1093   */\n      dup2\n        /* \"#utility.yul\":1075:1085   */\n      dup2\n        /* \"#utility.yul\":1072:1094   */\n      lt\n        /* \"#utility.yul\":1051:1069   */\n      0xffffffffffffffff\n        /* \"#utility.yul\":1039:1049   */\n      dup3\n        /* \"#utility.yul\":1036:1070   */\n      gt\n        /* \"#utility.yul\":1033:1095   */\n      or\n        /* \"#utility.yul\":1030:1118   */\n      iszero\n      tag_134\n      jumpi\n        /* \"#utility.yul\":1098:1116   */\n      tag_135\n      tag_88\n      jump\t// in\n    tag_135:\n        /* \"#utility.yul\":1030:1118   */\n    tag_134:\n        /* \"#utility.yul\":1138:1148   */\n      dup1\n        /* \"#utility.yul\":1134:1136   */\n      0x40\n        /* \"#utility.yul\":1127:1149   */\n      mstore\n        /* \"#utility.yul\":917:1155   */\n      pop\n        /* \"#utility.yul\":874:1155   */\n      pop\n      pop\n      jump\t// out\n        /* \"#utility.yul\":1161:1290   */\n    tag_90:\n        /* \"#utility.yul\":1195:1201   */\n      0x00\n        /* \"#utility.yul\":1222:1242   */\n      tag_137\n      tag_82\n      jump\t// in\n    tag_137:\n        /* \"#utility.yul\":1212:1242   */\n      swap1\n      pop\n        /* \"#utility.yul\":1251:1284   */\n      tag_138\n        /* \"#utility.yul\":1279:1283   */\n      dup3\n        /* \"#utility.yul\":1271:1277   */\n      dup3\n        /* \"#utility.yul\":1251:1284   */\n      tag_89\n      jump\t// in\n    tag_138:\n        /* \"#utility.yul\":1161:1290   */\n      swap2\n      swap1\n      pop\n      jump\t// out\n        /* \"#utility.yul\":1296:1604   */\n    tag_91:\n        /* \"#utility.yul\":1358:1362   */\n      0x00\n        /* \"#utility.yul\":1448:1466   */\n      0xffffffffffffffff\n        /* \"#utility.yul\":1440:1446   */\n      dup3\n        /* \"#utility.yul\":1437:1467   */\n      gt\n        /* \"#utility.yul\":1434:1490   */\n      iszero\n      tag_140\n      jumpi\n        /* \"#utility.yul\":1470:1488   */\n      tag_141\n      tag_88\n      jump\t// in\n    tag_141:\n        /* \"#utility.yul\":1434:1490   */\n    tag_140:\n        /* \"#utility.yul\":1508:1537   */\n      tag_142\n        /* \"#utility.yul\":1530:1536   */\n      dup3\n        /* \"#utility.yul\":1508:1537   */\n      tag_87\n      jump\t// in\n    tag_142:\n        /* \"#utility.yul\":1500:1537   */\n      swap1\n      pop\n        /* \"#utility.yul\":1592:1596   */\n      0x20\n        /* \"#utility.yul\":1586:1590   */\n      dup2\n        /* \"#utility.yul\":1582:1597   */\n      add\n        /* \"#utility.yul\":1574:1597   */\n      swap1\n      pop\n        /* \"#utility.yul\":1296:1604   */\n      swap2\n      swap1\n      pop\n      jump\t// out\n        /* \"#utility.yul\":1610:1758   */\n    tag_92:\n        /* \"#utility.yul\":1708:1714   */\n      dup3\n        /* \"#utility.yul\":1703:1706   */\n      dup2\n        /* \"#utility.yul\":1698:1701   */\n      dup4\n        /* \"#utility.yul\":1685:1715   */\n      calldatacopy\n        /* \"#utility.yul\":1749:1750   */\n      0x00\n        /* \"#utility.yul\":1740:1746   */\n      dup4\n        /* \"#utility.yul\":1735:1738   */\n      dup4\n        /* \"#utility.yul\":1731:1747   */\n      add\n        /* \"#utility.yul\":1724:1751   */\n      mstore\n        /* \"#utility.yul\":1610:1758   */\n      pop\n      pop\n      pop\n      jump\t// out\n        /* \"#utility.yul\":1764:2189   */\n    tag_93:\n        /* \"#utility.yul\":1842:1847   */\n      0x00\n        /* \"#utility.yul\":1867:1933   */\n      tag_145\n        /* \"#utility.yul\":1883:1932   */\n      tag_146\n        /* \"#utility.yul\":1925:1931   */\n      dup5\n        /* \"#utility.yul\":1883:1932   */\n      tag_91\n      jump\t// in\n    tag_146:\n        /* \"#utility.yul\":1867:1933   */\n      tag_90\n      jump\t// in\n    tag_145:\n        /* \"#utility.yul\":1858:1933   */\n      swap1\n      pop\n        /* \"#utility.yul\":1956:1962   */\n      dup3\n        /* \"#utility.yul\":1949:1954   */\n      dup2\n        /* \"#utility.yul\":1942:1963   */\n      mstore\n        /* \"#utility.yul\":1994:1998   */\n      0x20\n        /* \"#utility.yul\":1987:1992   */\n      dup2\n        /* \"#utility.yul\":1983:1999   */\n      add\n        /* \"#utility.yul\":2032:2035   */\n      dup5\n        /* \"#utility.yul\":2023:2029   */\n      dup5\n        /* \"#utility.yul\":2018:2021   */\n      dup5\n        /* \"#utility.yul\":2014:2030   */\n      add\n        /* \"#utility.yul\":2011:2036   */\n      gt\n        /* \"#utility.yul\":2008:2120   */\n      iszero\n      tag_147\n      jumpi\n        /* \"#utility.yul\":2039:2118   */\n      tag_148\n      tag_86\n      jump\t// in\n    tag_148:\n        /* \"#utility.yul\":2008:2120   */\n    tag_147:\n        /* \"#utility.yul\":2129:2183   */\n      tag_149\n        /* \"#utility.yul\":2176:2182   */\n      dup5\n        /* \"#utility.yul\":2171:2174   */\n      dup3\n        /* \"#utility.yul\":2166:2169   */\n      dup6\n        /* \"#utility.yul\":2129:2183   */\n      tag_92\n      jump\t// in\n    tag_149:\n        /* \"#utility.yul\":1848:2189   */\n      pop\n        /* \"#utility.yul\":1764:2189   */\n      swap4\n      swap3\n      pop\n      pop\n      pop\n      jump\t// out\n        /* \"#utility.yul\":2209:2549   */\n    tag_94:\n        /* \"#utility.yul\":2265:2270   */\n      0x00\n        /* \"#utility.yul\":2314:2317   */\n      dup3\n        /* \"#utility.yul\":2307:2311   */\n      0x1f\n        /* \"#utility.yul\":2299:2305   */\n      dup4\n        /* \"#utility.yul\":2295:2312   */\n      add\n        /* \"#utility.yul\":2291:2318   */\n      slt\n        /* \"#utility.yul\":2281:2403   */\n      tag_151\n      jumpi\n        /* \"#utility.yul\":2322:2401   */\n      tag_152\n      tag_85\n      jump\t// in\n    tag_152:\n        /* \"#utility.yul\":2281:2403   */\n    tag_151:\n        /* \"#utility.yul\":2439:2445   */\n      dup2\n        /* \"#utility.yul\":2426:2446   */\n      calldataload\n        /* \"#utility.yul\":2464:2543   */\n      tag_153\n        /* \"#utility.yul\":2539:2542   */\n      dup5\n        /* \"#utility.yul\":2531:2537   */\n      dup3\n        /* \"#utility.yul\":2524:2528   */\n      0x20\n        /* \"#utility.yul\":2516:2522   */\n      dup7\n        /* \"#utility.yul\":2512:2529   */\n      add\n        /* \"#utility.yul\":2464:2543   */\n      tag_93\n      jump\t// in\n    tag_153:\n        /* \"#utility.yul\":2455:2543   */\n      swap2\n      pop\n        /* \"#utility.yul\":2271:2549   */\n      pop\n        /* \"#utility.yul\":2209:2549   */\n      swap3\n      swap2\n      pop\n      pop\n      jump\t// out\n        /* \"#utility.yul\":2555:2641   */\n    tag_95:\n        /* \"#utility.yul\":2590:2597   */\n      0x00\n        /* \"#utility.yul\":2630:2634   */\n      0xff\n        /* \"#utility.yul\":2623:2628   */\n      dup3\n        /* \"#utility.yul\":2619:2635   */\n      and\n        /* \"#utility.yul\":2608:2635   */\n      swap1\n      pop\n        /* \"#utility.yul\":2555:2641   */\n      swap2\n      swap1\n      pop\n      jump\t// out\n        /* \"#utility.yul\":2647:2765   */\n    tag_96:\n        /* \"#utility.yul\":2718:2740   */\n      tag_156\n        /* \"#utility.yul\":2734:2739   */\n      dup2\n        /* \"#utility.yul\":2718:2740   */\n      tag_95\n      jump\t// in\n    tag_156:\n        /* \"#utility.yul\":2711:2716   */\n      dup2\n        /* \"#utility.yul\":2708:2741   */\n      eq\n        /* \"#utility.yul\":2698:2759   */\n      tag_157\n      jumpi\n        /* \"#utility.yul\":2755:2756   */\n      0x00\n        /* \"#utility.yul\":2752:2753   */\n      0x00\n        /* \"#utility.yul\":2745:2757   */\n      revert\n        /* \"#utility.yul\":2698:2759   */\n    tag_157:\n        /* \"#utility.yul\":2647:2765   */\n      pop\n      jump\t// out\n        /* \"#utility.yul\":2771:2906   */\n    tag_97:\n        /* \"#utility.yul\":2815:2820   */\n      0x00\n        /* \"#utility.yul\":2853:2859   */\n      dup2\n        /* \"#utility.yul\":2840:2860   */\n      calldataload\n        /* \"#utility.yul\":2831:2860   */\n      swap1\n      pop\n        /* \"#utility.yul\":2869:2900   */\n      tag_159\n        /* \"#utility.yul\":2894:2899   */\n      dup2\n        /* \"#utility.yul\":2869:2900   */\n      tag_96\n      jump\t// in\n    tag_159:\n        /* \"#utility.yul\":2771:2906   */\n      swap3\n      swap2\n      pop\n      pop\n      jump\t// out\n        /* \"#utility.yul\":2912:3562   */\n    tag_14:\n        /* \"#utility.yul\":2988:2994   */\n      0x00\n        /* \"#utility.yul\":2996:3002   */\n      0x00\n        /* \"#utility.yul\":3045:3047   */\n      0x40\n        /* \"#utility.yul\":3033:3042   */\n      dup4\n        /* \"#utility.yul\":3024:3031   */\n      dup6\n        /* \"#utility.yul\":3020:3043   */\n      sub\n        /* \"#utility.yul\":3016:3048   */\n      slt\n        /* \"#utility.yul\":3013:3132   */\n      iszero\n      tag_161\n      jumpi\n        /* \"#utility.yul\":3051:3130   */\n      tag_162\n      tag_83\n      jump\t// in\n    tag_162:\n        /* \"#utility.yul\":3013:3132   */\n    tag_161:\n        /* \"#utility.yul\":3199:3200   */\n      0x00\n        /* \"#utility.yul\":3188:3197   */\n      dup4\n        /* \"#utility.yul\":3184:3201   */\n      add\n        /* \"#utility.yul\":3171:3202   */\n      calldataload\n        /* \"#utility.yul\":3229:3247   */\n      0xffffffffffffffff\n        /* \"#utility.yul\":3221:3227   */\n      dup2\n        /* \"#utility.yul\":3218:3248   */\n      gt\n        /* \"#utility.yul\":3215:3332   */\n      iszero\n      tag_163\n      jumpi\n        /* \"#utility.yul\":3251:3330   */\n      tag_164\n      tag_84\n      jump\t// in\n    tag_164:\n        /* \"#utility.yul\":3215:3332   */\n    tag_163:\n        /* \"#utility.yul\":3356:3419   */\n      tag_165\n        /* \"#utility.yul\":3411:3418   */\n      dup6\n        /* \"#utility.yul\":3402:3408   */\n      dup3\n        /* \"#utility.yul\":3391:3400   */\n      dup7\n        /* \"#utility.yul\":3387:3409   */\n      add\n        /* \"#utility.yul\":3356:3419   */\n      tag_94\n      jump\t// in\n    tag_165:\n        /* \"#utility.yul\":3346:3419   */\n      swap3\n      pop\n        /* \"#utility.yul\":3142:3429   */\n      pop\n        /* \"#utility.yul\":3468:3470   */\n      0x20\n        /* \"#utility.yul\":3494:3545   */\n      tag_166\n        /* \"#utility.yul\":3537:3544   */\n      dup6\n        /* \"#utility.yul\":3528:3534   */\n      dup3\n        /* \"#utility.yul\":3517:3526   */\n      dup7\n        /* \"#utility.yul\":3513:3535   */\n      add\n        /* \"#utility.yul\":3494:3545   */\n      tag_97\n      jump\t// in\n    tag_166:\n        /* \"#utility.yul\":3484:3545   */\n      swap2\n      pop\n        /* \"#utility.yul\":3439:3555   */\n      pop\n        /* \"#utility.yul\":2912:3562   */\n      swap3\n      pop\n      swap3\n      swap1\n      pop\n      jump\t// out\n        /* \"#utility.yul\":3568:3667   */\n    tag_98:\n        /* \"#utility.yul\":3620:3626   */\n      0x00\n        /* \"#utility.yul\":3654:3659   */\n      dup2\n        /* \"#utility.yul\":3648:3660   */\n      mload\n        /* \"#utility.yul\":3638:3660   */\n      swap1\n      pop\n        /* \"#utility.yul\":3568:3667   */\n      swap2\n      swap1\n      pop\n      jump\t// out\n        /* \"#utility.yul\":3673:3832   */\n    tag_99:\n        /* \"#utility.yul\":3747:3758   */\n      0x00\n        /* \"#utility.yul\":3781:3787   */\n      dup3\n        /* \"#utility.yul\":3776:3779   */\n      dup3\n        /* \"#utility.yul\":3769:3788   */\n      mstore\n        /* \"#utility.yul\":3821:3825   */\n      0x20\n        /* \"#utility.yul\":3816:3819   */\n      dup3\n        /* \"#utility.yul\":3812:3826   */\n      add\n        /* \"#utility.yul\":3797:3826   */\n      swap1\n      pop\n        /* \"#utility.yul\":3673:3832   */\n      swap3\n      swap2\n      pop\n      pop\n      jump\t// out\n        /* \"#utility.yul\":3838:3977   */\n    tag_100:\n        /* \"#utility.yul\":3927:3933   */\n      dup3\n        /* \"#utility.yul\":3922:3925   */\n      dup2\n        /* \"#utility.yul\":3917:3920   */\n      dup4\n        /* \"#utility.yul\":3911:3934   */\n      mcopy\n        /* \"#utility.yul\":3968:3969   */\n      0x00\n        /* \"#utility.yul\":3959:3965   */\n      dup4\n        /* \"#utility.yul\":3954:3957   */\n      dup4\n        /* \"#utility.yul\":3950:3966   */\n      add\n        /* \"#utility.yul\":3943:3970   */\n      mstore\n        /* \"#utility.yul\":3838:3977   */\n      pop\n      pop\n      pop\n      jump\t// out\n        /* \"#utility.yul\":3983:4340   */\n    tag_101:\n        /* \"#utility.yul\":4061:4064   */\n      0x00\n        /* \"#utility.yul\":4089:4128   */\n      tag_171\n        /* \"#utility.yul\":4122:4127   */\n      dup3\n        /* \"#utility.yul\":4089:4128   */\n      tag_98\n      jump\t// in\n    tag_171:\n        /* \"#utility.yul\":4144:4205   */\n      tag_172\n        /* \"#utility.yul\":4198:4204   */\n      dup2\n        /* \"#utility.yul\":4193:4196   */\n      dup6\n        /* \"#utility.yul\":4144:4205   */\n      tag_99\n      jump\t// in\n    tag_172:\n        /* \"#utility.yul\":4137:4205   */\n      swap4\n      pop\n        /* \"#utility.yul\":4214:4279   */\n      tag_173\n        /* \"#utility.yul\":4272:4278   */\n      dup2\n        /* \"#utility.yul\":4267:4270   */\n      dup6\n        /* \"#utility.yul\":4260:4264   */\n      0x20\n        /* \"#utility.yul\":4253:4258   */\n      dup7\n        /* \"#utility.yul\":4249:4265   */\n      add\n        /* \"#utility.yul\":4214:4279   */\n      tag_100\n      jump\t// in\n    tag_173:\n        /* \"#utility.yul\":4304:4333   */\n      tag_174\n        /* \"#utility.yul\":4326:4332   */\n      dup2\n        /* \"#utility.yul\":4304:4333   */\n      tag_87\n      jump\t// in\n    tag_174:\n        /* \"#utility.yul\":4299:4302   */\n      dup5\n        /* \"#utility.yul\":4295:4334   */\n      add\n        /* \"#utility.yul\":4288:4334   */\n      swap2\n      pop\n        /* \"#utility.yul\":4065:4340   */\n      pop\n        /* \"#utility.yul\":3983:4340   */\n      swap3\n      swap2\n      pop\n      pop\n      jump\t// out\n        /* \"#utility.yul\":4346:4448   */\n    tag_102:\n        /* \"#utility.yul\":4419:4441   */\n      tag_176\n        /* \"#utility.yul\":4435:4440   */\n      dup2\n        /* \"#utility.yul\":4419:4441   */\n      tag_95\n      jump\t// in\n    tag_176:\n        /* \"#utility.yul\":4414:4417   */\n      dup3\n        /* \"#utility.yul\":4407:4442   */\n      mstore\n        /* \"#utility.yul\":4346:4448   */\n      pop\n      pop\n      jump\t// out\n        /* \"#utility.yul\":4516:5105   */\n    tag_103:\n        /* \"#utility.yul\":4623:4626   */\n      0x00\n        /* \"#utility.yul\":4659:4663   */\n      0x40\n        /* \"#utility.yul\":4654:4657   */\n      dup4\n        /* \"#utility.yul\":4650:4664   */\n      add\n        /* \"#utility.yul\":4746:4750   */\n      0x00\n        /* \"#utility.yul\":4739:4744   */\n      dup4\n        /* \"#utility.yul\":4735:4751   */\n      add\n        /* \"#utility.yul\":4729:4752   */\n      mload\n        /* \"#utility.yul\":4799:4802   */\n      dup5\n        /* \"#utility.yul\":4793:4797   */\n      dup3\n        /* \"#utility.yul\":4789:4803   */\n      sub\n        /* \"#utility.yul\":4782:4786   */\n      0x00\n        /* \"#utility.yul\":4777:4780   */\n      dup7\n        /* \"#utility.yul\":4773:4787   */\n      add\n        /* \"#utility.yul\":4766:4804   */\n      mstore\n        /* \"#utility.yul\":4825:4898   */\n      tag_178\n        /* \"#utility.yul\":4893:4897   */\n      dup3\n        /* \"#utility.yul\":4879:4891   */\n      dup3\n        /* \"#utility.yul\":4825:4898   */\n      tag_101\n      jump\t// in\n    tag_178:\n        /* \"#utility.yul\":4817:4898   */\n      swap2\n      pop\n        /* \"#utility.yul\":4674:4909   */\n      pop\n        /* \"#utility.yul\":4990:4994   */\n      0x20\n        /* \"#utility.yul\":4983:4988   */\n      dup4\n        /* \"#utility.yul\":4979:4995   */\n      add\n        /* \"#utility.yul\":4973:4996   */\n      mload\n        /* \"#utility.yul\":5009:5068   */\n      tag_179\n        /* \"#utility.yul\":5062:5066   */\n      0x20\n        /* \"#utility.yul\":5057:5060   */\n      dup7\n        /* \"#utility.yul\":5053:5067   */\n      add\n        /* \"#utility.yul\":5039:5051   */\n      dup3\n        /* \"#utility.yul\":5009:5068   */\n      tag_102\n      jump\t// in\n    tag_179:\n        /* \"#utility.yul\":4919:5078   */\n      pop\n        /* \"#utility.yul\":5095:5099   */\n      dup1\n        /* \"#utility.yul\":5088:5099   */\n      swap2\n      pop\n        /* \"#utility.yul\":4628:5105   */\n      pop\n        /* \"#utility.yul\":4516:5105   */\n      swap3\n      swap2\n      pop\n      pop\n      jump\t// out\n        /* \"#utility.yul\":5111:5460   */\n    tag_22:\n        /* \"#utility.yul\":5242:5246   */\n      0x00\n        /* \"#utility.yul\":5280:5282   */\n      0x20\n        /* \"#utility.yul\":5269:5278   */\n      dup3\n        /* \"#utility.yul\":5265:5283   */\n      add\n        /* \"#utility.yul\":5257:5283   */\n      swap1\n      pop\n        /* \"#utility.yul\":5329:5338   */\n      dup2\n        /* \"#utility.yul\":5323:5327   */\n      dup2\n        /* \"#utility.yul\":5319:5339   */\n      sub\n        /* \"#utility.yul\":5315:5316   */\n      0x00\n        /* \"#utility.yul\":5304:5313   */\n      dup4\n        /* \"#utility.yul\":5300:5317   */\n      add\n        /* \"#utility.yul\":5293:5340   */\n      mstore\n        /* \"#utility.yul\":5357:5453   */\n      tag_181\n        /* \"#utility.yul\":5448:5452   */\n      dup2\n        /* \"#utility.yul\":5439:5445   */\n      dup5\n        /* \"#utility.yul\":5357:5453   */\n      tag_103\n      jump\t// in\n    tag_181:\n        /* \"#utility.yul\":5349:5453   */\n      swap1\n      pop\n        /* \"#utility.yul\":5111:5460   */\n      swap3\n      swap2\n      pop\n      pop\n      jump\t// out\n        /* \"#utility.yul\":5466:5635   */\n    tag_104:\n        /* \"#utility.yul\":5550:5561   */\n      0x00\n        /* \"#utility.yul\":5584:5590   */\n      dup3\n        /* \"#utility.yul\":5579:5582   */\n      dup3\n        /* \"#utility.yul\":5572:5591   */\n      mstore\n        /* \"#utility.yul\":5624:5628   */\n      0x20\n        /* \"#utility.yul\":5619:5622   */\n      dup3\n        /* \"#utility.yul\":5615:5629   */\n      add\n        /* \"#utility.yul\":5600:5629   */\n      swap1\n      pop\n        /* \"#utility.yul\":5466:5635   */\n      swap3\n      swap2\n      pop\n      pop\n      jump\t// out\n        /* \"#utility.yul\":5641:6018   */\n    tag_105:\n        /* \"#utility.yul\":5729:5732   */\n      0x00\n        /* \"#utility.yul\":5757:5796   */\n      tag_184\n        /* \"#utility.yul\":5790:5795   */\n      dup3\n        /* \"#utility.yul\":5757:5796   */\n      tag_98\n      jump\t// in\n    tag_184:\n        /* \"#utility.yul\":5812:5883   */\n      tag_185\n        /* \"#utility.yul\":5876:5882   */\n      dup2\n        /* \"#utility.yul\":5871:5874   */\n      dup6\n        /* \"#utility.yul\":5812:5883   */\n      tag_104\n      jump\t// in\n    tag_185:\n        /* \"#utility.yul\":5805:5883   */\n      swap4\n      pop\n        /* \"#utility.yul\":5892:5957   */\n      tag_186\n        /* \"#utility.yul\":5950:5956   */\n      dup2\n        /* \"#utility.yul\":5945:5948   */\n      dup6\n        /* \"#utility.yul\":5938:5942   */\n      0x20\n        /* \"#utility.yul\":5931:5936   */\n      dup7\n        /* \"#utility.yul\":5927:5943   */\n      add\n        /* \"#utility.yul\":5892:5957   */\n      tag_100\n      jump\t// in\n    tag_186:\n        /* \"#utility.yul\":5982:6011   */\n      tag_187\n        /* \"#utility.yul\":6004:6010   */\n      dup2\n        /* \"#utility.yul\":5982:6011   */\n      tag_87\n      jump\t// in\n    tag_187:\n        /* \"#utility.yul\":5977:5980   */\n      dup5\n        /* \"#utility.yul\":5973:6012   */\n      add\n        /* \"#utility.yul\":5966:6012   */\n      swap2\n      pop\n        /* \"#utility.yul\":5733:6018   */\n      pop\n        /* \"#utility.yul\":5641:6018   */\n      swap3\n      swap2\n      pop\n      pop\n      jump\t// out\n        /* \"#utility.yul\":6024:6136   */\n    tag_106:\n        /* \"#utility.yul\":6107:6129   */\n      tag_189\n        /* \"#utility.yul\":6123:6128   */\n      dup2\n        /* \"#utility.yul\":6107:6129   */\n      tag_95\n      jump\t// in\n    tag_189:\n        /* \"#utility.yul\":6102:6105   */\n      dup3\n        /* \"#utility.yul\":6095:6130   */\n      mstore\n        /* \"#utility.yul\":6024:6136   */\n      pop\n      pop\n      jump\t// out\n        /* \"#utility.yul\":6142:6557   */\n    tag_26:\n        /* \"#utility.yul\":6279:6283   */\n      0x00\n        /* \"#utility.yul\":6317:6319   */\n      0x40\n        /* \"#utility.yul\":6306:6315   */\n      dup3\n        /* \"#utility.yul\":6302:6320   */\n      add\n        /* \"#utility.yul\":6294:6320   */\n      swap1\n      pop\n        /* \"#utility.yul\":6366:6375   */\n      dup2\n        /* \"#utility.yul\":6360:6364   */\n      dup2\n        /* \"#utility.yul\":6356:6376   */\n      sub\n        /* \"#utility.yul\":6352:6353   */\n      0x00\n        /* \"#utility.yul\":6341:6350   */\n      dup4\n        /* \"#utility.yul\":6337:6354   */\n      add\n        /* \"#utility.yul\":6330:6377   */\n      mstore\n        /* \"#utility.yul\":6394:6472   */\n      tag_191\n        /* \"#utility.yul\":6467:6471   */\n      dup2\n        /* \"#utility.yul\":6458:6464   */\n      dup6\n        /* \"#utility.yul\":6394:6472   */\n      tag_105\n      jump\t// in\n    tag_191:\n        /* \"#utility.yul\":6386:6472   */\n      swap1\n      pop\n        /* \"#utility.yul\":6482:6550   */\n      tag_192\n        /* \"#utility.yul\":6546:6548   */\n      0x20\n        /* \"#utility.yul\":6535:6544   */\n      dup4\n        /* \"#utility.yul\":6531:6549   */\n      add\n        /* \"#utility.yul\":6522:6528   */\n      dup5\n        /* \"#utility.yul\":6482:6550   */\n      tag_106\n      jump\t// in\n    tag_192:\n        /* \"#utility.yul\":6142:6557   */\n      swap4\n      swap3\n      pop\n      pop\n      pop\n      jump\t// out\n        /* \"#utility.yul\":6563:6743   */\n    tag_107:\n        /* \"#utility.yul\":6611:6688   */\n      0x4e487b7100000000000000000000000000000000000000000000000000000000\n        /* \"#utility.yul\":6608:6609   */\n      0x00\n        /* \"#utility.yul\":6601:6689   */\n      mstore\n        /* \"#utility.yul\":6708:6712   */\n      0x22\n        /* \"#utility.yul\":6705:6706   */\n      0x04\n        /* \"#utility.yul\":6698:6713   */\n      mstore\n        /* \"#utility.yul\":6732:6736   */\n      0x24\n        /* \"#utility.yul\":6729:6730   */\n      0x00\n        /* \"#utility.yul\":6722:6737   */\n      revert\n        /* \"#utility.yul\":6749:7069   */\n    tag_48:\n        /* \"#utility.yul\":6793:6799   */\n      0x00\n        /* \"#utility.yul\":6830:6831   */\n      0x02\n        /* \"#utility.yul\":6824:6828   */\n      dup3\n        /* \"#utility.yul\":6820:6832   */\n      div\n        /* \"#utility.yul\":6810:6832   */\n      swap1\n      pop\n        /* \"#utility.yul\":6877:6878   */\n      0x01\n        /* \"#utility.yul\":6871:6875   */\n      dup3\n        /* \"#utility.yul\":6867:6879   */\n      and\n        /* \"#utility.yul\":6898:6916   */\n      dup1\n        /* \"#utility.yul\":6888:6969   */\n      tag_195\n      jumpi\n        /* \"#utility.yul\":6954:6958   */\n      0x7f\n        /* \"#utility.yul\":6946:6952   */\n      dup3\n        /* \"#utility.yul\":6942:6959   */\n      and\n        /* \"#utility.yul\":6932:6959   */\n      swap2\n      pop\n        /* \"#utility.yul\":6888:6969   */\n    tag_195:\n        /* \"#utility.yul\":7016:7018   */\n      0x20\n        /* \"#utility.yul\":7008:7014   */\n      dup3\n        /* \"#utility.yul\":7005:7019   */\n      lt\n        /* \"#utility.yul\":6985:7003   */\n      dup2\n        /* \"#utility.yul\":6982:7020   */\n      sub\n        /* \"#utility.yul\":6979:7063   */\n      tag_196\n      jumpi\n        /* \"#utility.yul\":7035:7053   */\n      tag_197\n      tag_107\n      jump\t// in\n    tag_197:\n        /* \"#utility.yul\":6979:7063   */\n    tag_196:\n        /* \"#utility.yul\":6800:7069   */\n      pop\n        /* \"#utility.yul\":6749:7069   */\n      swap2\n      swap1\n      pop\n      jump\t// out\n        /* \"#utility.yul\":7075:7216   */\n    tag_108:\n        /* \"#utility.yul\":7124:7128   */\n      0x00\n        /* \"#utility.yul\":7147:7150   */\n      dup2\n        /* \"#utility.yul\":7139:7150   */\n      swap1\n      pop\n        /* \"#utility.yul\":7170:7173   */\n      dup2\n        /* \"#utility.yul\":7167:7168   */\n      0x00\n        /* \"#utility.yul\":7160:7174   */\n      mstore\n        /* \"#utility.yul\":7204:7208   */\n      0x20\n        /* \"#utility.yul\":7201:7202   */\n      0x00\n        /* \"#utility.yul\":7191:7209   */\n      keccak256\n        /* \"#utility.yul\":7183:7209   */\n      swap1\n      pop\n        /* \"#utility.yul\":7075:7216   */\n      swap2\n      swap1\n      pop\n      jump\t// out\n        /* \"#utility.yul\":7222:7315   */\n    tag_109:\n        /* \"#utility.yul\":7259:7265   */\n      0x00\n        /* \"#utility.yul\":7306:7308   */\n      0x20\n        /* \"#utility.yul\":7301:7303   */\n      0x1f\n        /* \"#utility.yul\":7294:7299   */\n      dup4\n        /* \"#utility.yul\":7290:7304   */\n      add\n        /* \"#utility.yul\":7286:7309   */\n      div\n        /* \"#utility.yul\":7276:7309   */\n      swap1\n      pop\n        /* \"#utility.yul\":7222:7315   */\n      swap2\n      swap1\n      pop\n      jump\t// out\n        /* \"#utility.yul\":7321:7428   */\n    tag_110:\n        /* \"#utility.yul\":7365:7373   */\n      0x00\n        /* \"#utility.yul\":7415:7420   */\n      dup3\n        /* \"#utility.yul\":7409:7413   */\n      dup3\n        /* \"#utility.yul\":7405:7421   */\n      shl\n        /* \"#utility.yul\":7384:7421   */\n      swap1\n      pop\n        /* \"#utility.yul\":7321:7428   */\n      swap3\n      swap2\n      pop\n      pop\n      jump\t// out\n        /* \"#utility.yul\":7434:7827   */\n    tag_111:\n        /* \"#utility.yul\":7503:7509   */\n      0x00\n        /* \"#utility.yul\":7553:7554   */\n      0x08\n        /* \"#utility.yul\":7541:7551   */\n      dup4\n        /* \"#utility.yul\":7537:7555   */\n      mul\n        /* \"#utility.yul\":7576:7673   */\n      tag_202\n        /* \"#utility.yul\":7606:7672   */\n      0xffffffffffffffffffffffffffffffffffffffffffffffffffffffffffffffff\n        /* \"#utility.yul\":7595:7604   */\n      dup3\n        /* \"#utility.yul\":7576:7673   */\n      tag_110\n      jump\t// in\n    tag_202:\n        /* \"#utility.yul\":7694:7733   */\n      tag_203\n        /* \"#utility.yul\":7724:7732   */\n      dup7\n        /* \"#utility.yul\":7713:7722   */\n      dup4\n        /* \"#utility.yul\":7694:7733   */\n      tag_110\n      jump\t// in\n    tag_203:\n        /* \"#utility.yul\":7682:7733   */\n      swap6\n      pop\n        /* \"#utility.yul\":7766:7770   */\n      dup1\n        /* \"#utility.yul\":7762:7771   */\n      not\n        /* \"#utility.yul\":7755:7760   */\n      dup5\n        /* \"#utility.yul\":7751:7772   */\n      and\n        /* \"#utility.yul\":7742:7772   */\n      swap4\n      pop\n        /* \"#utility.yul\":7815:7819   */\n      dup1\n        /* \"#utility.yul\":7805:7813   */\n      dup7\n        /* \"#utility.yul\":7801:7820   */\n      and\n        /* \"#utility.yul\":7794:7799   */\n      dup5\n        /* \"#utility.yul\":7791:7821   */\n      or\n        /* \"#utility.yul\":7781:7821   */\n      swap3\n      pop\n        /* \"#utility.yul\":7510:7827   */\n      pop\n      pop\n        /* \"#utility.yul\":7434:7827   */\n      swap4\n      swap3\n      pop\n      pop\n      pop\n      jump\t// out\n        /* \"#utility.yul\":7833:7910   */\n    tag_112:\n        /* \"#utility.yul\":7870:7877   */\n      0x00\n        /* \"#utility.yul\":7899:7904   */\n      dup2\n        /* \"#utility.yul\":7888:7904   */\n      swap1\n      pop\n        /* \"#utility.yul\":7833:7910   */\n      swap2\n      swap1\n      pop\n      jump\t// out\n        /* \"#utility.yul\":7916:7976   */\n    tag_113:\n        /* \"#utility.yul\":7944:7947   */\n      0x00\n        /* \"#utility.yul\":7965:7970   */\n      dup2\n        /* \"#utility.yul\":7958:7970   */\n      swap1\n      pop\n        /* \"#utility.yul\":7916:7976   */\n      swap2\n      swap1\n      pop\n      jump\t// out\n        /* \"#utility.yul\":7982:8124   */\n    tag_114:\n        /* \"#utility.yul\":8032:8041   */\n      0x00\n        /* \"#utility.yul\":8065:8118   */\n      tag_207\n        /* \"#utility.yul\":8083:8117   */\n      tag_208\n        /* \"#utility.yul\":8092:8116   */\n      tag_209\n        /* \"#utility.yul\":8110:8115   */\n      dup5\n        /* \"#utility.yul\":8092:8116   */\n      tag_112\n      jump\t// in\n    tag_209:\n        /* \"#utility.yul\":8083:8117   */\n      tag_113\n      jump\t// in\n    tag_208:\n        /* \"#utility.yul\":8065:8118   */\n      tag_112\n      jump\t// in\n    tag_207:\n        /* \"#utility.yul\":8052:8118   */\n      swap1\n      pop\n        /* \"#utility.yul\":7982:8124   */\n      swap2\n      swap1\n      pop\n      jump\t// out\n        /* \"#utility.yul\":8130:8205   */\n    tag_115:\n        /* \"#utility.yul\":8173:8176   */\n      0x00\n        /* \"#utility.yul\":8194:8199   */\n      dup2\n        /* \"#utility.yul\":8187:8199   */\n      swap1\n      pop\n        /* \"#utility.yul\":8130:8205   */\n      swap2\n      swap1\n      pop\n      jump\t// out\n        /* \"#utility.yul\":8211:8480   */\n    tag_116:\n        /* \"#utility.yul\":8321:8360   */\n      tag_212\n        /* \"#utility.yul\":8352:8359   */\n      dup4\n        /* \"#utility.yul\":8321:8360   */\n      tag_114\n      jump\t// in\n    tag_212:\n        /* \"#utility.yul\":8382:8473   */\n      tag_213\n        /* \"#utility.yul\":8431:8472   */\n      tag_214\n        /* \"#utility.yul\":8455:8471   */\n      dup3\n        /* \"#utility.yul\":8431:8472   */\n      tag_115\n      jump\t// in\n    tag_214:\n        /* \"#utility.yul\":8423:8429   */\n      dup5\n        /* \"#utility.yul\":8416:8420   */\n      dup5\n        /* \"#utility.yul\":8410:8421   */\n      sload\n        /* \"#utility.yul\":8382:8473   */\n      tag_111\n      jump\t// in\n    tag_213:\n        /* \"#utility.yul\":8376:8380   */\n      dup3\n        /* \"#utility.yul\":8369:8474   */\n      sstore\n        /* \"#utility.yul\":8287:8480   */\n      pop\n        /* \"#utility.yul\":8211:8480   */\n      pop\n      pop\n      pop\n      jump\t// out\n        /* \"#utility.yul\":8486:8559   */\n    tag_117:\n        /* \"#utility.yul\":8531:8534   */\n      0x00\n        /* \"#utility.yul\":8552:8553   */\n      0x00\n        /* \"#utility.yul\":8545:8553   */\n      swap1\n      pop\n        /* \"#utility.yul\":8486:8559   */\n      swap1\n      jump\t// out\n        /* \"#utility.yul\":8565:8754   */\n    tag_118:\n        /* \"#utility.yul\":8642:8674   */\n      tag_217\n      tag_117\n      jump\t// in\n    tag_217:\n        /* \"#utility.yul\":8683:8748   */\n      tag_218\n        /* \"#utility.yul\":8741:8747   */\n      dup2\n        /* \"#utility.yul\":8733:8739   */\n      dup5\n        /* \"#utility.yul\":8727:8731   */\n      dup5\n        /* \"#utility.yul\":8683:8748   */\n      tag_116\n      jump\t// in\n    tag_218:\n        /* \"#utility.yul\":8618:8754   */\n      pop\n        /* \"#utility.yul\":8565:8754   */\n      pop\n      pop\n      jump\t// out\n        /* \"#utility.yul\":8760:8974   */\n    tag_119:\n        /* \"#utility.yul\":8845:8846   */\n      0x00\n        /* \"#utility.yul\":8830:8968   */\n    tag_220:\n        /* \"#utility.yul\":8855:8864   */\n      dup3\n        /* \"#utility.yul\":8852:8853   */\n      dup2\n        /* \"#utility.yul\":8849:8865   */\n      lt\n        /* \"#utility.yul\":8830:8968   */\n      iszero\n      tag_222\n      jumpi\n        /* \"#utility.yul\":8907:8958   */\n      tag_223\n        /* \"#utility.yul\":8956:8957   */\n      0x00\n        /* \"#utility.yul\":8952:8953   */\n      dup3\n        /* \"#utility.yul\":8941:8950   */\n      dup5\n        /* \"#utility.yul\":8937:8954   */\n      add\n        /* \"#utility.yul\":8907:8958   */\n      tag_118\n      jump\t// in\n    tag_223:\n        /* \"#utility.yul\":8880:8881   */\n      0x01\n        /* \"#utility.yul\":8877:8878   */\n      dup2\n        /* \"#utility.yul\":8873:8882   */\n      add\n        /* \"#utility.yul\":8868:8882   */\n      swap1\n      pop\n        /* \"#utility.yul\":8830:8968   */\n      jump(tag_220)\n    tag_222:\n        /* \"#utility.yul\":8834:8848   */\n      pop\n        /* \"#utility.yul\":8760:8974   */\n      pop\n      pop\n      jump\t// out\n        /* \"#utility.yul\":8980:9726   */\n    tag_120:\n        /* \"#utility.yul\":9081:9083   */\n      0x1f\n        /* \"#utility.yul\":9076:9079   */\n      dup3\n        /* \"#utility.yul\":9073:9084   */\n      gt\n        /* \"#utility.yul\":9070:9719   */\n      iszero\n      tag_225\n      jumpi\n        /* \"#utility.yul\":9110:9120   */\n      dup3\n        /* \"#utility.yul\":9105:9108   */\n      dup3\n        /* \"#utility.yul\":9102:9121   */\n      gt\n        /* \"#utility.yul\":9099:9709   */\n      iszero\n      tag_226\n      jumpi\n        /* \"#utility.yul\":9156:9194   */\n      tag_227\n        /* \"#utility.yul\":9188:9193   */\n      dup2\n        /* \"#utility.yul\":9156:9194   */\n      tag_108\n      jump\t// in\n    tag_227:\n        /* \"#utility.yul\":9231:9253   */\n      tag_228\n        /* \"#utility.yul\":9249:9252   */\n      dup4\n        /* \"#utility.yul\":9231:9253   */\n      tag_109\n      jump\t// in\n    tag_228:\n        /* \"#utility.yul\":9290:9319   */\n      tag_229\n        /* \"#utility.yul\":9308:9318   */\n      dup6\n        /* \"#utility.yul\":9290:9319   */\n      tag_109\n      jump\t// in\n    tag_229:\n        /* \"#utility.yul\":9480:9482   */\n      0x20\n        /* \"#utility.yul\":9468:9478   */\n      dup7\n        /* \"#utility.yul\":9465:9483   */\n      lt\n        /* \"#utility.yul\":9462:9541   */\n      iszero\n      tag_230\n      jumpi\n        /* \"#utility.yul\":9522:9523   */\n      0x00\n        /* \"#utility.yul\":9506:9523   */\n      swap1\n      pop\n        /* \"#utility.yul\":9462:9541   */\n    tag_230:\n        /* \"#utility.yul\":9591:9603   */\n      dup1\n        /* \"#utility.yul\":9581:9589   */\n      dup4\n        /* \"#utility.yul\":9577:9604   */\n      add\n        /* \"#utility.yul\":9621:9695   */\n      tag_231\n        /* \"#utility.yul\":9681:9693   */\n      dup3\n        /* \"#utility.yul\":9667:9679   */\n      dup5\n        /* \"#utility.yul\":9663:9694   */\n      sub\n        /* \"#utility.yul\":9650:9661   */\n      dup3\n        /* \"#utility.yul\":9621:9695   */\n      tag_119\n      jump\t// in\n    tag_231:\n        /* \"#utility.yul\":9122:9709   */\n      pop\n      pop\n      pop\n      pop\n        /* \"#utility.yul\":9099:9709   */\n    tag_226:\n        /* \"#utility.yul\":9070:9719   */\n    tag_225:\n        /* \"#utility.yul\":8980:9726   */\n      pop\n      pop\n      pop\n      jump\t// out\n        /* \"#utility.yul\":9732:9849   */\n    tag_121:\n        /* \"#utility.yul\":9786:9794   */\n      0x00\n        /* \"#utility.yul\":9836:9841   */\n      dup3\n        /* \"#utility.yul\":9830:9834   */\n      dup3\n        /* \"#utility.yul\":9826:9842   */\n      shr\n        /* \"#utility.yul\":9805:9842   */\n      swap1\n      pop\n        /* \"#utility.yul\":9732:9849   */\n      swap3\n      swap2\n      pop\n      pop\n      jump\t// out\n        /* \"#utility.yul\":9855:10024   */\n    tag_122:\n        /* \"#utility.yul\":9899:9905   */\n      0x00\n        /* \"#utility.yul\":9932:9983   */\n      tag_234\n        /* \"#utility.yul\":9980:9981   */\n      0x00\n        /* \"#utility.yul\":9976:9982   */\n      not\n        /* \"#utility.yul\":9968:9973   */\n      dup5\n        /* \"#utility.yul\":9965:9966   */\n      0x08\n        /* \"#utility.yul\":9961:9974   */\n      mul\n        /* \"#utility.yul\":9932:9983   */\n      tag_121\n      jump\t// in\n    tag_234:\n        /* \"#utility.yul\":9928:9984   */\n      not\n        /* \"#utility.yul\":10013:10017   */\n      dup1\n        /* \"#utility.yul\":10007:10011   */\n      dup4\n        /* \"#utility.yul\":10003:10018   */\n      and\n        /* \"#utility.yul\":9993:10018   */\n      swap2\n      pop\n        /* \"#utility.yul\":9906:10024   */\n      pop\n        /* \"#utility.yul\":9855:10024   */\n      swap3\n      swap2\n      pop\n      pop\n      jump\t// out\n        /* \"#utility.yul\":10029:10324   */\n    tag_123:\n        /* \"#utility.yul\":10105:10109   */\n      0x00\n        /* \"#utility.yul\":10251:10280   */\n      tag_236\n        /* \"#utility.yul\":10276:10279   */\n      dup4\n        /* \"#utility.yul\":10270:10274   */\n      dup4\n        /* \"#utility.yul\":10251:10280   */\n      tag_122\n      jump\t// in\n    tag_236:\n        /* \"#utility.yul\":10243:10280   */\n      swap2\n      pop\n        /* \"#utility.yul\":10313:10316   */\n      dup3\n        /* \"#utility.yul\":10310:10311   */\n      0x02\n        /* \"#utility.yul\":10306:10317   */\n      mul\n        /* \"#utility.yul\":10300:10304   */\n      dup3\n        /* \"#utility.yul\":10297:10318   */\n      or\n        /* \"#utility.yul\":10289:10318   */\n      swap1\n      pop\n        /* \"#utility.yul\":10029:10324   */\n      swap3\n      swap2\n      pop\n      pop\n      jump\t// out\n        /* \"#utility.yul\":10329:11724   */\n    tag_41:\n        /* \"#utility.yul\":10446:10483   */\n      tag_238\n        /* \"#utility.yul\":10479:10482   */\n      dup3\n        /* \"#utility.yul\":10446:10483   */\n      tag_98\n      jump\t// in\n    tag_238:\n        /* \"#utility.yul\":10548:10566   */\n      0xffffffffffffffff\n        /* \"#utility.yul\":10540:10546   */\n      dup2\n        /* \"#utility.yul\":10537:10567   */\n      gt\n        /* \"#utility.yul\":10534:10590   */\n      iszero\n      tag_239\n      jumpi\n        /* \"#utility.yul\":10570:10588   */\n      tag_240\n      tag_88\n      jump\t// in\n    tag_240:\n        /* \"#utility.yul\":10534:10590   */\n    tag_239:\n        /* \"#utility.yul\":10614:10652   */\n      tag_241\n        /* \"#utility.yul\":10646:10650   */\n      dup3\n        /* \"#utility.yul\":10640:10651   */\n      sload\n        /* \"#utility.yul\":10614:10652   */\n      tag_48\n      jump\t// in\n    tag_241:\n        /* \"#utility.yul\":10699:10766   */\n      tag_242\n        /* \"#utility.yul\":10759:10765   */\n      dup3\n        /* \"#utility.yul\":10751:10757   */\n      dup3\n        /* \"#utility.yul\":10745:10749   */\n      dup6\n        /* \"#utility.yul\":10699:10766   */\n      tag_120\n      jump\t// in\n    tag_242:\n        /* \"#utility.yul\":10793:10794   */\n      0x00\n        /* \"#utility.yul\":10817:10821   */\n      0x20\n        /* \"#utility.yul\":10804:10821   */\n      swap1\n      pop\n        /* \"#utility.yul\":10849:10851   */\n      0x1f\n        /* \"#utility.yul\":10841:10847   */\n      dup4\n        /* \"#utility.yul\":10838:10852   */\n      gt\n        /* \"#utility.yul\":10866:10867   */\n      0x01\n        /* \"#utility.yul\":10861:11479   */\n      dup2\n      eq\n      tag_244\n      jumpi\n        /* \"#utility.yul\":11523:11524   */\n      0x00\n        /* \"#utility.yul\":11540:11546   */\n      dup5\n        /* \"#utility.yul\":11537:11614   */\n      iszero\n      tag_245\n      jumpi\n        /* \"#utility.yul\":11589:11598   */\n      dup3\n        /* \"#utility.yul\":11584:11587   */\n      dup8\n        /* \"#utility.yul\":11580:11599   */\n      add\n        /* \"#utility.yul\":11574:11600   */\n      mload\n        /* \"#utility.yul\":11565:11600   */\n      swap1\n      pop\n        /* \"#utility.yul\":11537:11614   */\n    tag_245:\n        /* \"#utility.yul\":11640:11707   */\n      tag_246\n        /* \"#utility.yul\":11700:11706   */\n      dup6\n        /* \"#utility.yul\":11693:11698   */\n      dup3\n        /* \"#utility.yul\":11640:11707   */\n      tag_123\n      jump\t// in\n    tag_246:\n        /* \"#utility.yul\":11634:11638   */\n      dup7\n        /* \"#utility.yul\":11627:11708   */\n      sstore\n        /* \"#utility.yul\":11496:11718   */\n      pop\n        /* \"#utility.yul\":10831:11718   */\n      jump(tag_243)\n        /* \"#utility.yul\":10861:11479   */\n    tag_244:\n        /* \"#utility.yul\":10913:10917   */\n      0x1f\n        /* \"#utility.yul\":10909:10918   */\n      not\n        /* \"#utility.yul\":10901:10907   */\n      dup5\n        /* \"#utility.yul\":10897:10919   */\n      and\n        /* \"#utility.yul\":10947:10984   */\n      tag_247\n        /* \"#utility.yul\":10979:10983   */\n      dup7\n        /* \"#utility.yul\":10947:10984   */\n      tag_108\n      jump\t// in\n    tag_247:\n        /* \"#utility.yul\":11006:11007   */\n      0x00\n        /* \"#utility.yul\":11020:11228   */\n    tag_248:\n        /* \"#utility.yul\":11034:11041   */\n      dup3\n        /* \"#utility.yul\":11031:11032   */\n      dup2\n        /* \"#utility.yul\":11028:11042   */\n      lt\n        /* \"#utility.yul\":11020:11228   */\n      iszero\n      tag_250\n      jumpi\n        /* \"#utility.yul\":11113:11122   */\n      dup5\n        /* \"#utility.yul\":11108:11111   */\n      dup10\n        /* \"#utility.yul\":11104:11123   */\n      add\n        /* \"#utility.yul\":11098:11124   */\n      mload\n        /* \"#utility.yul\":11090:11096   */\n      dup3\n        /* \"#utility.yul\":11083:11125   */\n      sstore\n        /* \"#utility.yul\":11164:11165   */\n      0x01\n        /* \"#utility.yul\":11156:11162   */\n      dup3\n        /* \"#utility.yul\":11152:11166   */\n      add\n        /* \"#utility.yul\":11142:11166   */\n      swap2\n      pop\n        /* \"#utility.yul\":11211:11213   */\n      0x20\n        /* \"#utility.yul\":11200:11209   */\n      dup6\n        /* \"#utility.yul\":11196:11214   */\n      add\n        /* \"#utility.yul\":11183:11214   */\n      swap5\n      pop\n        /* \"#utility.yul\":11057:11061   */\n      0x20\n        /* \"#utility.yul\":11054:11055   */\n      dup2\n        /* \"#utility.yul\":11050:11062   */\n      add\n        /* \"#utility.yul\":11045:11062   */\n      swap1\n      pop\n        /* \"#utility.yul\":11020:11228   */\n      jump(tag_248)\n    tag_250:\n        /* \"#utility.yul\":11256:11262   */\n      dup7\n        /* \"#utility.yul\":11247:11254   */\n      dup4\n        /* \"#utility.yul\":11244:11263   */\n      lt\n        /* \"#utility.yul\":11241:11420   */\n      iszero\n      tag_251\n      jumpi\n        /* \"#utility.yul\":11314:11323   */\n      dup5\n        /* \"#utility.yul\":11309:11312   */\n      dup10\n        /* \"#utility.yul\":11305:11324   */\n      add\n        /* \"#utility.yul\":11299:11325   */\n      mload\n        /* \"#utility.yul\":11357:11405   */\n      tag_252\n        /* \"#utility.yul\":11399:11403   */\n      0x1f\n        /* \"#utility.yul\":11391:11397   */\n      dup10\n        /* \"#utility.yul\":11387:11404   */\n      and\n        /* \"#utility.yul\":11376:11385   */\n      dup3\n        /* \"#utility.yul\":11357:11405   */\n      tag_122\n      jump\t// in\n    tag_252:\n        /* \"#utility.yul\":11349:11355   */\n      dup4\n        /* \"#utility.yul\":11342:11406   */\n      sstore\n        /* \"#utility.yul\":11264:11420   */\n      pop\n        /* \"#utility.yul\":11241:11420   */\n    tag_251:\n        /* \"#utility.yul\":11466:11467   */\n      0x01\n        /* \"#utility.yul\":11462:11463   */\n      0x02\n        /* \"#utility.yul\":11454:11460   */\n      dup9\n        /* \"#utility.yul\":11450:11464   */\n      mul\n        /* \"#utility.yul\":11446:11468   */\n      add\n        /* \"#utility.yul\":11440:11444   */\n      dup9\n        /* \"#utility.yul\":11433:11469   */\n      sstore\n        /* \"#utility.yul\":10868:11479   */\n      pop\n      pop\n      pop\n        /* \"#utility.yul\":10831:11718   */\n    tag_243:\n      pop\n        /* \"#utility.yul\":10421:11724   */\n      pop\n      pop\n      pop\n        /* \"#utility.yul\":10329:11724   */\n      pop\n      pop\n      jump\t// out\n\n    auxdata: 0xa26469706673582212208565bff1b6c6b3f5c5ce6ec075a4a6a13e0b9fca49dbb47412e7f5a555c323af64736f6c63430008220033\n}\n",
				"bytecode": {
					"linkReferences": {},
					"object": "6080604052348015600e575f5ffd5b50610cca8061001c5f395ff3fe608060405234801561000f575f5ffd5b5060043610610086575f3560e01c8063818fb1f611610059578063818fb1f6146100ff578063ecf944f81461011e578063f1d064b31461013d578063f20202751461015b57610086565b8063382d441b1461008a578063460deaa1146100a65780634840bc97146100c25780637d6a5dc9146100e0575b5f5ffd5b6100a4600480360381019061009f9190610806565b610179565b005b6100c060048036038101906100bb9190610806565b6101aa565b005b6100ca6101dd565b6040516100d79190610909565b60405180910390f35b6100e86102a1565b6040516100f6929190610980565b60405180910390f35b610107610343565b604051610115929190610980565b60405180910390f35b6101266103e6565b604051610134929190610980565b60405180910390f35b610145610489565b6040516101529190610909565b60405180910390f35b61016361054e565b6040516101709190610909565b60405180910390f35b815f5f0190816101899190610bc5565b50805f6001015f6101000a81548160ff021916908360ff1602179055505050565b8160025f0190816101bb9190610bc5565b508060026001015f6101000a81548160ff021916908360ff1602179055505050565b6101e5610667565b5f6040518060400160405290815f82018054610200906109db565b80601f016020809104026020016040519081016040528092919081815260200182805461022c906109db565b80156102775780601f1061024e57610100808354040283529160200191610277565b820191905f5260205f20905b81548152906001019060200180831161025a57829003601f168201915b50505050508152602001600182015f9054906101000a900460ff1660ff1660ff1681525050905090565b5f805f0180546102b0906109db565b80601f01602080910402602001604051908101604052809291908181526020018280546102dc906109db565b80156103275780601f106102fe57610100808354040283529160200191610327565b820191905f5260205f20905b81548152906001019060200180831161030a57829003601f168201915b505050505090806001015f9054906101000a900460ff16905082565b6004805f018054610353906109db565b80601f016020809104026020016040519081016040528092919081815260200182805461037f906109db565b80156103ca5780601f106103a1576101008083540402835291602001916103ca565b820191905f5260205f20905b8154815290600101906020018083116103ad57829003601f168201915b505050505090806001015f9054906101000a900460ff16905082565b6002805f0180546103f6906109db565b80601f0160208091040260200160405190810160405280929190818152602001828054610422906109db565b801561046d5780601f106104445761010080835404028352916020019161046d565b820191905f5260205f20905b81548152906001019060200180831161045057829003601f168201915b505050505090806001015f9054906101000a900460ff16905082565b610491610667565b60026040518060400160405290815f820180546104ad906109db565b80601f01602080910402602001604051908101604052809291908181526020018280546104d9906109db565b80156105245780601f106104fb57610100808354040283529160200191610524565b820191905f5260205f20905b81548152906001019060200180831161050757829003601f168201915b50505050508152602001600182015f9054906101000a900460ff1660ff1660ff1681525050905090565b610556610667565b5f5f6040518060400160405290815f82018054610572906109db565b80601f016020809104026020016040519081016040528092919081815260200182805461059e906109db565b80156105e95780601f106105c0576101008083540402835291602001916105e9565b820191905f5260205f20905b8154815290600101906020018083116105cc57829003601f168201915b50505050508152602001600182015f9054906101000a900460ff1660ff1660ff168152505090506040518060400160405280601781526020017f426170616b2046617264616e204e757268696461796174000000000000000000815250815f01819052506017816020019060ff16908160ff16815250508091505090565b6040518060400160405280606081526020015f60ff1681525090565b5f604051905090565b5f5ffd5b5f5ffd5b5f5ffd5b5f5ffd5b5f601f19601f8301169050919050565b7f4e487b71000000000000000000000000000000000000000000000000000000005f52604160045260245ffd5b6106e28261069c565b810181811067ffffffffffffffff82111715610701576107006106ac565b5b80604052505050565b5f610713610683565b905061071f82826106d9565b919050565b5f67ffffffffffffffff82111561073e5761073d6106ac565b5b6107478261069c565b9050602081019050919050565b828183375f83830152505050565b5f61077461076f84610724565b61070a565b9050828152602081018484840111156107905761078f610698565b5b61079b848285610754565b509392505050565b5f82601f8301126107b7576107b6610694565b5b81356107c7848260208601610762565b91505092915050565b5f60ff82169050919050565b6107e5816107d0565b81146107ef575f5ffd5b50565b5f81359050610800816107dc565b92915050565b5f5f6040838503121561081c5761081b61068c565b5b5f83013567ffffffffffffffff81111561083957610838610690565b5b610845858286016107a3565b9250506020610856858286016107f2565b9150509250929050565b5f81519050919050565b5f82825260208201905092915050565b8281835e5f83830152505050565b5f61089282610860565b61089c818561086a565b93506108ac81856020860161087a565b6108b58161069c565b840191505092915050565b6108c9816107d0565b82525050565b5f604083015f8301518482035f8601526108e98282610888565b91505060208301516108fe60208601826108c0565b508091505092915050565b5f6020820190508181035f83015261092181846108cf565b905092915050565b5f82825260208201905092915050565b5f61094382610860565b61094d8185610929565b935061095d81856020860161087a565b6109668161069c565b840191505092915050565b61097a816107d0565b82525050565b5f6040820190508181035f8301526109988185610939565b90506109a76020830184610971565b9392505050565b7f4e487b71000000000000000000000000000000000000000000000000000000005f52602260045260245ffd5b5f60028204905060018216806109f257607f821691505b602082108103610a0557610a046109ae565b5b50919050565b5f819050815f5260205f209050919050565b5f6020601f8301049050919050565b5f82821b905092915050565b5f60088302610a677fffffffffffffffffffffffffffffffffffffffffffffffffffffffffffffffff82610a2c565b610a718683610a2c565b95508019841693508086168417925050509392505050565b5f819050919050565b5f819050919050565b5f610ab5610ab0610aab84610a89565b610a92565b610a89565b9050919050565b5f819050919050565b610ace83610a9b565b610ae2610ada82610abc565b848454610a38565b825550505050565b5f5f905090565b610af9610aea565b610b04818484610ac5565b505050565b5f5b82811015610b2a57610b1f5f828401610af1565b600181019050610b0b565b505050565b601f821115610b7d5782821115610b7c57610b4981610a0b565b610b5283610a1d565b610b5b85610a1d565b6020861015610b68575f90505b808301610b7782840382610b09565b505050505b5b505050565b5f82821c905092915050565b5f610b9d5f1984600802610b82565b1980831691505092915050565b5f610bb58383610b8e565b9150826002028217905092915050565b610bce82610860565b67ffffffffffffffff811115610be757610be66106ac565b5b610bf182546109db565b610bfc828285610b2f565b5f60209050601f831160018114610c2d575f8415610c1b578287015190505b610c258582610baa565b865550610c8c565b601f198416610c3b86610a0b565b5f5b82811015610c6257848901518255600182019150602085019450602081019050610c3d565b86831015610c7f5784890151610c7b601f891682610b8e565b8355505b6001600288020188555050505b50505050505056fea26469706673582212208565bff1b6c6b3f5c5ce6ec075a4a6a13e0b9fca49dbb47412e7f5a555c323af64736f6c63430008220033",
					"opcodes": "PUSH1 0x80 PUSH1 0x40 MSTORE CALLVALUE DUP1 ISZERO PUSH1 0xE JUMPI PUSH0 PUSH0 REVERT JUMPDEST POP PUSH2 0xCCA DUP1 PUSH2 0x1C PUSH0 CODECOPY PUSH0 RETURN INVALID PUSH1 0x80 PUSH1 0x40 MSTORE CALLVALUE DUP1 ISZERO PUSH2 0xF JUMPI PUSH0 PUSH0 REVERT JUMPDEST POP PUSH1 0x4 CALLDATASIZE LT PUSH2 0x86 JUMPI PUSH0 CALLDATALOAD PUSH1 0xE0 SHR DUP1 PUSH4 0x818FB1F6 GT PUSH2 0x59 JUMPI DUP1 PUSH4 0x818FB1F6 EQ PUSH2 0xFF JUMPI DUP1 PUSH4 0xECF944F8 EQ PUSH2 0x11E JUMPI DUP1 PUSH4 0xF1D064B3 EQ PUSH2 0x13D JUMPI DUP1 PUSH4 0xF2020275 EQ PUSH2 0x15B JUMPI PUSH2 0x86 JUMP JUMPDEST DUP1 PUSH4 0x382D441B EQ PUSH2 0x8A JUMPI DUP1 PUSH4 0x460DEAA1 EQ PUSH2 0xA6 JUMPI DUP1 PUSH4 0x4840BC97 EQ PUSH2 0xC2 JUMPI DUP1 PUSH4 0x7D6A5DC9 EQ PUSH2 0xE0 JUMPI JUMPDEST PUSH0 PUSH0 REVERT JUMPDEST PUSH2 0xA4 PUSH1 0x4 DUP1 CALLDATASIZE SUB DUP2 ADD SWAP1 PUSH2 0x9F SWAP2 SWAP1 PUSH2 0x806 JUMP JUMPDEST PUSH2 0x179 JUMP JUMPDEST STOP JUMPDEST PUSH2 0xC0 PUSH1 0x4 DUP1 CALLDATASIZE SUB DUP2 ADD SWAP1 PUSH2 0xBB SWAP2 SWAP1 PUSH2 0x806 JUMP JUMPDEST PUSH2 0x1AA JUMP JUMPDEST STOP JUMPDEST PUSH2 0xCA PUSH2 0x1DD JUMP JUMPDEST PUSH1 0x40 MLOAD PUSH2 0xD7 SWAP2 SWAP1 PUSH2 0x909 JUMP JUMPDEST PUSH1 0x40 MLOAD DUP1 SWAP2 SUB SWAP1 RETURN JUMPDEST PUSH2 0xE8 PUSH2 0x2A1 JUMP JUMPDEST PUSH1 0x40 MLOAD PUSH2 0xF6 SWAP3 SWAP2 SWAP1 PUSH2 0x980 JUMP JUMPDEST PUSH1 0x40 MLOAD DUP1 SWAP2 SUB SWAP1 RETURN JUMPDEST PUSH2 0x107 PUSH2 0x343 JUMP JUMPDEST PUSH1 0x40 MLOAD PUSH2 0x115 SWAP3 SWAP2 SWAP1 PUSH2 0x980 JUMP JUMPDEST PUSH1 0x40 MLOAD DUP1 SWAP2 SUB SWAP1 RETURN JUMPDEST PUSH2 0x126 PUSH2 0x3E6 JUMP JUMPDEST PUSH1 0x40 MLOAD PUSH2 0x134 SWAP3 SWAP2 SWAP1 PUSH2 0x980 JUMP JUMPDEST PUSH1 0x40 MLOAD DUP1 SWAP2 SUB SWAP1 RETURN JUMPDEST PUSH2 0x145 PUSH2 0x489 JUMP JUMPDEST PUSH1 0x40 MLOAD PUSH2 0x152 SWAP2 SWAP1 PUSH2 0x909 JUMP JUMPDEST PUSH1 0x40 MLOAD DUP1 SWAP2 SUB SWAP1 RETURN JUMPDEST PUSH2 0x163 PUSH2 0x54E JUMP JUMPDEST PUSH1 0x40 MLOAD PUSH2 0x170 SWAP2 SWAP1 PUSH2 0x909 JUMP JUMPDEST PUSH1 0x40 MLOAD DUP1 SWAP2 SUB SWAP1 RETURN JUMPDEST DUP2 PUSH0 PUSH0 ADD SWAP1 DUP2 PUSH2 0x189 SWAP2 SWAP1 PUSH2 0xBC5 JUMP JUMPDEST POP DUP1 PUSH0 PUSH1 0x1 ADD PUSH0 PUSH2 0x100 EXP DUP2 SLOAD DUP2 PUSH1 0xFF MUL NOT AND SWAP1 DUP4 PUSH1 0xFF AND MUL OR SWAP1 SSTORE POP POP POP JUMP JUMPDEST DUP2 PUSH1 0x2 PUSH0 ADD SWAP1 DUP2 PUSH2 0x1BB SWAP2 SWAP1 PUSH2 0xBC5 JUMP JUMPDEST POP DUP1 PUSH1 0x2 PUSH1 0x1 ADD PUSH0 PUSH2 0x100 EXP DUP2 SLOAD DUP2 PUSH1 0xFF MUL NOT AND SWAP1 DUP4 PUSH1 0xFF AND MUL OR SWAP1 SSTORE POP POP POP JUMP JUMPDEST PUSH2 0x1E5 PUSH2 0x667 JUMP JUMPDEST PUSH0 PUSH1 0x40 MLOAD DUP1 PUSH1 0x40 ADD PUSH1 0x40 MSTORE SWAP1 DUP2 PUSH0 DUP3 ADD DUP1 SLOAD PUSH2 0x200 SWAP1 PUSH2 0x9DB JUMP JUMPDEST DUP1 PUSH1 0x1F ADD PUSH1 0x20 DUP1 SWAP2 DIV MUL PUSH1 0x20 ADD PUSH1 0x40 MLOAD SWAP1 DUP2 ADD PUSH1 0x40 MSTORE DUP1 SWAP3 SWAP2 SWAP1 DUP2 DUP2 MSTORE PUSH1 0x20 ADD DUP3 DUP1 SLOAD PUSH2 0x22C SWAP1 PUSH2 0x9DB JUMP JUMPDEST DUP1 ISZERO PUSH2 0x277 JUMPI DUP1 PUSH1 0x1F LT PUSH2 0x24E JUMPI PUSH2 0x100 DUP1 DUP4 SLOAD DIV MUL DUP4 MSTORE SWAP2 PUSH1 0x20 ADD SWAP2 PUSH2 0x277 JUMP JUMPDEST DUP3 ADD SWAP2 SWAP1 PUSH0 MSTORE PUSH1 0x20 PUSH0 KECCAK256 SWAP1 JUMPDEST DUP2 SLOAD DUP2 MSTORE SWAP1 PUSH1 0x1 ADD SWAP1 PUSH1 0x20 ADD DUP1 DUP4 GT PUSH2 0x25A JUMPI DUP3 SWAP1 SUB PUSH1 0x1F AND DUP3 ADD SWAP2 JUMPDEST POP POP POP POP POP DUP2 MSTORE PUSH1 0x20 ADD PUSH1 0x1 DUP3 ADD PUSH0 SWAP1 SLOAD SWAP1 PUSH2 0x100 EXP SWAP1 DIV PUSH1 0xFF AND PUSH1 0xFF AND PUSH1 0xFF AND DUP2 MSTORE POP POP SWAP1 POP SWAP1 JUMP JUMPDEST PUSH0 DUP1 PUSH0 ADD DUP1 SLOAD PUSH2 0x2B0 SWAP1 PUSH2 0x9DB JUMP JUMPDEST DUP1 PUSH1 0x1F ADD PUSH1 0x20 DUP1 SWAP2 DIV MUL PUSH1 0x20 ADD PUSH1 0x40 MLOAD SWAP1 DUP2 ADD PUSH1 0x40 MSTORE DUP1 SWAP3 SWAP2 SWAP1 DUP2 DUP2 MSTORE PUSH1 0x20 ADD DUP3 DUP1 SLOAD PUSH2 0x2DC SWAP1 PUSH2 0x9DB JUMP JUMPDEST DUP1 ISZERO PUSH2 0x327 JUMPI DUP1 PUSH1 0x1F LT PUSH2 0x2FE JUMPI PUSH2 0x100 DUP1 DUP4 SLOAD DIV MUL DUP4 MSTORE SWAP2 PUSH1 0x20 ADD SWAP2 PUSH2 0x327 JUMP JUMPDEST DUP3 ADD SWAP2 SWAP1 PUSH0 MSTORE PUSH1 0x20 PUSH0 KECCAK256 SWAP1 JUMPDEST DUP2 SLOAD DUP2 MSTORE SWAP1 PUSH1 0x1 ADD SWAP1 PUSH1 0x20 ADD DUP1 DUP4 GT PUSH2 0x30A JUMPI DUP3 SWAP1 SUB PUSH1 0x1F AND DUP3 ADD SWAP2 JUMPDEST POP POP POP POP POP SWAP1 DUP1 PUSH1 0x1 ADD PUSH0 SWAP1 SLOAD SWAP1 PUSH2 0x100 EXP SWAP1 DIV PUSH1 0xFF AND SWAP1 POP DUP3 JUMP JUMPDEST PUSH1 0x4 DUP1 PUSH0 ADD DUP1 SLOAD PUSH2 0x353 SWAP1 PUSH2 0x9DB JUMP JUMPDEST DUP1 PUSH1 0x1F ADD PUSH1 0x20 DUP1 SWAP2 DIV MUL PUSH1 0x20 ADD PUSH1 0x40 MLOAD SWAP1 DUP2 ADD PUSH1 0x40 MSTORE DUP1 SWAP3 SWAP2 SWAP1 DUP2 DUP2 MSTORE PUSH1 0x20 ADD DUP3 DUP1 SLOAD PUSH2 0x37F SWAP1 PUSH2 0x9DB JUMP JUMPDEST DUP1 ISZERO PUSH2 0x3CA JUMPI DUP1 PUSH1 0x1F LT PUSH2 0x3A1 JUMPI PUSH2 0x100 DUP1 DUP4 SLOAD DIV MUL DUP4 MSTORE SWAP2 PUSH1 0x20 ADD SWAP2 PUSH2 0x3CA JUMP JUMPDEST DUP3 ADD SWAP2 SWAP1 PUSH0 MSTORE PUSH1 0x20 PUSH0 KECCAK256 SWAP1 JUMPDEST DUP2 SLOAD DUP2 MSTORE SWAP1 PUSH1 0x1 ADD SWAP1 PUSH1 0x20 ADD DUP1 DUP4 GT PUSH2 0x3AD JUMPI DUP3 SWAP1 SUB PUSH1 0x1F AND DUP3 ADD SWAP2 JUMPDEST POP POP POP POP POP SWAP1 DUP1 PUSH1 0x1 ADD PUSH0 SWAP1 SLOAD SWAP1 PUSH2 0x100 EXP SWAP1 DIV PUSH1 0xFF AND SWAP1 POP DUP3 JUMP JUMPDEST PUSH1 0x2 DUP1 PUSH0 ADD DUP1 SLOAD PUSH2 0x3F6 SWAP1 PUSH2 0x9DB JUMP JUMPDEST DUP1 PUSH1 0x1F ADD PUSH1 0x20 DUP1 SWAP2 DIV MUL PUSH1 0x20 ADD PUSH1 0x40 MLOAD SWAP1 DUP2 ADD PUSH1 0x40 MSTORE DUP1 SWAP3 SWAP2 SWAP1 DUP2 DUP2 MSTORE PUSH1 0x20 ADD DUP3 DUP1 SLOAD PUSH2 0x422 SWAP1 PUSH2 0x9DB JUMP JUMPDEST DUP1 ISZERO PUSH2 0x46D JUMPI DUP1 PUSH1 0x1F LT PUSH2 0x444 JUMPI PUSH2 0x100 DUP1 DUP4 SLOAD DIV MUL DUP4 MSTORE SWAP2 PUSH1 0x20 ADD SWAP2 PUSH2 0x46D JUMP JUMPDEST DUP3 ADD SWAP2 SWAP1 PUSH0 MSTORE PUSH1 0x20 PUSH0 KECCAK256 SWAP1 JUMPDEST DUP2 SLOAD DUP2 MSTORE SWAP1 PUSH1 0x1 ADD SWAP1 PUSH1 0x20 ADD DUP1 DUP4 GT PUSH2 0x450 JUMPI DUP3 SWAP1 SUB PUSH1 0x1F AND DUP3 ADD SWAP2 JUMPDEST POP POP POP POP POP SWAP1 DUP1 PUSH1 0x1 ADD PUSH0 SWAP1 SLOAD SWAP1 PUSH2 0x100 EXP SWAP1 DIV PUSH1 0xFF AND SWAP1 POP DUP3 JUMP JUMPDEST PUSH2 0x491 PUSH2 0x667 JUMP JUMPDEST PUSH1 0x2 PUSH1 0x40 MLOAD DUP1 PUSH1 0x40 ADD PUSH1 0x40 MSTORE SWAP1 DUP2 PUSH0 DUP3 ADD DUP1 SLOAD PUSH2 0x4AD SWAP1 PUSH2 0x9DB JUMP JUMPDEST DUP1 PUSH1 0x1F ADD PUSH1 0x20 DUP1 SWAP2 DIV MUL PUSH1 0x20 ADD PUSH1 0x40 MLOAD SWAP1 DUP2 ADD PUSH1 0x40 MSTORE DUP1 SWAP3 SWAP2 SWAP1 DUP2 DUP2 MSTORE PUSH1 0x20 ADD DUP3 DUP1 SLOAD PUSH2 0x4D9 SWAP1 PUSH2 0x9DB JUMP JUMPDEST DUP1 ISZERO PUSH2 0x524 JUMPI DUP1 PUSH1 0x1F LT PUSH2 0x4FB JUMPI PUSH2 0x100 DUP1 DUP4 SLOAD DIV MUL DUP4 MSTORE SWAP2 PUSH1 0x20 ADD SWAP2 PUSH2 0x524 JUMP JUMPDEST DUP3 ADD SWAP2 SWAP1 PUSH0 MSTORE PUSH1 0x20 PUSH0 KECCAK256 SWAP1 JUMPDEST DUP2 SLOAD DUP2 MSTORE SWAP1 PUSH1 0x1 ADD SWAP1 PUSH1 0x20 ADD DUP1 DUP4 GT PUSH2 0x507 JUMPI DUP3 SWAP1 SUB PUSH1 0x1F AND DUP3 ADD SWAP2 JUMPDEST POP POP POP POP POP DUP2 MSTORE PUSH1 0x20 ADD PUSH1 0x1 DUP3 ADD PUSH0 SWAP1 SLOAD SWAP1 PUSH2 0x100 EXP SWAP1 DIV PUSH1 0xFF AND PUSH1 0xFF AND PUSH1 0xFF AND DUP2 MSTORE POP POP SWAP1 POP SWAP1 JUMP JUMPDEST PUSH2 0x556 PUSH2 0x667 JUMP JUMPDEST PUSH0 PUSH0 PUSH1 0x40 MLOAD DUP1 PUSH1 0x40 ADD PUSH1 0x40 MSTORE SWAP1 DUP2 PUSH0 DUP3 ADD DUP1 SLOAD PUSH2 0x572 SWAP1 PUSH2 0x9DB JUMP JUMPDEST DUP1 PUSH1 0x1F ADD PUSH1 0x20 DUP1 SWAP2 DIV MUL PUSH1 0x20 ADD PUSH1 0x40 MLOAD SWAP1 DUP2 ADD PUSH1 0x40 MSTORE DUP1 SWAP3 SWAP2 SWAP1 DUP2 DUP2 MSTORE PUSH1 0x20 ADD DUP3 DUP1 SLOAD PUSH2 0x59E SWAP1 PUSH2 0x9DB JUMP JUMPDEST DUP1 ISZERO PUSH2 0x5E9 JUMPI DUP1 PUSH1 0x1F LT PUSH2 0x5C0 JUMPI PUSH2 0x100 DUP1 DUP4 SLOAD DIV MUL DUP4 MSTORE SWAP2 PUSH1 0x20 ADD SWAP2 PUSH2 0x5E9 JUMP JUMPDEST DUP3 ADD SWAP2 SWAP1 PUSH0 MSTORE PUSH1 0x20 PUSH0 KECCAK256 SWAP1 JUMPDEST DUP2 SLOAD DUP2 MSTORE SWAP1 PUSH1 0x1 ADD SWAP1 PUSH1 0x20 ADD DUP1 DUP4 GT PUSH2 0x5CC JUMPI DUP3 SWAP1 SUB PUSH1 0x1F AND DUP3 ADD SWAP2 JUMPDEST POP POP POP POP POP DUP2 MSTORE PUSH1 0x20 ADD PUSH1 0x1 DUP3 ADD PUSH0 SWAP1 SLOAD SWAP1 PUSH2 0x100 EXP SWAP1 DIV PUSH1 0xFF AND PUSH1 0xFF AND PUSH1 0xFF AND DUP2 MSTORE POP POP SWAP1 POP PUSH1 0x40 MLOAD DUP1 PUSH1 0x40 ADD PUSH1 0x40 MSTORE DUP1 PUSH1 0x17 DUP2 MSTORE PUSH1 0x20 ADD PUSH32 0x426170616B2046617264616E204E757268696461796174000000000000000000 DUP2 MSTORE POP DUP2 PUSH0 ADD DUP2 SWAP1 MSTORE POP PUSH1 0x17 DUP2 PUSH1 0x20 ADD SWAP1 PUSH1 0xFF AND SWAP1 DUP2 PUSH1 0xFF AND DUP2 MSTORE POP POP DUP1 SWAP2 POP POP SWAP1 JUMP JUMPDEST PUSH1 0x40 MLOAD DUP1 PUSH1 0x40 ADD PUSH1 0x40 MSTORE DUP1 PUSH1 0x60 DUP2 MSTORE PUSH1 0x20 ADD PUSH0 PUSH1 0xFF AND DUP2 MSTORE POP SWAP1 JUMP JUMPDEST PUSH0 PUSH1 0x40 MLOAD SWAP1 POP SWAP1 JUMP JUMPDEST PUSH0 PUSH0 REVERT JUMPDEST PUSH0 PUSH0 REVERT JUMPDEST PUSH0 PUSH0 REVERT JUMPDEST PUSH0 PUSH0 REVERT JUMPDEST PUSH0 PUSH1 0x1F NOT PUSH1 0x1F DUP4 ADD AND SWAP1 POP SWAP2 SWAP1 POP JUMP JUMPDEST PUSH32 0x4E487B7100000000000000000000000000000000000000000000000000000000 PUSH0 MSTORE PUSH1 0x41 PUSH1 0x4 MSTORE PUSH1 0x24 PUSH0 REVERT JUMPDEST PUSH2 0x6E2 DUP3 PUSH2 0x69C JUMP JUMPDEST DUP2 ADD DUP2 DUP2 LT PUSH8 0xFFFFFFFFFFFFFFFF DUP3 GT OR ISZERO PUSH2 0x701 JUMPI PUSH2 0x700 PUSH2 0x6AC JUMP JUMPDEST JUMPDEST DUP1 PUSH1 0x40 MSTORE POP POP POP JUMP JUMPDEST PUSH0 PUSH2 0x713 PUSH2 0x683 JUMP JUMPDEST SWAP1 POP PUSH2 0x71F DUP3 DUP3 PUSH2 0x6D9 JUMP JUMPDEST SWAP2 SWAP1 POP JUMP JUMPDEST PUSH0 PUSH8 0xFFFFFFFFFFFFFFFF DUP3 GT ISZERO PUSH2 0x73E JUMPI PUSH2 0x73D PUSH2 0x6AC JUMP JUMPDEST JUMPDEST PUSH2 0x747 DUP3 PUSH2 0x69C JUMP JUMPDEST SWAP1 POP PUSH1 0x20 DUP2 ADD SWAP1 POP SWAP2 SWAP1 POP JUMP JUMPDEST DUP3 DUP2 DUP4 CALLDATACOPY PUSH0 DUP4 DUP4 ADD MSTORE POP POP POP JUMP JUMPDEST PUSH0 PUSH2 0x774 PUSH2 0x76F DUP5 PUSH2 0x724 JUMP JUMPDEST PUSH2 0x70A JUMP JUMPDEST SWAP1 POP DUP3 DUP2 MSTORE PUSH1 0x20 DUP2 ADD DUP5 DUP5 DUP5 ADD GT ISZERO PUSH2 0x790 JUMPI PUSH2 0x78F PUSH2 0x698 JUMP JUMPDEST JUMPDEST PUSH2 0x79B DUP5 DUP3 DUP6 PUSH2 0x754 JUMP JUMPDEST POP SWAP4 SWAP3 POP POP POP JUMP JUMPDEST PUSH0 DUP3 PUSH1 0x1F DUP4 ADD SLT PUSH2 0x7B7 JUMPI PUSH2 0x7B6 PUSH2 0x694 JUMP JUMPDEST JUMPDEST DUP2 CALLDATALOAD PUSH2 0x7C7 DUP5 DUP3 PUSH1 0x20 DUP7 ADD PUSH2 0x762 JUMP JUMPDEST SWAP2 POP POP SWAP3 SWAP2 POP POP JUMP JUMPDEST PUSH0 PUSH1 0xFF DUP3 AND SWAP1 POP SWAP2 SWAP1 POP JUMP JUMPDEST PUSH2 0x7E5 DUP2 PUSH2 0x7D0 JUMP JUMPDEST DUP2 EQ PUSH2 0x7EF JUMPI PUSH0 PUSH0 REVERT JUMPDEST POP JUMP JUMPDEST PUSH0 DUP2 CALLDATALOAD SWAP1 POP PUSH2 0x800 DUP2 PUSH2 0x7DC JUMP JUMPDEST SWAP3 SWAP2 POP POP JUMP JUMPDEST PUSH0 PUSH0 PUSH1 0x40 DUP4 DUP6 SUB SLT ISZERO PUSH2 0x81C JUMPI PUSH2 0x81B PUSH2 0x68C JUMP JUMPDEST JUMPDEST PUSH0 DUP4 ADD CALLDATALOAD PUSH8 0xFFFFFFFFFFFFFFFF DUP2 GT ISZERO PUSH2 0x839 JUMPI PUSH2 0x838 PUSH2 0x690 JUMP JUMPDEST JUMPDEST PUSH2 0x845 DUP6 DUP3 DUP7 ADD PUSH2 0x7A3 JUMP JUMPDEST SWAP3 POP POP PUSH1 0x20 PUSH2 0x856 DUP6 DUP3 DUP7 ADD PUSH2 0x7F2 JUMP JUMPDEST SWAP2 POP POP SWAP3 POP SWAP3 SWAP1 POP JUMP JUMPDEST PUSH0 DUP2 MLOAD SWAP1 POP SWAP2 SWAP1 POP JUMP JUMPDEST PUSH0 DUP3 DUP3 MSTORE PUSH1 0x20 DUP3 ADD SWAP1 POP SWAP3 SWAP2 POP POP JUMP JUMPDEST DUP3 DUP2 DUP4 MCOPY PUSH0 DUP4 DUP4 ADD MSTORE POP POP POP JUMP JUMPDEST PUSH0 PUSH2 0x892 DUP3 PUSH2 0x860 JUMP JUMPDEST PUSH2 0x89C DUP2 DUP6 PUSH2 0x86A JUMP JUMPDEST SWAP4 POP PUSH2 0x8AC DUP2 DUP6 PUSH1 0x20 DUP7 ADD PUSH2 0x87A JUMP JUMPDEST PUSH2 0x8B5 DUP2 PUSH2 0x69C JUMP JUMPDEST DUP5 ADD SWAP2 POP POP SWAP3 SWAP2 POP POP JUMP JUMPDEST PUSH2 0x8C9 DUP2 PUSH2 0x7D0 JUMP JUMPDEST DUP3 MSTORE POP POP JUMP JUMPDEST PUSH0 PUSH1 0x40 DUP4 ADD PUSH0 DUP4 ADD MLOAD DUP5 DUP3 SUB PUSH0 DUP7 ADD MSTORE PUSH2 0x8E9 DUP3 DUP3 PUSH2 0x888 JUMP JUMPDEST SWAP2 POP POP PUSH1 0x20 DUP4 ADD MLOAD PUSH2 0x8FE PUSH1 0x20 DUP7 ADD DUP3 PUSH2 0x8C0 JUMP JUMPDEST POP DUP1 SWAP2 POP POP SWAP3 SWAP2 POP POP JUMP JUMPDEST PUSH0 PUSH1 0x20 DUP3 ADD SWAP1 POP DUP2 DUP2 SUB PUSH0 DUP4 ADD MSTORE PUSH2 0x921 DUP2 DUP5 PUSH2 0x8CF JUMP JUMPDEST SWAP1 POP SWAP3 SWAP2 POP POP JUMP JUMPDEST PUSH0 DUP3 DUP3 MSTORE PUSH1 0x20 DUP3 ADD SWAP1 POP SWAP3 SWAP2 POP POP JUMP JUMPDEST PUSH0 PUSH2 0x943 DUP3 PUSH2 0x860 JUMP JUMPDEST PUSH2 0x94D DUP2 DUP6 PUSH2 0x929 JUMP JUMPDEST SWAP4 POP PUSH2 0x95D DUP2 DUP6 PUSH1 0x20 DUP7 ADD PUSH2 0x87A JUMP JUMPDEST PUSH2 0x966 DUP2 PUSH2 0x69C JUMP JUMPDEST DUP5 ADD SWAP2 POP POP SWAP3 SWAP2 POP POP JUMP JUMPDEST PUSH2 0x97A DUP2 PUSH2 0x7D0 JUMP JUMPDEST DUP3 MSTORE POP POP JUMP JUMPDEST PUSH0 PUSH1 0x40 DUP3 ADD SWAP1 POP DUP2 DUP2 SUB PUSH0 DUP4 ADD MSTORE PUSH2 0x998 DUP2 DUP6 PUSH2 0x939 JUMP JUMPDEST SWAP1 POP PUSH2 0x9A7 PUSH1 0x20 DUP4 ADD DUP5 PUSH2 0x971 JUMP JUMPDEST SWAP4 SWAP3 POP POP POP JUMP JUMPDEST PUSH32 0x4E487B7100000000000000000000000000000000000000000000000000000000 PUSH0 MSTORE PUSH1 0x22 PUSH1 0x4 MSTORE PUSH1 0x24 PUSH0 REVERT JUMPDEST PUSH0 PUSH1 0x2 DUP3 DIV SWAP1 POP PUSH1 0x1 DUP3 AND DUP1 PUSH2 0x9F2 JUMPI PUSH1 0x7F DUP3 AND SWAP2 POP JUMPDEST PUSH1 0x20 DUP3 LT DUP2 SUB PUSH2 0xA05 JUMPI PUSH2 0xA04 PUSH2 0x9AE JUMP JUMPDEST JUMPDEST POP SWAP2 SWAP1 POP JUMP JUMPDEST PUSH0 DUP2 SWAP1 POP DUP2 PUSH0 MSTORE PUSH1 0x20 PUSH0 KECCAK256 SWAP1 POP SWAP2 SWAP1 POP JUMP JUMPDEST PUSH0 PUSH1 0x20 PUSH1 0x1F DUP4 ADD DIV SWAP1 POP SWAP2 SWAP1 POP JUMP JUMPDEST PUSH0 DUP3 DUP3 SHL SWAP1 POP SWAP3 SWAP2 POP POP JUMP JUMPDEST PUSH0 PUSH1 0x8 DUP4 MUL PUSH2 0xA67 PUSH32 0xFFFFFFFFFFFFFFFFFFFFFFFFFFFFFFFFFFFFFFFFFFFFFFFFFFFFFFFFFFFFFFFF DUP3 PUSH2 0xA2C JUMP JUMPDEST PUSH2 0xA71 DUP7 DUP4 PUSH2 0xA2C JUMP JUMPDEST SWAP6 POP DUP1 NOT DUP5 AND SWAP4 POP DUP1 DUP7 AND DUP5 OR SWAP3 POP POP POP SWAP4 SWAP3 POP POP POP JUMP JUMPDEST PUSH0 DUP2 SWAP1 POP SWAP2 SWAP1 POP JUMP JUMPDEST PUSH0 DUP2 SWAP1 POP SWAP2 SWAP1 POP JUMP JUMPDEST PUSH0 PUSH2 0xAB5 PUSH2 0xAB0 PUSH2 0xAAB DUP5 PUSH2 0xA89 JUMP JUMPDEST PUSH2 0xA92 JUMP JUMPDEST PUSH2 0xA89 JUMP JUMPDEST SWAP1 POP SWAP2 SWAP1 POP JUMP JUMPDEST PUSH0 DUP2 SWAP1 POP SWAP2 SWAP1 POP JUMP JUMPDEST PUSH2 0xACE DUP4 PUSH2 0xA9B JUMP JUMPDEST PUSH2 0xAE2 PUSH2 0xADA DUP3 PUSH2 0xABC JUMP JUMPDEST DUP5 DUP5 SLOAD PUSH2 0xA38 JUMP JUMPDEST DUP3 SSTORE POP POP POP POP JUMP JUMPDEST PUSH0 PUSH0 SWAP1 POP SWAP1 JUMP JUMPDEST PUSH2 0xAF9 PUSH2 0xAEA JUMP JUMPDEST PUSH2 0xB04 DUP2 DUP5 DUP5 PUSH2 0xAC5 JUMP JUMPDEST POP POP POP JUMP JUMPDEST PUSH0 JUMPDEST DUP3 DUP2 LT ISZERO PUSH2 0xB2A JUMPI PUSH2 0xB1F PUSH0 DUP3 DUP5 ADD PUSH2 0xAF1 JUMP JUMPDEST PUSH1 0x1 DUP2 ADD SWAP1 POP PUSH2 0xB0B JUMP JUMPDEST POP POP POP JUMP JUMPDEST PUSH1 0x1F DUP3 GT ISZERO PUSH2 0xB7D JUMPI DUP3 DUP3 GT ISZERO PUSH2 0xB7C JUMPI PUSH2 0xB49 DUP2 PUSH2 0xA0B JUMP JUMPDEST PUSH2 0xB52 DUP4 PUSH2 0xA1D JUMP JUMPDEST PUSH2 0xB5B DUP6 PUSH2 0xA1D JUMP JUMPDEST PUSH1 0x20 DUP7 LT ISZERO PUSH2 0xB68 JUMPI PUSH0 SWAP1 POP JUMPDEST DUP1 DUP4 ADD PUSH2 0xB77 DUP3 DUP5 SUB DUP3 PUSH2 0xB09 JUMP JUMPDEST POP POP POP POP JUMPDEST JUMPDEST POP POP POP JUMP JUMPDEST PUSH0 DUP3 DUP3 SHR SWAP1 POP SWAP3 SWAP2 POP POP JUMP JUMPDEST PUSH0 PUSH2 0xB9D PUSH0 NOT DUP5 PUSH1 0x8 MUL PUSH2 0xB82 JUMP JUMPDEST NOT DUP1 DUP4 AND SWAP2 POP POP SWAP3 SWAP2 POP POP JUMP JUMPDEST PUSH0 PUSH2 0xBB5 DUP4 DUP4 PUSH2 0xB8E JUMP JUMPDEST SWAP2 POP DUP3 PUSH1 0x2 MUL DUP3 OR SWAP1 POP SWAP3 SWAP2 POP POP JUMP JUMPDEST PUSH2 0xBCE DUP3 PUSH2 0x860 JUMP JUMPDEST PUSH8 0xFFFFFFFFFFFFFFFF DUP2 GT ISZERO PUSH2 0xBE7 JUMPI PUSH2 0xBE6 PUSH2 0x6AC JUMP JUMPDEST JUMPDEST PUSH2 0xBF1 DUP3 SLOAD PUSH2 0x9DB JUMP JUMPDEST PUSH2 0xBFC DUP3 DUP3 DUP6 PUSH2 0xB2F JUMP JUMPDEST PUSH0 PUSH1 0x20 SWAP1 POP PUSH1 0x1F DUP4 GT PUSH1 0x1 DUP2 EQ PUSH2 0xC2D JUMPI PUSH0 DUP5 ISZERO PUSH2 0xC1B JUMPI DUP3 DUP8 ADD MLOAD SWAP1 POP JUMPDEST PUSH2 0xC25 DUP6 DUP3 PUSH2 0xBAA JUMP JUMPDEST DUP7 SSTORE POP PUSH2 0xC8C JUMP JUMPDEST PUSH1 0x1F NOT DUP5 AND PUSH2 0xC3B DUP7 PUSH2 0xA0B JUMP JUMPDEST PUSH0 JUMPDEST DUP3 DUP2 LT ISZERO PUSH2 0xC62 JUMPI DUP5 DUP10 ADD MLOAD DUP3 SSTORE PUSH1 0x1 DUP3 ADD SWAP2 POP PUSH1 0x20 DUP6 ADD SWAP5 POP PUSH1 0x20 DUP2 ADD SWAP1 POP PUSH2 0xC3D JUMP JUMPDEST DUP7 DUP4 LT ISZERO PUSH2 0xC7F JUMPI DUP5 DUP10 ADD MLOAD PUSH2 0xC7B PUSH1 0x1F DUP10 AND DUP3 PUSH2 0xB8E JUMP JUMPDEST DUP4 SSTORE POP JUMPDEST PUSH1 0x1 PUSH1 0x2 DUP9 MUL ADD DUP9 SSTORE POP POP POP JUMPDEST POP POP POP POP POP POP JUMP INVALID LOG2 PUSH5 0x6970667358 0x22 SLT KECCAK256 DUP6 PUSH6 0xBFF1B6C6B3F5 0xC5 0xCE PUSH15 0xC075A4A6A13E0B9FCA49DBB47412E7 CREATE2 0xA5 SSTORE 0xC3 0x23 0xAF PUSH5 0x736F6C6343 STOP ADDMOD 0x22 STOP CALLER "
				},
				"gasEstimates": {
					"creation": {
						"codeDepositCost": "654800",
						"executionCost": "687",
						"totalCost": "655487"
					},
					"external": {
						"employes()": "infinite",
						"getEmployes()": "infinite",
						"getStudents()": "infinite",
						"governents()": "infinite",
						"setEmployes(string,uint8)": "infinite",
						"setStudents(string,uint8)": "infinite",
						"students()": "infinite",
						"users()": "infinite"
					}
				},
				"methodIdentifiers": {
					"employes()": "7d6a5dc9",
					"getEmployes()": "4840bc97",
					"getStudents()": "f1d064b3",
					"governents()": "818fb1f6",
					"setEmployes(string,uint8)": "382d441b",
					"setStudents(string,uint8)": "460deaa1",
					"students()": "ecf944f8",
					"users()": "f2020275"
				}
			},
			"storageLayout": {
				"storage": [
					{
						"astId": 9,
						"contract": "9. Data Locations/dataLocations.sol:DataLocations",
						"label": "employes",
						"offset": 0,
						"slot": "0",
						"type": "t_struct(User)6_storage"
					},
					{
						"astId": 12,
						"contract": "9. Data Locations/dataLocations.sol:DataLocations",
						"label": "students",
						"offset": 0,
						"slot": "2",
						"type": "t_struct(User)6_storage"
					},
					{
						"astId": 15,
						"contract": "9. Data Locations/dataLocations.sol:DataLocations",
						"label": "governents",
						"offset": 0,
						"slot": "4",
						"type": "t_struct(User)6_storage"
					}
				],
				"types": {
					"t_string_storage": {
						"encoding": "bytes",
						"label": "string",
						"numberOfBytes": "32"
					},
					"t_struct(User)6_storage": {
						"encoding": "inplace",
						"label": "struct DataLocations.User",
						"members": [
							{
								"astId": 3,
								"contract": "9. Data Locations/dataLocations.sol:DataLocations",
								"label": "name",
								"offset": 0,
								"slot": "0",
								"type": "t_string_storage"
							},
							{
								"astId": 5,
								"contract": "9. Data Locations/dataLocations.sol:DataLocations",
								"label": "age",
								"offset": 0,
								"slot": "1",
								"type": "t_uint8"
							}
						],
						"numberOfBytes": "64"
					},
					"t_uint8": {
						"encoding": "inplace",
						"label": "uint8",
						"numberOfBytes": "1"
					}
				}
			},
			"userdoc": {
				"kind": "user",
				"methods": {},
				"version": 1
			}
		}
	}
}