{
	"8.4 Data Structures - Enums/enums.sol": {
		"Enum": {
			"abi": [
				{
					"inputs": [],
					"name": "cancel",
					"outputs": [],
					"stateMutability": "nonpayable",
					"type": "function"
				},
				{
					"inputs": [
						{
							"internalType": "address",
							"name": "",
							"type": "address"
						}
					],
					"name": "employes",
					"outputs": [
						{
							"internalType": "address",
							"name": "id",
							"type": "address"
						},
						{
							"internalType": "string",
							"name": "name",
							"type": "string"
						},
						{
							"internalType": "uint8",
							"name": "age",
							"type": "uint8"
						},
						{
							"internalType": "enum Enum.Team",
							"name": "team",
							"type": "uint8"
						},
						{
							"internalType": "bool",
							"name": "isRegistered",
							"type": "bool"
						}
					],
					"stateMutability": "view",
					"type": "function"
				},
				{
					"inputs": [],
					"name": "get",
					"outputs": [
						{
							"internalType": "enum Enum.Status",
							"name": "",
							"type": "uint8"
						}
					],
					"stateMutability": "view",
					"type": "function"
				},
				{
					"inputs": [
						{
							"internalType": "address",
							"name": "_addr",
							"type": "address"
						}
					],
					"name": "getEmployes",
					"outputs": [
						{
							"components": [
								{
									"internalType": "address",
									"name": "id",
									"type": "address"
								},
								{
									"internalType": "string",
									"name": "name",
									"type": "string"
								},
								{
									"internalType": "uint8",
									"name": "age",
									"type": "uint8"
								},
								{
									"internalType": "enum Enum.Team",
									"name": "team",
									"type": "uint8"
								},
								{
									"internalType": "bool",
									"name": "isRegistered",
									"type": "bool"
								}
							],
							"internalType": "struct Enum.Employes",
							"name": "",
							"type": "tuple"
						}
					],
					"stateMutability": "view",
					"type": "function"
				},
				{
					"inputs": [],
					"name": "getSize",
					"outputs": [
						{
							"internalType": "enum Enum.Size",
							"name": "",
							"type": "uint8"
						}
					],
					"stateMutability": "view",
					"type": "function"
				},
				{
					"inputs": [
						{
							"internalType": "uint256",
							"name": "id",
							"type": "uint256"
						}
					],
					"name": "getTeam",
					"outputs": [
						{
							"internalType": "enum Enum.Team",
							"name": "",
							"type": "uint8"
						}
					],
					"stateMutability": "pure",
					"type": "function"
				},
				{
					"inputs": [
						{
							"internalType": "string",
							"name": "_name",
							"type": "string"
						},
						{
							"internalType": "uint8",
							"name": "_age",
							"type": "uint8"
						},
						{
							"internalType": "enum Enum.Team",
							"name": "_team",
							"type": "uint8"
						},
						{
							"internalType": "address",
							"name": "_addr",
							"type": "address"
						}
					],
					"name": "registerEmploye",
					"outputs": [],
					"stateMutability": "nonpayable",
					"type": "function"
				},
				{
					"inputs": [],
					"name": "reset",
					"outputs": [],
					"stateMutability": "nonpayable",
					"type": "function"
				},
				{
					"inputs": [
						{
							"internalType": "enum Enum.Status",
							"name": "_status",
							"type": "uint8"
						}
					],
					"name": "set",
					"outputs": [],
					"stateMutability": "nonpayable",
					"type": "function"
				},
				{
					"inputs": [
						{
							"internalType": "enum Enum.Size",
							"name": "_size",
							"type": "uint8"
						}
					],
					"name": "setSize",
					"outputs": [],
					"stateMutability": "nonpayable",
					"type": "function"
				},
				{
					"inputs": [],
					"name": "sizes",
					"outputs": [
						{
							"internalType": "enum Enum.Size",
							"name": "",
							"type": "uint8"
						}
					],
					"stateMutability": "view",
					"type": "function"
				},
				{
					"inputs": [],
					"name": "status",
					"outputs": [
						{
							"internalType": "enum Enum.Status",
							"name": "",
							"type": "uint8"
						}
					],
					"stateMutability": "view",
					"type": "function"
				}
			],
			"devdoc": {
				"kind": "dev",
				"methods": {},
				"version": 1
			},
			"evm": {
				"assembly": "    /* \"8.4 Data Structures - Enums/enums.sol\":57:2277  contract Enum {... */\n  mstore(0x40, 0x80)\n  callvalue\n  dup1\n  iszero\n  tag_1\n  jumpi\n  revert(0x00, 0x00)\ntag_1:\n  pop\n  dataSize(sub_0)\n  dup1\n  dataOffset(sub_0)\n  0x00\n  codecopy\n  0x00\n  return\nstop\n\nsub_0: assembly {\n        /* \"8.4 Data Structures - Enums/enums.sol\":57:2277  contract Enum {... */\n      mstore(0x40, 0x80)\n      callvalue\n      dup1\n      iszero\n      tag_1\n      jumpi\n      revert(0x00, 0x00)\n    tag_1:\n      pop\n      jumpi(tag_2, lt(calldatasize, 0x04))\n      shr(0xe0, calldataload(0x00))\n      dup1\n      0x9c3466c8\n      gt\n      tag_15\n      jumpi\n      dup1\n      0x9c3466c8\n      eq\n      tag_9\n      jumpi\n      dup1\n      0xbf3094e9\n      eq\n      tag_10\n      jumpi\n      dup1\n      0xd826f88f\n      eq\n      tag_11\n      jumpi\n      dup1\n      0xde8fa431\n      eq\n      tag_12\n      jumpi\n      dup1\n      0xe4da41a7\n      eq\n      tag_13\n      jumpi\n      dup1\n      0xea8a1af0\n      eq\n      tag_14\n      jumpi\n      jump(tag_2)\n    tag_15:\n      dup1\n      0x8e0f1b\n      eq\n      tag_3\n      jumpi\n      dup1\n      0x033fca1d\n      eq\n      tag_4\n      jumpi\n      dup1\n      0x200d2ed2\n      eq\n      tag_5\n      jumpi\n      dup1\n      0x24b8ba5f\n      eq\n      tag_6\n      jumpi\n      dup1\n      0x6d4ce63c\n      eq\n      tag_7\n      jumpi\n      dup1\n      0x99400a5a\n      eq\n      tag_8\n      jumpi\n    tag_2:\n      revert(0x00, 0x00)\n        /* \"8.4 Data Structures - Enums/enums.sol\":1880:1965  function getTeam(uint id) public pure returns (Team) {... */\n    tag_3:\n      tag_16\n      0x04\n      dup1\n      calldatasize\n      sub\n      dup2\n      add\n      swap1\n      tag_17\n      swap2\n      swap1\n      tag_18\n      jump\t// in\n    tag_17:\n      tag_19\n      jump\t// in\n    tag_16:\n      mload(0x40)\n      tag_20\n      swap2\n      swap1\n      tag_21\n      jump\t// in\n    tag_20:\n      mload(0x40)\n      dup1\n      swap2\n      sub\n      swap1\n      return\n        /* \"8.4 Data Structures - Enums/enums.sol\":1738:1875  function getEmployes(address _addr) public isUserRegistered(_addr) view returns(Employes memory)  {... */\n    tag_4:\n      tag_22\n      0x04\n      dup1\n      calldatasize\n      sub\n      dup2\n      add\n      swap1\n      tag_23\n      swap2\n      swap1\n      tag_24\n      jump\t// in\n    tag_23:\n      tag_25\n      jump\t// in\n    tag_22:\n      mload(0x40)\n      tag_26\n      swap2\n      swap1\n      tag_27\n      jump\t// in\n    tag_26:\n      mload(0x40)\n      dup1\n      swap2\n      sub\n      swap1\n      return\n        /* \"8.4 Data Structures - Enums/enums.sol\":673:693  Status public status */\n    tag_5:\n      tag_28\n      tag_29\n      jump\t// in\n    tag_28:\n      mload(0x40)\n      tag_30\n      swap2\n      swap1\n      tag_31\n      jump\t// in\n    tag_30:\n      mload(0x40)\n      dup1\n      swap2\n      sub\n      swap1\n      return\n        /* \"8.4 Data Structures - Enums/enums.sol\":971:1040  function set(Status _status) public {... */\n    tag_6:\n      tag_32\n      0x04\n      dup1\n      calldatasize\n      sub\n      dup2\n      add\n      swap1\n      tag_33\n      swap2\n      swap1\n      tag_34\n      jump\t// in\n    tag_33:\n      tag_35\n      jump\t// in\n    tag_32:\n      stop\n        /* \"8.4 Data Structures - Enums/enums.sol\":843:917  function get() public view returns (Status) {... */\n    tag_7:\n      tag_36\n      tag_37\n      jump\t// in\n    tag_36:\n      mload(0x40)\n      tag_38\n      swap2\n      swap1\n      tag_31\n      jump\t// in\n    tag_38:\n      mload(0x40)\n      dup1\n      swap2\n      sub\n      swap1\n      return\n        /* \"8.4 Data Structures - Enums/enums.sol\":1362:1428  function setSize(Size _size) public {... */\n    tag_8:\n      tag_39\n      0x04\n      dup1\n      calldatasize\n      sub\n      dup2\n      add\n      swap1\n      tag_40\n      swap2\n      swap1\n      tag_41\n      jump\t// in\n    tag_40:\n      tag_42\n      jump\t// in\n    tag_39:\n      stop\n        /* \"8.4 Data Structures - Enums/enums.sol\":516:560  mapping(address => Employes) public employes */\n    tag_9:\n      tag_43\n      0x04\n      dup1\n      calldatasize\n      sub\n      dup2\n      add\n      swap1\n      tag_44\n      swap2\n      swap1\n      tag_24\n      jump\t// in\n    tag_44:\n      tag_45\n      jump\t// in\n    tag_43:\n      mload(0x40)\n      tag_46\n      swap6\n      swap5\n      swap4\n      swap3\n      swap2\n      swap1\n      tag_47\n      jump\t// in\n    tag_46:\n      mload(0x40)\n      dup1\n      swap2\n      sub\n      swap1\n      return\n        /* \"8.4 Data Structures - Enums/enums.sol\":1434:1732  function registerEmploye(string memory _name , uint8 _age , Team _team , address _addr) public isRegistered(_addr) {... */\n    tag_10:\n      tag_48\n      0x04\n      dup1\n      calldatasize\n      sub\n      dup2\n      add\n      swap1\n      tag_49\n      swap2\n      swap1\n      tag_50\n      jump\t// in\n    tag_49:\n      tag_51\n      jump\t// in\n    tag_48:\n      stop\n        /* \"8.4 Data Structures - Enums/enums.sol\":1221:1275  function reset() public {... */\n    tag_11:\n      tag_52\n      tag_53\n      jump\t// in\n    tag_52:\n      stop\n        /* \"8.4 Data Structures - Enums/enums.sol\":1281:1356  function getSize() public view returns (Size) {... */\n    tag_12:\n      tag_54\n      tag_55\n      jump\t// in\n    tag_54:\n      mload(0x40)\n      tag_56\n      swap2\n      swap1\n      tag_57\n      jump\t// in\n    tag_56:\n      mload(0x40)\n      dup1\n      swap2\n      sub\n      swap1\n      return\n        /* \"8.4 Data Structures - Enums/enums.sol\":699:716  Size public sizes */\n    tag_13:\n      tag_58\n      tag_59\n      jump\t// in\n    tag_58:\n      mload(0x40)\n      tag_60\n      swap2\n      swap1\n      tag_57\n      jump\t// in\n    tag_60:\n      mload(0x40)\n      dup1\n      swap2\n      sub\n      swap1\n      return\n        /* \"8.4 Data Structures - Enums/enums.sol\":1097:1163  function cancel() public {... */\n    tag_14:\n      tag_61\n      tag_62\n      jump\t// in\n    tag_61:\n      stop\n        /* \"8.4 Data Structures - Enums/enums.sol\":1880:1965  function getTeam(uint id) public pure returns (Team) {... */\n    tag_19:\n        /* \"8.4 Data Structures - Enums/enums.sol\":1927:1931  Team */\n      0x00\n        /* \"8.4 Data Structures - Enums/enums.sol\":1955:1957  id */\n      dup2\n        /* \"8.4 Data Structures - Enums/enums.sol\":1950:1958  Team(id) */\n      0x04\n      dup2\n      gt\n      iszero\n      tag_64\n      jumpi\n      tag_65\n      tag_66\n      jump\t// in\n    tag_65:\n    tag_64:\n        /* \"8.4 Data Structures - Enums/enums.sol\":1943:1958  return Team(id) */\n      swap1\n      pop\n        /* \"8.4 Data Structures - Enums/enums.sol\":1880:1965  function getTeam(uint id) public pure returns (Team) {... */\n      swap2\n      swap1\n      pop\n      jump\t// out\n        /* \"8.4 Data Structures - Enums/enums.sol\":1738:1875  function getEmployes(address _addr) public isUserRegistered(_addr) view returns(Employes memory)  {... */\n    tag_25:\n        /* \"8.4 Data Structures - Enums/enums.sol\":1818:1833  Employes memory */\n      tag_67\n      tag_68\n      jump\t// in\n    tag_67:\n        /* \"8.4 Data Structures - Enums/enums.sol\":1798:1803  _addr */\n      dup2\n        /* \"8.4 Data Structures - Enums/enums.sol\":2212:2216  true */\n      0x01\n        /* \"8.4 Data Structures - Enums/enums.sol\":2180:2216  employes[_addr].isRegistered == true */\n      iszero\n      iszero\n        /* \"8.4 Data Structures - Enums/enums.sol\":2180:2188  employes */\n      0x00\n        /* \"8.4 Data Structures - Enums/enums.sol\":2180:2195  employes[_addr] */\n      0x00\n        /* \"8.4 Data Structures - Enums/enums.sol\":2189:2194  _addr */\n      dup4\n        /* \"8.4 Data Structures - Enums/enums.sol\":2180:2195  employes[_addr] */\n      0xffffffffffffffffffffffffffffffffffffffff\n      and\n      0xffffffffffffffffffffffffffffffffffffffff\n      and\n      dup2\n      mstore\n      0x20\n      add\n      swap1\n      dup2\n      mstore\n      0x20\n      add\n      0x00\n      keccak256\n        /* \"8.4 Data Structures - Enums/enums.sol\":2180:2208  employes[_addr].isRegistered */\n      0x02\n      add\n      0x02\n      swap1\n      sload\n      swap1\n      0x0100\n      exp\n      swap1\n      div\n      0xff\n      and\n        /* \"8.4 Data Structures - Enums/enums.sol\":2180:2216  employes[_addr].isRegistered == true */\n      iszero\n      iszero\n      eq\n        /* \"8.4 Data Structures - Enums/enums.sol\":2172:2256  require(employes[_addr].isRegistered == true , \"The employes has not been register\") */\n      tag_70\n      jumpi\n      mload(0x40)\n      0x08c379a000000000000000000000000000000000000000000000000000000000\n      dup2\n      mstore\n      0x04\n      add\n      tag_71\n      swap1\n      tag_72\n      jump\t// in\n    tag_71:\n      mload(0x40)\n      dup1\n      swap2\n      sub\n      swap1\n      revert\n    tag_70:\n        /* \"8.4 Data Structures - Enums/enums.sol\":1853:1861  employes */\n      0x00\n        /* \"8.4 Data Structures - Enums/enums.sol\":1853:1868  employes[_addr] */\n      0x00\n        /* \"8.4 Data Structures - Enums/enums.sol\":1862:1867  _addr */\n      dup5\n        /* \"8.4 Data Structures - Enums/enums.sol\":1853:1868  employes[_addr] */\n      0xffffffffffffffffffffffffffffffffffffffff\n      and\n      0xffffffffffffffffffffffffffffffffffffffff\n      and\n      dup2\n      mstore\n      0x20\n      add\n      swap1\n      dup2\n      mstore\n      0x20\n      add\n      0x00\n      keccak256\n        /* \"8.4 Data Structures - Enums/enums.sol\":1846:1868  return employes[_addr] */\n      mload(0x40)\n      dup1\n      0xa0\n      add\n      0x40\n      mstore\n      swap1\n      dup2\n      0x00\n      dup3\n      add\n      0x00\n      swap1\n      sload\n      swap1\n      0x0100\n      exp\n      swap1\n      div\n      0xffffffffffffffffffffffffffffffffffffffff\n      and\n      0xffffffffffffffffffffffffffffffffffffffff\n      and\n      0xffffffffffffffffffffffffffffffffffffffff\n      and\n      dup2\n      mstore\n      0x20\n      add\n      0x01\n      dup3\n      add\n      dup1\n      sload\n      tag_74\n      swap1\n      tag_75\n      jump\t// in\n    tag_74:\n      dup1\n      0x1f\n      add\n      0x20\n      dup1\n      swap2\n      div\n      mul\n      0x20\n      add\n      mload(0x40)\n      swap1\n      dup2\n      add\n      0x40\n      mstore\n      dup1\n      swap3\n      swap2\n      swap1\n      dup2\n      dup2\n      mstore\n      0x20\n      add\n      dup3\n      dup1\n      sload\n      tag_76\n      swap1\n      tag_75\n      jump\t// in\n    tag_76:\n      dup1\n      iszero\n      tag_77\n      jumpi\n      dup1\n      0x1f\n      lt\n      tag_78\n      jumpi\n      0x0100\n      dup1\n      dup4\n      sload\n      div\n      mul\n      dup4\n      mstore\n      swap2\n      0x20\n      add\n      swap2\n      jump(tag_77)\n    tag_78:\n      dup3\n      add\n      swap2\n      swap1\n      0x00\n      mstore\n      keccak256(0x00, 0x20)\n      swap1\n    tag_79:\n      dup2\n      sload\n      dup2\n      mstore\n      swap1\n      0x01\n      add\n      swap1\n      0x20\n      add\n      dup1\n      dup4\n      gt\n      tag_79\n      jumpi\n      dup3\n      swap1\n      sub\n      0x1f\n      and\n      dup3\n      add\n      swap2\n    tag_77:\n      pop\n      pop\n      pop\n      pop\n      pop\n      dup2\n      mstore\n      0x20\n      add\n      0x02\n      dup3\n      add\n      0x00\n      swap1\n      sload\n      swap1\n      0x0100\n      exp\n      swap1\n      div\n      0xff\n      and\n      0xff\n      and\n      0xff\n      and\n      dup2\n      mstore\n      0x20\n      add\n      0x02\n      dup3\n      add\n      0x01\n      swap1\n      sload\n      swap1\n      0x0100\n      exp\n      swap1\n      div\n      0xff\n      and\n      0x04\n      dup2\n      gt\n      iszero\n      tag_80\n      jumpi\n      tag_81\n      tag_66\n      jump\t// in\n    tag_81:\n    tag_80:\n      0x04\n      dup2\n      gt\n      iszero\n      tag_82\n      jumpi\n      tag_83\n      tag_66\n      jump\t// in\n    tag_83:\n    tag_82:\n      dup2\n      mstore\n      0x20\n      add\n      0x02\n      dup3\n      add\n      0x02\n      swap1\n      sload\n      swap1\n      0x0100\n      exp\n      swap1\n      div\n      0xff\n      and\n      iszero\n      iszero\n      iszero\n      iszero\n      dup2\n      mstore\n      pop\n      pop\n      swap2\n      pop\n        /* \"8.4 Data Structures - Enums/enums.sol\":1738:1875  function getEmployes(address _addr) public isUserRegistered(_addr) view returns(Employes memory)  {... */\n      pop\n      swap2\n      swap1\n      pop\n      jump\t// out\n        /* \"8.4 Data Structures - Enums/enums.sol\":673:693  Status public status */\n    tag_29:\n      0x01\n      0x00\n      swap1\n      sload\n      swap1\n      0x0100\n      exp\n      swap1\n      div\n      0xff\n      and\n      dup2\n      jump\t// out\n        /* \"8.4 Data Structures - Enums/enums.sol\":971:1040  function set(Status _status) public {... */\n    tag_35:\n        /* \"8.4 Data Structures - Enums/enums.sol\":1026:1033  _status */\n      dup1\n        /* \"8.4 Data Structures - Enums/enums.sol\":1017:1023  status */\n      0x01\n      0x00\n        /* \"8.4 Data Structures - Enums/enums.sol\":1017:1033  status = _status */\n      0x0100\n      exp\n      dup2\n      sload\n      dup2\n      0xff\n      mul\n      not\n      and\n      swap1\n      dup4\n      0x04\n      dup2\n      gt\n      iszero\n      tag_85\n      jumpi\n      tag_86\n      tag_66\n      jump\t// in\n    tag_86:\n    tag_85:\n      mul\n      or\n      swap1\n      sstore\n      pop\n        /* \"8.4 Data Structures - Enums/enums.sol\":971:1040  function set(Status _status) public {... */\n      pop\n      jump\t// out\n        /* \"8.4 Data Structures - Enums/enums.sol\":843:917  function get() public view returns (Status) {... */\n    tag_37:\n        /* \"8.4 Data Structures - Enums/enums.sol\":879:885  Status */\n      0x00\n        /* \"8.4 Data Structures - Enums/enums.sol\":904:910  status */\n      0x01\n      0x00\n      swap1\n      sload\n      swap1\n      0x0100\n      exp\n      swap1\n      div\n      0xff\n      and\n        /* \"8.4 Data Structures - Enums/enums.sol\":897:910  return status */\n      swap1\n      pop\n        /* \"8.4 Data Structures - Enums/enums.sol\":843:917  function get() public view returns (Status) {... */\n      swap1\n      jump\t// out\n        /* \"8.4 Data Structures - Enums/enums.sol\":1362:1428  function setSize(Size _size) public {... */\n    tag_42:\n        /* \"8.4 Data Structures - Enums/enums.sol\":1416:1421  _size */\n      dup1\n        /* \"8.4 Data Structures - Enums/enums.sol\":1408:1413  sizes */\n      0x01\n      dup1\n        /* \"8.4 Data Structures - Enums/enums.sol\":1408:1421  sizes = _size */\n      0x0100\n      exp\n      dup2\n      sload\n      dup2\n      0xff\n      mul\n      not\n      and\n      swap1\n      dup4\n      0x02\n      dup2\n      gt\n      iszero\n      tag_89\n      jumpi\n      tag_90\n      tag_66\n      jump\t// in\n    tag_90:\n    tag_89:\n      mul\n      or\n      swap1\n      sstore\n      pop\n        /* \"8.4 Data Structures - Enums/enums.sol\":1362:1428  function setSize(Size _size) public {... */\n      pop\n      jump\t// out\n        /* \"8.4 Data Structures - Enums/enums.sol\":516:560  mapping(address => Employes) public employes */\n    tag_45:\n      mstore(0x20, 0x00)\n      dup1\n      0x00\n      mstore\n      keccak256(0x00, 0x40)\n      0x00\n      swap2\n      pop\n      swap1\n      pop\n      dup1\n      0x00\n      add\n      0x00\n      swap1\n      sload\n      swap1\n      0x0100\n      exp\n      swap1\n      div\n      0xffffffffffffffffffffffffffffffffffffffff\n      and\n      swap1\n      dup1\n      0x01\n      add\n      dup1\n      sload\n      tag_91\n      swap1\n      tag_75\n      jump\t// in\n    tag_91:\n      dup1\n      0x1f\n      add\n      0x20\n      dup1\n      swap2\n      div\n      mul\n      0x20\n      add\n      mload(0x40)\n      swap1\n      dup2\n      add\n      0x40\n      mstore\n      dup1\n      swap3\n      swap2\n      swap1\n      dup2\n      dup2\n      mstore\n      0x20\n      add\n      dup3\n      dup1\n      sload\n      tag_92\n      swap1\n      tag_75\n      jump\t// in\n    tag_92:\n      dup1\n      iszero\n      tag_93\n      jumpi\n      dup1\n      0x1f\n      lt\n      tag_94\n      jumpi\n      0x0100\n      dup1\n      dup4\n      sload\n      div\n      mul\n      dup4\n      mstore\n      swap2\n      0x20\n      add\n      swap2\n      jump(tag_93)\n    tag_94:\n      dup3\n      add\n      swap2\n      swap1\n      0x00\n      mstore\n      keccak256(0x00, 0x20)\n      swap1\n    tag_95:\n      dup2\n      sload\n      dup2\n      mstore\n      swap1\n      0x01\n      add\n      swap1\n      0x20\n      add\n      dup1\n      dup4\n      gt\n      tag_95\n      jumpi\n      dup3\n      swap1\n      sub\n      0x1f\n      and\n      dup3\n      add\n      swap2\n    tag_93:\n      pop\n      pop\n      pop\n      pop\n      pop\n      swap1\n      dup1\n      0x02\n      add\n      0x00\n      swap1\n      sload\n      swap1\n      0x0100\n      exp\n      swap1\n      div\n      0xff\n      and\n      swap1\n      dup1\n      0x02\n      add\n      0x01\n      swap1\n      sload\n      swap1\n      0x0100\n      exp\n      swap1\n      div\n      0xff\n      and\n      swap1\n      dup1\n      0x02\n      add\n      0x02\n      swap1\n      sload\n      swap1\n      0x0100\n      exp\n      swap1\n      div\n      0xff\n      and\n      swap1\n      pop\n      dup6\n      jump\t// out\n        /* \"8.4 Data Structures - Enums/enums.sol\":1434:1732  function registerEmploye(string memory _name , uint8 _age , Team _team , address _addr) public isRegistered(_addr) {... */\n    tag_51:\n        /* \"8.4 Data Structures - Enums/enums.sol\":1542:1547  _addr */\n      dup1\n        /* \"8.4 Data Structures - Enums/enums.sol\":2057:2062  false */\n      0x00\n        /* \"8.4 Data Structures - Enums/enums.sol\":2025:2062  employes[_addr].isRegistered == false */\n      iszero\n      iszero\n        /* \"8.4 Data Structures - Enums/enums.sol\":2025:2033  employes */\n      0x00\n        /* \"8.4 Data Structures - Enums/enums.sol\":2025:2040  employes[_addr] */\n      0x00\n        /* \"8.4 Data Structures - Enums/enums.sol\":2034:2039  _addr */\n      dup4\n        /* \"8.4 Data Structures - Enums/enums.sol\":2025:2040  employes[_addr] */\n      0xffffffffffffffffffffffffffffffffffffffff\n      and\n      0xffffffffffffffffffffffffffffffffffffffff\n      and\n      dup2\n      mstore\n      0x20\n      add\n      swap1\n      dup2\n      mstore\n      0x20\n      add\n      0x00\n      keccak256\n        /* \"8.4 Data Structures - Enums/enums.sol\":2025:2053  employes[_addr].isRegistered */\n      0x02\n      add\n      0x02\n      swap1\n      sload\n      swap1\n      0x0100\n      exp\n      swap1\n      div\n      0xff\n      and\n        /* \"8.4 Data Structures - Enums/enums.sol\":2025:2062  employes[_addr].isRegistered == false */\n      iszero\n      iszero\n      eq\n        /* \"8.4 Data Structures - Enums/enums.sol\":2017:2098  require(employes[_addr].isRegistered == false , \"The employes has been register\") */\n      tag_97\n      jumpi\n      mload(0x40)\n      0x08c379a000000000000000000000000000000000000000000000000000000000\n      dup2\n      mstore\n      0x04\n      add\n      tag_98\n      swap1\n      tag_99\n      jump\t// in\n    tag_98:\n      mload(0x40)\n      dup1\n      swap2\n      sub\n      swap1\n      revert\n    tag_97:\n        /* \"8.4 Data Structures - Enums/enums.sol\":1577:1725  Employes({... */\n      mload(0x40)\n      dup1\n      0xa0\n      add\n      0x40\n      mstore\n      dup1\n        /* \"8.4 Data Structures - Enums/enums.sol\":1604:1609  _addr */\n      dup4\n        /* \"8.4 Data Structures - Enums/enums.sol\":1577:1725  Employes({... */\n      0xffffffffffffffffffffffffffffffffffffffff\n      and\n      dup2\n      mstore\n      0x20\n      add\n        /* \"8.4 Data Structures - Enums/enums.sol\":1629:1634  _name */\n      dup7\n        /* \"8.4 Data Structures - Enums/enums.sol\":1577:1725  Employes({... */\n      dup2\n      mstore\n      0x20\n      add\n        /* \"8.4 Data Structures - Enums/enums.sol\":1653:1657  _age */\n      dup6\n        /* \"8.4 Data Structures - Enums/enums.sol\":1577:1725  Employes({... */\n      0xff\n      and\n      dup2\n      mstore\n      0x20\n      add\n        /* \"8.4 Data Structures - Enums/enums.sol\":1677:1682  _team */\n      dup5\n        /* \"8.4 Data Structures - Enums/enums.sol\":1577:1725  Employes({... */\n      0x04\n      dup2\n      gt\n      iszero\n      tag_101\n      jumpi\n      tag_102\n      tag_66\n      jump\t// in\n    tag_102:\n    tag_101:\n      dup2\n      mstore\n      0x20\n      add\n        /* \"8.4 Data Structures - Enums/enums.sol\":1710:1714  true */\n      0x01\n        /* \"8.4 Data Structures - Enums/enums.sol\":1577:1725  Employes({... */\n      iszero\n      iszero\n      dup2\n      mstore\n      pop\n        /* \"8.4 Data Structures - Enums/enums.sol\":1559:1567  employes */\n      0x00\n        /* \"8.4 Data Structures - Enums/enums.sol\":1559:1574  employes[_addr] */\n      0x00\n        /* \"8.4 Data Structures - Enums/enums.sol\":1568:1573  _addr */\n      dup5\n        /* \"8.4 Data Structures - Enums/enums.sol\":1559:1574  employes[_addr] */\n      0xffffffffffffffffffffffffffffffffffffffff\n      and\n      0xffffffffffffffffffffffffffffffffffffffff\n      and\n      dup2\n      mstore\n      0x20\n      add\n      swap1\n      dup2\n      mstore\n      0x20\n      add\n      0x00\n      keccak256\n        /* \"8.4 Data Structures - Enums/enums.sol\":1559:1725  employes[_addr] = Employes({... */\n      0x00\n      dup3\n      add\n      mload\n      dup2\n      0x00\n      add\n      exp(0x0100, 0x00)\n      dup2\n      sload\n      dup2\n      0xffffffffffffffffffffffffffffffffffffffff\n      mul\n      not\n      and\n      swap1\n      dup4\n      0xffffffffffffffffffffffffffffffffffffffff\n      and\n      mul\n      or\n      swap1\n      sstore\n      pop\n      0x20\n      dup3\n      add\n      mload\n      dup2\n      0x01\n      add\n      swap1\n      dup2\n      tag_103\n      swap2\n      swap1\n      tag_104\n      jump\t// in\n    tag_103:\n      pop\n      0x40\n      dup3\n      add\n      mload\n      dup2\n      0x02\n      add\n      exp(0x0100, 0x00)\n      dup2\n      sload\n      dup2\n      0xff\n      mul\n      not\n      and\n      swap1\n      dup4\n      0xff\n      and\n      mul\n      or\n      swap1\n      sstore\n      pop\n      0x60\n      dup3\n      add\n      mload\n      dup2\n      0x02\n      add\n      exp(0x0100, 0x01)\n      dup2\n      sload\n      dup2\n      0xff\n      mul\n      not\n      and\n      swap1\n      dup4\n      0x04\n      dup2\n      gt\n      iszero\n      tag_105\n      jumpi\n      tag_106\n      tag_66\n      jump\t// in\n    tag_106:\n    tag_105:\n      mul\n      or\n      swap1\n      sstore\n      pop\n      0x80\n      dup3\n      add\n      mload\n      dup2\n      0x02\n      add\n      exp(0x0100, 0x02)\n      dup2\n      sload\n      dup2\n      0xff\n      mul\n      not\n      and\n      swap1\n      dup4\n      iszero\n      iszero\n      mul\n      or\n      swap1\n      sstore\n      pop\n      swap1\n      pop\n      pop\n        /* \"8.4 Data Structures - Enums/enums.sol\":1434:1732  function registerEmploye(string memory _name , uint8 _age , Team _team , address _addr) public isRegistered(_addr) {... */\n      pop\n      pop\n      pop\n      pop\n      pop\n      jump\t// out\n        /* \"8.4 Data Structures - Enums/enums.sol\":1221:1275  function reset() public {... */\n    tag_53:\n        /* \"8.4 Data Structures - Enums/enums.sol\":1262:1268  status */\n      0x01\n      0x00\n        /* \"8.4 Data Structures - Enums/enums.sol\":1255:1268  delete status */\n      0x0100\n      exp\n      dup2\n      sload\n      swap1\n      0xff\n      mul\n      not\n      and\n      swap1\n      sstore\n        /* \"8.4 Data Structures - Enums/enums.sol\":1221:1275  function reset() public {... */\n      jump\t// out\n        /* \"8.4 Data Structures - Enums/enums.sol\":1281:1356  function getSize() public view returns (Size) {... */\n    tag_55:\n        /* \"8.4 Data Structures - Enums/enums.sol\":1321:1325  Size */\n      0x00\n        /* \"8.4 Data Structures - Enums/enums.sol\":1344:1349  sizes */\n      0x01\n      dup1\n      sload\n      swap1\n      0x0100\n      exp\n      swap1\n      div\n      0xff\n      and\n        /* \"8.4 Data Structures - Enums/enums.sol\":1337:1349  return sizes */\n      swap1\n      pop\n        /* \"8.4 Data Structures - Enums/enums.sol\":1281:1356  function getSize() public view returns (Size) {... */\n      swap1\n      jump\t// out\n        /* \"8.4 Data Structures - Enums/enums.sol\":699:716  Size public sizes */\n    tag_59:\n      0x01\n      dup1\n      sload\n      swap1\n      0x0100\n      exp\n      swap1\n      div\n      0xff\n      and\n      dup2\n      jump\t// out\n        /* \"8.4 Data Structures - Enums/enums.sol\":1097:1163  function cancel() public {... */\n    tag_62:\n        /* \"8.4 Data Structures - Enums/enums.sol\":1141:1156  Status.Canceled */\n      0x04\n        /* \"8.4 Data Structures - Enums/enums.sol\":1132:1138  status */\n      0x01\n      0x00\n        /* \"8.4 Data Structures - Enums/enums.sol\":1132:1156  status = Status.Canceled */\n      0x0100\n      exp\n      dup2\n      sload\n      dup2\n      0xff\n      mul\n      not\n      and\n      swap1\n      dup4\n      0x04\n      dup2\n      gt\n      iszero\n      tag_110\n      jumpi\n      tag_111\n      tag_66\n      jump\t// in\n    tag_111:\n    tag_110:\n      mul\n      or\n      swap1\n      sstore\n      pop\n        /* \"8.4 Data Structures - Enums/enums.sol\":1097:1163  function cancel() public {... */\n      jump\t// out\n    tag_68:\n      mload(0x40)\n      dup1\n      0xa0\n      add\n      0x40\n      mstore\n      dup1\n      and(0xffffffffffffffffffffffffffffffffffffffff, 0x00)\n      dup2\n      mstore\n      0x20\n      add\n      0x60\n      dup2\n      mstore\n      0x20\n      add\n      and(0xff, 0x00)\n      dup2\n      mstore\n      0x20\n      add\n      0x00\n      0x04\n      dup2\n      gt\n      iszero\n      tag_112\n      jumpi\n      tag_113\n      tag_66\n      jump\t// in\n    tag_113:\n    tag_112:\n      dup2\n      mstore\n      0x20\n      add\n      iszero(iszero(0x00))\n      dup2\n      mstore\n      pop\n      swap1\n      jump\t// out\n        /* \"#utility.yul\":7:82   */\n    tag_114:\n        /* \"#utility.yul\":40:46   */\n      0x00\n        /* \"#utility.yul\":73:75   */\n      0x40\n        /* \"#utility.yul\":67:76   */\n      mload\n        /* \"#utility.yul\":57:76   */\n      swap1\n      pop\n        /* \"#utility.yul\":7:82   */\n      swap1\n      jump\t// out\n        /* \"#utility.yul\":88:205   */\n    tag_115:\n        /* \"#utility.yul\":197:198   */\n      0x00\n        /* \"#utility.yul\":194:195   */\n      0x00\n        /* \"#utility.yul\":187:199   */\n      revert\n        /* \"#utility.yul\":211:328   */\n    tag_116:\n        /* \"#utility.yul\":320:321   */\n      0x00\n        /* \"#utility.yul\":317:318   */\n      0x00\n        /* \"#utility.yul\":310:322   */\n      revert\n        /* \"#utility.yul\":334:411   */\n    tag_117:\n        /* \"#utility.yul\":371:378   */\n      0x00\n        /* \"#utility.yul\":400:405   */\n      dup2\n        /* \"#utility.yul\":389:405   */\n      swap1\n      pop\n        /* \"#utility.yul\":334:411   */\n      swap2\n      swap1\n      pop\n      jump\t// out\n        /* \"#utility.yul\":417:539   */\n    tag_118:\n        /* \"#utility.yul\":490:514   */\n      tag_196\n        /* \"#utility.yul\":508:513   */\n      dup2\n        /* \"#utility.yul\":490:514   */\n      tag_117\n      jump\t// in\n    tag_196:\n        /* \"#utility.yul\":483:488   */\n      dup2\n        /* \"#utility.yul\":480:515   */\n      eq\n        /* \"#utility.yul\":470:533   */\n      tag_197\n      jumpi\n        /* \"#utility.yul\":529:530   */\n      0x00\n        /* \"#utility.yul\":526:527   */\n      0x00\n        /* \"#utility.yul\":519:531   */\n      revert\n        /* \"#utility.yul\":470:533   */\n    tag_197:\n        /* \"#utility.yul\":417:539   */\n      pop\n      jump\t// out\n        /* \"#utility.yul\":545:684   */\n    tag_119:\n        /* \"#utility.yul\":591:596   */\n      0x00\n        /* \"#utility.yul\":629:635   */\n      dup2\n        /* \"#utility.yul\":616:636   */\n      calldataload\n        /* \"#utility.yul\":607:636   */\n      swap1\n      pop\n        /* \"#utility.yul\":645:678   */\n      tag_199\n        /* \"#utility.yul\":672:677   */\n      dup2\n        /* \"#utility.yul\":645:678   */\n      tag_118\n      jump\t// in\n    tag_199:\n        /* \"#utility.yul\":545:684   */\n      swap3\n      swap2\n      pop\n      pop\n      jump\t// out\n        /* \"#utility.yul\":690:1019   */\n    tag_18:\n        /* \"#utility.yul\":749:755   */\n      0x00\n        /* \"#utility.yul\":798:800   */\n      0x20\n        /* \"#utility.yul\":786:795   */\n      dup3\n        /* \"#utility.yul\":777:784   */\n      dup5\n        /* \"#utility.yul\":773:796   */\n      sub\n        /* \"#utility.yul\":769:801   */\n      slt\n        /* \"#utility.yul\":766:885   */\n      iszero\n      tag_201\n      jumpi\n        /* \"#utility.yul\":804:883   */\n      tag_202\n      tag_115\n      jump\t// in\n    tag_202:\n        /* \"#utility.yul\":766:885   */\n    tag_201:\n        /* \"#utility.yul\":924:925   */\n      0x00\n        /* \"#utility.yul\":949:1002   */\n      tag_203\n        /* \"#utility.yul\":994:1001   */\n      dup5\n        /* \"#utility.yul\":985:991   */\n      dup3\n        /* \"#utility.yul\":974:983   */\n      dup6\n        /* \"#utility.yul\":970:992   */\n      add\n        /* \"#utility.yul\":949:1002   */\n      tag_119\n      jump\t// in\n    tag_203:\n        /* \"#utility.yul\":939:1002   */\n      swap2\n      pop\n        /* \"#utility.yul\":895:1012   */\n      pop\n        /* \"#utility.yul\":690:1019   */\n      swap3\n      swap2\n      pop\n      pop\n      jump\t// out\n        /* \"#utility.yul\":1025:1205   */\n    tag_66:\n        /* \"#utility.yul\":1073:1150   */\n      0x4e487b7100000000000000000000000000000000000000000000000000000000\n        /* \"#utility.yul\":1070:1071   */\n      0x00\n        /* \"#utility.yul\":1063:1151   */\n      mstore\n        /* \"#utility.yul\":1170:1174   */\n      0x21\n        /* \"#utility.yul\":1167:1168   */\n      0x04\n        /* \"#utility.yul\":1160:1175   */\n      mstore\n        /* \"#utility.yul\":1194:1198   */\n      0x24\n        /* \"#utility.yul\":1191:1192   */\n      0x00\n        /* \"#utility.yul\":1184:1199   */\n      revert\n        /* \"#utility.yul\":1211:1323   */\n    tag_120:\n        /* \"#utility.yul\":1291:1292   */\n      0x05\n        /* \"#utility.yul\":1284:1289   */\n      dup2\n        /* \"#utility.yul\":1281:1293   */\n      lt\n        /* \"#utility.yul\":1271:1317   */\n      tag_206\n      jumpi\n        /* \"#utility.yul\":1297:1315   */\n      tag_207\n      tag_66\n      jump\t// in\n    tag_207:\n        /* \"#utility.yul\":1271:1317   */\n    tag_206:\n        /* \"#utility.yul\":1211:1323   */\n      pop\n      jump\t// out\n        /* \"#utility.yul\":1329:1454   */\n    tag_121:\n        /* \"#utility.yul\":1373:1380   */\n      0x00\n        /* \"#utility.yul\":1402:1407   */\n      dup2\n        /* \"#utility.yul\":1391:1407   */\n      swap1\n      pop\n        /* \"#utility.yul\":1408:1448   */\n      tag_209\n        /* \"#utility.yul\":1442:1447   */\n      dup3\n        /* \"#utility.yul\":1408:1448   */\n      tag_120\n      jump\t// in\n    tag_209:\n        /* \"#utility.yul\":1329:1454   */\n      swap2\n      swap1\n      pop\n      jump\t// out\n        /* \"#utility.yul\":1460:1585   */\n    tag_122:\n        /* \"#utility.yul\":1515:1524   */\n      0x00\n        /* \"#utility.yul\":1548:1579   */\n      tag_211\n        /* \"#utility.yul\":1573:1578   */\n      dup3\n        /* \"#utility.yul\":1548:1579   */\n      tag_121\n      jump\t// in\n    tag_211:\n        /* \"#utility.yul\":1535:1579   */\n      swap1\n      pop\n        /* \"#utility.yul\":1460:1585   */\n      swap2\n      swap1\n      pop\n      jump\t// out\n        /* \"#utility.yul\":1591:1732   */\n    tag_123:\n        /* \"#utility.yul\":1683:1725   */\n      tag_213\n        /* \"#utility.yul\":1719:1724   */\n      dup2\n        /* \"#utility.yul\":1683:1725   */\n      tag_122\n      jump\t// in\n    tag_213:\n        /* \"#utility.yul\":1678:1681   */\n      dup3\n        /* \"#utility.yul\":1671:1726   */\n      mstore\n        /* \"#utility.yul\":1591:1732   */\n      pop\n      pop\n      jump\t// out\n        /* \"#utility.yul\":1738:1970   */\n    tag_21:\n        /* \"#utility.yul\":1836:1840   */\n      0x00\n        /* \"#utility.yul\":1874:1876   */\n      0x20\n        /* \"#utility.yul\":1863:1872   */\n      dup3\n        /* \"#utility.yul\":1859:1877   */\n      add\n        /* \"#utility.yul\":1851:1877   */\n      swap1\n      pop\n        /* \"#utility.yul\":1887:1963   */\n      tag_215\n        /* \"#utility.yul\":1960:1961   */\n      0x00\n        /* \"#utility.yul\":1949:1958   */\n      dup4\n        /* \"#utility.yul\":1945:1962   */\n      add\n        /* \"#utility.yul\":1936:1942   */\n      dup5\n        /* \"#utility.yul\":1887:1963   */\n      tag_123\n      jump\t// in\n    tag_215:\n        /* \"#utility.yul\":1738:1970   */\n      swap3\n      swap2\n      pop\n      pop\n      jump\t// out\n        /* \"#utility.yul\":1976:2102   */\n    tag_124:\n        /* \"#utility.yul\":2013:2020   */\n      0x00\n        /* \"#utility.yul\":2053:2095   */\n      0xffffffffffffffffffffffffffffffffffffffff\n        /* \"#utility.yul\":2046:2051   */\n      dup3\n        /* \"#utility.yul\":2042:2096   */\n      and\n        /* \"#utility.yul\":2031:2096   */\n      swap1\n      pop\n        /* \"#utility.yul\":1976:2102   */\n      swap2\n      swap1\n      pop\n      jump\t// out\n        /* \"#utility.yul\":2108:2204   */\n    tag_125:\n        /* \"#utility.yul\":2145:2152   */\n      0x00\n        /* \"#utility.yul\":2174:2198   */\n      tag_218\n        /* \"#utility.yul\":2192:2197   */\n      dup3\n        /* \"#utility.yul\":2174:2198   */\n      tag_124\n      jump\t// in\n    tag_218:\n        /* \"#utility.yul\":2163:2198   */\n      swap1\n      pop\n        /* \"#utility.yul\":2108:2204   */\n      swap2\n      swap1\n      pop\n      jump\t// out\n        /* \"#utility.yul\":2210:2332   */\n    tag_126:\n        /* \"#utility.yul\":2283:2307   */\n      tag_220\n        /* \"#utility.yul\":2301:2306   */\n      dup2\n        /* \"#utility.yul\":2283:2307   */\n      tag_125\n      jump\t// in\n    tag_220:\n        /* \"#utility.yul\":2276:2281   */\n      dup2\n        /* \"#utility.yul\":2273:2308   */\n      eq\n        /* \"#utility.yul\":2263:2326   */\n      tag_221\n      jumpi\n        /* \"#utility.yul\":2322:2323   */\n      0x00\n        /* \"#utility.yul\":2319:2320   */\n      0x00\n        /* \"#utility.yul\":2312:2324   */\n      revert\n        /* \"#utility.yul\":2263:2326   */\n    tag_221:\n        /* \"#utility.yul\":2210:2332   */\n      pop\n      jump\t// out\n        /* \"#utility.yul\":2338:2477   */\n    tag_127:\n        /* \"#utility.yul\":2384:2389   */\n      0x00\n        /* \"#utility.yul\":2422:2428   */\n      dup2\n        /* \"#utility.yul\":2409:2429   */\n      calldataload\n        /* \"#utility.yul\":2400:2429   */\n      swap1\n      pop\n        /* \"#utility.yul\":2438:2471   */\n      tag_223\n        /* \"#utility.yul\":2465:2470   */\n      dup2\n        /* \"#utility.yul\":2438:2471   */\n      tag_126\n      jump\t// in\n    tag_223:\n        /* \"#utility.yul\":2338:2477   */\n      swap3\n      swap2\n      pop\n      pop\n      jump\t// out\n        /* \"#utility.yul\":2483:2812   */\n    tag_24:\n        /* \"#utility.yul\":2542:2548   */\n      0x00\n        /* \"#utility.yul\":2591:2593   */\n      0x20\n        /* \"#utility.yul\":2579:2588   */\n      dup3\n        /* \"#utility.yul\":2570:2577   */\n      dup5\n        /* \"#utility.yul\":2566:2589   */\n      sub\n        /* \"#utility.yul\":2562:2594   */\n      slt\n        /* \"#utility.yul\":2559:2678   */\n      iszero\n      tag_225\n      jumpi\n        /* \"#utility.yul\":2597:2676   */\n      tag_226\n      tag_115\n      jump\t// in\n    tag_226:\n        /* \"#utility.yul\":2559:2678   */\n    tag_225:\n        /* \"#utility.yul\":2717:2718   */\n      0x00\n        /* \"#utility.yul\":2742:2795   */\n      tag_227\n        /* \"#utility.yul\":2787:2794   */\n      dup5\n        /* \"#utility.yul\":2778:2784   */\n      dup3\n        /* \"#utility.yul\":2767:2776   */\n      dup6\n        /* \"#utility.yul\":2763:2785   */\n      add\n        /* \"#utility.yul\":2742:2795   */\n      tag_127\n      jump\t// in\n    tag_227:\n        /* \"#utility.yul\":2732:2795   */\n      swap2\n      pop\n        /* \"#utility.yul\":2688:2805   */\n      pop\n        /* \"#utility.yul\":2483:2812   */\n      swap3\n      swap2\n      pop\n      pop\n      jump\t// out\n        /* \"#utility.yul\":2818:2926   */\n    tag_128:\n        /* \"#utility.yul\":2895:2919   */\n      tag_229\n        /* \"#utility.yul\":2913:2918   */\n      dup2\n        /* \"#utility.yul\":2895:2919   */\n      tag_125\n      jump\t// in\n    tag_229:\n        /* \"#utility.yul\":2890:2893   */\n      dup3\n        /* \"#utility.yul\":2883:2920   */\n      mstore\n        /* \"#utility.yul\":2818:2926   */\n      pop\n      pop\n      jump\t// out\n        /* \"#utility.yul\":2932:3031   */\n    tag_129:\n        /* \"#utility.yul\":2984:2990   */\n      0x00\n        /* \"#utility.yul\":3018:3023   */\n      dup2\n        /* \"#utility.yul\":3012:3024   */\n      mload\n        /* \"#utility.yul\":3002:3024   */\n      swap1\n      pop\n        /* \"#utility.yul\":2932:3031   */\n      swap2\n      swap1\n      pop\n      jump\t// out\n        /* \"#utility.yul\":3037:3196   */\n    tag_130:\n        /* \"#utility.yul\":3111:3122   */\n      0x00\n        /* \"#utility.yul\":3145:3151   */\n      dup3\n        /* \"#utility.yul\":3140:3143   */\n      dup3\n        /* \"#utility.yul\":3133:3152   */\n      mstore\n        /* \"#utility.yul\":3185:3189   */\n      0x20\n        /* \"#utility.yul\":3180:3183   */\n      dup3\n        /* \"#utility.yul\":3176:3190   */\n      add\n        /* \"#utility.yul\":3161:3190   */\n      swap1\n      pop\n        /* \"#utility.yul\":3037:3196   */\n      swap3\n      swap2\n      pop\n      pop\n      jump\t// out\n        /* \"#utility.yul\":3202:3341   */\n    tag_131:\n        /* \"#utility.yul\":3291:3297   */\n      dup3\n        /* \"#utility.yul\":3286:3289   */\n      dup2\n        /* \"#utility.yul\":3281:3284   */\n      dup4\n        /* \"#utility.yul\":3275:3298   */\n      mcopy\n        /* \"#utility.yul\":3332:3333   */\n      0x00\n        /* \"#utility.yul\":3323:3329   */\n      dup4\n        /* \"#utility.yul\":3318:3321   */\n      dup4\n        /* \"#utility.yul\":3314:3330   */\n      add\n        /* \"#utility.yul\":3307:3334   */\n      mstore\n        /* \"#utility.yul\":3202:3341   */\n      pop\n      pop\n      pop\n      jump\t// out\n        /* \"#utility.yul\":3347:3449   */\n    tag_132:\n        /* \"#utility.yul\":3388:3394   */\n      0x00\n        /* \"#utility.yul\":3439:3441   */\n      0x1f\n        /* \"#utility.yul\":3435:3442   */\n      not\n        /* \"#utility.yul\":3430:3432   */\n      0x1f\n        /* \"#utility.yul\":3423:3428   */\n      dup4\n        /* \"#utility.yul\":3419:3433   */\n      add\n        /* \"#utility.yul\":3415:3443   */\n      and\n        /* \"#utility.yul\":3405:3443   */\n      swap1\n      pop\n        /* \"#utility.yul\":3347:3449   */\n      swap2\n      swap1\n      pop\n      jump\t// out\n        /* \"#utility.yul\":3455:3812   */\n    tag_133:\n        /* \"#utility.yul\":3533:3536   */\n      0x00\n        /* \"#utility.yul\":3561:3600   */\n      tag_235\n        /* \"#utility.yul\":3594:3599   */\n      dup3\n        /* \"#utility.yul\":3561:3600   */\n      tag_129\n      jump\t// in\n    tag_235:\n        /* \"#utility.yul\":3616:3677   */\n      tag_236\n        /* \"#utility.yul\":3670:3676   */\n      dup2\n        /* \"#utility.yul\":3665:3668   */\n      dup6\n        /* \"#utility.yul\":3616:3677   */\n      tag_130\n      jump\t// in\n    tag_236:\n        /* \"#utility.yul\":3609:3677   */\n      swap4\n      pop\n        /* \"#utility.yul\":3686:3751   */\n      tag_237\n        /* \"#utility.yul\":3744:3750   */\n      dup2\n        /* \"#utility.yul\":3739:3742   */\n      dup6\n        /* \"#utility.yul\":3732:3736   */\n      0x20\n        /* \"#utility.yul\":3725:3730   */\n      dup7\n        /* \"#utility.yul\":3721:3737   */\n      add\n        /* \"#utility.yul\":3686:3751   */\n      tag_131\n      jump\t// in\n    tag_237:\n        /* \"#utility.yul\":3776:3805   */\n      tag_238\n        /* \"#utility.yul\":3798:3804   */\n      dup2\n        /* \"#utility.yul\":3776:3805   */\n      tag_132\n      jump\t// in\n    tag_238:\n        /* \"#utility.yul\":3771:3774   */\n      dup5\n        /* \"#utility.yul\":3767:3806   */\n      add\n        /* \"#utility.yul\":3760:3806   */\n      swap2\n      pop\n        /* \"#utility.yul\":3537:3812   */\n      pop\n        /* \"#utility.yul\":3455:3812   */\n      swap3\n      swap2\n      pop\n      pop\n      jump\t// out\n        /* \"#utility.yul\":3818:3904   */\n    tag_134:\n        /* \"#utility.yul\":3853:3860   */\n      0x00\n        /* \"#utility.yul\":3893:3897   */\n      0xff\n        /* \"#utility.yul\":3886:3891   */\n      dup3\n        /* \"#utility.yul\":3882:3898   */\n      and\n        /* \"#utility.yul\":3871:3898   */\n      swap1\n      pop\n        /* \"#utility.yul\":3818:3904   */\n      swap2\n      swap1\n      pop\n      jump\t// out\n        /* \"#utility.yul\":3910:4012   */\n    tag_135:\n        /* \"#utility.yul\":3983:4005   */\n      tag_241\n        /* \"#utility.yul\":3999:4004   */\n      dup2\n        /* \"#utility.yul\":3983:4005   */\n      tag_134\n      jump\t// in\n    tag_241:\n        /* \"#utility.yul\":3978:3981   */\n      dup3\n        /* \"#utility.yul\":3971:4006   */\n      mstore\n        /* \"#utility.yul\":3910:4012   */\n      pop\n      pop\n      jump\t// out\n        /* \"#utility.yul\":4018:4149   */\n    tag_136:\n        /* \"#utility.yul\":4100:4142   */\n      tag_243\n        /* \"#utility.yul\":4136:4141   */\n      dup2\n        /* \"#utility.yul\":4100:4142   */\n      tag_122\n      jump\t// in\n    tag_243:\n        /* \"#utility.yul\":4095:4098   */\n      dup3\n        /* \"#utility.yul\":4088:4143   */\n      mstore\n        /* \"#utility.yul\":4018:4149   */\n      pop\n      pop\n      jump\t// out\n        /* \"#utility.yul\":4155:4245   */\n    tag_137:\n        /* \"#utility.yul\":4189:4196   */\n      0x00\n        /* \"#utility.yul\":4232:4237   */\n      dup2\n        /* \"#utility.yul\":4225:4238   */\n      iszero\n        /* \"#utility.yul\":4218:4239   */\n      iszero\n        /* \"#utility.yul\":4207:4239   */\n      swap1\n      pop\n        /* \"#utility.yul\":4155:4245   */\n      swap2\n      swap1\n      pop\n      jump\t// out\n        /* \"#utility.yul\":4251:4350   */\n    tag_138:\n        /* \"#utility.yul\":4322:4343   */\n      tag_246\n        /* \"#utility.yul\":4337:4342   */\n      dup2\n        /* \"#utility.yul\":4322:4343   */\n      tag_137\n      jump\t// in\n    tag_246:\n        /* \"#utility.yul\":4317:4320   */\n      dup3\n        /* \"#utility.yul\":4310:4344   */\n      mstore\n        /* \"#utility.yul\":4251:4350   */\n      pop\n      pop\n      jump\t// out\n        /* \"#utility.yul\":4408:5534   */\n    tag_139:\n        /* \"#utility.yul\":4525:4528   */\n      0x00\n        /* \"#utility.yul\":4561:4565   */\n      0xa0\n        /* \"#utility.yul\":4556:4559   */\n      dup4\n        /* \"#utility.yul\":4552:4566   */\n      add\n        /* \"#utility.yul\":4646:4650   */\n      0x00\n        /* \"#utility.yul\":4639:4644   */\n      dup4\n        /* \"#utility.yul\":4635:4651   */\n      add\n        /* \"#utility.yul\":4629:4652   */\n      mload\n        /* \"#utility.yul\":4665:4728   */\n      tag_248\n        /* \"#utility.yul\":4722:4726   */\n      0x00\n        /* \"#utility.yul\":4717:4720   */\n      dup7\n        /* \"#utility.yul\":4713:4727   */\n      add\n        /* \"#utility.yul\":4699:4711   */\n      dup3\n        /* \"#utility.yul\":4665:4728   */\n      tag_128\n      jump\t// in\n    tag_248:\n        /* \"#utility.yul\":4576:4738   */\n      pop\n        /* \"#utility.yul\":4820:4824   */\n      0x20\n        /* \"#utility.yul\":4813:4818   */\n      dup4\n        /* \"#utility.yul\":4809:4825   */\n      add\n        /* \"#utility.yul\":4803:4826   */\n      mload\n        /* \"#utility.yul\":4873:4876   */\n      dup5\n        /* \"#utility.yul\":4867:4871   */\n      dup3\n        /* \"#utility.yul\":4863:4877   */\n      sub\n        /* \"#utility.yul\":4856:4860   */\n      0x20\n        /* \"#utility.yul\":4851:4854   */\n      dup7\n        /* \"#utility.yul\":4847:4861   */\n      add\n        /* \"#utility.yul\":4840:4878   */\n      mstore\n        /* \"#utility.yul\":4899:4972   */\n      tag_249\n        /* \"#utility.yul\":4967:4971   */\n      dup3\n        /* \"#utility.yul\":4953:4965   */\n      dup3\n        /* \"#utility.yul\":4899:4972   */\n      tag_133\n      jump\t// in\n    tag_249:\n        /* \"#utility.yul\":4891:4972   */\n      swap2\n      pop\n        /* \"#utility.yul\":4748:4983   */\n      pop\n        /* \"#utility.yul\":5064:5068   */\n      0x40\n        /* \"#utility.yul\":5057:5062   */\n      dup4\n        /* \"#utility.yul\":5053:5069   */\n      add\n        /* \"#utility.yul\":5047:5070   */\n      mload\n        /* \"#utility.yul\":5083:5142   */\n      tag_250\n        /* \"#utility.yul\":5136:5140   */\n      0x40\n        /* \"#utility.yul\":5131:5134   */\n      dup7\n        /* \"#utility.yul\":5127:5141   */\n      add\n        /* \"#utility.yul\":5113:5125   */\n      dup3\n        /* \"#utility.yul\":5083:5142   */\n      tag_135\n      jump\t// in\n    tag_250:\n        /* \"#utility.yul\":4993:5152   */\n      pop\n        /* \"#utility.yul\":5234:5238   */\n      0x60\n        /* \"#utility.yul\":5227:5232   */\n      dup4\n        /* \"#utility.yul\":5223:5239   */\n      add\n        /* \"#utility.yul\":5217:5240   */\n      mload\n        /* \"#utility.yul\":5253:5321   */\n      tag_251\n        /* \"#utility.yul\":5315:5319   */\n      0x60\n        /* \"#utility.yul\":5310:5313   */\n      dup7\n        /* \"#utility.yul\":5306:5320   */\n      add\n        /* \"#utility.yul\":5292:5304   */\n      dup3\n        /* \"#utility.yul\":5253:5321   */\n      tag_136\n      jump\t// in\n    tag_251:\n        /* \"#utility.yul\":5162:5331   */\n      pop\n        /* \"#utility.yul\":5421:5425   */\n      0x80\n        /* \"#utility.yul\":5414:5419   */\n      dup4\n        /* \"#utility.yul\":5410:5426   */\n      add\n        /* \"#utility.yul\":5404:5427   */\n      mload\n        /* \"#utility.yul\":5440:5497   */\n      tag_252\n        /* \"#utility.yul\":5491:5495   */\n      0x80\n        /* \"#utility.yul\":5486:5489   */\n      dup7\n        /* \"#utility.yul\":5482:5496   */\n      add\n        /* \"#utility.yul\":5468:5480   */\n      dup3\n        /* \"#utility.yul\":5440:5497   */\n      tag_138\n      jump\t// in\n    tag_252:\n        /* \"#utility.yul\":5341:5507   */\n      pop\n        /* \"#utility.yul\":5524:5528   */\n      dup1\n        /* \"#utility.yul\":5517:5528   */\n      swap2\n      pop\n        /* \"#utility.yul\":4530:5534   */\n      pop\n        /* \"#utility.yul\":4408:5534   */\n      swap3\n      swap2\n      pop\n      pop\n      jump\t// out\n        /* \"#utility.yul\":5540:5909   */\n    tag_27:\n        /* \"#utility.yul\":5681:5685   */\n      0x00\n        /* \"#utility.yul\":5719:5721   */\n      0x20\n        /* \"#utility.yul\":5708:5717   */\n      dup3\n        /* \"#utility.yul\":5704:5722   */\n      add\n        /* \"#utility.yul\":5696:5722   */\n      swap1\n      pop\n        /* \"#utility.yul\":5768:5777   */\n      dup2\n        /* \"#utility.yul\":5762:5766   */\n      dup2\n        /* \"#utility.yul\":5758:5778   */\n      sub\n        /* \"#utility.yul\":5754:5755   */\n      0x00\n        /* \"#utility.yul\":5743:5752   */\n      dup4\n        /* \"#utility.yul\":5739:5756   */\n      add\n        /* \"#utility.yul\":5732:5779   */\n      mstore\n        /* \"#utility.yul\":5796:5902   */\n      tag_254\n        /* \"#utility.yul\":5897:5901   */\n      dup2\n        /* \"#utility.yul\":5888:5894   */\n      dup5\n        /* \"#utility.yul\":5796:5902   */\n      tag_139\n      jump\t// in\n    tag_254:\n        /* \"#utility.yul\":5788:5902   */\n      swap1\n      pop\n        /* \"#utility.yul\":5540:5909   */\n      swap3\n      swap2\n      pop\n      pop\n      jump\t// out\n        /* \"#utility.yul\":5915:6028   */\n    tag_140:\n        /* \"#utility.yul\":5996:5997   */\n      0x05\n        /* \"#utility.yul\":5989:5994   */\n      dup2\n        /* \"#utility.yul\":5986:5998   */\n      lt\n        /* \"#utility.yul\":5976:6022   */\n      tag_256\n      jumpi\n        /* \"#utility.yul\":6002:6020   */\n      tag_257\n      tag_66\n      jump\t// in\n    tag_257:\n        /* \"#utility.yul\":5976:6022   */\n    tag_256:\n        /* \"#utility.yul\":5915:6028   */\n      pop\n      jump\t// out\n        /* \"#utility.yul\":6034:6161   */\n    tag_141:\n        /* \"#utility.yul\":6079:6086   */\n      0x00\n        /* \"#utility.yul\":6108:6113   */\n      dup2\n        /* \"#utility.yul\":6097:6113   */\n      swap1\n      pop\n        /* \"#utility.yul\":6114:6155   */\n      tag_259\n        /* \"#utility.yul\":6149:6154   */\n      dup3\n        /* \"#utility.yul\":6114:6155   */\n      tag_140\n      jump\t// in\n    tag_259:\n        /* \"#utility.yul\":6034:6161   */\n      swap2\n      swap1\n      pop\n      jump\t// out\n        /* \"#utility.yul\":6167:6294   */\n    tag_142:\n        /* \"#utility.yul\":6223:6232   */\n      0x00\n        /* \"#utility.yul\":6256:6288   */\n      tag_261\n        /* \"#utility.yul\":6282:6287   */\n      dup3\n        /* \"#utility.yul\":6256:6288   */\n      tag_141\n      jump\t// in\n    tag_261:\n        /* \"#utility.yul\":6243:6288   */\n      swap1\n      pop\n        /* \"#utility.yul\":6167:6294   */\n      swap2\n      swap1\n      pop\n      jump\t// out\n        /* \"#utility.yul\":6300:6443   */\n    tag_143:\n        /* \"#utility.yul\":6393:6436   */\n      tag_263\n        /* \"#utility.yul\":6430:6435   */\n      dup2\n        /* \"#utility.yul\":6393:6436   */\n      tag_142\n      jump\t// in\n    tag_263:\n        /* \"#utility.yul\":6388:6391   */\n      dup3\n        /* \"#utility.yul\":6381:6437   */\n      mstore\n        /* \"#utility.yul\":6300:6443   */\n      pop\n      pop\n      jump\t// out\n        /* \"#utility.yul\":6449:6683   */\n    tag_31:\n        /* \"#utility.yul\":6548:6552   */\n      0x00\n        /* \"#utility.yul\":6586:6588   */\n      0x20\n        /* \"#utility.yul\":6575:6584   */\n      dup3\n        /* \"#utility.yul\":6571:6589   */\n      add\n        /* \"#utility.yul\":6563:6589   */\n      swap1\n      pop\n        /* \"#utility.yul\":6599:6676   */\n      tag_265\n        /* \"#utility.yul\":6673:6674   */\n      0x00\n        /* \"#utility.yul\":6662:6671   */\n      dup4\n        /* \"#utility.yul\":6658:6675   */\n      add\n        /* \"#utility.yul\":6649:6655   */\n      dup5\n        /* \"#utility.yul\":6599:6676   */\n      tag_143\n      jump\t// in\n    tag_265:\n        /* \"#utility.yul\":6449:6683   */\n      swap3\n      swap2\n      pop\n      pop\n      jump\t// out\n        /* \"#utility.yul\":6689:6796   */\n    tag_144:\n        /* \"#utility.yul\":6770:6771   */\n      0x05\n        /* \"#utility.yul\":6763:6768   */\n      dup2\n        /* \"#utility.yul\":6760:6772   */\n      lt\n        /* \"#utility.yul\":6750:6790   */\n      tag_267\n      jumpi\n        /* \"#utility.yul\":6786:6787   */\n      0x00\n        /* \"#utility.yul\":6783:6784   */\n      0x00\n        /* \"#utility.yul\":6776:6788   */\n      revert\n        /* \"#utility.yul\":6750:6790   */\n    tag_267:\n        /* \"#utility.yul\":6689:6796   */\n      pop\n      jump\t// out\n        /* \"#utility.yul\":6802:6957   */\n    tag_145:\n        /* \"#utility.yul\":6856:6861   */\n      0x00\n        /* \"#utility.yul\":6894:6900   */\n      dup2\n        /* \"#utility.yul\":6881:6901   */\n      calldataload\n        /* \"#utility.yul\":6872:6901   */\n      swap1\n      pop\n        /* \"#utility.yul\":6910:6951   */\n      tag_269\n        /* \"#utility.yul\":6945:6950   */\n      dup2\n        /* \"#utility.yul\":6910:6951   */\n      tag_144\n      jump\t// in\n    tag_269:\n        /* \"#utility.yul\":6802:6957   */\n      swap3\n      swap2\n      pop\n      pop\n      jump\t// out\n        /* \"#utility.yul\":6963:7308   */\n    tag_34:\n        /* \"#utility.yul\":7030:7036   */\n      0x00\n        /* \"#utility.yul\":7079:7081   */\n      0x20\n        /* \"#utility.yul\":7067:7076   */\n      dup3\n        /* \"#utility.yul\":7058:7065   */\n      dup5\n        /* \"#utility.yul\":7054:7077   */\n      sub\n        /* \"#utility.yul\":7050:7082   */\n      slt\n        /* \"#utility.yul\":7047:7166   */\n      iszero\n      tag_271\n      jumpi\n        /* \"#utility.yul\":7085:7164   */\n      tag_272\n      tag_115\n      jump\t// in\n    tag_272:\n        /* \"#utility.yul\":7047:7166   */\n    tag_271:\n        /* \"#utility.yul\":7205:7206   */\n      0x00\n        /* \"#utility.yul\":7230:7291   */\n      tag_273\n        /* \"#utility.yul\":7283:7290   */\n      dup5\n        /* \"#utility.yul\":7274:7280   */\n      dup3\n        /* \"#utility.yul\":7263:7272   */\n      dup6\n        /* \"#utility.yul\":7259:7281   */\n      add\n        /* \"#utility.yul\":7230:7291   */\n      tag_145\n      jump\t// in\n    tag_273:\n        /* \"#utility.yul\":7220:7291   */\n      swap2\n      pop\n        /* \"#utility.yul\":7176:7301   */\n      pop\n        /* \"#utility.yul\":6963:7308   */\n      swap3\n      swap2\n      pop\n      pop\n      jump\t// out\n        /* \"#utility.yul\":7314:7420   */\n    tag_146:\n        /* \"#utility.yul\":7394:7395   */\n      0x03\n        /* \"#utility.yul\":7387:7392   */\n      dup2\n        /* \"#utility.yul\":7384:7396   */\n      lt\n        /* \"#utility.yul\":7374:7414   */\n      tag_275\n      jumpi\n        /* \"#utility.yul\":7410:7411   */\n      0x00\n        /* \"#utility.yul\":7407:7408   */\n      0x00\n        /* \"#utility.yul\":7400:7412   */\n      revert\n        /* \"#utility.yul\":7374:7414   */\n    tag_275:\n        /* \"#utility.yul\":7314:7420   */\n      pop\n      jump\t// out\n        /* \"#utility.yul\":7426:7579   */\n    tag_147:\n        /* \"#utility.yul\":7479:7484   */\n      0x00\n        /* \"#utility.yul\":7517:7523   */\n      dup2\n        /* \"#utility.yul\":7504:7524   */\n      calldataload\n        /* \"#utility.yul\":7495:7524   */\n      swap1\n      pop\n        /* \"#utility.yul\":7533:7573   */\n      tag_277\n        /* \"#utility.yul\":7567:7572   */\n      dup2\n        /* \"#utility.yul\":7533:7573   */\n      tag_146\n      jump\t// in\n    tag_277:\n        /* \"#utility.yul\":7426:7579   */\n      swap3\n      swap2\n      pop\n      pop\n      jump\t// out\n        /* \"#utility.yul\":7585:7928   */\n    tag_41:\n        /* \"#utility.yul\":7651:7657   */\n      0x00\n        /* \"#utility.yul\":7700:7702   */\n      0x20\n        /* \"#utility.yul\":7688:7697   */\n      dup3\n        /* \"#utility.yul\":7679:7686   */\n      dup5\n        /* \"#utility.yul\":7675:7698   */\n      sub\n        /* \"#utility.yul\":7671:7703   */\n      slt\n        /* \"#utility.yul\":7668:7787   */\n      iszero\n      tag_279\n      jumpi\n        /* \"#utility.yul\":7706:7785   */\n      tag_280\n      tag_115\n      jump\t// in\n    tag_280:\n        /* \"#utility.yul\":7668:7787   */\n    tag_279:\n        /* \"#utility.yul\":7826:7827   */\n      0x00\n        /* \"#utility.yul\":7851:7911   */\n      tag_281\n        /* \"#utility.yul\":7903:7910   */\n      dup5\n        /* \"#utility.yul\":7894:7900   */\n      dup3\n        /* \"#utility.yul\":7883:7892   */\n      dup6\n        /* \"#utility.yul\":7879:7901   */\n      add\n        /* \"#utility.yul\":7851:7911   */\n      tag_147\n      jump\t// in\n    tag_281:\n        /* \"#utility.yul\":7841:7911   */\n      swap2\n      pop\n        /* \"#utility.yul\":7797:7921   */\n      pop\n        /* \"#utility.yul\":7585:7928   */\n      swap3\n      swap2\n      pop\n      pop\n      jump\t// out\n        /* \"#utility.yul\":7934:8052   */\n    tag_148:\n        /* \"#utility.yul\":8021:8045   */\n      tag_283\n        /* \"#utility.yul\":8039:8044   */\n      dup2\n        /* \"#utility.yul\":8021:8045   */\n      tag_125\n      jump\t// in\n    tag_283:\n        /* \"#utility.yul\":8016:8019   */\n      dup3\n        /* \"#utility.yul\":8009:8046   */\n      mstore\n        /* \"#utility.yul\":7934:8052   */\n      pop\n      pop\n      jump\t// out\n        /* \"#utility.yul\":8058:8227   */\n    tag_149:\n        /* \"#utility.yul\":8142:8153   */\n      0x00\n        /* \"#utility.yul\":8176:8182   */\n      dup3\n        /* \"#utility.yul\":8171:8174   */\n      dup3\n        /* \"#utility.yul\":8164:8183   */\n      mstore\n        /* \"#utility.yul\":8216:8220   */\n      0x20\n        /* \"#utility.yul\":8211:8214   */\n      dup3\n        /* \"#utility.yul\":8207:8221   */\n      add\n        /* \"#utility.yul\":8192:8221   */\n      swap1\n      pop\n        /* \"#utility.yul\":8058:8227   */\n      swap3\n      swap2\n      pop\n      pop\n      jump\t// out\n        /* \"#utility.yul\":8233:8610   */\n    tag_150:\n        /* \"#utility.yul\":8321:8324   */\n      0x00\n        /* \"#utility.yul\":8349:8388   */\n      tag_286\n        /* \"#utility.yul\":8382:8387   */\n      dup3\n        /* \"#utility.yul\":8349:8388   */\n      tag_129\n      jump\t// in\n    tag_286:\n        /* \"#utility.yul\":8404:8475   */\n      tag_287\n        /* \"#utility.yul\":8468:8474   */\n      dup2\n        /* \"#utility.yul\":8463:8466   */\n      dup6\n        /* \"#utility.yul\":8404:8475   */\n      tag_149\n      jump\t// in\n    tag_287:\n        /* \"#utility.yul\":8397:8475   */\n      swap4\n      pop\n        /* \"#utility.yul\":8484:8549   */\n      tag_288\n        /* \"#utility.yul\":8542:8548   */\n      dup2\n        /* \"#utility.yul\":8537:8540   */\n      dup6\n        /* \"#utility.yul\":8530:8534   */\n      0x20\n        /* \"#utility.yul\":8523:8528   */\n      dup7\n        /* \"#utility.yul\":8519:8535   */\n      add\n        /* \"#utility.yul\":8484:8549   */\n      tag_131\n      jump\t// in\n    tag_288:\n        /* \"#utility.yul\":8574:8603   */\n      tag_289\n        /* \"#utility.yul\":8596:8602   */\n      dup2\n        /* \"#utility.yul\":8574:8603   */\n      tag_132\n      jump\t// in\n    tag_289:\n        /* \"#utility.yul\":8569:8572   */\n      dup5\n        /* \"#utility.yul\":8565:8604   */\n      add\n        /* \"#utility.yul\":8558:8604   */\n      swap2\n      pop\n        /* \"#utility.yul\":8325:8610   */\n      pop\n        /* \"#utility.yul\":8233:8610   */\n      swap3\n      swap2\n      pop\n      pop\n      jump\t// out\n        /* \"#utility.yul\":8616:8728   */\n    tag_151:\n        /* \"#utility.yul\":8699:8721   */\n      tag_291\n        /* \"#utility.yul\":8715:8720   */\n      dup2\n        /* \"#utility.yul\":8699:8721   */\n      tag_134\n      jump\t// in\n    tag_291:\n        /* \"#utility.yul\":8694:8697   */\n      dup3\n        /* \"#utility.yul\":8687:8722   */\n      mstore\n        /* \"#utility.yul\":8616:8728   */\n      pop\n      pop\n      jump\t// out\n        /* \"#utility.yul\":8734:8843   */\n    tag_152:\n        /* \"#utility.yul\":8815:8836   */\n      tag_293\n        /* \"#utility.yul\":8830:8835   */\n      dup2\n        /* \"#utility.yul\":8815:8836   */\n      tag_137\n      jump\t// in\n    tag_293:\n        /* \"#utility.yul\":8810:8813   */\n      dup3\n        /* \"#utility.yul\":8803:8837   */\n      mstore\n        /* \"#utility.yul\":8734:8843   */\n      pop\n      pop\n      jump\t// out\n        /* \"#utility.yul\":8849:9594   */\n    tag_47:\n        /* \"#utility.yul\":9069:9073   */\n      0x00\n        /* \"#utility.yul\":9107:9110   */\n      0xa0\n        /* \"#utility.yul\":9096:9105   */\n      dup3\n        /* \"#utility.yul\":9092:9111   */\n      add\n        /* \"#utility.yul\":9084:9111   */\n      swap1\n      pop\n        /* \"#utility.yul\":9121:9192   */\n      tag_295\n        /* \"#utility.yul\":9189:9190   */\n      0x00\n        /* \"#utility.yul\":9178:9187   */\n      dup4\n        /* \"#utility.yul\":9174:9191   */\n      add\n        /* \"#utility.yul\":9165:9171   */\n      dup9\n        /* \"#utility.yul\":9121:9192   */\n      tag_148\n      jump\t// in\n    tag_295:\n        /* \"#utility.yul\":9239:9248   */\n      dup2\n        /* \"#utility.yul\":9233:9237   */\n      dup2\n        /* \"#utility.yul\":9229:9249   */\n      sub\n        /* \"#utility.yul\":9224:9226   */\n      0x20\n        /* \"#utility.yul\":9213:9222   */\n      dup4\n        /* \"#utility.yul\":9209:9227   */\n      add\n        /* \"#utility.yul\":9202:9250   */\n      mstore\n        /* \"#utility.yul\":9267:9345   */\n      tag_296\n        /* \"#utility.yul\":9340:9344   */\n      dup2\n        /* \"#utility.yul\":9331:9337   */\n      dup8\n        /* \"#utility.yul\":9267:9345   */\n      tag_150\n      jump\t// in\n    tag_296:\n        /* \"#utility.yul\":9259:9345   */\n      swap1\n      pop\n        /* \"#utility.yul\":9355:9423   */\n      tag_297\n        /* \"#utility.yul\":9419:9421   */\n      0x40\n        /* \"#utility.yul\":9408:9417   */\n      dup4\n        /* \"#utility.yul\":9404:9422   */\n      add\n        /* \"#utility.yul\":9395:9401   */\n      dup7\n        /* \"#utility.yul\":9355:9423   */\n      tag_151\n      jump\t// in\n    tag_297:\n        /* \"#utility.yul\":9433:9510   */\n      tag_298\n        /* \"#utility.yul\":9506:9508   */\n      0x60\n        /* \"#utility.yul\":9495:9504   */\n      dup4\n        /* \"#utility.yul\":9491:9509   */\n      add\n        /* \"#utility.yul\":9482:9488   */\n      dup6\n        /* \"#utility.yul\":9433:9510   */\n      tag_123\n      jump\t// in\n    tag_298:\n        /* \"#utility.yul\":9520:9587   */\n      tag_299\n        /* \"#utility.yul\":9582:9585   */\n      0x80\n        /* \"#utility.yul\":9571:9580   */\n      dup4\n        /* \"#utility.yul\":9567:9586   */\n      add\n        /* \"#utility.yul\":9558:9564   */\n      dup5\n        /* \"#utility.yul\":9520:9587   */\n      tag_152\n      jump\t// in\n    tag_299:\n        /* \"#utility.yul\":8849:9594   */\n      swap7\n      swap6\n      pop\n      pop\n      pop\n      pop\n      pop\n      pop\n      jump\t// out\n        /* \"#utility.yul\":9600:9717   */\n    tag_153:\n        /* \"#utility.yul\":9709:9710   */\n      0x00\n        /* \"#utility.yul\":9706:9707   */\n      0x00\n        /* \"#utility.yul\":9699:9711   */\n      revert\n        /* \"#utility.yul\":9723:9840   */\n    tag_154:\n        /* \"#utility.yul\":9832:9833   */\n      0x00\n        /* \"#utility.yul\":9829:9830   */\n      0x00\n        /* \"#utility.yul\":9822:9834   */\n      revert\n        /* \"#utility.yul\":9846:10026   */\n    tag_155:\n        /* \"#utility.yul\":9894:9971   */\n      0x4e487b7100000000000000000000000000000000000000000000000000000000\n        /* \"#utility.yul\":9891:9892   */\n      0x00\n        /* \"#utility.yul\":9884:9972   */\n      mstore\n        /* \"#utility.yul\":9991:9995   */\n      0x41\n        /* \"#utility.yul\":9988:9989   */\n      0x04\n        /* \"#utility.yul\":9981:9996   */\n      mstore\n        /* \"#utility.yul\":10015:10019   */\n      0x24\n        /* \"#utility.yul\":10012:10013   */\n      0x00\n        /* \"#utility.yul\":10005:10020   */\n      revert\n        /* \"#utility.yul\":10032:10313   */\n    tag_156:\n        /* \"#utility.yul\":10115:10142   */\n      tag_304\n        /* \"#utility.yul\":10137:10141   */\n      dup3\n        /* \"#utility.yul\":10115:10142   */\n      tag_132\n      jump\t// in\n    tag_304:\n        /* \"#utility.yul\":10107:10113   */\n      dup2\n        /* \"#utility.yul\":10103:10143   */\n      add\n        /* \"#utility.yul\":10245:10251   */\n      dup2\n        /* \"#utility.yul\":10233:10243   */\n      dup2\n        /* \"#utility.yul\":10230:10252   */\n      lt\n        /* \"#utility.yul\":10209:10227   */\n      0xffffffffffffffff\n        /* \"#utility.yul\":10197:10207   */\n      dup3\n        /* \"#utility.yul\":10194:10228   */\n      gt\n        /* \"#utility.yul\":10191:10253   */\n      or\n        /* \"#utility.yul\":10188:10276   */\n      iszero\n      tag_305\n      jumpi\n        /* \"#utility.yul\":10256:10274   */\n      tag_306\n      tag_155\n      jump\t// in\n    tag_306:\n        /* \"#utility.yul\":10188:10276   */\n    tag_305:\n        /* \"#utility.yul\":10296:10306   */\n      dup1\n        /* \"#utility.yul\":10292:10294   */\n      0x40\n        /* \"#utility.yul\":10285:10307   */\n      mstore\n        /* \"#utility.yul\":10075:10313   */\n      pop\n        /* \"#utility.yul\":10032:10313   */\n      pop\n      pop\n      jump\t// out\n        /* \"#utility.yul\":10319:10448   */\n    tag_157:\n        /* \"#utility.yul\":10353:10359   */\n      0x00\n        /* \"#utility.yul\":10380:10400   */\n      tag_308\n      tag_114\n      jump\t// in\n    tag_308:\n        /* \"#utility.yul\":10370:10400   */\n      swap1\n      pop\n        /* \"#utility.yul\":10409:10442   */\n      tag_309\n        /* \"#utility.yul\":10437:10441   */\n      dup3\n        /* \"#utility.yul\":10429:10435   */\n      dup3\n        /* \"#utility.yul\":10409:10442   */\n      tag_156\n      jump\t// in\n    tag_309:\n        /* \"#utility.yul\":10319:10448   */\n      swap2\n      swap1\n      pop\n      jump\t// out\n        /* \"#utility.yul\":10454:10762   */\n    tag_158:\n        /* \"#utility.yul\":10516:10520   */\n      0x00\n        /* \"#utility.yul\":10606:10624   */\n      0xffffffffffffffff\n        /* \"#utility.yul\":10598:10604   */\n      dup3\n        /* \"#utility.yul\":10595:10625   */\n      gt\n        /* \"#utility.yul\":10592:10648   */\n      iszero\n      tag_311\n      jumpi\n        /* \"#utility.yul\":10628:10646   */\n      tag_312\n      tag_155\n      jump\t// in\n    tag_312:\n        /* \"#utility.yul\":10592:10648   */\n    tag_311:\n        /* \"#utility.yul\":10666:10695   */\n      tag_313\n        /* \"#utility.yul\":10688:10694   */\n      dup3\n        /* \"#utility.yul\":10666:10695   */\n      tag_132\n      jump\t// in\n    tag_313:\n        /* \"#utility.yul\":10658:10695   */\n      swap1\n      pop\n        /* \"#utility.yul\":10750:10754   */\n      0x20\n        /* \"#utility.yul\":10744:10748   */\n      dup2\n        /* \"#utility.yul\":10740:10755   */\n      add\n        /* \"#utility.yul\":10732:10755   */\n      swap1\n      pop\n        /* \"#utility.yul\":10454:10762   */\n      swap2\n      swap1\n      pop\n      jump\t// out\n        /* \"#utility.yul\":10768:10916   */\n    tag_159:\n        /* \"#utility.yul\":10866:10872   */\n      dup3\n        /* \"#utility.yul\":10861:10864   */\n      dup2\n        /* \"#utility.yul\":10856:10859   */\n      dup4\n        /* \"#utility.yul\":10843:10873   */\n      calldatacopy\n        /* \"#utility.yul\":10907:10908   */\n      0x00\n        /* \"#utility.yul\":10898:10904   */\n      dup4\n        /* \"#utility.yul\":10893:10896   */\n      dup4\n        /* \"#utility.yul\":10889:10905   */\n      add\n        /* \"#utility.yul\":10882:10909   */\n      mstore\n        /* \"#utility.yul\":10768:10916   */\n      pop\n      pop\n      pop\n      jump\t// out\n        /* \"#utility.yul\":10922:11347   */\n    tag_160:\n        /* \"#utility.yul\":11000:11005   */\n      0x00\n        /* \"#utility.yul\":11025:11091   */\n      tag_316\n        /* \"#utility.yul\":11041:11090   */\n      tag_317\n        /* \"#utility.yul\":11083:11089   */\n      dup5\n        /* \"#utility.yul\":11041:11090   */\n      tag_158\n      jump\t// in\n    tag_317:\n        /* \"#utility.yul\":11025:11091   */\n      tag_157\n      jump\t// in\n    tag_316:\n        /* \"#utility.yul\":11016:11091   */\n      swap1\n      pop\n        /* \"#utility.yul\":11114:11120   */\n      dup3\n        /* \"#utility.yul\":11107:11112   */\n      dup2\n        /* \"#utility.yul\":11100:11121   */\n      mstore\n        /* \"#utility.yul\":11152:11156   */\n      0x20\n        /* \"#utility.yul\":11145:11150   */\n      dup2\n        /* \"#utility.yul\":11141:11157   */\n      add\n        /* \"#utility.yul\":11190:11193   */\n      dup5\n        /* \"#utility.yul\":11181:11187   */\n      dup5\n        /* \"#utility.yul\":11176:11179   */\n      dup5\n        /* \"#utility.yul\":11172:11188   */\n      add\n        /* \"#utility.yul\":11169:11194   */\n      gt\n        /* \"#utility.yul\":11166:11278   */\n      iszero\n      tag_318\n      jumpi\n        /* \"#utility.yul\":11197:11276   */\n      tag_319\n      tag_154\n      jump\t// in\n    tag_319:\n        /* \"#utility.yul\":11166:11278   */\n    tag_318:\n        /* \"#utility.yul\":11287:11341   */\n      tag_320\n        /* \"#utility.yul\":11334:11340   */\n      dup5\n        /* \"#utility.yul\":11329:11332   */\n      dup3\n        /* \"#utility.yul\":11324:11327   */\n      dup6\n        /* \"#utility.yul\":11287:11341   */\n      tag_159\n      jump\t// in\n    tag_320:\n        /* \"#utility.yul\":11006:11347   */\n      pop\n        /* \"#utility.yul\":10922:11347   */\n      swap4\n      swap3\n      pop\n      pop\n      pop\n      jump\t// out\n        /* \"#utility.yul\":11367:11707   */\n    tag_161:\n        /* \"#utility.yul\":11423:11428   */\n      0x00\n        /* \"#utility.yul\":11472:11475   */\n      dup3\n        /* \"#utility.yul\":11465:11469   */\n      0x1f\n        /* \"#utility.yul\":11457:11463   */\n      dup4\n        /* \"#utility.yul\":11453:11470   */\n      add\n        /* \"#utility.yul\":11449:11476   */\n      slt\n        /* \"#utility.yul\":11439:11561   */\n      tag_322\n      jumpi\n        /* \"#utility.yul\":11480:11559   */\n      tag_323\n      tag_153\n      jump\t// in\n    tag_323:\n        /* \"#utility.yul\":11439:11561   */\n    tag_322:\n        /* \"#utility.yul\":11597:11603   */\n      dup2\n        /* \"#utility.yul\":11584:11604   */\n      calldataload\n        /* \"#utility.yul\":11622:11701   */\n      tag_324\n        /* \"#utility.yul\":11697:11700   */\n      dup5\n        /* \"#utility.yul\":11689:11695   */\n      dup3\n        /* \"#utility.yul\":11682:11686   */\n      0x20\n        /* \"#utility.yul\":11674:11680   */\n      dup7\n        /* \"#utility.yul\":11670:11687   */\n      add\n        /* \"#utility.yul\":11622:11701   */\n      tag_160\n      jump\t// in\n    tag_324:\n        /* \"#utility.yul\":11613:11701   */\n      swap2\n      pop\n        /* \"#utility.yul\":11429:11707   */\n      pop\n        /* \"#utility.yul\":11367:11707   */\n      swap3\n      swap2\n      pop\n      pop\n      jump\t// out\n        /* \"#utility.yul\":11713:11831   */\n    tag_162:\n        /* \"#utility.yul\":11784:11806   */\n      tag_326\n        /* \"#utility.yul\":11800:11805   */\n      dup2\n        /* \"#utility.yul\":11784:11806   */\n      tag_134\n      jump\t// in\n    tag_326:\n        /* \"#utility.yul\":11777:11782   */\n      dup2\n        /* \"#utility.yul\":11774:11807   */\n      eq\n        /* \"#utility.yul\":11764:11825   */\n      tag_327\n      jumpi\n        /* \"#utility.yul\":11821:11822   */\n      0x00\n        /* \"#utility.yul\":11818:11819   */\n      0x00\n        /* \"#utility.yul\":11811:11823   */\n      revert\n        /* \"#utility.yul\":11764:11825   */\n    tag_327:\n        /* \"#utility.yul\":11713:11831   */\n      pop\n      jump\t// out\n        /* \"#utility.yul\":11837:11972   */\n    tag_163:\n        /* \"#utility.yul\":11881:11886   */\n      0x00\n        /* \"#utility.yul\":11919:11925   */\n      dup2\n        /* \"#utility.yul\":11906:11926   */\n      calldataload\n        /* \"#utility.yul\":11897:11926   */\n      swap1\n      pop\n        /* \"#utility.yul\":11935:11966   */\n      tag_329\n        /* \"#utility.yul\":11960:11965   */\n      dup2\n        /* \"#utility.yul\":11935:11966   */\n      tag_162\n      jump\t// in\n    tag_329:\n        /* \"#utility.yul\":11837:11972   */\n      swap3\n      swap2\n      pop\n      pop\n      jump\t// out\n        /* \"#utility.yul\":11978:12084   */\n    tag_164:\n        /* \"#utility.yul\":12058:12059   */\n      0x05\n        /* \"#utility.yul\":12051:12056   */\n      dup2\n        /* \"#utility.yul\":12048:12060   */\n      lt\n        /* \"#utility.yul\":12038:12078   */\n      tag_331\n      jumpi\n        /* \"#utility.yul\":12074:12075   */\n      0x00\n        /* \"#utility.yul\":12071:12072   */\n      0x00\n        /* \"#utility.yul\":12064:12076   */\n      revert\n        /* \"#utility.yul\":12038:12078   */\n    tag_331:\n        /* \"#utility.yul\":11978:12084   */\n      pop\n      jump\t// out\n        /* \"#utility.yul\":12090:12243   */\n    tag_165:\n        /* \"#utility.yul\":12143:12148   */\n      0x00\n        /* \"#utility.yul\":12181:12187   */\n      dup2\n        /* \"#utility.yul\":12168:12188   */\n      calldataload\n        /* \"#utility.yul\":12159:12188   */\n      swap1\n      pop\n        /* \"#utility.yul\":12197:12237   */\n      tag_333\n        /* \"#utility.yul\":12231:12236   */\n      dup2\n        /* \"#utility.yul\":12197:12237   */\n      tag_164\n      jump\t// in\n    tag_333:\n        /* \"#utility.yul\":12090:12243   */\n      swap3\n      swap2\n      pop\n      pop\n      jump\t// out\n        /* \"#utility.yul\":12249:13204   */\n    tag_50:\n        /* \"#utility.yul\":12350:12356   */\n      0x00\n        /* \"#utility.yul\":12358:12364   */\n      0x00\n        /* \"#utility.yul\":12366:12372   */\n      0x00\n        /* \"#utility.yul\":12374:12380   */\n      0x00\n        /* \"#utility.yul\":12423:12426   */\n      0x80\n        /* \"#utility.yul\":12411:12420   */\n      dup6\n        /* \"#utility.yul\":12402:12409   */\n      dup8\n        /* \"#utility.yul\":12398:12421   */\n      sub\n        /* \"#utility.yul\":12394:12427   */\n      slt\n        /* \"#utility.yul\":12391:12511   */\n      iszero\n      tag_335\n      jumpi\n        /* \"#utility.yul\":12430:12509   */\n      tag_336\n      tag_115\n      jump\t// in\n    tag_336:\n        /* \"#utility.yul\":12391:12511   */\n    tag_335:\n        /* \"#utility.yul\":12578:12579   */\n      0x00\n        /* \"#utility.yul\":12567:12576   */\n      dup6\n        /* \"#utility.yul\":12563:12580   */\n      add\n        /* \"#utility.yul\":12550:12581   */\n      calldataload\n        /* \"#utility.yul\":12608:12626   */\n      0xffffffffffffffff\n        /* \"#utility.yul\":12600:12606   */\n      dup2\n        /* \"#utility.yul\":12597:12627   */\n      gt\n        /* \"#utility.yul\":12594:12711   */\n      iszero\n      tag_337\n      jumpi\n        /* \"#utility.yul\":12630:12709   */\n      tag_338\n      tag_116\n      jump\t// in\n    tag_338:\n        /* \"#utility.yul\":12594:12711   */\n    tag_337:\n        /* \"#utility.yul\":12735:12798   */\n      tag_339\n        /* \"#utility.yul\":12790:12797   */\n      dup8\n        /* \"#utility.yul\":12781:12787   */\n      dup3\n        /* \"#utility.yul\":12770:12779   */\n      dup9\n        /* \"#utility.yul\":12766:12788   */\n      add\n        /* \"#utility.yul\":12735:12798   */\n      tag_161\n      jump\t// in\n    tag_339:\n        /* \"#utility.yul\":12725:12798   */\n      swap5\n      pop\n        /* \"#utility.yul\":12521:12808   */\n      pop\n        /* \"#utility.yul\":12847:12849   */\n      0x20\n        /* \"#utility.yul\":12873:12924   */\n      tag_340\n        /* \"#utility.yul\":12916:12923   */\n      dup8\n        /* \"#utility.yul\":12907:12913   */\n      dup3\n        /* \"#utility.yul\":12896:12905   */\n      dup9\n        /* \"#utility.yul\":12892:12914   */\n      add\n        /* \"#utility.yul\":12873:12924   */\n      tag_163\n      jump\t// in\n    tag_340:\n        /* \"#utility.yul\":12863:12924   */\n      swap4\n      pop\n        /* \"#utility.yul\":12818:12934   */\n      pop\n        /* \"#utility.yul\":12973:12975   */\n      0x40\n        /* \"#utility.yul\":12999:13059   */\n      tag_341\n        /* \"#utility.yul\":13051:13058   */\n      dup8\n        /* \"#utility.yul\":13042:13048   */\n      dup3\n        /* \"#utility.yul\":13031:13040   */\n      dup9\n        /* \"#utility.yul\":13027:13049   */\n      add\n        /* \"#utility.yul\":12999:13059   */\n      tag_165\n      jump\t// in\n    tag_341:\n        /* \"#utility.yul\":12989:13059   */\n      swap3\n      pop\n        /* \"#utility.yul\":12944:13069   */\n      pop\n        /* \"#utility.yul\":13108:13110   */\n      0x60\n        /* \"#utility.yul\":13134:13187   */\n      tag_342\n        /* \"#utility.yul\":13179:13186   */\n      dup8\n        /* \"#utility.yul\":13170:13176   */\n      dup3\n        /* \"#utility.yul\":13159:13168   */\n      dup9\n        /* \"#utility.yul\":13155:13177   */\n      add\n        /* \"#utility.yul\":13134:13187   */\n      tag_127\n      jump\t// in\n    tag_342:\n        /* \"#utility.yul\":13124:13187   */\n      swap2\n      pop\n        /* \"#utility.yul\":13079:13197   */\n      pop\n        /* \"#utility.yul\":12249:13204   */\n      swap3\n      swap6\n      swap2\n      swap5\n      pop\n      swap3\n      pop\n      jump\t// out\n        /* \"#utility.yul\":13210:13322   */\n    tag_166:\n        /* \"#utility.yul\":13290:13291   */\n      0x03\n        /* \"#utility.yul\":13283:13288   */\n      dup2\n        /* \"#utility.yul\":13280:13292   */\n      lt\n        /* \"#utility.yul\":13270:13316   */\n      tag_344\n      jumpi\n        /* \"#utility.yul\":13296:13314   */\n      tag_345\n      tag_66\n      jump\t// in\n    tag_345:\n        /* \"#utility.yul\":13270:13316   */\n    tag_344:\n        /* \"#utility.yul\":13210:13322   */\n      pop\n      jump\t// out\n        /* \"#utility.yul\":13328:13453   */\n    tag_167:\n        /* \"#utility.yul\":13372:13379   */\n      0x00\n        /* \"#utility.yul\":13401:13406   */\n      dup2\n        /* \"#utility.yul\":13390:13406   */\n      swap1\n      pop\n        /* \"#utility.yul\":13407:13447   */\n      tag_347\n        /* \"#utility.yul\":13441:13446   */\n      dup3\n        /* \"#utility.yul\":13407:13447   */\n      tag_166\n      jump\t// in\n    tag_347:\n        /* \"#utility.yul\":13328:13453   */\n      swap2\n      swap1\n      pop\n      jump\t// out\n        /* \"#utility.yul\":13459:13584   */\n    tag_168:\n        /* \"#utility.yul\":13514:13523   */\n      0x00\n        /* \"#utility.yul\":13547:13578   */\n      tag_349\n        /* \"#utility.yul\":13572:13577   */\n      dup3\n        /* \"#utility.yul\":13547:13578   */\n      tag_167\n      jump\t// in\n    tag_349:\n        /* \"#utility.yul\":13534:13578   */\n      swap1\n      pop\n        /* \"#utility.yul\":13459:13584   */\n      swap2\n      swap1\n      pop\n      jump\t// out\n        /* \"#utility.yul\":13590:13731   */\n    tag_169:\n        /* \"#utility.yul\":13682:13724   */\n      tag_351\n        /* \"#utility.yul\":13718:13723   */\n      dup2\n        /* \"#utility.yul\":13682:13724   */\n      tag_168\n      jump\t// in\n    tag_351:\n        /* \"#utility.yul\":13677:13680   */\n      dup3\n        /* \"#utility.yul\":13670:13725   */\n      mstore\n        /* \"#utility.yul\":13590:13731   */\n      pop\n      pop\n      jump\t// out\n        /* \"#utility.yul\":13737:13969   */\n    tag_57:\n        /* \"#utility.yul\":13835:13839   */\n      0x00\n        /* \"#utility.yul\":13873:13875   */\n      0x20\n        /* \"#utility.yul\":13862:13871   */\n      dup3\n        /* \"#utility.yul\":13858:13876   */\n      add\n        /* \"#utility.yul\":13850:13876   */\n      swap1\n      pop\n        /* \"#utility.yul\":13886:13962   */\n      tag_353\n        /* \"#utility.yul\":13959:13960   */\n      0x00\n        /* \"#utility.yul\":13948:13957   */\n      dup4\n        /* \"#utility.yul\":13944:13961   */\n      add\n        /* \"#utility.yul\":13935:13941   */\n      dup5\n        /* \"#utility.yul\":13886:13962   */\n      tag_169\n      jump\t// in\n    tag_353:\n        /* \"#utility.yul\":13737:13969   */\n      swap3\n      swap2\n      pop\n      pop\n      jump\t// out\n        /* \"#utility.yul\":13975:14196   */\n    tag_170:\n        /* \"#utility.yul\":14115:14149   */\n      0x54686520656d706c6f79657320686173206e6f74206265656e20726567697374\n        /* \"#utility.yul\":14111:14112   */\n      0x00\n        /* \"#utility.yul\":14103:14109   */\n      dup3\n        /* \"#utility.yul\":14099:14113   */\n      add\n        /* \"#utility.yul\":14092:14150   */\n      mstore\n        /* \"#utility.yul\":14184:14188   */\n      0x6572000000000000000000000000000000000000000000000000000000000000\n        /* \"#utility.yul\":14179:14181   */\n      0x20\n        /* \"#utility.yul\":14171:14177   */\n      dup3\n        /* \"#utility.yul\":14167:14182   */\n      add\n        /* \"#utility.yul\":14160:14189   */\n      mstore\n        /* \"#utility.yul\":13975:14196   */\n      pop\n      jump\t// out\n        /* \"#utility.yul\":14202:14568   */\n    tag_171:\n        /* \"#utility.yul\":14344:14347   */\n      0x00\n        /* \"#utility.yul\":14365:14432   */\n      tag_356\n        /* \"#utility.yul\":14429:14431   */\n      0x22\n        /* \"#utility.yul\":14424:14427   */\n      dup4\n        /* \"#utility.yul\":14365:14432   */\n      tag_149\n      jump\t// in\n    tag_356:\n        /* \"#utility.yul\":14358:14432   */\n      swap2\n      pop\n        /* \"#utility.yul\":14441:14534   */\n      tag_357\n        /* \"#utility.yul\":14530:14533   */\n      dup3\n        /* \"#utility.yul\":14441:14534   */\n      tag_170\n      jump\t// in\n    tag_357:\n        /* \"#utility.yul\":14559:14561   */\n      0x40\n        /* \"#utility.yul\":14554:14557   */\n      dup3\n        /* \"#utility.yul\":14550:14562   */\n      add\n        /* \"#utility.yul\":14543:14562   */\n      swap1\n      pop\n        /* \"#utility.yul\":14202:14568   */\n      swap2\n      swap1\n      pop\n      jump\t// out\n        /* \"#utility.yul\":14574:14993   */\n    tag_72:\n        /* \"#utility.yul\":14740:14744   */\n      0x00\n        /* \"#utility.yul\":14778:14780   */\n      0x20\n        /* \"#utility.yul\":14767:14776   */\n      dup3\n        /* \"#utility.yul\":14763:14781   */\n      add\n        /* \"#utility.yul\":14755:14781   */\n      swap1\n      pop\n        /* \"#utility.yul\":14827:14836   */\n      dup2\n        /* \"#utility.yul\":14821:14825   */\n      dup2\n        /* \"#utility.yul\":14817:14837   */\n      sub\n        /* \"#utility.yul\":14813:14814   */\n      0x00\n        /* \"#utility.yul\":14802:14811   */\n      dup4\n        /* \"#utility.yul\":14798:14815   */\n      add\n        /* \"#utility.yul\":14791:14838   */\n      mstore\n        /* \"#utility.yul\":14855:14986   */\n      tag_359\n        /* \"#utility.yul\":14981:14985   */\n      dup2\n        /* \"#utility.yul\":14855:14986   */\n      tag_171\n      jump\t// in\n    tag_359:\n        /* \"#utility.yul\":14847:14986   */\n      swap1\n      pop\n        /* \"#utility.yul\":14574:14993   */\n      swap2\n      swap1\n      pop\n      jump\t// out\n        /* \"#utility.yul\":14999:15179   */\n    tag_172:\n        /* \"#utility.yul\":15047:15124   */\n      0x4e487b7100000000000000000000000000000000000000000000000000000000\n        /* \"#utility.yul\":15044:15045   */\n      0x00\n        /* \"#utility.yul\":15037:15125   */\n      mstore\n        /* \"#utility.yul\":15144:15148   */\n      0x22\n        /* \"#utility.yul\":15141:15142   */\n      0x04\n        /* \"#utility.yul\":15134:15149   */\n      mstore\n        /* \"#utility.yul\":15168:15172   */\n      0x24\n        /* \"#utility.yul\":15165:15166   */\n      0x00\n        /* \"#utility.yul\":15158:15173   */\n      revert\n        /* \"#utility.yul\":15185:15505   */\n    tag_75:\n        /* \"#utility.yul\":15229:15235   */\n      0x00\n        /* \"#utility.yul\":15266:15267   */\n      0x02\n        /* \"#utility.yul\":15260:15264   */\n      dup3\n        /* \"#utility.yul\":15256:15268   */\n      div\n        /* \"#utility.yul\":15246:15268   */\n      swap1\n      pop\n        /* \"#utility.yul\":15313:15314   */\n      0x01\n        /* \"#utility.yul\":15307:15311   */\n      dup3\n        /* \"#utility.yul\":15303:15315   */\n      and\n        /* \"#utility.yul\":15334:15352   */\n      dup1\n        /* \"#utility.yul\":15324:15405   */\n      tag_362\n      jumpi\n        /* \"#utility.yul\":15390:15394   */\n      0x7f\n        /* \"#utility.yul\":15382:15388   */\n      dup3\n        /* \"#utility.yul\":15378:15395   */\n      and\n        /* \"#utility.yul\":15368:15395   */\n      swap2\n      pop\n        /* \"#utility.yul\":15324:15405   */\n    tag_362:\n        /* \"#utility.yul\":15452:15454   */\n      0x20\n        /* \"#utility.yul\":15444:15450   */\n      dup3\n        /* \"#utility.yul\":15441:15455   */\n      lt\n        /* \"#utility.yul\":15421:15439   */\n      dup2\n        /* \"#utility.yul\":15418:15456   */\n      sub\n        /* \"#utility.yul\":15415:15499   */\n      tag_363\n      jumpi\n        /* \"#utility.yul\":15471:15489   */\n      tag_364\n      tag_172\n      jump\t// in\n    tag_364:\n        /* \"#utility.yul\":15415:15499   */\n    tag_363:\n        /* \"#utility.yul\":15236:15505   */\n      pop\n        /* \"#utility.yul\":15185:15505   */\n      swap2\n      swap1\n      pop\n      jump\t// out\n        /* \"#utility.yul\":15511:15691   */\n    tag_173:\n        /* \"#utility.yul\":15651:15683   */\n      0x54686520656d706c6f79657320686173206265656e2072656769737465720000\n        /* \"#utility.yul\":15647:15648   */\n      0x00\n        /* \"#utility.yul\":15639:15645   */\n      dup3\n        /* \"#utility.yul\":15635:15649   */\n      add\n        /* \"#utility.yul\":15628:15684   */\n      mstore\n        /* \"#utility.yul\":15511:15691   */\n      pop\n      jump\t// out\n        /* \"#utility.yul\":15697:16063   */\n    tag_174:\n        /* \"#utility.yul\":15839:15842   */\n      0x00\n        /* \"#utility.yul\":15860:15927   */\n      tag_367\n        /* \"#utility.yul\":15924:15926   */\n      0x1e\n        /* \"#utility.yul\":15919:15922   */\n      dup4\n        /* \"#utility.yul\":15860:15927   */\n      tag_149\n      jump\t// in\n    tag_367:\n        /* \"#utility.yul\":15853:15927   */\n      swap2\n      pop\n        /* \"#utility.yul\":15936:16029   */\n      tag_368\n        /* \"#utility.yul\":16025:16028   */\n      dup3\n        /* \"#utility.yul\":15936:16029   */\n      tag_173\n      jump\t// in\n    tag_368:\n        /* \"#utility.yul\":16054:16056   */\n      0x20\n        /* \"#utility.yul\":16049:16052   */\n      dup3\n        /* \"#utility.yul\":16045:16057   */\n      add\n        /* \"#utility.yul\":16038:16057   */\n      swap1\n      pop\n        /* \"#utility.yul\":15697:16063   */\n      swap2\n      swap1\n      pop\n      jump\t// out\n        /* \"#utility.yul\":16069:16488   */\n    tag_99:\n        /* \"#utility.yul\":16235:16239   */\n      0x00\n        /* \"#utility.yul\":16273:16275   */\n      0x20\n        /* \"#utility.yul\":16262:16271   */\n      dup3\n        /* \"#utility.yul\":16258:16276   */\n      add\n        /* \"#utility.yul\":16250:16276   */\n      swap1\n      pop\n        /* \"#utility.yul\":16322:16331   */\n      dup2\n        /* \"#utility.yul\":16316:16320   */\n      dup2\n        /* \"#utility.yul\":16312:16332   */\n      sub\n        /* \"#utility.yul\":16308:16309   */\n      0x00\n        /* \"#utility.yul\":16297:16306   */\n      dup4\n        /* \"#utility.yul\":16293:16310   */\n      add\n        /* \"#utility.yul\":16286:16333   */\n      mstore\n        /* \"#utility.yul\":16350:16481   */\n      tag_370\n        /* \"#utility.yul\":16476:16480   */\n      dup2\n        /* \"#utility.yul\":16350:16481   */\n      tag_174\n      jump\t// in\n    tag_370:\n        /* \"#utility.yul\":16342:16481   */\n      swap1\n      pop\n        /* \"#utility.yul\":16069:16488   */\n      swap2\n      swap1\n      pop\n      jump\t// out\n        /* \"#utility.yul\":16494:16635   */\n    tag_175:\n        /* \"#utility.yul\":16543:16547   */\n      0x00\n        /* \"#utility.yul\":16566:16569   */\n      dup2\n        /* \"#utility.yul\":16558:16569   */\n      swap1\n      pop\n        /* \"#utility.yul\":16589:16592   */\n      dup2\n        /* \"#utility.yul\":16586:16587   */\n      0x00\n        /* \"#utility.yul\":16579:16593   */\n      mstore\n        /* \"#utility.yul\":16623:16627   */\n      0x20\n        /* \"#utility.yul\":16620:16621   */\n      0x00\n        /* \"#utility.yul\":16610:16628   */\n      keccak256\n        /* \"#utility.yul\":16602:16628   */\n      swap1\n      pop\n        /* \"#utility.yul\":16494:16635   */\n      swap2\n      swap1\n      pop\n      jump\t// out\n        /* \"#utility.yul\":16641:16734   */\n    tag_176:\n        /* \"#utility.yul\":16678:16684   */\n      0x00\n        /* \"#utility.yul\":16725:16727   */\n      0x20\n        /* \"#utility.yul\":16720:16722   */\n      0x1f\n        /* \"#utility.yul\":16713:16718   */\n      dup4\n        /* \"#utility.yul\":16709:16723   */\n      add\n        /* \"#utility.yul\":16705:16728   */\n      div\n        /* \"#utility.yul\":16695:16728   */\n      swap1\n      pop\n        /* \"#utility.yul\":16641:16734   */\n      swap2\n      swap1\n      pop\n      jump\t// out\n        /* \"#utility.yul\":16740:16847   */\n    tag_177:\n        /* \"#utility.yul\":16784:16792   */\n      0x00\n        /* \"#utility.yul\":16834:16839   */\n      dup3\n        /* \"#utility.yul\":16828:16832   */\n      dup3\n        /* \"#utility.yul\":16824:16840   */\n      shl\n        /* \"#utility.yul\":16803:16840   */\n      swap1\n      pop\n        /* \"#utility.yul\":16740:16847   */\n      swap3\n      swap2\n      pop\n      pop\n      jump\t// out\n        /* \"#utility.yul\":16853:17246   */\n    tag_178:\n        /* \"#utility.yul\":16922:16928   */\n      0x00\n        /* \"#utility.yul\":16972:16973   */\n      0x08\n        /* \"#utility.yul\":16960:16970   */\n      dup4\n        /* \"#utility.yul\":16956:16974   */\n      mul\n        /* \"#utility.yul\":16995:17092   */\n      tag_375\n        /* \"#utility.yul\":17025:17091   */\n      0xffffffffffffffffffffffffffffffffffffffffffffffffffffffffffffffff\n        /* \"#utility.yul\":17014:17023   */\n      dup3\n        /* \"#utility.yul\":16995:17092   */\n      tag_177\n      jump\t// in\n    tag_375:\n        /* \"#utility.yul\":17113:17152   */\n      tag_376\n        /* \"#utility.yul\":17143:17151   */\n      dup7\n        /* \"#utility.yul\":17132:17141   */\n      dup4\n        /* \"#utility.yul\":17113:17152   */\n      tag_177\n      jump\t// in\n    tag_376:\n        /* \"#utility.yul\":17101:17152   */\n      swap6\n      pop\n        /* \"#utility.yul\":17185:17189   */\n      dup1\n        /* \"#utility.yul\":17181:17190   */\n      not\n        /* \"#utility.yul\":17174:17179   */\n      dup5\n        /* \"#utility.yul\":17170:17191   */\n      and\n        /* \"#utility.yul\":17161:17191   */\n      swap4\n      pop\n        /* \"#utility.yul\":17234:17238   */\n      dup1\n        /* \"#utility.yul\":17224:17232   */\n      dup7\n        /* \"#utility.yul\":17220:17239   */\n      and\n        /* \"#utility.yul\":17213:17218   */\n      dup5\n        /* \"#utility.yul\":17210:17240   */\n      or\n        /* \"#utility.yul\":17200:17240   */\n      swap3\n      pop\n        /* \"#utility.yul\":16929:17246   */\n      pop\n      pop\n        /* \"#utility.yul\":16853:17246   */\n      swap4\n      swap3\n      pop\n      pop\n      pop\n      jump\t// out\n        /* \"#utility.yul\":17252:17312   */\n    tag_179:\n        /* \"#utility.yul\":17280:17283   */\n      0x00\n        /* \"#utility.yul\":17301:17306   */\n      dup2\n        /* \"#utility.yul\":17294:17306   */\n      swap1\n      pop\n        /* \"#utility.yul\":17252:17312   */\n      swap2\n      swap1\n      pop\n      jump\t// out\n        /* \"#utility.yul\":17318:17460   */\n    tag_180:\n        /* \"#utility.yul\":17368:17377   */\n      0x00\n        /* \"#utility.yul\":17401:17454   */\n      tag_379\n        /* \"#utility.yul\":17419:17453   */\n      tag_380\n        /* \"#utility.yul\":17428:17452   */\n      tag_381\n        /* \"#utility.yul\":17446:17451   */\n      dup5\n        /* \"#utility.yul\":17428:17452   */\n      tag_117\n      jump\t// in\n    tag_381:\n        /* \"#utility.yul\":17419:17453   */\n      tag_179\n      jump\t// in\n    tag_380:\n        /* \"#utility.yul\":17401:17454   */\n      tag_117\n      jump\t// in\n    tag_379:\n        /* \"#utility.yul\":17388:17454   */\n      swap1\n      pop\n        /* \"#utility.yul\":17318:17460   */\n      swap2\n      swap1\n      pop\n      jump\t// out\n        /* \"#utility.yul\":17466:17541   */\n    tag_181:\n        /* \"#utility.yul\":17509:17512   */\n      0x00\n        /* \"#utility.yul\":17530:17535   */\n      dup2\n        /* \"#utility.yul\":17523:17535   */\n      swap1\n      pop\n        /* \"#utility.yul\":17466:17541   */\n      swap2\n      swap1\n      pop\n      jump\t// out\n        /* \"#utility.yul\":17547:17816   */\n    tag_182:\n        /* \"#utility.yul\":17657:17696   */\n      tag_384\n        /* \"#utility.yul\":17688:17695   */\n      dup4\n        /* \"#utility.yul\":17657:17696   */\n      tag_180\n      jump\t// in\n    tag_384:\n        /* \"#utility.yul\":17718:17809   */\n      tag_385\n        /* \"#utility.yul\":17767:17808   */\n      tag_386\n        /* \"#utility.yul\":17791:17807   */\n      dup3\n        /* \"#utility.yul\":17767:17808   */\n      tag_181\n      jump\t// in\n    tag_386:\n        /* \"#utility.yul\":17759:17765   */\n      dup5\n        /* \"#utility.yul\":17752:17756   */\n      dup5\n        /* \"#utility.yul\":17746:17757   */\n      sload\n        /* \"#utility.yul\":17718:17809   */\n      tag_178\n      jump\t// in\n    tag_385:\n        /* \"#utility.yul\":17712:17716   */\n      dup3\n        /* \"#utility.yul\":17705:17810   */\n      sstore\n        /* \"#utility.yul\":17623:17816   */\n      pop\n        /* \"#utility.yul\":17547:17816   */\n      pop\n      pop\n      pop\n      jump\t// out\n        /* \"#utility.yul\":17822:17895   */\n    tag_183:\n        /* \"#utility.yul\":17867:17870   */\n      0x00\n        /* \"#utility.yul\":17888:17889   */\n      0x00\n        /* \"#utility.yul\":17881:17889   */\n      swap1\n      pop\n        /* \"#utility.yul\":17822:17895   */\n      swap1\n      jump\t// out\n        /* \"#utility.yul\":17901:18090   */\n    tag_184:\n        /* \"#utility.yul\":17978:18010   */\n      tag_389\n      tag_183\n      jump\t// in\n    tag_389:\n        /* \"#utility.yul\":18019:18084   */\n      tag_390\n        /* \"#utility.yul\":18077:18083   */\n      dup2\n        /* \"#utility.yul\":18069:18075   */\n      dup5\n        /* \"#utility.yul\":18063:18067   */\n      dup5\n        /* \"#utility.yul\":18019:18084   */\n      tag_182\n      jump\t// in\n    tag_390:\n        /* \"#utility.yul\":17954:18090   */\n      pop\n        /* \"#utility.yul\":17901:18090   */\n      pop\n      pop\n      jump\t// out\n        /* \"#utility.yul\":18096:18310   */\n    tag_185:\n        /* \"#utility.yul\":18181:18182   */\n      0x00\n        /* \"#utility.yul\":18166:18304   */\n    tag_392:\n        /* \"#utility.yul\":18191:18200   */\n      dup3\n        /* \"#utility.yul\":18188:18189   */\n      dup2\n        /* \"#utility.yul\":18185:18201   */\n      lt\n        /* \"#utility.yul\":18166:18304   */\n      iszero\n      tag_394\n      jumpi\n        /* \"#utility.yul\":18243:18294   */\n      tag_395\n        /* \"#utility.yul\":18292:18293   */\n      0x00\n        /* \"#utility.yul\":18288:18289   */\n      dup3\n        /* \"#utility.yul\":18277:18286   */\n      dup5\n        /* \"#utility.yul\":18273:18290   */\n      add\n        /* \"#utility.yul\":18243:18294   */\n      tag_184\n      jump\t// in\n    tag_395:\n        /* \"#utility.yul\":18216:18217   */\n      0x01\n        /* \"#utility.yul\":18213:18214   */\n      dup2\n        /* \"#utility.yul\":18209:18218   */\n      add\n        /* \"#utility.yul\":18204:18218   */\n      swap1\n      pop\n        /* \"#utility.yul\":18166:18304   */\n      jump(tag_392)\n    tag_394:\n        /* \"#utility.yul\":18170:18184   */\n      pop\n        /* \"#utility.yul\":18096:18310   */\n      pop\n      pop\n      jump\t// out\n        /* \"#utility.yul\":18316:19062   */\n    tag_186:\n        /* \"#utility.yul\":18417:18419   */\n      0x1f\n        /* \"#utility.yul\":18412:18415   */\n      dup3\n        /* \"#utility.yul\":18409:18420   */\n      gt\n        /* \"#utility.yul\":18406:19055   */\n      iszero\n      tag_397\n      jumpi\n        /* \"#utility.yul\":18446:18456   */\n      dup3\n        /* \"#utility.yul\":18441:18444   */\n      dup3\n        /* \"#utility.yul\":18438:18457   */\n      gt\n        /* \"#utility.yul\":18435:19045   */\n      iszero\n      tag_398\n      jumpi\n        /* \"#utility.yul\":18492:18530   */\n      tag_399\n        /* \"#utility.yul\":18524:18529   */\n      dup2\n        /* \"#utility.yul\":18492:18530   */\n      tag_175\n      jump\t// in\n    tag_399:\n        /* \"#utility.yul\":18567:18589   */\n      tag_400\n        /* \"#utility.yul\":18585:18588   */\n      dup4\n        /* \"#utility.yul\":18567:18589   */\n      tag_176\n      jump\t// in\n    tag_400:\n        /* \"#utility.yul\":18626:18655   */\n      tag_401\n        /* \"#utility.yul\":18644:18654   */\n      dup6\n        /* \"#utility.yul\":18626:18655   */\n      tag_176\n      jump\t// in\n    tag_401:\n        /* \"#utility.yul\":18816:18818   */\n      0x20\n        /* \"#utility.yul\":18804:18814   */\n      dup7\n        /* \"#utility.yul\":18801:18819   */\n      lt\n        /* \"#utility.yul\":18798:18877   */\n      iszero\n      tag_402\n      jumpi\n        /* \"#utility.yul\":18858:18859   */\n      0x00\n        /* \"#utility.yul\":18842:18859   */\n      swap1\n      pop\n        /* \"#utility.yul\":18798:18877   */\n    tag_402:\n        /* \"#utility.yul\":18927:18939   */\n      dup1\n        /* \"#utility.yul\":18917:18925   */\n      dup4\n        /* \"#utility.yul\":18913:18940   */\n      add\n        /* \"#utility.yul\":18957:19031   */\n      tag_403\n        /* \"#utility.yul\":19017:19029   */\n      dup3\n        /* \"#utility.yul\":19003:19015   */\n      dup5\n        /* \"#utility.yul\":18999:19030   */\n      sub\n        /* \"#utility.yul\":18986:18997   */\n      dup3\n        /* \"#utility.yul\":18957:19031   */\n      tag_185\n      jump\t// in\n    tag_403:\n        /* \"#utility.yul\":18458:19045   */\n      pop\n      pop\n      pop\n      pop\n        /* \"#utility.yul\":18435:19045   */\n    tag_398:\n        /* \"#utility.yul\":18406:19055   */\n    tag_397:\n        /* \"#utility.yul\":18316:19062   */\n      pop\n      pop\n      pop\n      jump\t// out\n        /* \"#utility.yul\":19068:19185   */\n    tag_187:\n        /* \"#utility.yul\":19122:19130   */\n      0x00\n        /* \"#utility.yul\":19172:19177   */\n      dup3\n        /* \"#utility.yul\":19166:19170   */\n      dup3\n        /* \"#utility.yul\":19162:19178   */\n      shr\n        /* \"#utility.yul\":19141:19178   */\n      swap1\n      pop\n        /* \"#utility.yul\":19068:19185   */\n      swap3\n      swap2\n      pop\n      pop\n      jump\t// out\n        /* \"#utility.yul\":19191:19360   */\n    tag_188:\n        /* \"#utility.yul\":19235:19241   */\n      0x00\n        /* \"#utility.yul\":19268:19319   */\n      tag_406\n        /* \"#utility.yul\":19316:19317   */\n      0x00\n        /* \"#utility.yul\":19312:19318   */\n      not\n        /* \"#utility.yul\":19304:19309   */\n      dup5\n        /* \"#utility.yul\":19301:19302   */\n      0x08\n        /* \"#utility.yul\":19297:19310   */\n      mul\n        /* \"#utility.yul\":19268:19319   */\n      tag_187\n      jump\t// in\n    tag_406:\n        /* \"#utility.yul\":19264:19320   */\n      not\n        /* \"#utility.yul\":19349:19353   */\n      dup1\n        /* \"#utility.yul\":19343:19347   */\n      dup4\n        /* \"#utility.yul\":19339:19354   */\n      and\n        /* \"#utility.yul\":19329:19354   */\n      swap2\n      pop\n        /* \"#utility.yul\":19242:19360   */\n      pop\n        /* \"#utility.yul\":19191:19360   */\n      swap3\n      swap2\n      pop\n      pop\n      jump\t// out\n        /* \"#utility.yul\":19365:19660   */\n    tag_189:\n        /* \"#utility.yul\":19441:19445   */\n      0x00\n        /* \"#utility.yul\":19587:19616   */\n      tag_408\n        /* \"#utility.yul\":19612:19615   */\n      dup4\n        /* \"#utility.yul\":19606:19610   */\n      dup4\n        /* \"#utility.yul\":19587:19616   */\n      tag_188\n      jump\t// in\n    tag_408:\n        /* \"#utility.yul\":19579:19616   */\n      swap2\n      pop\n        /* \"#utility.yul\":19649:19652   */\n      dup3\n        /* \"#utility.yul\":19646:19647   */\n      0x02\n        /* \"#utility.yul\":19642:19653   */\n      mul\n        /* \"#utility.yul\":19636:19640   */\n      dup3\n        /* \"#utility.yul\":19633:19654   */\n      or\n        /* \"#utility.yul\":19625:19654   */\n      swap1\n      pop\n        /* \"#utility.yul\":19365:19660   */\n      swap3\n      swap2\n      pop\n      pop\n      jump\t// out\n        /* \"#utility.yul\":19665:21060   */\n    tag_104:\n        /* \"#utility.yul\":19782:19819   */\n      tag_410\n        /* \"#utility.yul\":19815:19818   */\n      dup3\n        /* \"#utility.yul\":19782:19819   */\n      tag_129\n      jump\t// in\n    tag_410:\n        /* \"#utility.yul\":19884:19902   */\n      0xffffffffffffffff\n        /* \"#utility.yul\":19876:19882   */\n      dup2\n        /* \"#utility.yul\":19873:19903   */\n      gt\n        /* \"#utility.yul\":19870:19926   */\n      iszero\n      tag_411\n      jumpi\n        /* \"#utility.yul\":19906:19924   */\n      tag_412\n      tag_155\n      jump\t// in\n    tag_412:\n        /* \"#utility.yul\":19870:19926   */\n    tag_411:\n        /* \"#utility.yul\":19950:19988   */\n      tag_413\n        /* \"#utility.yul\":19982:19986   */\n      dup3\n        /* \"#utility.yul\":19976:19987   */\n      sload\n        /* \"#utility.yul\":19950:19988   */\n      tag_75\n      jump\t// in\n    tag_413:\n        /* \"#utility.yul\":20035:20102   */\n      tag_414\n        /* \"#utility.yul\":20095:20101   */\n      dup3\n        /* \"#utility.yul\":20087:20093   */\n      dup3\n        /* \"#utility.yul\":20081:20085   */\n      dup6\n        /* \"#utility.yul\":20035:20102   */\n      tag_186\n      jump\t// in\n    tag_414:\n        /* \"#utility.yul\":20129:20130   */\n      0x00\n        /* \"#utility.yul\":20153:20157   */\n      0x20\n        /* \"#utility.yul\":20140:20157   */\n      swap1\n      pop\n        /* \"#utility.yul\":20185:20187   */\n      0x1f\n        /* \"#utility.yul\":20177:20183   */\n      dup4\n        /* \"#utility.yul\":20174:20188   */\n      gt\n        /* \"#utility.yul\":20202:20203   */\n      0x01\n        /* \"#utility.yul\":20197:20815   */\n      dup2\n      eq\n      tag_416\n      jumpi\n        /* \"#utility.yul\":20859:20860   */\n      0x00\n        /* \"#utility.yul\":20876:20882   */\n      dup5\n        /* \"#utility.yul\":20873:20950   */\n      iszero\n      tag_417\n      jumpi\n        /* \"#utility.yul\":20925:20934   */\n      dup3\n        /* \"#utility.yul\":20920:20923   */\n      dup8\n        /* \"#utility.yul\":20916:20935   */\n      add\n        /* \"#utility.yul\":20910:20936   */\n      mload\n        /* \"#utility.yul\":20901:20936   */\n      swap1\n      pop\n        /* \"#utility.yul\":20873:20950   */\n    tag_417:\n        /* \"#utility.yul\":20976:21043   */\n      tag_418\n        /* \"#utility.yul\":21036:21042   */\n      dup6\n        /* \"#utility.yul\":21029:21034   */\n      dup3\n        /* \"#utility.yul\":20976:21043   */\n      tag_189\n      jump\t// in\n    tag_418:\n        /* \"#utility.yul\":20970:20974   */\n      dup7\n        /* \"#utility.yul\":20963:21044   */\n      sstore\n        /* \"#utility.yul\":20832:21054   */\n      pop\n        /* \"#utility.yul\":20167:21054   */\n      jump(tag_415)\n        /* \"#utility.yul\":20197:20815   */\n    tag_416:\n        /* \"#utility.yul\":20249:20253   */\n      0x1f\n        /* \"#utility.yul\":20245:20254   */\n      not\n        /* \"#utility.yul\":20237:20243   */\n      dup5\n        /* \"#utility.yul\":20233:20255   */\n      and\n        /* \"#utility.yul\":20283:20320   */\n      tag_419\n        /* \"#utility.yul\":20315:20319   */\n      dup7\n        /* \"#utility.yul\":20283:20320   */\n      tag_175\n      jump\t// in\n    tag_419:\n        /* \"#utility.yul\":20342:20343   */\n      0x00\n        /* \"#utility.yul\":20356:20564   */\n    tag_420:\n        /* \"#utility.yul\":20370:20377   */\n      dup3\n        /* \"#utility.yul\":20367:20368   */\n      dup2\n        /* \"#utility.yul\":20364:20378   */\n      lt\n        /* \"#utility.yul\":20356:20564   */\n      iszero\n      tag_422\n      jumpi\n        /* \"#utility.yul\":20449:20458   */\n      dup5\n        /* \"#utility.yul\":20444:20447   */\n      dup10\n        /* \"#utility.yul\":20440:20459   */\n      add\n        /* \"#utility.yul\":20434:20460   */\n      mload\n        /* \"#utility.yul\":20426:20432   */\n      dup3\n        /* \"#utility.yul\":20419:20461   */\n      sstore\n        /* \"#utility.yul\":20500:20501   */\n      0x01\n        /* \"#utility.yul\":20492:20498   */\n      dup3\n        /* \"#utility.yul\":20488:20502   */\n      add\n        /* \"#utility.yul\":20478:20502   */\n      swap2\n      pop\n        /* \"#utility.yul\":20547:20549   */\n      0x20\n        /* \"#utility.yul\":20536:20545   */\n      dup6\n        /* \"#utility.yul\":20532:20550   */\n      add\n        /* \"#utility.yul\":20519:20550   */\n      swap5\n      pop\n        /* \"#utility.yul\":20393:20397   */\n      0x20\n        /* \"#utility.yul\":20390:20391   */\n      dup2\n        /* \"#utility.yul\":20386:20398   */\n      add\n        /* \"#utility.yul\":20381:20398   */\n      swap1\n      pop\n        /* \"#utility.yul\":20356:20564   */\n      jump(tag_420)\n    tag_422:\n        /* \"#utility.yul\":20592:20598   */\n      dup7\n        /* \"#utility.yul\":20583:20590   */\n      dup4\n        /* \"#utility.yul\":20580:20599   */\n      lt\n        /* \"#utility.yul\":20577:20756   */\n      iszero\n      tag_423\n      jumpi\n        /* \"#utility.yul\":20650:20659   */\n      dup5\n        /* \"#utility.yul\":20645:20648   */\n      dup10\n        /* \"#utility.yul\":20641:20660   */\n      add\n        /* \"#utility.yul\":20635:20661   */\n      mload\n        /* \"#utility.yul\":20693:20741   */\n      tag_424\n        /* \"#utility.yul\":20735:20739   */\n      0x1f\n        /* \"#utility.yul\":20727:20733   */\n      dup10\n        /* \"#utility.yul\":20723:20740   */\n      and\n        /* \"#utility.yul\":20712:20721   */\n      dup3\n        /* \"#utility.yul\":20693:20741   */\n      tag_188\n      jump\t// in\n    tag_424:\n        /* \"#utility.yul\":20685:20691   */\n      dup4\n        /* \"#utility.yul\":20678:20742   */\n      sstore\n        /* \"#utility.yul\":20600:20756   */\n      pop\n        /* \"#utility.yul\":20577:20756   */\n    tag_423:\n        /* \"#utility.yul\":20802:20803   */\n      0x01\n        /* \"#utility.yul\":20798:20799   */\n      0x02\n        /* \"#utility.yul\":20790:20796   */\n      dup9\n        /* \"#utility.yul\":20786:20800   */\n      mul\n        /* \"#utility.yul\":20782:20804   */\n      add\n        /* \"#utility.yul\":20776:20780   */\n      dup9\n        /* \"#utility.yul\":20769:20805   */\n      sstore\n        /* \"#utility.yul\":20204:20815   */\n      pop\n      pop\n      pop\n        /* \"#utility.yul\":20167:21054   */\n    tag_415:\n      pop\n        /* \"#utility.yul\":19757:21060   */\n      pop\n      pop\n      pop\n        /* \"#utility.yul\":19665:21060   */\n      pop\n      pop\n      jump\t// out\n\n    auxdata: 0xa2646970667358221220036d1a7c6c66623519edc1bce50c6c69bd6dcadd33e567156d7eaa23c33f9a1f64736f6c63430008220033\n}\n",
				"bytecode": {
					"linkReferences": {},
					"object": "6080604052348015600e575f5ffd5b506113b38061001c5f395ff3fe608060405234801561000f575f5ffd5b50600436106100b1575f3560e01c80639c3466c81161006f5780639c3466c814610189578063bf3094e9146101bd578063d826f88f146101d9578063de8fa431146101e3578063e4da41a714610201578063ea8a1af01461021f576100b1565b80628e0f1b146100b5578063033fca1d146100e5578063200d2ed21461011557806324b8ba5f146101335780636d4ce63c1461014f57806399400a5a1461016d575b5f5ffd5b6100cf60048036038101906100ca91906108f8565b610229565b6040516100dc9190610996565b60405180910390f35b6100ff60048036038101906100fa9190610a09565b610244565b60405161010c9190610b6a565b60405180910390f35b61011d610485565b60405161012a9190610bd0565b60405180910390f35b61014d60048036038101906101489190610c0c565b610497565b005b6101576104c3565b6040516101649190610bd0565b60405180910390f35b61018760048036038101906101829190610c5a565b6104d8565b005b6101a3600480360381019061019e9190610a09565b610504565b6040516101b4959493929190610cfa565b60405180910390f35b6101d760048036038101906101d29190610ecb565b610600565b005b6101e16107f8565b005b6101eb61080b565b6040516101f89190610f91565b60405180910390f35b61020961081f565b6040516102169190610f91565b60405180910390f35b610227610830565b005b5f81600481111561023d5761023c610923565b5b9050919050565b61024c61085c565b81600115155f5f8373ffffffffffffffffffffffffffffffffffffffff1673ffffffffffffffffffffffffffffffffffffffff1681526020019081526020015f2060020160029054906101000a900460ff161515146102e0576040517f08c379a00000000000000000000000000000000000000000000000000000000081526004016102d79061101a565b60405180910390fd5b5f5f8473ffffffffffffffffffffffffffffffffffffffff1673ffffffffffffffffffffffffffffffffffffffff1681526020019081526020015f206040518060a00160405290815f82015f9054906101000a900473ffffffffffffffffffffffffffffffffffffffff1673ffffffffffffffffffffffffffffffffffffffff1673ffffffffffffffffffffffffffffffffffffffff16815260200160018201805461038b90611065565b80601f01602080910402602001604051908101604052809291908181526020018280546103b790611065565b80156104025780601f106103d957610100808354040283529160200191610402565b820191905f5260205f20905b8154815290600101906020018083116103e557829003601f168201915b50505050508152602001600282015f9054906101000a900460ff1660ff1660ff1681526020016002820160019054906101000a900460ff16600481111561044c5761044b610923565b5b600481111561045e5761045d610923565b5b81526020016002820160029054906101000a900460ff161515151581525050915050919050565b60015f9054906101000a900460ff1681565b8060015f6101000a81548160ff021916908360048111156104bb576104ba610923565b5b021790555050565b5f60015f9054906101000a900460ff16905090565b806001806101000a81548160ff021916908360028111156104fc576104fb610923565b5b021790555050565b5f602052805f5260405f205f91509050805f015f9054906101000a900473ffffffffffffffffffffffffffffffffffffffff169080600101805461054790611065565b80601f016020809104026020016040519081016040528092919081815260200182805461057390611065565b80156105be5780601f10610595576101008083540402835291602001916105be565b820191905f5260205f20905b8154815290600101906020018083116105a157829003601f168201915b505050505090806002015f9054906101000a900460ff16908060020160019054906101000a900460ff16908060020160029054906101000a900460ff16905085565b805f15155f5f8373ffffffffffffffffffffffffffffffffffffffff1673ffffffffffffffffffffffffffffffffffffffff1681526020019081526020015f2060020160029054906101000a900460ff16151514610693576040517f08c379a000000000000000000000000000000000000000000000000000000000815260040161068a906110df565b60405180910390fd5b6040518060a001604052808373ffffffffffffffffffffffffffffffffffffffff1681526020018681526020018560ff1681526020018460048111156106dc576106db610923565b5b8152602001600115158152505f5f8473ffffffffffffffffffffffffffffffffffffffff1673ffffffffffffffffffffffffffffffffffffffff1681526020019081526020015f205f820151815f015f6101000a81548173ffffffffffffffffffffffffffffffffffffffff021916908373ffffffffffffffffffffffffffffffffffffffff160217905550602082015181600101908161077d91906112ae565b506040820151816002015f6101000a81548160ff021916908360ff16021790555060608201518160020160016101000a81548160ff021916908360048111156107c9576107c8610923565b5b021790555060808201518160020160026101000a81548160ff0219169083151502179055509050505050505050565b60015f6101000a81549060ff0219169055565b5f60018054906101000a900460ff16905090565b60018054906101000a900460ff1681565b600460015f6101000a81548160ff0219169083600481111561085557610854610923565b5b0217905550565b6040518060a001604052805f73ffffffffffffffffffffffffffffffffffffffff168152602001606081526020015f60ff1681526020015f60048111156108a6576108a5610923565b5b81526020015f151581525090565b5f604051905090565b5f5ffd5b5f5ffd5b5f819050919050565b6108d7816108c5565b81146108e1575f5ffd5b50565b5f813590506108f2816108ce565b92915050565b5f6020828403121561090d5761090c6108bd565b5b5f61091a848285016108e4565b91505092915050565b7f4e487b71000000000000000000000000000000000000000000000000000000005f52602160045260245ffd5b6005811061096157610960610923565b5b50565b5f81905061097182610950565b919050565b5f61098082610964565b9050919050565b61099081610976565b82525050565b5f6020820190506109a95f830184610987565b92915050565b5f73ffffffffffffffffffffffffffffffffffffffff82169050919050565b5f6109d8826109af565b9050919050565b6109e8816109ce565b81146109f2575f5ffd5b50565b5f81359050610a03816109df565b92915050565b5f60208284031215610a1e57610a1d6108bd565b5b5f610a2b848285016109f5565b91505092915050565b610a3d816109ce565b82525050565b5f81519050919050565b5f82825260208201905092915050565b8281835e5f83830152505050565b5f601f19601f8301169050919050565b5f610a8582610a43565b610a8f8185610a4d565b9350610a9f818560208601610a5d565b610aa881610a6b565b840191505092915050565b5f60ff82169050919050565b610ac881610ab3565b82525050565b610ad781610976565b82525050565b5f8115159050919050565b610af181610add565b82525050565b5f60a083015f830151610b0c5f860182610a34565b5060208301518482036020860152610b248282610a7b565b9150506040830151610b396040860182610abf565b506060830151610b4c6060860182610ace565b506080830151610b5f6080860182610ae8565b508091505092915050565b5f6020820190508181035f830152610b828184610af7565b905092915050565b60058110610b9b57610b9a610923565b5b50565b5f819050610bab82610b8a565b919050565b5f610bba82610b9e565b9050919050565b610bca81610bb0565b82525050565b5f602082019050610be35f830184610bc1565b92915050565b60058110610bf5575f5ffd5b50565b5f81359050610c0681610be9565b92915050565b5f60208284031215610c2157610c206108bd565b5b5f610c2e84828501610bf8565b91505092915050565b60038110610c43575f5ffd5b50565b5f81359050610c5481610c37565b92915050565b5f60208284031215610c6f57610c6e6108bd565b5b5f610c7c84828501610c46565b91505092915050565b610c8e816109ce565b82525050565b5f82825260208201905092915050565b5f610cae82610a43565b610cb88185610c94565b9350610cc8818560208601610a5d565b610cd181610a6b565b840191505092915050565b610ce581610ab3565b82525050565b610cf481610add565b82525050565b5f60a082019050610d0d5f830188610c85565b8181036020830152610d1f8187610ca4565b9050610d2e6040830186610cdc565b610d3b6060830185610987565b610d486080830184610ceb565b9695505050505050565b5f5ffd5b5f5ffd5b7f4e487b71000000000000000000000000000000000000000000000000000000005f52604160045260245ffd5b610d9082610a6b565b810181811067ffffffffffffffff82111715610daf57610dae610d5a565b5b80604052505050565b5f610dc16108b4565b9050610dcd8282610d87565b919050565b5f67ffffffffffffffff821115610dec57610deb610d5a565b5b610df582610a6b565b9050602081019050919050565b828183375f83830152505050565b5f610e22610e1d84610dd2565b610db8565b905082815260208101848484011115610e3e57610e3d610d56565b5b610e49848285610e02565b509392505050565b5f82601f830112610e6557610e64610d52565b5b8135610e75848260208601610e10565b91505092915050565b610e8781610ab3565b8114610e91575f5ffd5b50565b5f81359050610ea281610e7e565b92915050565b60058110610eb4575f5ffd5b50565b5f81359050610ec581610ea8565b92915050565b5f5f5f5f60808587031215610ee357610ee26108bd565b5b5f85013567ffffffffffffffff811115610f0057610eff6108c1565b5b610f0c87828801610e51565b9450506020610f1d87828801610e94565b9350506040610f2e87828801610eb7565b9250506060610f3f878288016109f5565b91505092959194509250565b60038110610f5c57610f5b610923565b5b50565b5f819050610f6c82610f4b565b919050565b5f610f7b82610f5f565b9050919050565b610f8b81610f71565b82525050565b5f602082019050610fa45f830184610f82565b92915050565b7f54686520656d706c6f79657320686173206e6f74206265656e207265676973745f8201527f6572000000000000000000000000000000000000000000000000000000000000602082015250565b5f611004602283610c94565b915061100f82610faa565b604082019050919050565b5f6020820190508181035f83015261103181610ff8565b9050919050565b7f4e487b71000000000000000000000000000000000000000000000000000000005f52602260045260245ffd5b5f600282049050600182168061107c57607f821691505b60208210810361108f5761108e611038565b5b50919050565b7f54686520656d706c6f79657320686173206265656e20726567697374657200005f82015250565b5f6110c9601e83610c94565b91506110d482611095565b602082019050919050565b5f6020820190508181035f8301526110f6816110bd565b9050919050565b5f819050815f5260205f209050919050565b5f6020601f8301049050919050565b5f82821b905092915050565b5f600883026111597fffffffffffffffffffffffffffffffffffffffffffffffffffffffffffffffff8261111e565b611163868361111e565b95508019841693508086168417925050509392505050565b5f819050919050565b5f61119e611199611194846108c5565b61117b565b6108c5565b9050919050565b5f819050919050565b6111b783611184565b6111cb6111c3826111a5565b84845461112a565b825550505050565b5f5f905090565b6111e26111d3565b6111ed8184846111ae565b505050565b5f5b82811015611213576112085f8284016111da565b6001810190506111f4565b505050565b601f821115611266578282111561126557611232816110fd565b61123b8361110f565b6112448561110f565b6020861015611251575f90505b808301611260828403826111f2565b505050505b5b505050565b5f82821c905092915050565b5f6112865f198460080261126b565b1980831691505092915050565b5f61129e8383611277565b9150826002028217905092915050565b6112b782610a43565b67ffffffffffffffff8111156112d0576112cf610d5a565b5b6112da8254611065565b6112e5828285611218565b5f60209050601f831160018114611316575f8415611304578287015190505b61130e8582611293565b865550611375565b601f198416611324866110fd565b5f5b8281101561134b57848901518255600182019150602085019450602081019050611326565b868310156113685784890151611364601f891682611277565b8355505b6001600288020188555050505b50505050505056fea2646970667358221220036d1a7c6c66623519edc1bce50c6c69bd6dcadd33e567156d7eaa23c33f9a1f64736f6c63430008220033",
					"opcodes": "PUSH1 0x80 PUSH1 0x40 MSTORE CALLVALUE DUP1 ISZERO PUSH1 0xE JUMPI PUSH0 PUSH0 REVERT JUMPDEST POP PUSH2 0x13B3 DUP1 PUSH2 0x1C PUSH0 CODECOPY PUSH0 RETURN INVALID PUSH1 0x80 PUSH1 0x40 MSTORE CALLVALUE DUP1 ISZERO PUSH2 0xF JUMPI PUSH0 PUSH0 REVERT JUMPDEST POP PUSH1 0x4 CALLDATASIZE LT PUSH2 0xB1 JUMPI PUSH0 CALLDATALOAD PUSH1 0xE0 SHR DUP1 PUSH4 0x9C3466C8 GT PUSH2 0x6F JUMPI DUP1 PUSH4 0x9C3466C8 EQ PUSH2 0x189 JUMPI DUP1 PUSH4 0xBF3094E9 EQ PUSH2 0x1BD JUMPI DUP1 PUSH4 0xD826F88F EQ PUSH2 0x1D9 JUMPI DUP1 PUSH4 0xDE8FA431 EQ PUSH2 0x1E3 JUMPI DUP1 PUSH4 0xE4DA41A7 EQ PUSH2 0x201 JUMPI DUP1 PUSH4 0xEA8A1AF0 EQ PUSH2 0x21F JUMPI PUSH2 0xB1 JUMP JUMPDEST DUP1 PUSH3 0x8E0F1B EQ PUSH2 0xB5 JUMPI DUP1 PUSH4 0x33FCA1D EQ PUSH2 0xE5 JUMPI DUP1 PUSH4 0x200D2ED2 EQ PUSH2 0x115 JUMPI DUP1 PUSH4 0x24B8BA5F EQ PUSH2 0x133 JUMPI DUP1 PUSH4 0x6D4CE63C EQ PUSH2 0x14F JUMPI DUP1 PUSH4 0x99400A5A EQ PUSH2 0x16D JUMPI JUMPDEST PUSH0 PUSH0 REVERT JUMPDEST PUSH2 0xCF PUSH1 0x4 DUP1 CALLDATASIZE SUB DUP2 ADD SWAP1 PUSH2 0xCA SWAP2 SWAP1 PUSH2 0x8F8 JUMP JUMPDEST PUSH2 0x229 JUMP JUMPDEST PUSH1 0x40 MLOAD PUSH2 0xDC SWAP2 SWAP1 PUSH2 0x996 JUMP JUMPDEST PUSH1 0x40 MLOAD DUP1 SWAP2 SUB SWAP1 RETURN JUMPDEST PUSH2 0xFF PUSH1 0x4 DUP1 CALLDATASIZE SUB DUP2 ADD SWAP1 PUSH2 0xFA SWAP2 SWAP1 PUSH2 0xA09 JUMP JUMPDEST PUSH2 0x244 JUMP JUMPDEST PUSH1 0x40 MLOAD PUSH2 0x10C SWAP2 SWAP1 PUSH2 0xB6A JUMP JUMPDEST PUSH1 0x40 MLOAD DUP1 SWAP2 SUB SWAP1 RETURN JUMPDEST PUSH2 0x11D PUSH2 0x485 JUMP JUMPDEST PUSH1 0x40 MLOAD PUSH2 0x12A SWAP2 SWAP1 PUSH2 0xBD0 JUMP JUMPDEST PUSH1 0x40 MLOAD DUP1 SWAP2 SUB SWAP1 RETURN JUMPDEST PUSH2 0x14D PUSH1 0x4 DUP1 CALLDATASIZE SUB DUP2 ADD SWAP1 PUSH2 0x148 SWAP2 SWAP1 PUSH2 0xC0C JUMP JUMPDEST PUSH2 0x497 JUMP JUMPDEST STOP JUMPDEST PUSH2 0x157 PUSH2 0x4C3 JUMP JUMPDEST PUSH1 0x40 MLOAD PUSH2 0x164 SWAP2 SWAP1 PUSH2 0xBD0 JUMP JUMPDEST PUSH1 0x40 MLOAD DUP1 SWAP2 SUB SWAP1 RETURN JUMPDEST PUSH2 0x187 PUSH1 0x4 DUP1 CALLDATASIZE SUB DUP2 ADD SWAP1 PUSH2 0x182 SWAP2 SWAP1 PUSH2 0xC5A JUMP JUMPDEST PUSH2 0x4D8 JUMP JUMPDEST STOP JUMPDEST PUSH2 0x1A3 PUSH1 0x4 DUP1 CALLDATASIZE SUB DUP2 ADD SWAP1 PUSH2 0x19E SWAP2 SWAP1 PUSH2 0xA09 JUMP JUMPDEST PUSH2 0x504 JUMP JUMPDEST PUSH1 0x40 MLOAD PUSH2 0x1B4 SWAP6 SWAP5 SWAP4 SWAP3 SWAP2 SWAP1 PUSH2 0xCFA JUMP JUMPDEST PUSH1 0x40 MLOAD DUP1 SWAP2 SUB SWAP1 RETURN JUMPDEST PUSH2 0x1D7 PUSH1 0x4 DUP1 CALLDATASIZE SUB DUP2 ADD SWAP1 PUSH2 0x1D2 SWAP2 SWAP1 PUSH2 0xECB JUMP JUMPDEST PUSH2 0x600 JUMP JUMPDEST STOP JUMPDEST PUSH2 0x1E1 PUSH2 0x7F8 JUMP JUMPDEST STOP JUMPDEST PUSH2 0x1EB PUSH2 0x80B JUMP JUMPDEST PUSH1 0x40 MLOAD PUSH2 0x1F8 SWAP2 SWAP1 PUSH2 0xF91 JUMP JUMPDEST PUSH1 0x40 MLOAD DUP1 SWAP2 SUB SWAP1 RETURN JUMPDEST PUSH2 0x209 PUSH2 0x81F JUMP JUMPDEST PUSH1 0x40 MLOAD PUSH2 0x216 SWAP2 SWAP1 PUSH2 0xF91 JUMP JUMPDEST PUSH1 0x40 MLOAD DUP1 SWAP2 SUB SWAP1 RETURN JUMPDEST PUSH2 0x227 PUSH2 0x830 JUMP JUMPDEST STOP JUMPDEST PUSH0 DUP2 PUSH1 0x4 DUP2 GT ISZERO PUSH2 0x23D JUMPI PUSH2 0x23C PUSH2 0x923 JUMP JUMPDEST JUMPDEST SWAP1 POP SWAP2 SWAP1 POP JUMP JUMPDEST PUSH2 0x24C PUSH2 0x85C JUMP JUMPDEST DUP2 PUSH1 0x1 ISZERO ISZERO PUSH0 PUSH0 DUP4 PUSH20 0xFFFFFFFFFFFFFFFFFFFFFFFFFFFFFFFFFFFFFFFF AND PUSH20 0xFFFFFFFFFFFFFFFFFFFFFFFFFFFFFFFFFFFFFFFF AND DUP2 MSTORE PUSH1 0x20 ADD SWAP1 DUP2 MSTORE PUSH1 0x20 ADD PUSH0 KECCAK256 PUSH1 0x2 ADD PUSH1 0x2 SWAP1 SLOAD SWAP1 PUSH2 0x100 EXP SWAP1 DIV PUSH1 0xFF AND ISZERO ISZERO EQ PUSH2 0x2E0 JUMPI PUSH1 0x40 MLOAD PUSH32 0x8C379A000000000000000000000000000000000000000000000000000000000 DUP2 MSTORE PUSH1 0x4 ADD PUSH2 0x2D7 SWAP1 PUSH2 0x101A JUMP JUMPDEST PUSH1 0x40 MLOAD DUP1 SWAP2 SUB SWAP1 REVERT JUMPDEST PUSH0 PUSH0 DUP5 PUSH20 0xFFFFFFFFFFFFFFFFFFFFFFFFFFFFFFFFFFFFFFFF AND PUSH20 0xFFFFFFFFFFFFFFFFFFFFFFFFFFFFFFFFFFFFFFFF AND DUP2 MSTORE PUSH1 0x20 ADD SWAP1 DUP2 MSTORE PUSH1 0x20 ADD PUSH0 KECCAK256 PUSH1 0x40 MLOAD DUP1 PUSH1 0xA0 ADD PUSH1 0x40 MSTORE SWAP1 DUP2 PUSH0 DUP3 ADD PUSH0 SWAP1 SLOAD SWAP1 PUSH2 0x100 EXP SWAP1 DIV PUSH20 0xFFFFFFFFFFFFFFFFFFFFFFFFFFFFFFFFFFFFFFFF AND PUSH20 0xFFFFFFFFFFFFFFFFFFFFFFFFFFFFFFFFFFFFFFFF AND PUSH20 0xFFFFFFFFFFFFFFFFFFFFFFFFFFFFFFFFFFFFFFFF AND DUP2 MSTORE PUSH1 0x20 ADD PUSH1 0x1 DUP3 ADD DUP1 SLOAD PUSH2 0x38B SWAP1 PUSH2 0x1065 JUMP JUMPDEST DUP1 PUSH1 0x1F ADD PUSH1 0x20 DUP1 SWAP2 DIV MUL PUSH1 0x20 ADD PUSH1 0x40 MLOAD SWAP1 DUP2 ADD PUSH1 0x40 MSTORE DUP1 SWAP3 SWAP2 SWAP1 DUP2 DUP2 MSTORE PUSH1 0x20 ADD DUP3 DUP1 SLOAD PUSH2 0x3B7 SWAP1 PUSH2 0x1065 JUMP JUMPDEST DUP1 ISZERO PUSH2 0x402 JUMPI DUP1 PUSH1 0x1F LT PUSH2 0x3D9 JUMPI PUSH2 0x100 DUP1 DUP4 SLOAD DIV MUL DUP4 MSTORE SWAP2 PUSH1 0x20 ADD SWAP2 PUSH2 0x402 JUMP JUMPDEST DUP3 ADD SWAP2 SWAP1 PUSH0 MSTORE PUSH1 0x20 PUSH0 KECCAK256 SWAP1 JUMPDEST DUP2 SLOAD DUP2 MSTORE SWAP1 PUSH1 0x1 ADD SWAP1 PUSH1 0x20 ADD DUP1 DUP4 GT PUSH2 0x3E5 JUMPI DUP3 SWAP1 SUB PUSH1 0x1F AND DUP3 ADD SWAP2 JUMPDEST POP POP POP POP POP DUP2 MSTORE PUSH1 0x20 ADD PUSH1 0x2 DUP3 ADD PUSH0 SWAP1 SLOAD SWAP1 PUSH2 0x100 EXP SWAP1 DIV PUSH1 0xFF AND PUSH1 0xFF AND PUSH1 0xFF AND DUP2 MSTORE PUSH1 0x20 ADD PUSH1 0x2 DUP3 ADD PUSH1 0x1 SWAP1 SLOAD SWAP1 PUSH2 0x100 EXP SWAP1 DIV PUSH1 0xFF AND PUSH1 0x4 DUP2 GT ISZERO PUSH2 0x44C JUMPI PUSH2 0x44B PUSH2 0x923 JUMP JUMPDEST JUMPDEST PUSH1 0x4 DUP2 GT ISZERO PUSH2 0x45E JUMPI PUSH2 0x45D PUSH2 0x923 JUMP JUMPDEST JUMPDEST DUP2 MSTORE PUSH1 0x20 ADD PUSH1 0x2 DUP3 ADD PUSH1 0x2 SWAP1 SLOAD SWAP1 PUSH2 0x100 EXP SWAP1 DIV PUSH1 0xFF AND ISZERO ISZERO ISZERO ISZERO DUP2 MSTORE POP POP SWAP2 POP POP SWAP2 SWAP1 POP JUMP JUMPDEST PUSH1 0x1 PUSH0 SWAP1 SLOAD SWAP1 PUSH2 0x100 EXP SWAP1 DIV PUSH1 0xFF AND DUP2 JUMP JUMPDEST DUP1 PUSH1 0x1 PUSH0 PUSH2 0x100 EXP DUP2 SLOAD DUP2 PUSH1 0xFF MUL NOT AND SWAP1 DUP4 PUSH1 0x4 DUP2 GT ISZERO PUSH2 0x4BB JUMPI PUSH2 0x4BA PUSH2 0x923 JUMP JUMPDEST JUMPDEST MUL OR SWAP1 SSTORE POP POP JUMP JUMPDEST PUSH0 PUSH1 0x1 PUSH0 SWAP1 SLOAD SWAP1 PUSH2 0x100 EXP SWAP1 DIV PUSH1 0xFF AND SWAP1 POP SWAP1 JUMP JUMPDEST DUP1 PUSH1 0x1 DUP1 PUSH2 0x100 EXP DUP2 SLOAD DUP2 PUSH1 0xFF MUL NOT AND SWAP1 DUP4 PUSH1 0x2 DUP2 GT ISZERO PUSH2 0x4FC JUMPI PUSH2 0x4FB PUSH2 0x923 JUMP JUMPDEST JUMPDEST MUL OR SWAP1 SSTORE POP POP JUMP JUMPDEST PUSH0 PUSH1 0x20 MSTORE DUP1 PUSH0 MSTORE PUSH1 0x40 PUSH0 KECCAK256 PUSH0 SWAP2 POP SWAP1 POP DUP1 PUSH0 ADD PUSH0 SWAP1 SLOAD SWAP1 PUSH2 0x100 EXP SWAP1 DIV PUSH20 0xFFFFFFFFFFFFFFFFFFFFFFFFFFFFFFFFFFFFFFFF AND SWAP1 DUP1 PUSH1 0x1 ADD DUP1 SLOAD PUSH2 0x547 SWAP1 PUSH2 0x1065 JUMP JUMPDEST DUP1 PUSH1 0x1F ADD PUSH1 0x20 DUP1 SWAP2 DIV MUL PUSH1 0x20 ADD PUSH1 0x40 MLOAD SWAP1 DUP2 ADD PUSH1 0x40 MSTORE DUP1 SWAP3 SWAP2 SWAP1 DUP2 DUP2 MSTORE PUSH1 0x20 ADD DUP3 DUP1 SLOAD PUSH2 0x573 SWAP1 PUSH2 0x1065 JUMP JUMPDEST DUP1 ISZERO PUSH2 0x5BE JUMPI DUP1 PUSH1 0x1F LT PUSH2 0x595 JUMPI PUSH2 0x100 DUP1 DUP4 SLOAD DIV MUL DUP4 MSTORE SWAP2 PUSH1 0x20 ADD SWAP2 PUSH2 0x5BE JUMP JUMPDEST DUP3 ADD SWAP2 SWAP1 PUSH0 MSTORE PUSH1 0x20 PUSH0 KECCAK256 SWAP1 JUMPDEST DUP2 SLOAD DUP2 MSTORE SWAP1 PUSH1 0x1 ADD SWAP1 PUSH1 0x20 ADD DUP1 DUP4 GT PUSH2 0x5A1 JUMPI DUP3 SWAP1 SUB PUSH1 0x1F AND DUP3 ADD SWAP2 JUMPDEST POP POP POP POP POP SWAP1 DUP1 PUSH1 0x2 ADD PUSH0 SWAP1 SLOAD SWAP1 PUSH2 0x100 EXP SWAP1 DIV PUSH1 0xFF AND SWAP1 DUP1 PUSH1 0x2 ADD PUSH1 0x1 SWAP1 SLOAD SWAP1 PUSH2 0x100 EXP SWAP1 DIV PUSH1 0xFF AND SWAP1 DUP1 PUSH1 0x2 ADD PUSH1 0x2 SWAP1 SLOAD SWAP1 PUSH2 0x100 EXP SWAP1 DIV PUSH1 0xFF AND SWAP1 POP DUP6 JUMP JUMPDEST DUP1 PUSH0 ISZERO ISZERO PUSH0 PUSH0 DUP4 PUSH20 0xFFFFFFFFFFFFFFFFFFFFFFFFFFFFFFFFFFFFFFFF AND PUSH20 0xFFFFFFFFFFFFFFFFFFFFFFFFFFFFFFFFFFFFFFFF AND DUP2 MSTORE PUSH1 0x20 ADD SWAP1 DUP2 MSTORE PUSH1 0x20 ADD PUSH0 KECCAK256 PUSH1 0x2 ADD PUSH1 0x2 SWAP1 SLOAD SWAP1 PUSH2 0x100 EXP SWAP1 DIV PUSH1 0xFF AND ISZERO ISZERO EQ PUSH2 0x693 JUMPI PUSH1 0x40 MLOAD PUSH32 0x8C379A000000000000000000000000000000000000000000000000000000000 DUP2 MSTORE PUSH1 0x4 ADD PUSH2 0x68A SWAP1 PUSH2 0x10DF JUMP JUMPDEST PUSH1 0x40 MLOAD DUP1 SWAP2 SUB SWAP1 REVERT JUMPDEST PUSH1 0x40 MLOAD DUP1 PUSH1 0xA0 ADD PUSH1 0x40 MSTORE DUP1 DUP4 PUSH20 0xFFFFFFFFFFFFFFFFFFFFFFFFFFFFFFFFFFFFFFFF AND DUP2 MSTORE PUSH1 0x20 ADD DUP7 DUP2 MSTORE PUSH1 0x20 ADD DUP6 PUSH1 0xFF AND DUP2 MSTORE PUSH1 0x20 ADD DUP5 PUSH1 0x4 DUP2 GT ISZERO PUSH2 0x6DC JUMPI PUSH2 0x6DB PUSH2 0x923 JUMP JUMPDEST JUMPDEST DUP2 MSTORE PUSH1 0x20 ADD PUSH1 0x1 ISZERO ISZERO DUP2 MSTORE POP PUSH0 PUSH0 DUP5 PUSH20 0xFFFFFFFFFFFFFFFFFFFFFFFFFFFFFFFFFFFFFFFF AND PUSH20 0xFFFFFFFFFFFFFFFFFFFFFFFFFFFFFFFFFFFFFFFF AND DUP2 MSTORE PUSH1 0x20 ADD SWAP1 DUP2 MSTORE PUSH1 0x20 ADD PUSH0 KECCAK256 PUSH0 DUP3 ADD MLOAD DUP2 PUSH0 ADD PUSH0 PUSH2 0x100 EXP DUP2 SLOAD DUP2 PUSH20 0xFFFFFFFFFFFFFFFFFFFFFFFFFFFFFFFFFFFFFFFF MUL NOT AND SWAP1 DUP4 PUSH20 0xFFFFFFFFFFFFFFFFFFFFFFFFFFFFFFFFFFFFFFFF AND MUL OR SWAP1 SSTORE POP PUSH1 0x20 DUP3 ADD MLOAD DUP2 PUSH1 0x1 ADD SWAP1 DUP2 PUSH2 0x77D SWAP2 SWAP1 PUSH2 0x12AE JUMP JUMPDEST POP PUSH1 0x40 DUP3 ADD MLOAD DUP2 PUSH1 0x2 ADD PUSH0 PUSH2 0x100 EXP DUP2 SLOAD DUP2 PUSH1 0xFF MUL NOT AND SWAP1 DUP4 PUSH1 0xFF AND MUL OR SWAP1 SSTORE POP PUSH1 0x60 DUP3 ADD MLOAD DUP2 PUSH1 0x2 ADD PUSH1 0x1 PUSH2 0x100 EXP DUP2 SLOAD DUP2 PUSH1 0xFF MUL NOT AND SWAP1 DUP4 PUSH1 0x4 DUP2 GT ISZERO PUSH2 0x7C9 JUMPI PUSH2 0x7C8 PUSH2 0x923 JUMP JUMPDEST JUMPDEST MUL OR SWAP1 SSTORE POP PUSH1 0x80 DUP3 ADD MLOAD DUP2 PUSH1 0x2 ADD PUSH1 0x2 PUSH2 0x100 EXP DUP2 SLOAD DUP2 PUSH1 0xFF MUL NOT AND SWAP1 DUP4 ISZERO ISZERO MUL OR SWAP1 SSTORE POP SWAP1 POP POP POP POP POP POP POP JUMP JUMPDEST PUSH1 0x1 PUSH0 PUSH2 0x100 EXP DUP2 SLOAD SWAP1 PUSH1 0xFF MUL NOT AND SWAP1 SSTORE JUMP JUMPDEST PUSH0 PUSH1 0x1 DUP1 SLOAD SWAP1 PUSH2 0x100 EXP SWAP1 DIV PUSH1 0xFF AND SWAP1 POP SWAP1 JUMP JUMPDEST PUSH1 0x1 DUP1 SLOAD SWAP1 PUSH2 0x100 EXP SWAP1 DIV PUSH1 0xFF AND DUP2 JUMP JUMPDEST PUSH1 0x4 PUSH1 0x1 PUSH0 PUSH2 0x100 EXP DUP2 SLOAD DUP2 PUSH1 0xFF MUL NOT AND SWAP1 DUP4 PUSH1 0x4 DUP2 GT ISZERO PUSH2 0x855 JUMPI PUSH2 0x854 PUSH2 0x923 JUMP JUMPDEST JUMPDEST MUL OR SWAP1 SSTORE POP JUMP JUMPDEST PUSH1 0x40 MLOAD DUP1 PUSH1 0xA0 ADD PUSH1 0x40 MSTORE DUP1 PUSH0 PUSH20 0xFFFFFFFFFFFFFFFFFFFFFFFFFFFFFFFFFFFFFFFF AND DUP2 MSTORE PUSH1 0x20 ADD PUSH1 0x60 DUP2 MSTORE PUSH1 0x20 ADD PUSH0 PUSH1 0xFF AND DUP2 MSTORE PUSH1 0x20 ADD PUSH0 PUSH1 0x4 DUP2 GT ISZERO PUSH2 0x8A6 JUMPI PUSH2 0x8A5 PUSH2 0x923 JUMP JUMPDEST JUMPDEST DUP2 MSTORE PUSH1 0x20 ADD PUSH0 ISZERO ISZERO DUP2 MSTORE POP SWAP1 JUMP JUMPDEST PUSH0 PUSH1 0x40 MLOAD SWAP1 POP SWAP1 JUMP JUMPDEST PUSH0 PUSH0 REVERT JUMPDEST PUSH0 PUSH0 REVERT JUMPDEST PUSH0 DUP2 SWAP1 POP SWAP2 SWAP1 POP JUMP JUMPDEST PUSH2 0x8D7 DUP2 PUSH2 0x8C5 JUMP JUMPDEST DUP2 EQ PUSH2 0x8E1 JUMPI PUSH0 PUSH0 REVERT JUMPDEST POP JUMP JUMPDEST PUSH0 DUP2 CALLDATALOAD SWAP1 POP PUSH2 0x8F2 DUP2 PUSH2 0x8CE JUMP JUMPDEST SWAP3 SWAP2 POP POP JUMP JUMPDEST PUSH0 PUSH1 0x20 DUP3 DUP5 SUB SLT ISZERO PUSH2 0x90D JUMPI PUSH2 0x90C PUSH2 0x8BD JUMP JUMPDEST JUMPDEST PUSH0 PUSH2 0x91A DUP5 DUP3 DUP6 ADD PUSH2 0x8E4 JUMP JUMPDEST SWAP2 POP POP SWAP3 SWAP2 POP POP JUMP JUMPDEST PUSH32 0x4E487B7100000000000000000000000000000000000000000000000000000000 PUSH0 MSTORE PUSH1 0x21 PUSH1 0x4 MSTORE PUSH1 0x24 PUSH0 REVERT JUMPDEST PUSH1 0x5 DUP2 LT PUSH2 0x961 JUMPI PUSH2 0x960 PUSH2 0x923 JUMP JUMPDEST JUMPDEST POP JUMP JUMPDEST PUSH0 DUP2 SWAP1 POP PUSH2 0x971 DUP3 PUSH2 0x950 JUMP JUMPDEST SWAP2 SWAP1 POP JUMP JUMPDEST PUSH0 PUSH2 0x980 DUP3 PUSH2 0x964 JUMP JUMPDEST SWAP1 POP SWAP2 SWAP1 POP JUMP JUMPDEST PUSH2 0x990 DUP2 PUSH2 0x976 JUMP JUMPDEST DUP3 MSTORE POP POP JUMP JUMPDEST PUSH0 PUSH1 0x20 DUP3 ADD SWAP1 POP PUSH2 0x9A9 PUSH0 DUP4 ADD DUP5 PUSH2 0x987 JUMP JUMPDEST SWAP3 SWAP2 POP POP JUMP JUMPDEST PUSH0 PUSH20 0xFFFFFFFFFFFFFFFFFFFFFFFFFFFFFFFFFFFFFFFF DUP3 AND SWAP1 POP SWAP2 SWAP1 POP JUMP JUMPDEST PUSH0 PUSH2 0x9D8 DUP3 PUSH2 0x9AF JUMP JUMPDEST SWAP1 POP SWAP2 SWAP1 POP JUMP JUMPDEST PUSH2 0x9E8 DUP2 PUSH2 0x9CE JUMP JUMPDEST DUP2 EQ PUSH2 0x9F2 JUMPI PUSH0 PUSH0 REVERT JUMPDEST POP JUMP JUMPDEST PUSH0 DUP2 CALLDATALOAD SWAP1 POP PUSH2 0xA03 DUP2 PUSH2 0x9DF JUMP JUMPDEST SWAP3 SWAP2 POP POP JUMP JUMPDEST PUSH0 PUSH1 0x20 DUP3 DUP5 SUB SLT ISZERO PUSH2 0xA1E JUMPI PUSH2 0xA1D PUSH2 0x8BD JUMP JUMPDEST JUMPDEST PUSH0 PUSH2 0xA2B DUP5 DUP3 DUP6 ADD PUSH2 0x9F5 JUMP JUMPDEST SWAP2 POP POP SWAP3 SWAP2 POP POP JUMP JUMPDEST PUSH2 0xA3D DUP2 PUSH2 0x9CE JUMP JUMPDEST DUP3 MSTORE POP POP JUMP JUMPDEST PUSH0 DUP2 MLOAD SWAP1 POP SWAP2 SWAP1 POP JUMP JUMPDEST PUSH0 DUP3 DUP3 MSTORE PUSH1 0x20 DUP3 ADD SWAP1 POP SWAP3 SWAP2 POP POP JUMP JUMPDEST DUP3 DUP2 DUP4 MCOPY PUSH0 DUP4 DUP4 ADD MSTORE POP POP POP JUMP JUMPDEST PUSH0 PUSH1 0x1F NOT PUSH1 0x1F DUP4 ADD AND SWAP1 POP SWAP2 SWAP1 POP JUMP JUMPDEST PUSH0 PUSH2 0xA85 DUP3 PUSH2 0xA43 JUMP JUMPDEST PUSH2 0xA8F DUP2 DUP6 PUSH2 0xA4D JUMP JUMPDEST SWAP4 POP PUSH2 0xA9F DUP2 DUP6 PUSH1 0x20 DUP7 ADD PUSH2 0xA5D JUMP JUMPDEST PUSH2 0xAA8 DUP2 PUSH2 0xA6B JUMP JUMPDEST DUP5 ADD SWAP2 POP POP SWAP3 SWAP2 POP POP JUMP JUMPDEST PUSH0 PUSH1 0xFF DUP3 AND SWAP1 POP SWAP2 SWAP1 POP JUMP JUMPDEST PUSH2 0xAC8 DUP2 PUSH2 0xAB3 JUMP JUMPDEST DUP3 MSTORE POP POP JUMP JUMPDEST PUSH2 0xAD7 DUP2 PUSH2 0x976 JUMP JUMPDEST DUP3 MSTORE POP POP JUMP JUMPDEST PUSH0 DUP2 ISZERO ISZERO SWAP1 POP SWAP2 SWAP1 POP JUMP JUMPDEST PUSH2 0xAF1 DUP2 PUSH2 0xADD JUMP JUMPDEST DUP3 MSTORE POP POP JUMP JUMPDEST PUSH0 PUSH1 0xA0 DUP4 ADD PUSH0 DUP4 ADD MLOAD PUSH2 0xB0C PUSH0 DUP7 ADD DUP3 PUSH2 0xA34 JUMP JUMPDEST POP PUSH1 0x20 DUP4 ADD MLOAD DUP5 DUP3 SUB PUSH1 0x20 DUP7 ADD MSTORE PUSH2 0xB24 DUP3 DUP3 PUSH2 0xA7B JUMP JUMPDEST SWAP2 POP POP PUSH1 0x40 DUP4 ADD MLOAD PUSH2 0xB39 PUSH1 0x40 DUP7 ADD DUP3 PUSH2 0xABF JUMP JUMPDEST POP PUSH1 0x60 DUP4 ADD MLOAD PUSH2 0xB4C PUSH1 0x60 DUP7 ADD DUP3 PUSH2 0xACE JUMP JUMPDEST POP PUSH1 0x80 DUP4 ADD MLOAD PUSH2 0xB5F PUSH1 0x80 DUP7 ADD DUP3 PUSH2 0xAE8 JUMP JUMPDEST POP DUP1 SWAP2 POP POP SWAP3 SWAP2 POP POP JUMP JUMPDEST PUSH0 PUSH1 0x20 DUP3 ADD SWAP1 POP DUP2 DUP2 SUB PUSH0 DUP4 ADD MSTORE PUSH2 0xB82 DUP2 DUP5 PUSH2 0xAF7 JUMP JUMPDEST SWAP1 POP SWAP3 SWAP2 POP POP JUMP JUMPDEST PUSH1 0x5 DUP2 LT PUSH2 0xB9B JUMPI PUSH2 0xB9A PUSH2 0x923 JUMP JUMPDEST JUMPDEST POP JUMP JUMPDEST PUSH0 DUP2 SWAP1 POP PUSH2 0xBAB DUP3 PUSH2 0xB8A JUMP JUMPDEST SWAP2 SWAP1 POP JUMP JUMPDEST PUSH0 PUSH2 0xBBA DUP3 PUSH2 0xB9E JUMP JUMPDEST SWAP1 POP SWAP2 SWAP1 POP JUMP JUMPDEST PUSH2 0xBCA DUP2 PUSH2 0xBB0 JUMP JUMPDEST DUP3 MSTORE POP POP JUMP JUMPDEST PUSH0 PUSH1 0x20 DUP3 ADD SWAP1 POP PUSH2 0xBE3 PUSH0 DUP4 ADD DUP5 PUSH2 0xBC1 JUMP JUMPDEST SWAP3 SWAP2 POP POP JUMP JUMPDEST PUSH1 0x5 DUP2 LT PUSH2 0xBF5 JUMPI PUSH0 PUSH0 REVERT JUMPDEST POP JUMP JUMPDEST PUSH0 DUP2 CALLDATALOAD SWAP1 POP PUSH2 0xC06 DUP2 PUSH2 0xBE9 JUMP JUMPDEST SWAP3 SWAP2 POP POP JUMP JUMPDEST PUSH0 PUSH1 0x20 DUP3 DUP5 SUB SLT ISZERO PUSH2 0xC21 JUMPI PUSH2 0xC20 PUSH2 0x8BD JUMP JUMPDEST JUMPDEST PUSH0 PUSH2 0xC2E DUP5 DUP3 DUP6 ADD PUSH2 0xBF8 JUMP JUMPDEST SWAP2 POP POP SWAP3 SWAP2 POP POP JUMP JUMPDEST PUSH1 0x3 DUP2 LT PUSH2 0xC43 JUMPI PUSH0 PUSH0 REVERT JUMPDEST POP JUMP JUMPDEST PUSH0 DUP2 CALLDATALOAD SWAP1 POP PUSH2 0xC54 DUP2 PUSH2 0xC37 JUMP JUMPDEST SWAP3 SWAP2 POP POP JUMP JUMPDEST PUSH0 PUSH1 0x20 DUP3 DUP5 SUB SLT ISZERO PUSH2 0xC6F JUMPI PUSH2 0xC6E PUSH2 0x8BD JUMP JUMPDEST JUMPDEST PUSH0 PUSH2 0xC7C DUP5 DUP3 DUP6 ADD PUSH2 0xC46 JUMP JUMPDEST SWAP2 POP POP SWAP3 SWAP2 POP POP JUMP JUMPDEST PUSH2 0xC8E DUP2 PUSH2 0x9CE JUMP JUMPDEST DUP3 MSTORE POP POP JUMP JUMPDEST PUSH0 DUP3 DUP3 MSTORE PUSH1 0x20 DUP3 ADD SWAP1 POP SWAP3 SWAP2 POP POP JUMP JUMPDEST PUSH0 PUSH2 0xCAE DUP3 PUSH2 0xA43 JUMP JUMPDEST PUSH2 0xCB8 DUP2 DUP6 PUSH2 0xC94 JUMP JUMPDEST SWAP4 POP PUSH2 0xCC8 DUP2 DUP6 PUSH1 0x20 DUP7 ADD PUSH2 0xA5D JUMP JUMPDEST PUSH2 0xCD1 DUP2 PUSH2 0xA6B JUMP JUMPDEST DUP5 ADD SWAP2 POP POP SWAP3 SWAP2 POP POP JUMP JUMPDEST PUSH2 0xCE5 DUP2 PUSH2 0xAB3 JUMP JUMPDEST DUP3 MSTORE POP POP JUMP JUMPDEST PUSH2 0xCF4 DUP2 PUSH2 0xADD JUMP JUMPDEST DUP3 MSTORE POP POP JUMP JUMPDEST PUSH0 PUSH1 0xA0 DUP3 ADD SWAP1 POP PUSH2 0xD0D PUSH0 DUP4 ADD DUP9 PUSH2 0xC85 JUMP JUMPDEST DUP2 DUP2 SUB PUSH1 0x20 DUP4 ADD MSTORE PUSH2 0xD1F DUP2 DUP8 PUSH2 0xCA4 JUMP JUMPDEST SWAP1 POP PUSH2 0xD2E PUSH1 0x40 DUP4 ADD DUP7 PUSH2 0xCDC JUMP JUMPDEST PUSH2 0xD3B PUSH1 0x60 DUP4 ADD DUP6 PUSH2 0x987 JUMP JUMPDEST PUSH2 0xD48 PUSH1 0x80 DUP4 ADD DUP5 PUSH2 0xCEB JUMP JUMPDEST SWAP7 SWAP6 POP POP POP POP POP POP JUMP JUMPDEST PUSH0 PUSH0 REVERT JUMPDEST PUSH0 PUSH0 REVERT JUMPDEST PUSH32 0x4E487B7100000000000000000000000000000000000000000000000000000000 PUSH0 MSTORE PUSH1 0x41 PUSH1 0x4 MSTORE PUSH1 0x24 PUSH0 REVERT JUMPDEST PUSH2 0xD90 DUP3 PUSH2 0xA6B JUMP JUMPDEST DUP2 ADD DUP2 DUP2 LT PUSH8 0xFFFFFFFFFFFFFFFF DUP3 GT OR ISZERO PUSH2 0xDAF JUMPI PUSH2 0xDAE PUSH2 0xD5A JUMP JUMPDEST JUMPDEST DUP1 PUSH1 0x40 MSTORE POP POP POP JUMP JUMPDEST PUSH0 PUSH2 0xDC1 PUSH2 0x8B4 JUMP JUMPDEST SWAP1 POP PUSH2 0xDCD DUP3 DUP3 PUSH2 0xD87 JUMP JUMPDEST SWAP2 SWAP1 POP JUMP JUMPDEST PUSH0 PUSH8 0xFFFFFFFFFFFFFFFF DUP3 GT ISZERO PUSH2 0xDEC JUMPI PUSH2 0xDEB PUSH2 0xD5A JUMP JUMPDEST JUMPDEST PUSH2 0xDF5 DUP3 PUSH2 0xA6B JUMP JUMPDEST SWAP1 POP PUSH1 0x20 DUP2 ADD SWAP1 POP SWAP2 SWAP1 POP JUMP JUMPDEST DUP3 DUP2 DUP4 CALLDATACOPY PUSH0 DUP4 DUP4 ADD MSTORE POP POP POP JUMP JUMPDEST PUSH0 PUSH2 0xE22 PUSH2 0xE1D DUP5 PUSH2 0xDD2 JUMP JUMPDEST PUSH2 0xDB8 JUMP JUMPDEST SWAP1 POP DUP3 DUP2 MSTORE PUSH1 0x20 DUP2 ADD DUP5 DUP5 DUP5 ADD GT ISZERO PUSH2 0xE3E JUMPI PUSH2 0xE3D PUSH2 0xD56 JUMP JUMPDEST JUMPDEST PUSH2 0xE49 DUP5 DUP3 DUP6 PUSH2 0xE02 JUMP JUMPDEST POP SWAP4 SWAP3 POP POP POP JUMP JUMPDEST PUSH0 DUP3 PUSH1 0x1F DUP4 ADD SLT PUSH2 0xE65 JUMPI PUSH2 0xE64 PUSH2 0xD52 JUMP JUMPDEST JUMPDEST DUP2 CALLDATALOAD PUSH2 0xE75 DUP5 DUP3 PUSH1 0x20 DUP7 ADD PUSH2 0xE10 JUMP JUMPDEST SWAP2 POP POP SWAP3 SWAP2 POP POP JUMP JUMPDEST PUSH2 0xE87 DUP2 PUSH2 0xAB3 JUMP JUMPDEST DUP2 EQ PUSH2 0xE91 JUMPI PUSH0 PUSH0 REVERT JUMPDEST POP JUMP JUMPDEST PUSH0 DUP2 CALLDATALOAD SWAP1 POP PUSH2 0xEA2 DUP2 PUSH2 0xE7E JUMP JUMPDEST SWAP3 SWAP2 POP POP JUMP JUMPDEST PUSH1 0x5 DUP2 LT PUSH2 0xEB4 JUMPI PUSH0 PUSH0 REVERT JUMPDEST POP JUMP JUMPDEST PUSH0 DUP2 CALLDATALOAD SWAP1 POP PUSH2 0xEC5 DUP2 PUSH2 0xEA8 JUMP JUMPDEST SWAP3 SWAP2 POP POP JUMP JUMPDEST PUSH0 PUSH0 PUSH0 PUSH0 PUSH1 0x80 DUP6 DUP8 SUB SLT ISZERO PUSH2 0xEE3 JUMPI PUSH2 0xEE2 PUSH2 0x8BD JUMP JUMPDEST JUMPDEST PUSH0 DUP6 ADD CALLDATALOAD PUSH8 0xFFFFFFFFFFFFFFFF DUP2 GT ISZERO PUSH2 0xF00 JUMPI PUSH2 0xEFF PUSH2 0x8C1 JUMP JUMPDEST JUMPDEST PUSH2 0xF0C DUP8 DUP3 DUP9 ADD PUSH2 0xE51 JUMP JUMPDEST SWAP5 POP POP PUSH1 0x20 PUSH2 0xF1D DUP8 DUP3 DUP9 ADD PUSH2 0xE94 JUMP JUMPDEST SWAP4 POP POP PUSH1 0x40 PUSH2 0xF2E DUP8 DUP3 DUP9 ADD PUSH2 0xEB7 JUMP JUMPDEST SWAP3 POP POP PUSH1 0x60 PUSH2 0xF3F DUP8 DUP3 DUP9 ADD PUSH2 0x9F5 JUMP JUMPDEST SWAP2 POP POP SWAP3 SWAP6 SWAP2 SWAP5 POP SWAP3 POP JUMP JUMPDEST PUSH1 0x3 DUP2 LT PUSH2 0xF5C JUMPI PUSH2 0xF5B PUSH2 0x923 JUMP JUMPDEST JUMPDEST POP JUMP JUMPDEST PUSH0 DUP2 SWAP1 POP PUSH2 0xF6C DUP3 PUSH2 0xF4B JUMP JUMPDEST SWAP2 SWAP1 POP JUMP JUMPDEST PUSH0 PUSH2 0xF7B DUP3 PUSH2 0xF5F JUMP JUMPDEST SWAP1 POP SWAP2 SWAP1 POP JUMP JUMPDEST PUSH2 0xF8B DUP2 PUSH2 0xF71 JUMP JUMPDEST DUP3 MSTORE POP POP JUMP JUMPDEST PUSH0 PUSH1 0x20 DUP3 ADD SWAP1 POP PUSH2 0xFA4 PUSH0 DUP4 ADD DUP5 PUSH2 0xF82 JUMP JUMPDEST SWAP3 SWAP2 POP POP JUMP JUMPDEST PUSH32 0x54686520656D706C6F79657320686173206E6F74206265656E20726567697374 PUSH0 DUP3 ADD MSTORE PUSH32 0x6572000000000000000000000000000000000000000000000000000000000000 PUSH1 0x20 DUP3 ADD MSTORE POP JUMP JUMPDEST PUSH0 PUSH2 0x1004 PUSH1 0x22 DUP4 PUSH2 0xC94 JUMP JUMPDEST SWAP2 POP PUSH2 0x100F DUP3 PUSH2 0xFAA JUMP JUMPDEST PUSH1 0x40 DUP3 ADD SWAP1 POP SWAP2 SWAP1 POP JUMP JUMPDEST PUSH0 PUSH1 0x20 DUP3 ADD SWAP1 POP DUP2 DUP2 SUB PUSH0 DUP4 ADD MSTORE PUSH2 0x1031 DUP2 PUSH2 0xFF8 JUMP JUMPDEST SWAP1 POP SWAP2 SWAP1 POP JUMP JUMPDEST PUSH32 0x4E487B7100000000000000000000000000000000000000000000000000000000 PUSH0 MSTORE PUSH1 0x22 PUSH1 0x4 MSTORE PUSH1 0x24 PUSH0 REVERT JUMPDEST PUSH0 PUSH1 0x2 DUP3 DIV SWAP1 POP PUSH1 0x1 DUP3 AND DUP1 PUSH2 0x107C JUMPI PUSH1 0x7F DUP3 AND SWAP2 POP JUMPDEST PUSH1 0x20 DUP3 LT DUP2 SUB PUSH2 0x108F JUMPI PUSH2 0x108E PUSH2 0x1038 JUMP JUMPDEST JUMPDEST POP SWAP2 SWAP1 POP JUMP JUMPDEST PUSH32 0x54686520656D706C6F79657320686173206265656E2072656769737465720000 PUSH0 DUP3 ADD MSTORE POP JUMP JUMPDEST PUSH0 PUSH2 0x10C9 PUSH1 0x1E DUP4 PUSH2 0xC94 JUMP JUMPDEST SWAP2 POP PUSH2 0x10D4 DUP3 PUSH2 0x1095 JUMP JUMPDEST PUSH1 0x20 DUP3 ADD SWAP1 POP SWAP2 SWAP1 POP JUMP JUMPDEST PUSH0 PUSH1 0x20 DUP3 ADD SWAP1 POP DUP2 DUP2 SUB PUSH0 DUP4 ADD MSTORE PUSH2 0x10F6 DUP2 PUSH2 0x10BD JUMP JUMPDEST SWAP1 POP SWAP2 SWAP1 POP JUMP JUMPDEST PUSH0 DUP2 SWAP1 POP DUP2 PUSH0 MSTORE PUSH1 0x20 PUSH0 KECCAK256 SWAP1 POP SWAP2 SWAP1 POP JUMP JUMPDEST PUSH0 PUSH1 0x20 PUSH1 0x1F DUP4 ADD DIV SWAP1 POP SWAP2 SWAP1 POP JUMP JUMPDEST PUSH0 DUP3 DUP3 SHL SWAP1 POP SWAP3 SWAP2 POP POP JUMP JUMPDEST PUSH0 PUSH1 0x8 DUP4 MUL PUSH2 0x1159 PUSH32 0xFFFFFFFFFFFFFFFFFFFFFFFFFFFFFFFFFFFFFFFFFFFFFFFFFFFFFFFFFFFFFFFF DUP3 PUSH2 0x111E JUMP JUMPDEST PUSH2 0x1163 DUP7 DUP4 PUSH2 0x111E JUMP JUMPDEST SWAP6 POP DUP1 NOT DUP5 AND SWAP4 POP DUP1 DUP7 AND DUP5 OR SWAP3 POP POP POP SWAP4 SWAP3 POP POP POP JUMP JUMPDEST PUSH0 DUP2 SWAP1 POP SWAP2 SWAP1 POP JUMP JUMPDEST PUSH0 PUSH2 0x119E PUSH2 0x1199 PUSH2 0x1194 DUP5 PUSH2 0x8C5 JUMP JUMPDEST PUSH2 0x117B JUMP JUMPDEST PUSH2 0x8C5 JUMP JUMPDEST SWAP1 POP SWAP2 SWAP1 POP JUMP JUMPDEST PUSH0 DUP2 SWAP1 POP SWAP2 SWAP1 POP JUMP JUMPDEST PUSH2 0x11B7 DUP4 PUSH2 0x1184 JUMP JUMPDEST PUSH2 0x11CB PUSH2 0x11C3 DUP3 PUSH2 0x11A5 JUMP JUMPDEST DUP5 DUP5 SLOAD PUSH2 0x112A JUMP JUMPDEST DUP3 SSTORE POP POP POP POP JUMP JUMPDEST PUSH0 PUSH0 SWAP1 POP SWAP1 JUMP JUMPDEST PUSH2 0x11E2 PUSH2 0x11D3 JUMP JUMPDEST PUSH2 0x11ED DUP2 DUP5 DUP5 PUSH2 0x11AE JUMP JUMPDEST POP POP POP JUMP JUMPDEST PUSH0 JUMPDEST DUP3 DUP2 LT ISZERO PUSH2 0x1213 JUMPI PUSH2 0x1208 PUSH0 DUP3 DUP5 ADD PUSH2 0x11DA JUMP JUMPDEST PUSH1 0x1 DUP2 ADD SWAP1 POP PUSH2 0x11F4 JUMP JUMPDEST POP POP POP JUMP JUMPDEST PUSH1 0x1F DUP3 GT ISZERO PUSH2 0x1266 JUMPI DUP3 DUP3 GT ISZERO PUSH2 0x1265 JUMPI PUSH2 0x1232 DUP2 PUSH2 0x10FD JUMP JUMPDEST PUSH2 0x123B DUP4 PUSH2 0x110F JUMP JUMPDEST PUSH2 0x1244 DUP6 PUSH2 0x110F JUMP JUMPDEST PUSH1 0x20 DUP7 LT ISZERO PUSH2 0x1251 JUMPI PUSH0 SWAP1 POP JUMPDEST DUP1 DUP4 ADD PUSH2 0x1260 DUP3 DUP5 SUB DUP3 PUSH2 0x11F2 JUMP JUMPDEST POP POP POP POP JUMPDEST JUMPDEST POP POP POP JUMP JUMPDEST PUSH0 DUP3 DUP3 SHR SWAP1 POP SWAP3 SWAP2 POP POP JUMP JUMPDEST PUSH0 PUSH2 0x1286 PUSH0 NOT DUP5 PUSH1 0x8 MUL PUSH2 0x126B JUMP JUMPDEST NOT DUP1 DUP4 AND SWAP2 POP POP SWAP3 SWAP2 POP POP JUMP JUMPDEST PUSH0 PUSH2 0x129E DUP4 DUP4 PUSH2 0x1277 JUMP JUMPDEST SWAP2 POP DUP3 PUSH1 0x2 MUL DUP3 OR SWAP1 POP SWAP3 SWAP2 POP POP JUMP JUMPDEST PUSH2 0x12B7 DUP3 PUSH2 0xA43 JUMP JUMPDEST PUSH8 0xFFFFFFFFFFFFFFFF DUP2 GT ISZERO PUSH2 0x12D0 JUMPI PUSH2 0x12CF PUSH2 0xD5A JUMP JUMPDEST JUMPDEST PUSH2 0x12DA DUP3 SLOAD PUSH2 0x1065 JUMP JUMPDEST PUSH2 0x12E5 DUP3 DUP3 DUP6 PUSH2 0x1218 JUMP JUMPDEST PUSH0 PUSH1 0x20 SWAP1 POP PUSH1 0x1F DUP4 GT PUSH1 0x1 DUP2 EQ PUSH2 0x1316 JUMPI PUSH0 DUP5 ISZERO PUSH2 0x1304 JUMPI DUP3 DUP8 ADD MLOAD SWAP1 POP JUMPDEST PUSH2 0x130E DUP6 DUP3 PUSH2 0x1293 JUMP JUMPDEST DUP7 SSTORE POP PUSH2 0x1375 JUMP JUMPDEST PUSH1 0x1F NOT DUP5 AND PUSH2 0x1324 DUP7 PUSH2 0x10FD JUMP JUMPDEST PUSH0 JUMPDEST DUP3 DUP2 LT ISZERO PUSH2 0x134B JUMPI DUP5 DUP10 ADD MLOAD DUP3 SSTORE PUSH1 0x1 DUP3 ADD SWAP2 POP PUSH1 0x20 DUP6 ADD SWAP5 POP PUSH1 0x20 DUP2 ADD SWAP1 POP PUSH2 0x1326 JUMP JUMPDEST DUP7 DUP4 LT ISZERO PUSH2 0x1368 JUMPI DUP5 DUP10 ADD MLOAD PUSH2 0x1364 PUSH1 0x1F DUP10 AND DUP3 PUSH2 0x1277 JUMP JUMPDEST DUP4 SSTORE POP JUMPDEST PUSH1 0x1 PUSH1 0x2 DUP9 MUL ADD DUP9 SSTORE POP POP POP JUMPDEST POP POP POP POP POP POP JUMP INVALID LOG2 PUSH5 0x6970667358 0x22 SLT KECCAK256 SUB PUSH14 0x1A7C6C66623519EDC1BCE50C6C69 0xBD PUSH14 0xCADD33E567156D7EAA23C33F9A1F PUSH5 0x736F6C6343 STOP ADDMOD 0x22 STOP CALLER "
				},
				"gasEstimates": {
					"creation": {
						"codeDepositCost": "1008600",
						"executionCost": "1045",
						"totalCost": "1009645"
					},
					"external": {
						"cancel()": "24539",
						"employes(address)": "infinite",
						"get()": "2650",
						"getEmployes(address)": "infinite",
						"getSize()": "2675",
						"getTeam(uint256)": "714",
						"registerEmploye(string,uint8,uint8,address)": "infinite",
						"reset()": "24428",
						"set(uint8)": "24712",
						"setSize(uint8)": "24807",
						"sizes()": "2690",
						"status()": "2599"
					}
				},
				"methodIdentifiers": {
					"cancel()": "ea8a1af0",
					"employes(address)": "9c3466c8",
					"get()": "6d4ce63c",
					"getEmployes(address)": "033fca1d",
					"getSize()": "de8fa431",
					"getTeam(uint256)": "008e0f1b",
					"registerEmploye(string,uint8,uint8,address)": "bf3094e9",
					"reset()": "d826f88f",
					"set(uint8)": "24b8ba5f",
					"setSize(uint8)": "99400a5a",
					"sizes()": "e4da41a7",
					"status()": "200d2ed2"
				}
			},
			"storageLayout": {
				"storage": [
					{
						"astId": 34,
						"contract": "8.4 Data Structures - Enums/enums.sol:Enum",
						"label": "employes",
						"offset": 0,
						"slot": "0",
						"type": "t_mapping(t_address,t_struct(Employes)29_storage)"
					},
					{
						"astId": 37,
						"contract": "8.4 Data Structures - Enums/enums.sol:Enum",
						"label": "status",
						"offset": 0,
						"slot": "1",
						"type": "t_enum(Status)7"
					},
					{
						"astId": 40,
						"contract": "8.4 Data Structures - Enums/enums.sol:Enum",
						"label": "sizes",
						"offset": 1,
						"slot": "1",
						"type": "t_enum(Size)11"
					}
				],
				"types": {
					"t_address": {
						"encoding": "inplace",
						"label": "address",
						"numberOfBytes": "20"
					},
					"t_bool": {
						"encoding": "inplace",
						"label": "bool",
						"numberOfBytes": "1"
					},
					"t_enum(Size)11": {
						"encoding": "inplace",
						"label": "enum Enum.Size",
						"numberOfBytes": "1"
					},
					"t_enum(Status)7": {
						"encoding": "inplace",
						"label": "enum Enum.Status",
						"numberOfBytes": "1"
					},
					"t_enum(Team)17": {
						"encoding": "inplace",
						"label": "enum Enum.Team",
						"numberOfBytes": "1"
					},
					"t_mapping(t_address,t_struct(Employes)29_storage)": {
						"encoding": "mapping",
						"key": "t_address",
						"label": "mapping(address => struct Enum.Employes)",
						"numberOfBytes": "32",
						"value": "t_struct(Employes)29_storage"
					},
					"t_string_storage": {
						"encoding": "bytes",
						"label": "string",
						"numberOfBytes": "32"
					},
					"t_struct(Employes)29_storage": {
						"encoding": "inplace",
						"label": "struct Enum.Employes",
						"members": [
							{
								"astId": 19,
								"contract": "8.4 Data Structures - Enums/enums.sol:Enum",
								"label": "id",
								"offset": 0,
								"slot": "0",
								"type": "t_address"
							},
							{
								"astId": 21,
								"contract": "8.4 Data Structures - Enums/enums.sol:Enum",
								"label": "name",
								"offset": 0,
								"slot": "1",
								"type": "t_string_storage"
							},
							{
								"astId": 23,
								"contract": "8.4 Data Structures - Enums/enums.sol:Enum",
								"label": "age",
								"offset": 0,
								"slot": "2",
								"type": "t_uint8"
							},
							{
								"astId": 26,
								"contract": "8.4 Data Structures - Enums/enums.sol:Enum",
								"label": "team",
								"offset": 1,
								"slot": "2",
								"type": "t_enum(Team)17"
							},
							{
								"astId": 28,
								"contract": "8.4 Data Structures - Enums/enums.sol:Enum",
								"label": "isRegistered",
								"offset": 2,
								"slot": "2",
								"type": "t_bool"
							}
						],
						"numberOfBytes": "96"
					},
					"t_uint8": {
						"encoding": "inplace",
						"label": "uint8",
						"numberOfBytes": "1"
					}
				}
			},
			"userdoc": {
				"kind": "user",
				"methods": {},
				"version": 1
			}
		}
	}
}