{
	"5.3 Functions - Modifiers and Constructors/modifiersAndConstructors.sol": {
		"FunctionModifier": {
			"abi": [
				{
					"inputs": [
						{
							"internalType": "uint256",
							"name": "_x",
							"type": "uint256"
						}
					],
					"name": "increaseX",
					"outputs": [],
					"stateMutability": "nonpayable",
					"type": "function"
				},
				{
					"inputs": [],
					"name": "isIncrease",
					"outputs": [
						{
							"internalType": "bool",
							"name": "",
							"type": "bool"
						}
					],
					"stateMutability": "view",
					"type": "function"
				},
				{
					"inputs": [],
					"name": "locked",
					"outputs": [
						{
							"internalType": "bool",
							"name": "",
							"type": "bool"
						}
					],
					"stateMutability": "view",
					"type": "function"
				},
				{
					"inputs": [],
					"name": "owner",
					"outputs": [
						{
							"internalType": "address",
							"name": "",
							"type": "address"
						}
					],
					"stateMutability": "view",
					"type": "function"
				},
				{
					"inputs": [],
					"name": "x",
					"outputs": [
						{
							"internalType": "uint256",
							"name": "",
							"type": "uint256"
						}
					],
					"stateMutability": "view",
					"type": "function"
				}
			],
			"devdoc": {
				"kind": "dev",
				"methods": {},
				"version": 1
			},
			"evm": {
				"assembly": "    /* \"5.3 Functions - Modifiers and Constructors/modifiersAndConstructors.sol\":57:645  contract FunctionModifier {... */\n  mstore(0x40, 0x80)\n    /* \"5.3 Functions - Modifiers and Constructors/modifiersAndConstructors.sol\":210:212  10 */\n  0x0a\n    /* \"5.3 Functions - Modifiers and Constructors/modifiersAndConstructors.sol\":194:212  uint public x = 10 */\n  0x01\n  sstore\n    /* \"5.3 Functions - Modifiers and Constructors/modifiersAndConstructors.sol\":268:273  false */\n  0x00\n    /* \"5.3 Functions - Modifiers and Constructors/modifiersAndConstructors.sol\":242:273  bool public isIncrease  = false */\n  0x02\n  exp(0x0100, 0x01)\n  dup2\n  sload\n  dup2\n  0xff\n  mul\n  not\n  and\n  swap1\n  dup4\n  iszero\n  iszero\n  mul\n  or\n  swap1\n  sstore\n  pop\n    /* \"5.3 Functions - Modifiers and Constructors/modifiersAndConstructors.sol\":57:645  contract FunctionModifier {... */\n  callvalue\n  dup1\n  iszero\n  tag_1\n  jumpi\n  revert(0x00, 0x00)\ntag_1:\n  pop\n  dataSize(sub_0)\n  dup1\n  dataOffset(sub_0)\n  0x00\n  codecopy\n  0x00\n  return\nstop\n\nsub_0: assembly {\n        /* \"5.3 Functions - Modifiers and Constructors/modifiersAndConstructors.sol\":57:645  contract FunctionModifier {... */\n      mstore(0x40, 0x80)\n      callvalue\n      dup1\n      iszero\n      tag_1\n      jumpi\n      revert(0x00, 0x00)\n    tag_1:\n      pop\n      jumpi(tag_2, lt(calldatasize, 0x04))\n      shr(0xe0, calldataload(0x00))\n      dup1\n      0x0c55699c\n      eq\n      tag_3\n      jumpi\n      dup1\n      0x8c8f7e57\n      eq\n      tag_4\n      jumpi\n      dup1\n      0x8da5cb5b\n      eq\n      tag_5\n      jumpi\n      dup1\n      0x9758d20d\n      eq\n      tag_6\n      jumpi\n      dup1\n      0xcf309012\n      eq\n      tag_7\n      jumpi\n    tag_2:\n      revert(0x00, 0x00)\n        /* \"5.3 Functions - Modifiers and Constructors/modifiersAndConstructors.sol\":194:212  uint public x = 10 */\n    tag_3:\n      tag_8\n      tag_9\n      jump\t// in\n    tag_8:\n      mload(0x40)\n      tag_10\n      swap2\n      swap1\n      tag_11\n      jump\t// in\n    tag_10:\n      mload(0x40)\n      dup1\n      swap2\n      sub\n      swap1\n      return\n        /* \"5.3 Functions - Modifiers and Constructors/modifiersAndConstructors.sol\":242:273  bool public isIncrease  = false */\n    tag_4:\n      tag_12\n      tag_13\n      jump\t// in\n    tag_12:\n      mload(0x40)\n      tag_14\n      swap2\n      swap1\n      tag_15\n      jump\t// in\n    tag_14:\n      mload(0x40)\n      dup1\n      swap2\n      sub\n      swap1\n      return\n        /* \"5.3 Functions - Modifiers and Constructors/modifiersAndConstructors.sol\":168:188  address public owner */\n    tag_5:\n      tag_16\n      tag_17\n      jump\t// in\n    tag_16:\n      mload(0x40)\n      tag_18\n      swap2\n      swap1\n      tag_19\n      jump\t// in\n    tag_18:\n      mload(0x40)\n      dup1\n      swap2\n      sub\n      swap1\n      return\n        /* \"5.3 Functions - Modifiers and Constructors/modifiersAndConstructors.sol\":280:357  function increaseX(uint _x) public isIncreaseOrNot(_x) beIncrease(_x) {... */\n    tag_6:\n      tag_20\n      0x04\n      dup1\n      calldatasize\n      sub\n      dup2\n      add\n      swap1\n      tag_21\n      swap2\n      swap1\n      tag_22\n      jump\t// in\n    tag_21:\n      tag_23\n      jump\t// in\n    tag_20:\n      stop\n        /* \"5.3 Functions - Modifiers and Constructors/modifiersAndConstructors.sol\":218:236  bool public locked */\n    tag_7:\n      tag_24\n      tag_25\n      jump\t// in\n    tag_24:\n      mload(0x40)\n      tag_26\n      swap2\n      swap1\n      tag_15\n      jump\t// in\n    tag_26:\n      mload(0x40)\n      dup1\n      swap2\n      sub\n      swap1\n      return\n        /* \"5.3 Functions - Modifiers and Constructors/modifiersAndConstructors.sol\":194:212  uint public x = 10 */\n    tag_9:\n      sload(0x01)\n      dup2\n      jump\t// out\n        /* \"5.3 Functions - Modifiers and Constructors/modifiersAndConstructors.sol\":242:273  bool public isIncrease  = false */\n    tag_13:\n      0x02\n      0x01\n      swap1\n      sload\n      swap1\n      0x0100\n      exp\n      swap1\n      div\n      0xff\n      and\n      dup2\n      jump\t// out\n        /* \"5.3 Functions - Modifiers and Constructors/modifiersAndConstructors.sol\":168:188  address public owner */\n    tag_17:\n      0x00\n      0x00\n      swap1\n      sload\n      swap1\n      0x0100\n      exp\n      swap1\n      div\n      0xffffffffffffffffffffffffffffffffffffffff\n      and\n      dup2\n      jump\t// out\n        /* \"5.3 Functions - Modifiers and Constructors/modifiersAndConstructors.sol\":280:357  function increaseX(uint _x) public isIncreaseOrNot(_x) beIncrease(_x) {... */\n    tag_23:\n        /* \"5.3 Functions - Modifiers and Constructors/modifiersAndConstructors.sol\":331:333  _x */\n      dup1\n        /* \"5.3 Functions - Modifiers and Constructors/modifiersAndConstructors.sol\":413:414  0 */\n      0x00\n        /* \"5.3 Functions - Modifiers and Constructors/modifiersAndConstructors.sol\":410:412  _x */\n      dup2\n        /* \"5.3 Functions - Modifiers and Constructors/modifiersAndConstructors.sol\":410:414  _x>0 */\n      gt\n        /* \"5.3 Functions - Modifiers and Constructors/modifiersAndConstructors.sol\":407:505  if(_x>0){... */\n      iszero\n      tag_28\n      jumpi\n        /* \"5.3 Functions - Modifiers and Constructors/modifiersAndConstructors.sol\":442:446  true */\n      0x01\n        /* \"5.3 Functions - Modifiers and Constructors/modifiersAndConstructors.sol\":429:439  isIncrease */\n      0x02\n      0x01\n        /* \"5.3 Functions - Modifiers and Constructors/modifiersAndConstructors.sol\":429:446  isIncrease = true */\n      0x0100\n      exp\n      dup2\n      sload\n      dup2\n      0xff\n      mul\n      not\n      and\n      swap1\n      dup4\n      iszero\n      iszero\n      mul\n      or\n      swap1\n      sstore\n      pop\n        /* \"5.3 Functions - Modifiers and Constructors/modifiersAndConstructors.sol\":407:505  if(_x>0){... */\n      jump(tag_29)\n    tag_28:\n        /* \"5.3 Functions - Modifiers and Constructors/modifiersAndConstructors.sol\":489:494  false */\n      0x00\n        /* \"5.3 Functions - Modifiers and Constructors/modifiersAndConstructors.sol\":476:486  isIncrease */\n      0x02\n      0x01\n        /* \"5.3 Functions - Modifiers and Constructors/modifiersAndConstructors.sol\":476:494  isIncrease = false */\n      0x0100\n      exp\n      dup2\n      sload\n      dup2\n      0xff\n      mul\n      not\n      and\n      swap1\n      dup4\n      iszero\n      iszero\n      mul\n      or\n      swap1\n      sstore\n      pop\n        /* \"5.3 Functions - Modifiers and Constructors/modifiersAndConstructors.sol\":407:505  if(_x>0){... */\n    tag_29:\n        /* \"5.3 Functions - Modifiers and Constructors/modifiersAndConstructors.sol\":346:348  _x */\n      dup2\n        /* \"5.3 Functions - Modifiers and Constructors/modifiersAndConstructors.sol\":575:585  isIncrease */\n      0x02\n      0x01\n      swap1\n      sload\n      swap1\n      0x0100\n      exp\n      swap1\n      div\n      0xff\n      and\n        /* \"5.3 Functions - Modifiers and Constructors/modifiersAndConstructors.sol\":567:602  require(isIncrease, \"Not Increase\") */\n      tag_31\n      jumpi\n      mload(0x40)\n      0x08c379a000000000000000000000000000000000000000000000000000000000\n      dup2\n      mstore\n      0x04\n      add\n      tag_32\n      swap1\n      tag_33\n      jump\t// in\n    tag_32:\n      mload(0x40)\n      dup1\n      swap2\n      sub\n      swap1\n      revert\n    tag_31:\n        /* \"5.3 Functions - Modifiers and Constructors/modifiersAndConstructors.sol\":634:636  _x */\n      dup1\n        /* \"5.3 Functions - Modifiers and Constructors/modifiersAndConstructors.sol\":630:631  x */\n      sload(0x01)\n        /* \"5.3 Functions - Modifiers and Constructors/modifiersAndConstructors.sol\":630:636  x + _x */\n      tag_35\n      swap2\n      swap1\n      tag_36\n      jump\t// in\n    tag_35:\n        /* \"5.3 Functions - Modifiers and Constructors/modifiersAndConstructors.sol\":626:627  x */\n      0x01\n        /* \"5.3 Functions - Modifiers and Constructors/modifiersAndConstructors.sol\":626:636  x = x + _x */\n      dup2\n      swap1\n      sstore\n      pop\n        /* \"5.3 Functions - Modifiers and Constructors/modifiersAndConstructors.sol\":514:515  _ */\n      pop\n        /* \"5.3 Functions - Modifiers and Constructors/modifiersAndConstructors.sol\":280:357  function increaseX(uint _x) public isIncreaseOrNot(_x) beIncrease(_x) {... */\n      pop\n      pop\n      jump\t// out\n        /* \"5.3 Functions - Modifiers and Constructors/modifiersAndConstructors.sol\":218:236  bool public locked */\n    tag_25:\n      0x02\n      0x00\n      swap1\n      sload\n      swap1\n      0x0100\n      exp\n      swap1\n      div\n      0xff\n      and\n      dup2\n      jump\t// out\n        /* \"#utility.yul\":7:84   */\n    tag_37:\n        /* \"#utility.yul\":44:51   */\n      0x00\n        /* \"#utility.yul\":73:78   */\n      dup2\n        /* \"#utility.yul\":62:78   */\n      swap1\n      pop\n        /* \"#utility.yul\":7:84   */\n      swap2\n      swap1\n      pop\n      jump\t// out\n        /* \"#utility.yul\":90:208   */\n    tag_38:\n        /* \"#utility.yul\":177:201   */\n      tag_56\n        /* \"#utility.yul\":195:200   */\n      dup2\n        /* \"#utility.yul\":177:201   */\n      tag_37\n      jump\t// in\n    tag_56:\n        /* \"#utility.yul\":172:175   */\n      dup3\n        /* \"#utility.yul\":165:202   */\n      mstore\n        /* \"#utility.yul\":90:208   */\n      pop\n      pop\n      jump\t// out\n        /* \"#utility.yul\":214:436   */\n    tag_11:\n        /* \"#utility.yul\":307:311   */\n      0x00\n        /* \"#utility.yul\":345:347   */\n      0x20\n        /* \"#utility.yul\":334:343   */\n      dup3\n        /* \"#utility.yul\":330:348   */\n      add\n        /* \"#utility.yul\":322:348   */\n      swap1\n      pop\n        /* \"#utility.yul\":358:429   */\n      tag_58\n        /* \"#utility.yul\":426:427   */\n      0x00\n        /* \"#utility.yul\":415:424   */\n      dup4\n        /* \"#utility.yul\":411:428   */\n      add\n        /* \"#utility.yul\":402:408   */\n      dup5\n        /* \"#utility.yul\":358:429   */\n      tag_38\n      jump\t// in\n    tag_58:\n        /* \"#utility.yul\":214:436   */\n      swap3\n      swap2\n      pop\n      pop\n      jump\t// out\n        /* \"#utility.yul\":442:532   */\n    tag_39:\n        /* \"#utility.yul\":476:483   */\n      0x00\n        /* \"#utility.yul\":519:524   */\n      dup2\n        /* \"#utility.yul\":512:525   */\n      iszero\n        /* \"#utility.yul\":505:526   */\n      iszero\n        /* \"#utility.yul\":494:526   */\n      swap1\n      pop\n        /* \"#utility.yul\":442:532   */\n      swap2\n      swap1\n      pop\n      jump\t// out\n        /* \"#utility.yul\":538:647   */\n    tag_40:\n        /* \"#utility.yul\":619:640   */\n      tag_61\n        /* \"#utility.yul\":634:639   */\n      dup2\n        /* \"#utility.yul\":619:640   */\n      tag_39\n      jump\t// in\n    tag_61:\n        /* \"#utility.yul\":614:617   */\n      dup3\n        /* \"#utility.yul\":607:641   */\n      mstore\n        /* \"#utility.yul\":538:647   */\n      pop\n      pop\n      jump\t// out\n        /* \"#utility.yul\":653:863   */\n    tag_15:\n        /* \"#utility.yul\":740:744   */\n      0x00\n        /* \"#utility.yul\":778:780   */\n      0x20\n        /* \"#utility.yul\":767:776   */\n      dup3\n        /* \"#utility.yul\":763:781   */\n      add\n        /* \"#utility.yul\":755:781   */\n      swap1\n      pop\n        /* \"#utility.yul\":791:856   */\n      tag_63\n        /* \"#utility.yul\":853:854   */\n      0x00\n        /* \"#utility.yul\":842:851   */\n      dup4\n        /* \"#utility.yul\":838:855   */\n      add\n        /* \"#utility.yul\":829:835   */\n      dup5\n        /* \"#utility.yul\":791:856   */\n      tag_40\n      jump\t// in\n    tag_63:\n        /* \"#utility.yul\":653:863   */\n      swap3\n      swap2\n      pop\n      pop\n      jump\t// out\n        /* \"#utility.yul\":869:995   */\n    tag_41:\n        /* \"#utility.yul\":906:913   */\n      0x00\n        /* \"#utility.yul\":946:988   */\n      0xffffffffffffffffffffffffffffffffffffffff\n        /* \"#utility.yul\":939:944   */\n      dup3\n        /* \"#utility.yul\":935:989   */\n      and\n        /* \"#utility.yul\":924:989   */\n      swap1\n      pop\n        /* \"#utility.yul\":869:995   */\n      swap2\n      swap1\n      pop\n      jump\t// out\n        /* \"#utility.yul\":1001:1097   */\n    tag_42:\n        /* \"#utility.yul\":1038:1045   */\n      0x00\n        /* \"#utility.yul\":1067:1091   */\n      tag_66\n        /* \"#utility.yul\":1085:1090   */\n      dup3\n        /* \"#utility.yul\":1067:1091   */\n      tag_41\n      jump\t// in\n    tag_66:\n        /* \"#utility.yul\":1056:1091   */\n      swap1\n      pop\n        /* \"#utility.yul\":1001:1097   */\n      swap2\n      swap1\n      pop\n      jump\t// out\n        /* \"#utility.yul\":1103:1221   */\n    tag_43:\n        /* \"#utility.yul\":1190:1214   */\n      tag_68\n        /* \"#utility.yul\":1208:1213   */\n      dup2\n        /* \"#utility.yul\":1190:1214   */\n      tag_42\n      jump\t// in\n    tag_68:\n        /* \"#utility.yul\":1185:1188   */\n      dup3\n        /* \"#utility.yul\":1178:1215   */\n      mstore\n        /* \"#utility.yul\":1103:1221   */\n      pop\n      pop\n      jump\t// out\n        /* \"#utility.yul\":1227:1449   */\n    tag_19:\n        /* \"#utility.yul\":1320:1324   */\n      0x00\n        /* \"#utility.yul\":1358:1360   */\n      0x20\n        /* \"#utility.yul\":1347:1356   */\n      dup3\n        /* \"#utility.yul\":1343:1361   */\n      add\n        /* \"#utility.yul\":1335:1361   */\n      swap1\n      pop\n        /* \"#utility.yul\":1371:1442   */\n      tag_70\n        /* \"#utility.yul\":1439:1440   */\n      0x00\n        /* \"#utility.yul\":1428:1437   */\n      dup4\n        /* \"#utility.yul\":1424:1441   */\n      add\n        /* \"#utility.yul\":1415:1421   */\n      dup5\n        /* \"#utility.yul\":1371:1442   */\n      tag_43\n      jump\t// in\n    tag_70:\n        /* \"#utility.yul\":1227:1449   */\n      swap3\n      swap2\n      pop\n      pop\n      jump\t// out\n        /* \"#utility.yul\":1536:1653   */\n    tag_45:\n        /* \"#utility.yul\":1645:1646   */\n      0x00\n        /* \"#utility.yul\":1642:1643   */\n      0x00\n        /* \"#utility.yul\":1635:1647   */\n      revert\n        /* \"#utility.yul\":1782:1904   */\n    tag_47:\n        /* \"#utility.yul\":1855:1879   */\n      tag_75\n        /* \"#utility.yul\":1873:1878   */\n      dup2\n        /* \"#utility.yul\":1855:1879   */\n      tag_37\n      jump\t// in\n    tag_75:\n        /* \"#utility.yul\":1848:1853   */\n      dup2\n        /* \"#utility.yul\":1845:1880   */\n      eq\n        /* \"#utility.yul\":1835:1898   */\n      tag_76\n      jumpi\n        /* \"#utility.yul\":1894:1895   */\n      0x00\n        /* \"#utility.yul\":1891:1892   */\n      0x00\n        /* \"#utility.yul\":1884:1896   */\n      revert\n        /* \"#utility.yul\":1835:1898   */\n    tag_76:\n        /* \"#utility.yul\":1782:1904   */\n      pop\n      jump\t// out\n        /* \"#utility.yul\":1910:2049   */\n    tag_48:\n        /* \"#utility.yul\":1956:1961   */\n      0x00\n        /* \"#utility.yul\":1994:2000   */\n      dup2\n        /* \"#utility.yul\":1981:2001   */\n      calldataload\n        /* \"#utility.yul\":1972:2001   */\n      swap1\n      pop\n        /* \"#utility.yul\":2010:2043   */\n      tag_78\n        /* \"#utility.yul\":2037:2042   */\n      dup2\n        /* \"#utility.yul\":2010:2043   */\n      tag_47\n      jump\t// in\n    tag_78:\n        /* \"#utility.yul\":1910:2049   */\n      swap3\n      swap2\n      pop\n      pop\n      jump\t// out\n        /* \"#utility.yul\":2055:2384   */\n    tag_22:\n        /* \"#utility.yul\":2114:2120   */\n      0x00\n        /* \"#utility.yul\":2163:2165   */\n      0x20\n        /* \"#utility.yul\":2151:2160   */\n      dup3\n        /* \"#utility.yul\":2142:2149   */\n      dup5\n        /* \"#utility.yul\":2138:2161   */\n      sub\n        /* \"#utility.yul\":2134:2166   */\n      slt\n        /* \"#utility.yul\":2131:2250   */\n      iszero\n      tag_80\n      jumpi\n        /* \"#utility.yul\":2169:2248   */\n      tag_81\n      tag_45\n      jump\t// in\n    tag_81:\n        /* \"#utility.yul\":2131:2250   */\n    tag_80:\n        /* \"#utility.yul\":2289:2290   */\n      0x00\n        /* \"#utility.yul\":2314:2367   */\n      tag_82\n        /* \"#utility.yul\":2359:2366   */\n      dup5\n        /* \"#utility.yul\":2350:2356   */\n      dup3\n        /* \"#utility.yul\":2339:2348   */\n      dup6\n        /* \"#utility.yul\":2335:2357   */\n      add\n        /* \"#utility.yul\":2314:2367   */\n      tag_48\n      jump\t// in\n    tag_82:\n        /* \"#utility.yul\":2304:2367   */\n      swap2\n      pop\n        /* \"#utility.yul\":2260:2377   */\n      pop\n        /* \"#utility.yul\":2055:2384   */\n      swap3\n      swap2\n      pop\n      pop\n      jump\t// out\n        /* \"#utility.yul\":2390:2559   */\n    tag_49:\n        /* \"#utility.yul\":2474:2485   */\n      0x00\n        /* \"#utility.yul\":2508:2514   */\n      dup3\n        /* \"#utility.yul\":2503:2506   */\n      dup3\n        /* \"#utility.yul\":2496:2515   */\n      mstore\n        /* \"#utility.yul\":2548:2552   */\n      0x20\n        /* \"#utility.yul\":2543:2546   */\n      dup3\n        /* \"#utility.yul\":2539:2553   */\n      add\n        /* \"#utility.yul\":2524:2553   */\n      swap1\n      pop\n        /* \"#utility.yul\":2390:2559   */\n      swap3\n      swap2\n      pop\n      pop\n      jump\t// out\n        /* \"#utility.yul\":2565:2727   */\n    tag_50:\n        /* \"#utility.yul\":2705:2719   */\n      0x4e6f7420496e6372656173650000000000000000000000000000000000000000\n        /* \"#utility.yul\":2701:2702   */\n      0x00\n        /* \"#utility.yul\":2693:2699   */\n      dup3\n        /* \"#utility.yul\":2689:2703   */\n      add\n        /* \"#utility.yul\":2682:2720   */\n      mstore\n        /* \"#utility.yul\":2565:2727   */\n      pop\n      jump\t// out\n        /* \"#utility.yul\":2733:3099   */\n    tag_51:\n        /* \"#utility.yul\":2875:2878   */\n      0x00\n        /* \"#utility.yul\":2896:2963   */\n      tag_86\n        /* \"#utility.yul\":2960:2962   */\n      0x0c\n        /* \"#utility.yul\":2955:2958   */\n      dup4\n        /* \"#utility.yul\":2896:2963   */\n      tag_49\n      jump\t// in\n    tag_86:\n        /* \"#utility.yul\":2889:2963   */\n      swap2\n      pop\n        /* \"#utility.yul\":2972:3065   */\n      tag_87\n        /* \"#utility.yul\":3061:3064   */\n      dup3\n        /* \"#utility.yul\":2972:3065   */\n      tag_50\n      jump\t// in\n    tag_87:\n        /* \"#utility.yul\":3090:3092   */\n      0x20\n        /* \"#utility.yul\":3085:3088   */\n      dup3\n        /* \"#utility.yul\":3081:3093   */\n      add\n        /* \"#utility.yul\":3074:3093   */\n      swap1\n      pop\n        /* \"#utility.yul\":2733:3099   */\n      swap2\n      swap1\n      pop\n      jump\t// out\n        /* \"#utility.yul\":3105:3524   */\n    tag_33:\n        /* \"#utility.yul\":3271:3275   */\n      0x00\n        /* \"#utility.yul\":3309:3311   */\n      0x20\n        /* \"#utility.yul\":3298:3307   */\n      dup3\n        /* \"#utility.yul\":3294:3312   */\n      add\n        /* \"#utility.yul\":3286:3312   */\n      swap1\n      pop\n        /* \"#utility.yul\":3358:3367   */\n      dup2\n        /* \"#utility.yul\":3352:3356   */\n      dup2\n        /* \"#utility.yul\":3348:3368   */\n      sub\n        /* \"#utility.yul\":3344:3345   */\n      0x00\n        /* \"#utility.yul\":3333:3342   */\n      dup4\n        /* \"#utility.yul\":3329:3346   */\n      add\n        /* \"#utility.yul\":3322:3369   */\n      mstore\n        /* \"#utility.yul\":3386:3517   */\n      tag_89\n        /* \"#utility.yul\":3512:3516   */\n      dup2\n        /* \"#utility.yul\":3386:3517   */\n      tag_51\n      jump\t// in\n    tag_89:\n        /* \"#utility.yul\":3378:3517   */\n      swap1\n      pop\n        /* \"#utility.yul\":3105:3524   */\n      swap2\n      swap1\n      pop\n      jump\t// out\n        /* \"#utility.yul\":3530:3710   */\n    tag_52:\n        /* \"#utility.yul\":3578:3655   */\n      0x4e487b7100000000000000000000000000000000000000000000000000000000\n        /* \"#utility.yul\":3575:3576   */\n      0x00\n        /* \"#utility.yul\":3568:3656   */\n      mstore\n        /* \"#utility.yul\":3675:3679   */\n      0x11\n        /* \"#utility.yul\":3672:3673   */\n      0x04\n        /* \"#utility.yul\":3665:3680   */\n      mstore\n        /* \"#utility.yul\":3699:3703   */\n      0x24\n        /* \"#utility.yul\":3696:3697   */\n      0x00\n        /* \"#utility.yul\":3689:3704   */\n      revert\n        /* \"#utility.yul\":3716:3907   */\n    tag_36:\n        /* \"#utility.yul\":3756:3759   */\n      0x00\n        /* \"#utility.yul\":3775:3795   */\n      tag_92\n        /* \"#utility.yul\":3793:3794   */\n      dup3\n        /* \"#utility.yul\":3775:3795   */\n      tag_37\n      jump\t// in\n    tag_92:\n        /* \"#utility.yul\":3770:3795   */\n      swap2\n      pop\n        /* \"#utility.yul\":3809:3829   */\n      tag_93\n        /* \"#utility.yul\":3827:3828   */\n      dup4\n        /* \"#utility.yul\":3809:3829   */\n      tag_37\n      jump\t// in\n    tag_93:\n        /* \"#utility.yul\":3804:3829   */\n      swap3\n      pop\n        /* \"#utility.yul\":3852:3853   */\n      dup3\n        /* \"#utility.yul\":3849:3850   */\n      dup3\n        /* \"#utility.yul\":3845:3854   */\n      add\n        /* \"#utility.yul\":3838:3854   */\n      swap1\n      pop\n        /* \"#utility.yul\":3873:3876   */\n      dup1\n        /* \"#utility.yul\":3870:3871   */\n      dup3\n        /* \"#utility.yul\":3867:3877   */\n      gt\n        /* \"#utility.yul\":3864:3900   */\n      iszero\n      tag_94\n      jumpi\n        /* \"#utility.yul\":3880:3898   */\n      tag_95\n      tag_52\n      jump\t// in\n    tag_95:\n        /* \"#utility.yul\":3864:3900   */\n    tag_94:\n        /* \"#utility.yul\":3716:3907   */\n      swap3\n      swap2\n      pop\n      pop\n      jump\t// out\n\n    auxdata: 0xa264697066735822122029a46f9f688cb642adfcd5ec70e342c95eebfc5685029ecc59bc79a9b0c4c8dd64736f6c63430008220033\n}\n",
				"bytecode": {
					"linkReferences": {},
					"object": "6080604052600a6001555f600260016101000a81548160ff021916908315150217905550348015602d575f5ffd5b5061040c8061003b5f395ff3fe608060405234801561000f575f5ffd5b5060043610610055575f3560e01c80630c55699c146100595780638c8f7e57146100775780638da5cb5b146100955780639758d20d146100b3578063cf309012146100cf575b5f5ffd5b6100616100ed565b60405161006e9190610201565b60405180910390f35b61007f6100f3565b60405161008c9190610234565b60405180910390f35b61009d610106565b6040516100aa919061028c565b60405180910390f35b6100cd60048036038101906100c891906102d3565b61012a565b005b6100d76101d7565b6040516100e49190610234565b60405180910390f35b60015481565b600260019054906101000a900460ff1681565b5f5f9054906101000a900473ffffffffffffffffffffffffffffffffffffffff1681565b805f811115610153576001600260016101000a81548160ff02191690831515021790555061016e565b5f600260016101000a81548160ff0219169083151502179055505b81600260019054906101000a900460ff166101be576040517f08c379a00000000000000000000000000000000000000000000000000000000081526004016101b590610358565b60405180910390fd5b806001546101cc91906103a3565b600181905550505050565b60025f9054906101000a900460ff1681565b5f819050919050565b6101fb816101e9565b82525050565b5f6020820190506102145f8301846101f2565b92915050565b5f8115159050919050565b61022e8161021a565b82525050565b5f6020820190506102475f830184610225565b92915050565b5f73ffffffffffffffffffffffffffffffffffffffff82169050919050565b5f6102768261024d565b9050919050565b6102868161026c565b82525050565b5f60208201905061029f5f83018461027d565b92915050565b5f5ffd5b6102b2816101e9565b81146102bc575f5ffd5b50565b5f813590506102cd816102a9565b92915050565b5f602082840312156102e8576102e76102a5565b5b5f6102f5848285016102bf565b91505092915050565b5f82825260208201905092915050565b7f4e6f7420496e63726561736500000000000000000000000000000000000000005f82015250565b5f610342600c836102fe565b915061034d8261030e565b602082019050919050565b5f6020820190508181035f83015261036f81610336565b9050919050565b7f4e487b71000000000000000000000000000000000000000000000000000000005f52601160045260245ffd5b5f6103ad826101e9565b91506103b8836101e9565b92508282019050808211156103d0576103cf610376565b5b9291505056fea264697066735822122029a46f9f688cb642adfcd5ec70e342c95eebfc5685029ecc59bc79a9b0c4c8dd64736f6c63430008220033",
					"opcodes": "PUSH1 0x80 PUSH1 0x40 MSTORE PUSH1 0xA PUSH1 0x1 SSTORE PUSH0 PUSH1 0x2 PUSH1 0x1 PUSH2 0x100 EXP DUP2 SLOAD DUP2 PUSH1 0xFF MUL NOT AND SWAP1 DUP4 ISZERO ISZERO MUL OR SWAP1 SSTORE POP CALLVALUE DUP1 ISZERO PUSH1 0x2D JUMPI PUSH0 PUSH0 REVERT JUMPDEST POP PUSH2 0x40C DUP1 PUSH2 0x3B PUSH0 CODECOPY PUSH0 RETURN INVALID PUSH1 0x80 PUSH1 0x40 MSTORE CALLVALUE DUP1 ISZERO PUSH2 0xF JUMPI PUSH0 PUSH0 REVERT JUMPDEST POP PUSH1 0x4 CALLDATASIZE LT PUSH2 0x55 JUMPI PUSH0 CALLDATALOAD PUSH1 0xE0 SHR DUP1 PUSH4 0xC55699C EQ PUSH2 0x59 JUMPI DUP1 PUSH4 0x8C8F7E57 EQ PUSH2 0x77 JUMPI DUP1 PUSH4 0x8DA5CB5B EQ PUSH2 0x95 JUMPI DUP1 PUSH4 0x9758D20D EQ PUSH2 0xB3 JUMPI DUP1 PUSH4 0xCF309012 EQ PUSH2 0xCF JUMPI JUMPDEST PUSH0 PUSH0 REVERT JUMPDEST PUSH2 0x61 PUSH2 0xED JUMP JUMPDEST PUSH1 0x40 MLOAD PUSH2 0x6E SWAP2 SWAP1 PUSH2 0x201 JUMP JUMPDEST PUSH1 0x40 MLOAD DUP1 SWAP2 SUB SWAP1 RETURN JUMPDEST PUSH2 0x7F PUSH2 0xF3 JUMP JUMPDEST PUSH1 0x40 MLOAD PUSH2 0x8C SWAP2 SWAP1 PUSH2 0x234 JUMP JUMPDEST PUSH1 0x40 MLOAD DUP1 SWAP2 SUB SWAP1 RETURN JUMPDEST PUSH2 0x9D PUSH2 0x106 JUMP JUMPDEST PUSH1 0x40 MLOAD PUSH2 0xAA SWAP2 SWAP1 PUSH2 0x28C JUMP JUMPDEST PUSH1 0x40 MLOAD DUP1 SWAP2 SUB SWAP1 RETURN JUMPDEST PUSH2 0xCD PUSH1 0x4 DUP1 CALLDATASIZE SUB DUP2 ADD SWAP1 PUSH2 0xC8 SWAP2 SWAP1 PUSH2 0x2D3 JUMP JUMPDEST PUSH2 0x12A JUMP JUMPDEST STOP JUMPDEST PUSH2 0xD7 PUSH2 0x1D7 JUMP JUMPDEST PUSH1 0x40 MLOAD PUSH2 0xE4 SWAP2 SWAP1 PUSH2 0x234 JUMP JUMPDEST PUSH1 0x40 MLOAD DUP1 SWAP2 SUB SWAP1 RETURN JUMPDEST PUSH1 0x1 SLOAD DUP2 JUMP JUMPDEST PUSH1 0x2 PUSH1 0x1 SWAP1 SLOAD SWAP1 PUSH2 0x100 EXP SWAP1 DIV PUSH1 0xFF AND DUP2 JUMP JUMPDEST PUSH0 PUSH0 SWAP1 SLOAD SWAP1 PUSH2 0x100 EXP SWAP1 DIV PUSH20 0xFFFFFFFFFFFFFFFFFFFFFFFFFFFFFFFFFFFFFFFF AND DUP2 JUMP JUMPDEST DUP1 PUSH0 DUP2 GT ISZERO PUSH2 0x153 JUMPI PUSH1 0x1 PUSH1 0x2 PUSH1 0x1 PUSH2 0x100 EXP DUP2 SLOAD DUP2 PUSH1 0xFF MUL NOT AND SWAP1 DUP4 ISZERO ISZERO MUL OR SWAP1 SSTORE POP PUSH2 0x16E JUMP JUMPDEST PUSH0 PUSH1 0x2 PUSH1 0x1 PUSH2 0x100 EXP DUP2 SLOAD DUP2 PUSH1 0xFF MUL NOT AND SWAP1 DUP4 ISZERO ISZERO MUL OR SWAP1 SSTORE POP JUMPDEST DUP2 PUSH1 0x2 PUSH1 0x1 SWAP1 SLOAD SWAP1 PUSH2 0x100 EXP SWAP1 DIV PUSH1 0xFF AND PUSH2 0x1BE JUMPI PUSH1 0x40 MLOAD PUSH32 0x8C379A000000000000000000000000000000000000000000000000000000000 DUP2 MSTORE PUSH1 0x4 ADD PUSH2 0x1B5 SWAP1 PUSH2 0x358 JUMP JUMPDEST PUSH1 0x40 MLOAD DUP1 SWAP2 SUB SWAP1 REVERT JUMPDEST DUP1 PUSH1 0x1 SLOAD PUSH2 0x1CC SWAP2 SWAP1 PUSH2 0x3A3 JUMP JUMPDEST PUSH1 0x1 DUP2 SWAP1 SSTORE POP POP POP POP JUMP JUMPDEST PUSH1 0x2 PUSH0 SWAP1 SLOAD SWAP1 PUSH2 0x100 EXP SWAP1 DIV PUSH1 0xFF AND DUP2 JUMP JUMPDEST PUSH0 DUP2 SWAP1 POP SWAP2 SWAP1 POP JUMP JUMPDEST PUSH2 0x1FB DUP2 PUSH2 0x1E9 JUMP JUMPDEST DUP3 MSTORE POP POP JUMP JUMPDEST PUSH0 PUSH1 0x20 DUP3 ADD SWAP1 POP PUSH2 0x214 PUSH0 DUP4 ADD DUP5 PUSH2 0x1F2 JUMP JUMPDEST SWAP3 SWAP2 POP POP JUMP JUMPDEST PUSH0 DUP2 ISZERO ISZERO SWAP1 POP SWAP2 SWAP1 POP JUMP JUMPDEST PUSH2 0x22E DUP2 PUSH2 0x21A JUMP JUMPDEST DUP3 MSTORE POP POP JUMP JUMPDEST PUSH0 PUSH1 0x20 DUP3 ADD SWAP1 POP PUSH2 0x247 PUSH0 DUP4 ADD DUP5 PUSH2 0x225 JUMP JUMPDEST SWAP3 SWAP2 POP POP JUMP JUMPDEST PUSH0 PUSH20 0xFFFFFFFFFFFFFFFFFFFFFFFFFFFFFFFFFFFFFFFF DUP3 AND SWAP1 POP SWAP2 SWAP1 POP JUMP JUMPDEST PUSH0 PUSH2 0x276 DUP3 PUSH2 0x24D JUMP JUMPDEST SWAP1 POP SWAP2 SWAP1 POP JUMP JUMPDEST PUSH2 0x286 DUP2 PUSH2 0x26C JUMP JUMPDEST DUP3 MSTORE POP POP JUMP JUMPDEST PUSH0 PUSH1 0x20 DUP3 ADD SWAP1 POP PUSH2 0x29F PUSH0 DUP4 ADD DUP5 PUSH2 0x27D JUMP JUMPDEST SWAP3 SWAP2 POP POP JUMP JUMPDEST PUSH0 PUSH0 REVERT JUMPDEST PUSH2 0x2B2 DUP2 PUSH2 0x1E9 JUMP JUMPDEST DUP2 EQ PUSH2 0x2BC JUMPI PUSH0 PUSH0 REVERT JUMPDEST POP JUMP JUMPDEST PUSH0 DUP2 CALLDATALOAD SWAP1 POP PUSH2 0x2CD DUP2 PUSH2 0x2A9 JUMP JUMPDEST SWAP3 SWAP2 POP POP JUMP JUMPDEST PUSH0 PUSH1 0x20 DUP3 DUP5 SUB SLT ISZERO PUSH2 0x2E8 JUMPI PUSH2 0x2E7 PUSH2 0x2A5 JUMP JUMPDEST JUMPDEST PUSH0 PUSH2 0x2F5 DUP5 DUP3 DUP6 ADD PUSH2 0x2BF JUMP JUMPDEST SWAP2 POP POP SWAP3 SWAP2 POP POP JUMP JUMPDEST PUSH0 DUP3 DUP3 MSTORE PUSH1 0x20 DUP3 ADD SWAP1 POP SWAP3 SWAP2 POP POP JUMP JUMPDEST PUSH32 0x4E6F7420496E6372656173650000000000000000000000000000000000000000 PUSH0 DUP3 ADD MSTORE POP JUMP JUMPDEST PUSH0 PUSH2 0x342 PUSH1 0xC DUP4 PUSH2 0x2FE JUMP JUMPDEST SWAP2 POP PUSH2 0x34D DUP3 PUSH2 0x30E JUMP JUMPDEST PUSH1 0x20 DUP3 ADD SWAP1 POP SWAP2 SWAP1 POP JUMP JUMPDEST PUSH0 PUSH1 0x20 DUP3 ADD SWAP1 POP DUP2 DUP2 SUB PUSH0 DUP4 ADD MSTORE PUSH2 0x36F DUP2 PUSH2 0x336 JUMP JUMPDEST SWAP1 POP SWAP2 SWAP1 POP JUMP JUMPDEST PUSH32 0x4E487B7100000000000000000000000000000000000000000000000000000000 PUSH0 MSTORE PUSH1 0x11 PUSH1 0x4 MSTORE PUSH1 0x24 PUSH0 REVERT JUMPDEST PUSH0 PUSH2 0x3AD DUP3 PUSH2 0x1E9 JUMP JUMPDEST SWAP2 POP PUSH2 0x3B8 DUP4 PUSH2 0x1E9 JUMP JUMPDEST SWAP3 POP DUP3 DUP3 ADD SWAP1 POP DUP1 DUP3 GT ISZERO PUSH2 0x3D0 JUMPI PUSH2 0x3CF PUSH2 0x376 JUMP JUMPDEST JUMPDEST SWAP3 SWAP2 POP POP JUMP INVALID LOG2 PUSH5 0x6970667358 0x22 SLT KECCAK256 0x29 LOG4 PUSH16 0x9F688CB642ADFCD5EC70E342C95EEBFC JUMP DUP6 MUL SWAP15 0xCC MSIZE 0xBC PUSH26 0xA9B0C4C8DD64736F6C6343000822003300000000000000000000 "
				},
				"gasEstimates": {
					"creation": {
						"codeDepositCost": "207200",
						"executionCost": "46671",
						"totalCost": "253871"
					},
					"external": {
						"increaseX(uint256)": "infinite",
						"isIncrease()": "2517",
						"locked()": "2532",
						"owner()": "2529",
						"x()": "2403"
					}
				},
				"methodIdentifiers": {
					"increaseX(uint256)": "9758d20d",
					"isIncrease()": "8c8f7e57",
					"locked()": "cf309012",
					"owner()": "8da5cb5b",
					"x()": "0c55699c"
				}
			},
			"storageLayout": {
				"storage": [
					{
						"astId": 3,
						"contract": "5.3 Functions - Modifiers and Constructors/modifiersAndConstructors.sol:FunctionModifier",
						"label": "owner",
						"offset": 0,
						"slot": "0",
						"type": "t_address"
					},
					{
						"astId": 6,
						"contract": "5.3 Functions - Modifiers and Constructors/modifiersAndConstructors.sol:FunctionModifier",
						"label": "x",
						"offset": 0,
						"slot": "1",
						"type": "t_uint256"
					},
					{
						"astId": 8,
						"contract": "5.3 Functions - Modifiers and Constructors/modifiersAndConstructors.sol:FunctionModifier",
						"label": "locked",
						"offset": 0,
						"slot": "2",
						"type": "t_bool"
					},
					{
						"astId": 11,
						"contract": "5.3 Functions - Modifiers and Constructors/modifiersAndConstructors.sol:FunctionModifier",
						"label": "isIncrease",
						"offset": 1,
						"slot": "2",
						"type": "t_bool"
					}
				],
				"types": {
					"t_address": {
						"encoding": "inplace",
						"label": "address",
						"numberOfBytes": "20"
					},
					"t_bool": {
						"encoding": "inplace",
						"label": "bool",
						"numberOfBytes": "1"
					},
					"t_uint256": {
						"encoding": "inplace",
						"label": "uint256",
						"numberOfBytes": "32"
					}
				}
			},
			"userdoc": {
				"kind": "user",
				"methods": {},
				"version": 1
			}
		}
	}
}