{
	"8.3 Data Structures - Structs/structs.sol": {
		"Todos": {
			"abi": [
				{
					"inputs": [
						{
							"internalType": "string",
							"name": "_text",
							"type": "string"
						}
					],
					"name": "create",
					"outputs": [],
					"stateMutability": "nonpayable",
					"type": "function"
				},
				{
					"inputs": [
						{
							"internalType": "uint256",
							"name": "_index",
							"type": "uint256"
						}
					],
					"name": "get",
					"outputs": [
						{
							"internalType": "string",
							"name": "text",
							"type": "string"
						},
						{
							"internalType": "bool",
							"name": "completed",
							"type": "bool"
						}
					],
					"stateMutability": "view",
					"type": "function"
				},
				{
					"inputs": [
						{
							"internalType": "uint256",
							"name": "_index",
							"type": "uint256"
						}
					],
					"name": "remove",
					"outputs": [],
					"stateMutability": "nonpayable",
					"type": "function"
				},
				{
					"inputs": [
						{
							"internalType": "uint256",
							"name": "",
							"type": "uint256"
						}
					],
					"name": "todos",
					"outputs": [
						{
							"internalType": "string",
							"name": "text",
							"type": "string"
						},
						{
							"internalType": "bool",
							"name": "completed",
							"type": "bool"
						}
					],
					"stateMutability": "view",
					"type": "function"
				},
				{
					"inputs": [
						{
							"internalType": "uint256",
							"name": "_index",
							"type": "uint256"
						}
					],
					"name": "toggleCompleted",
					"outputs": [],
					"stateMutability": "nonpayable",
					"type": "function"
				},
				{
					"inputs": [
						{
							"internalType": "uint256",
							"name": "_index",
							"type": "uint256"
						},
						{
							"internalType": "string",
							"name": "_text",
							"type": "string"
						}
					],
					"name": "update",
					"outputs": [],
					"stateMutability": "nonpayable",
					"type": "function"
				}
			],
			"devdoc": {
				"kind": "dev",
				"methods": {},
				"version": 1
			},
			"evm": {
				"assembly": "    /* \"8.3 Data Structures - Structs/structs.sol\":57:1373  contract Todos {... */\n  mstore(0x40, 0x80)\n  callvalue\n  dup1\n  iszero\n  tag_1\n  jumpi\n  revert(0x00, 0x00)\ntag_1:\n  pop\n  dataSize(sub_0)\n  dup1\n  dataOffset(sub_0)\n  0x00\n  codecopy\n  0x00\n  return\nstop\n\nsub_0: assembly {\n        /* \"8.3 Data Structures - Structs/structs.sol\":57:1373  contract Todos {... */\n      mstore(0x40, 0x80)\n      callvalue\n      dup1\n      iszero\n      tag_1\n      jumpi\n      revert(0x00, 0x00)\n    tag_1:\n      pop\n      jumpi(tag_2, lt(calldatasize, 0x04))\n      shr(0xe0, calldataload(0x00))\n      dup1\n      0x455f5024\n      eq\n      tag_3\n      jumpi\n      dup1\n      0x4cc82215\n      eq\n      tag_4\n      jumpi\n      dup1\n      0x9507d39a\n      eq\n      tag_5\n      jumpi\n      dup1\n      0xb6a46b3b\n      eq\n      tag_6\n      jumpi\n      dup1\n      0xbc8bc2b4\n      eq\n      tag_7\n      jumpi\n      dup1\n      0xf745630f\n      eq\n      tag_8\n      jumpi\n    tag_2:\n      revert(0x00, 0x00)\n        /* \"8.3 Data Structures - Structs/structs.sol\":1134:1271  function toggleCompleted(uint _index) public {... */\n    tag_3:\n      tag_9\n      0x04\n      dup1\n      calldatasize\n      sub\n      dup2\n      add\n      swap1\n      tag_10\n      swap2\n      swap1\n      tag_11\n      jump\t// in\n    tag_10:\n      tag_12\n      jump\t// in\n    tag_9:\n      stop\n        /* \"8.3 Data Structures - Structs/structs.sol\":1297:1371  function remove(uint _index) public  {... */\n    tag_4:\n      tag_13\n      0x04\n      dup1\n      calldatasize\n      sub\n      dup2\n      add\n      swap1\n      tag_14\n      swap2\n      swap1\n      tag_11\n      jump\t// in\n    tag_14:\n      tag_15\n      jump\t// in\n    tag_13:\n      stop\n        /* \"8.3 Data Structures - Structs/structs.sol\":768:945  function get(uint _index) public view returns (string memory text, bool completed) {... */\n    tag_5:\n      tag_16\n      0x04\n      dup1\n      calldatasize\n      sub\n      dup2\n      add\n      swap1\n      tag_17\n      swap2\n      swap1\n      tag_11\n      jump\t// in\n    tag_17:\n      tag_18\n      jump\t// in\n    tag_16:\n      mload(0x40)\n      tag_19\n      swap3\n      swap2\n      swap1\n      tag_20\n      jump\t// in\n    tag_19:\n      mload(0x40)\n      dup1\n      swap2\n      sub\n      swap1\n      return\n        /* \"8.3 Data Structures - Structs/structs.sol\":208:654  function create(string memory _text) public {... */\n    tag_6:\n      tag_21\n      0x04\n      dup1\n      calldatasize\n      sub\n      dup2\n      add\n      swap1\n      tag_22\n      swap2\n      swap1\n      tag_23\n      jump\t// in\n    tag_22:\n      tag_24\n      jump\t// in\n    tag_21:\n      stop\n        /* \"8.3 Data Structures - Structs/structs.sol\":182:201  Todo[] public todos */\n    tag_7:\n      tag_25\n      0x04\n      dup1\n      calldatasize\n      sub\n      dup2\n      add\n      swap1\n      tag_26\n      swap2\n      swap1\n      tag_11\n      jump\t// in\n    tag_26:\n      tag_27\n      jump\t// in\n    tag_25:\n      mload(0x40)\n      tag_28\n      swap3\n      swap2\n      swap1\n      tag_20\n      jump\t// in\n    tag_28:\n      mload(0x40)\n      dup1\n      swap2\n      sub\n      swap1\n      return\n        /* \"8.3 Data Structures - Structs/structs.sol\":970:1104  function update(uint _index, string memory _text) public {... */\n    tag_8:\n      tag_29\n      0x04\n      dup1\n      calldatasize\n      sub\n      dup2\n      add\n      swap1\n      tag_30\n      swap2\n      swap1\n      tag_31\n      jump\t// in\n    tag_30:\n      tag_32\n      jump\t// in\n    tag_29:\n      stop\n        /* \"8.3 Data Structures - Structs/structs.sol\":1134:1271  function toggleCompleted(uint _index) public {... */\n    tag_12:\n        /* \"8.3 Data Structures - Structs/structs.sol\":1189:1206  Todo storage todo */\n      0x00\n        /* \"8.3 Data Structures - Structs/structs.sol\":1209:1214  todos */\n      0x00\n        /* \"8.3 Data Structures - Structs/structs.sol\":1215:1221  _index */\n      dup3\n        /* \"8.3 Data Structures - Structs/structs.sol\":1209:1222  todos[_index] */\n      dup2\n      sload\n      dup2\n      lt\n      tag_34\n      jumpi\n      tag_35\n      tag_36\n      jump\t// in\n    tag_35:\n    tag_34:\n      swap1\n      0x00\n      mstore\n      keccak256(0x00, 0x20)\n      swap1\n      0x02\n      mul\n      add\n        /* \"8.3 Data Structures - Structs/structs.sol\":1189:1222  Todo storage todo = todos[_index] */\n      swap1\n      pop\n        /* \"8.3 Data Structures - Structs/structs.sol\":1250:1254  todo */\n      dup1\n        /* \"8.3 Data Structures - Structs/structs.sol\":1250:1264  todo.completed */\n      0x01\n      add\n      0x00\n      swap1\n      sload\n      swap1\n      0x0100\n      exp\n      swap1\n      div\n      0xff\n      and\n        /* \"8.3 Data Structures - Structs/structs.sol\":1249:1264  !todo.completed */\n      iszero\n        /* \"8.3 Data Structures - Structs/structs.sol\":1232:1236  todo */\n      dup2\n        /* \"8.3 Data Structures - Structs/structs.sol\":1232:1246  todo.completed */\n      0x01\n      add\n      0x00\n        /* \"8.3 Data Structures - Structs/structs.sol\":1232:1264  todo.completed = !todo.completed */\n      0x0100\n      exp\n      dup2\n      sload\n      dup2\n      0xff\n      mul\n      not\n      and\n      swap1\n      dup4\n      iszero\n      iszero\n      mul\n      or\n      swap1\n      sstore\n      pop\n        /* \"8.3 Data Structures - Structs/structs.sol\":1179:1271  {... */\n      pop\n        /* \"8.3 Data Structures - Structs/structs.sol\":1134:1271  function toggleCompleted(uint _index) public {... */\n      pop\n      jump\t// out\n        /* \"8.3 Data Structures - Structs/structs.sol\":1297:1371  function remove(uint _index) public  {... */\n    tag_15:\n        /* \"8.3 Data Structures - Structs/structs.sol\":1351:1356  todos */\n      0x00\n        /* \"8.3 Data Structures - Structs/structs.sol\":1357:1363  _index */\n      dup2\n        /* \"8.3 Data Structures - Structs/structs.sol\":1351:1364  todos[_index] */\n      dup2\n      sload\n      dup2\n      lt\n      tag_39\n      jumpi\n      tag_40\n      tag_36\n      jump\t// in\n    tag_40:\n    tag_39:\n      swap1\n      0x00\n      mstore\n      keccak256(0x00, 0x20)\n      swap1\n      0x02\n      mul\n      add\n      0x00\n        /* \"8.3 Data Structures - Structs/structs.sol\":1344:1364  delete todos[_index] */\n      0x00\n      dup3\n      add\n      0x00\n      tag_42\n      swap2\n      swap1\n      tag_43\n      jump\t// in\n    tag_42:\n      0x01\n      dup3\n      add\n      exp(0x0100, 0x00)\n      dup2\n      sload\n      swap1\n      0xff\n      mul\n      not\n      and\n      swap1\n      sstore\n      pop\n      pop\n        /* \"8.3 Data Structures - Structs/structs.sol\":1297:1371  function remove(uint _index) public  {... */\n      pop\n      jump\t// out\n        /* \"8.3 Data Structures - Structs/structs.sol\":768:945  function get(uint _index) public view returns (string memory text, bool completed) {... */\n    tag_18:\n        /* \"8.3 Data Structures - Structs/structs.sol\":815:833  string memory text */\n      0x60\n        /* \"8.3 Data Structures - Structs/structs.sol\":835:849  bool completed */\n      0x00\n        /* \"8.3 Data Structures - Structs/structs.sol\":861:878  Todo storage todo */\n      0x00\n        /* \"8.3 Data Structures - Structs/structs.sol\":881:886  todos */\n      0x00\n        /* \"8.3 Data Structures - Structs/structs.sol\":887:893  _index */\n      dup5\n        /* \"8.3 Data Structures - Structs/structs.sol\":881:894  todos[_index] */\n      dup2\n      sload\n      dup2\n      lt\n      tag_45\n      jumpi\n      tag_46\n      tag_36\n      jump\t// in\n    tag_46:\n    tag_45:\n      swap1\n      0x00\n      mstore\n      keccak256(0x00, 0x20)\n      swap1\n      0x02\n      mul\n      add\n        /* \"8.3 Data Structures - Structs/structs.sol\":861:894  Todo storage todo = todos[_index] */\n      swap1\n      pop\n        /* \"8.3 Data Structures - Structs/structs.sol\":912:916  todo */\n      dup1\n        /* \"8.3 Data Structures - Structs/structs.sol\":912:921  todo.text */\n      0x00\n      add\n        /* \"8.3 Data Structures - Structs/structs.sol\":923:927  todo */\n      dup2\n        /* \"8.3 Data Structures - Structs/structs.sol\":923:937  todo.completed */\n      0x01\n      add\n      0x00\n      swap1\n      sload\n      swap1\n      0x0100\n      exp\n      swap1\n      div\n      0xff\n      and\n        /* \"8.3 Data Structures - Structs/structs.sol\":904:938  return (todo.text, todo.completed) */\n      dup2\n      dup1\n      sload\n      tag_48\n      swap1\n      tag_49\n      jump\t// in\n    tag_48:\n      dup1\n      0x1f\n      add\n      0x20\n      dup1\n      swap2\n      div\n      mul\n      0x20\n      add\n      mload(0x40)\n      swap1\n      dup2\n      add\n      0x40\n      mstore\n      dup1\n      swap3\n      swap2\n      swap1\n      dup2\n      dup2\n      mstore\n      0x20\n      add\n      dup3\n      dup1\n      sload\n      tag_50\n      swap1\n      tag_49\n      jump\t// in\n    tag_50:\n      dup1\n      iszero\n      tag_51\n      jumpi\n      dup1\n      0x1f\n      lt\n      tag_52\n      jumpi\n      0x0100\n      dup1\n      dup4\n      sload\n      div\n      mul\n      dup4\n      mstore\n      swap2\n      0x20\n      add\n      swap2\n      jump(tag_51)\n    tag_52:\n      dup3\n      add\n      swap2\n      swap1\n      0x00\n      mstore\n      keccak256(0x00, 0x20)\n      swap1\n    tag_53:\n      dup2\n      sload\n      dup2\n      mstore\n      swap1\n      0x01\n      add\n      swap1\n      0x20\n      add\n      dup1\n      dup4\n      gt\n      tag_53\n      jumpi\n      dup3\n      swap1\n      sub\n      0x1f\n      and\n      dup3\n      add\n      swap2\n    tag_51:\n      pop\n      pop\n      pop\n      pop\n      pop\n      swap2\n      pop\n      swap3\n      pop\n      swap3\n      pop\n      pop\n        /* \"8.3 Data Structures - Structs/structs.sol\":768:945  function get(uint _index) public view returns (string memory text, bool completed) {... */\n      swap2\n      pop\n      swap2\n      jump\t// out\n        /* \"8.3 Data Structures - Structs/structs.sol\":208:654  function create(string memory _text) public {... */\n    tag_24:\n        /* \"8.3 Data Structures - Structs/structs.sol\":343:348  todos */\n      0x00\n        /* \"8.3 Data Structures - Structs/structs.sol\":354:372  Todo(_text, false) */\n      mload(0x40)\n      dup1\n      0x40\n      add\n      0x40\n      mstore\n      dup1\n        /* \"8.3 Data Structures - Structs/structs.sol\":359:364  _text */\n      dup4\n        /* \"8.3 Data Structures - Structs/structs.sol\":354:372  Todo(_text, false) */\n      dup2\n      mstore\n      0x20\n      add\n        /* \"8.3 Data Structures - Structs/structs.sol\":366:371  false */\n      0x00\n        /* \"8.3 Data Structures - Structs/structs.sol\":354:372  Todo(_text, false) */\n      iszero\n      iszero\n      dup2\n      mstore\n      pop\n        /* \"8.3 Data Structures - Structs/structs.sol\":343:373  todos.push(Todo(_text, false)) */\n      swap1\n      dup1\n      0x01\n      dup2\n      sload\n      add\n      dup1\n      dup3\n      sstore\n      dup1\n      swap2\n      pop\n      pop\n      0x01\n      swap1\n      sub\n      swap1\n      0x00\n      mstore\n      keccak256(0x00, 0x20)\n      swap1\n      0x02\n      mul\n      add\n      0x00\n      swap1\n      swap2\n      swap1\n      swap2\n      swap1\n      swap2\n      pop\n      0x00\n      dup3\n      add\n      mload\n      dup2\n      0x00\n      add\n      swap1\n      dup2\n      tag_56\n      swap2\n      swap1\n      tag_57\n      jump\t// in\n    tag_56:\n      pop\n      0x20\n      dup3\n      add\n      mload\n      dup2\n      0x01\n      add\n      exp(0x0100, 0x00)\n      dup2\n      sload\n      dup2\n      0xff\n      mul\n      not\n      and\n      swap1\n      dup4\n      iszero\n      iszero\n      mul\n      or\n      swap1\n      sstore\n      pop\n      pop\n      pop\n        /* \"8.3 Data Structures - Structs/structs.sol\":413:418  todos */\n      0x00\n        /* \"8.3 Data Structures - Structs/structs.sol\":424:461  Todo({text: _text, completed: false}) */\n      mload(0x40)\n      dup1\n      0x40\n      add\n      0x40\n      mstore\n      dup1\n        /* \"8.3 Data Structures - Structs/structs.sol\":436:441  _text */\n      dup4\n        /* \"8.3 Data Structures - Structs/structs.sol\":424:461  Todo({text: _text, completed: false}) */\n      dup2\n      mstore\n      0x20\n      add\n        /* \"8.3 Data Structures - Structs/structs.sol\":454:459  false */\n      0x00\n        /* \"8.3 Data Structures - Structs/structs.sol\":424:461  Todo({text: _text, completed: false}) */\n      iszero\n      iszero\n      dup2\n      mstore\n      pop\n        /* \"8.3 Data Structures - Structs/structs.sol\":413:462  todos.push(Todo({text: _text, completed: false})) */\n      swap1\n      dup1\n      0x01\n      dup2\n      sload\n      add\n      dup1\n      dup3\n      sstore\n      dup1\n      swap2\n      pop\n      pop\n      0x01\n      swap1\n      sub\n      swap1\n      0x00\n      mstore\n      keccak256(0x00, 0x20)\n      swap1\n      0x02\n      mul\n      add\n      0x00\n      swap1\n      swap2\n      swap1\n      swap2\n      swap1\n      swap2\n      pop\n      0x00\n      dup3\n      add\n      mload\n      dup2\n      0x00\n      add\n      swap1\n      dup2\n      tag_59\n      swap2\n      swap1\n      tag_57\n      jump\t// in\n    tag_59:\n      pop\n      0x20\n      dup3\n      add\n      mload\n      dup2\n      0x01\n      add\n      exp(0x0100, 0x00)\n      dup2\n      sload\n      dup2\n      0xff\n      mul\n      not\n      and\n      swap1\n      dup4\n      iszero\n      iszero\n      mul\n      or\n      swap1\n      sstore\n      pop\n      pop\n      pop\n        /* \"8.3 Data Structures - Structs/structs.sol\":530:546  Todo memory todo */\n      tag_60\n      tag_61\n      jump\t// in\n    tag_60:\n        /* \"8.3 Data Structures - Structs/structs.sol\":568:573  _text */\n      dup2\n        /* \"8.3 Data Structures - Structs/structs.sol\":556:560  todo */\n      dup2\n        /* \"8.3 Data Structures - Structs/structs.sol\":556:565  todo.text */\n      0x00\n      add\n        /* \"8.3 Data Structures - Structs/structs.sol\":556:573  todo.text = _text */\n      dup2\n      swap1\n      mstore\n      pop\n        /* \"8.3 Data Structures - Structs/structs.sol\":631:636  todos */\n      0x00\n        /* \"8.3 Data Structures - Structs/structs.sol\":642:646  todo */\n      dup2\n        /* \"8.3 Data Structures - Structs/structs.sol\":631:647  todos.push(todo) */\n      swap1\n      dup1\n      0x01\n      dup2\n      sload\n      add\n      dup1\n      dup3\n      sstore\n      dup1\n      swap2\n      pop\n      pop\n      0x01\n      swap1\n      sub\n      swap1\n      0x00\n      mstore\n      keccak256(0x00, 0x20)\n      swap1\n      0x02\n      mul\n      add\n      0x00\n      swap1\n      swap2\n      swap1\n      swap2\n      swap1\n      swap2\n      pop\n      0x00\n      dup3\n      add\n      mload\n      dup2\n      0x00\n      add\n      swap1\n      dup2\n      tag_63\n      swap2\n      swap1\n      tag_57\n      jump\t// in\n    tag_63:\n      pop\n      0x20\n      dup3\n      add\n      mload\n      dup2\n      0x01\n      add\n      exp(0x0100, 0x00)\n      dup2\n      sload\n      dup2\n      0xff\n      mul\n      not\n      and\n      swap1\n      dup4\n      iszero\n      iszero\n      mul\n      or\n      swap1\n      sstore\n      pop\n      pop\n      pop\n        /* \"8.3 Data Structures - Structs/structs.sol\":252:654  {... */\n      pop\n        /* \"8.3 Data Structures - Structs/structs.sol\":208:654  function create(string memory _text) public {... */\n      pop\n      jump\t// out\n        /* \"8.3 Data Structures - Structs/structs.sol\":182:201  Todo[] public todos */\n    tag_27:\n      0x00\n      dup2\n      dup2\n      sload\n      dup2\n      lt\n      tag_64\n      jumpi\n      0x00\n      dup1\n      revert\n    tag_64:\n      swap1\n      0x00\n      mstore\n      keccak256(0x00, 0x20)\n      swap1\n      0x02\n      mul\n      add\n      0x00\n      swap2\n      pop\n      swap1\n      pop\n      dup1\n      0x00\n      add\n      dup1\n      sload\n      tag_66\n      swap1\n      tag_49\n      jump\t// in\n    tag_66:\n      dup1\n      0x1f\n      add\n      0x20\n      dup1\n      swap2\n      div\n      mul\n      0x20\n      add\n      mload(0x40)\n      swap1\n      dup2\n      add\n      0x40\n      mstore\n      dup1\n      swap3\n      swap2\n      swap1\n      dup2\n      dup2\n      mstore\n      0x20\n      add\n      dup3\n      dup1\n      sload\n      tag_67\n      swap1\n      tag_49\n      jump\t// in\n    tag_67:\n      dup1\n      iszero\n      tag_68\n      jumpi\n      dup1\n      0x1f\n      lt\n      tag_69\n      jumpi\n      0x0100\n      dup1\n      dup4\n      sload\n      div\n      mul\n      dup4\n      mstore\n      swap2\n      0x20\n      add\n      swap2\n      jump(tag_68)\n    tag_69:\n      dup3\n      add\n      swap2\n      swap1\n      0x00\n      mstore\n      keccak256(0x00, 0x20)\n      swap1\n    tag_70:\n      dup2\n      sload\n      dup2\n      mstore\n      swap1\n      0x01\n      add\n      swap1\n      0x20\n      add\n      dup1\n      dup4\n      gt\n      tag_70\n      jumpi\n      dup3\n      swap1\n      sub\n      0x1f\n      and\n      dup3\n      add\n      swap2\n    tag_68:\n      pop\n      pop\n      pop\n      pop\n      pop\n      swap1\n      dup1\n      0x01\n      add\n      0x00\n      swap1\n      sload\n      swap1\n      0x0100\n      exp\n      swap1\n      div\n      0xff\n      and\n      swap1\n      pop\n      dup3\n      jump\t// out\n        /* \"8.3 Data Structures - Structs/structs.sol\":970:1104  function update(uint _index, string memory _text) public {... */\n    tag_32:\n        /* \"8.3 Data Structures - Structs/structs.sol\":1037:1054  Todo storage todo */\n      0x00\n        /* \"8.3 Data Structures - Structs/structs.sol\":1057:1062  todos */\n      0x00\n        /* \"8.3 Data Structures - Structs/structs.sol\":1063:1069  _index */\n      dup4\n        /* \"8.3 Data Structures - Structs/structs.sol\":1057:1070  todos[_index] */\n      dup2\n      sload\n      dup2\n      lt\n      tag_72\n      jumpi\n      tag_73\n      tag_36\n      jump\t// in\n    tag_73:\n    tag_72:\n      swap1\n      0x00\n      mstore\n      keccak256(0x00, 0x20)\n      swap1\n      0x02\n      mul\n      add\n        /* \"8.3 Data Structures - Structs/structs.sol\":1037:1070  Todo storage todo = todos[_index] */\n      swap1\n      pop\n        /* \"8.3 Data Structures - Structs/structs.sol\":1092:1097  _text */\n      dup2\n        /* \"8.3 Data Structures - Structs/structs.sol\":1080:1084  todo */\n      dup2\n        /* \"8.3 Data Structures - Structs/structs.sol\":1080:1089  todo.text */\n      0x00\n      add\n        /* \"8.3 Data Structures - Structs/structs.sol\":1080:1097  todo.text = _text */\n      swap1\n      dup2\n      tag_75\n      swap2\n      swap1\n      tag_57\n      jump\t// in\n    tag_75:\n      pop\n        /* \"8.3 Data Structures - Structs/structs.sol\":1027:1104  {... */\n      pop\n        /* \"8.3 Data Structures - Structs/structs.sol\":970:1104  function update(uint _index, string memory _text) public {... */\n      pop\n      pop\n      jump\t// out\n    tag_43:\n      pop\n      dup1\n      sload\n      tag_76\n      swap1\n      tag_49\n      jump\t// in\n    tag_76:\n      0x00\n      dup3\n      sstore\n      dup1\n      0x1f\n      lt\n      tag_78\n      jumpi\n      pop\n      pop\n      jump(tag_77)\n    tag_78:\n      0x1f\n      add\n      0x20\n      swap1\n      div\n      swap1\n      0x00\n      mstore\n      keccak256(0x00, 0x20)\n      swap1\n      tag_79\n      swap2\n      swap1\n      tag_80\n      jump\t// in\n    tag_79:\n    tag_77:\n      jump\t// out\n    tag_61:\n      mload(0x40)\n      dup1\n      0x40\n      add\n      0x40\n      mstore\n      dup1\n      0x60\n      dup2\n      mstore\n      0x20\n      add\n      iszero(iszero(0x00))\n      dup2\n      mstore\n      pop\n      swap1\n      jump\t// out\n    tag_80:\n      0x00\n    tag_81:\n      dup1\n      dup3\n      gt\n      iszero\n      tag_82\n      jumpi\n      dup3\n      dup2\n      add\n      0x00\n      swap1\n      sstore\n      0x01\n      add\n      jump(tag_81)\n    tag_82:\n      pop\n      pop\n      pop\n      jump\t// out\n        /* \"#utility.yul\":7:82   */\n    tag_83:\n        /* \"#utility.yul\":40:46   */\n      0x00\n        /* \"#utility.yul\":73:75   */\n      0x40\n        /* \"#utility.yul\":67:76   */\n      mload\n        /* \"#utility.yul\":57:76   */\n      swap1\n      pop\n        /* \"#utility.yul\":7:82   */\n      swap1\n      jump\t// out\n        /* \"#utility.yul\":88:205   */\n    tag_84:\n        /* \"#utility.yul\":197:198   */\n      0x00\n        /* \"#utility.yul\":194:195   */\n      0x00\n        /* \"#utility.yul\":187:199   */\n      revert\n        /* \"#utility.yul\":211:328   */\n    tag_85:\n        /* \"#utility.yul\":320:321   */\n      0x00\n        /* \"#utility.yul\":317:318   */\n      0x00\n        /* \"#utility.yul\":310:322   */\n      revert\n        /* \"#utility.yul\":334:411   */\n    tag_86:\n        /* \"#utility.yul\":371:378   */\n      0x00\n        /* \"#utility.yul\":400:405   */\n      dup2\n        /* \"#utility.yul\":389:405   */\n      swap1\n      pop\n        /* \"#utility.yul\":334:411   */\n      swap2\n      swap1\n      pop\n      jump\t// out\n        /* \"#utility.yul\":417:539   */\n    tag_87:\n        /* \"#utility.yul\":490:514   */\n      tag_127\n        /* \"#utility.yul\":508:513   */\n      dup2\n        /* \"#utility.yul\":490:514   */\n      tag_86\n      jump\t// in\n    tag_127:\n        /* \"#utility.yul\":483:488   */\n      dup2\n        /* \"#utility.yul\":480:515   */\n      eq\n        /* \"#utility.yul\":470:533   */\n      tag_128\n      jumpi\n        /* \"#utility.yul\":529:530   */\n      0x00\n        /* \"#utility.yul\":526:527   */\n      0x00\n        /* \"#utility.yul\":519:531   */\n      revert\n        /* \"#utility.yul\":470:533   */\n    tag_128:\n        /* \"#utility.yul\":417:539   */\n      pop\n      jump\t// out\n        /* \"#utility.yul\":545:684   */\n    tag_88:\n        /* \"#utility.yul\":591:596   */\n      0x00\n        /* \"#utility.yul\":629:635   */\n      dup2\n        /* \"#utility.yul\":616:636   */\n      calldataload\n        /* \"#utility.yul\":607:636   */\n      swap1\n      pop\n        /* \"#utility.yul\":645:678   */\n      tag_130\n        /* \"#utility.yul\":672:677   */\n      dup2\n        /* \"#utility.yul\":645:678   */\n      tag_87\n      jump\t// in\n    tag_130:\n        /* \"#utility.yul\":545:684   */\n      swap3\n      swap2\n      pop\n      pop\n      jump\t// out\n        /* \"#utility.yul\":690:1019   */\n    tag_11:\n        /* \"#utility.yul\":749:755   */\n      0x00\n        /* \"#utility.yul\":798:800   */\n      0x20\n        /* \"#utility.yul\":786:795   */\n      dup3\n        /* \"#utility.yul\":777:784   */\n      dup5\n        /* \"#utility.yul\":773:796   */\n      sub\n        /* \"#utility.yul\":769:801   */\n      slt\n        /* \"#utility.yul\":766:885   */\n      iszero\n      tag_132\n      jumpi\n        /* \"#utility.yul\":804:883   */\n      tag_133\n      tag_84\n      jump\t// in\n    tag_133:\n        /* \"#utility.yul\":766:885   */\n    tag_132:\n        /* \"#utility.yul\":924:925   */\n      0x00\n        /* \"#utility.yul\":949:1002   */\n      tag_134\n        /* \"#utility.yul\":994:1001   */\n      dup5\n        /* \"#utility.yul\":985:991   */\n      dup3\n        /* \"#utility.yul\":974:983   */\n      dup6\n        /* \"#utility.yul\":970:992   */\n      add\n        /* \"#utility.yul\":949:1002   */\n      tag_88\n      jump\t// in\n    tag_134:\n        /* \"#utility.yul\":939:1002   */\n      swap2\n      pop\n        /* \"#utility.yul\":895:1012   */\n      pop\n        /* \"#utility.yul\":690:1019   */\n      swap3\n      swap2\n      pop\n      pop\n      jump\t// out\n        /* \"#utility.yul\":1025:1124   */\n    tag_89:\n        /* \"#utility.yul\":1077:1083   */\n      0x00\n        /* \"#utility.yul\":1111:1116   */\n      dup2\n        /* \"#utility.yul\":1105:1117   */\n      mload\n        /* \"#utility.yul\":1095:1117   */\n      swap1\n      pop\n        /* \"#utility.yul\":1025:1124   */\n      swap2\n      swap1\n      pop\n      jump\t// out\n        /* \"#utility.yul\":1130:1299   */\n    tag_90:\n        /* \"#utility.yul\":1214:1225   */\n      0x00\n        /* \"#utility.yul\":1248:1254   */\n      dup3\n        /* \"#utility.yul\":1243:1246   */\n      dup3\n        /* \"#utility.yul\":1236:1255   */\n      mstore\n        /* \"#utility.yul\":1288:1292   */\n      0x20\n        /* \"#utility.yul\":1283:1286   */\n      dup3\n        /* \"#utility.yul\":1279:1293   */\n      add\n        /* \"#utility.yul\":1264:1293   */\n      swap1\n      pop\n        /* \"#utility.yul\":1130:1299   */\n      swap3\n      swap2\n      pop\n      pop\n      jump\t// out\n        /* \"#utility.yul\":1305:1444   */\n    tag_91:\n        /* \"#utility.yul\":1394:1400   */\n      dup3\n        /* \"#utility.yul\":1389:1392   */\n      dup2\n        /* \"#utility.yul\":1384:1387   */\n      dup4\n        /* \"#utility.yul\":1378:1401   */\n      mcopy\n        /* \"#utility.yul\":1435:1436   */\n      0x00\n        /* \"#utility.yul\":1426:1432   */\n      dup4\n        /* \"#utility.yul\":1421:1424   */\n      dup4\n        /* \"#utility.yul\":1417:1433   */\n      add\n        /* \"#utility.yul\":1410:1437   */\n      mstore\n        /* \"#utility.yul\":1305:1444   */\n      pop\n      pop\n      pop\n      jump\t// out\n        /* \"#utility.yul\":1450:1552   */\n    tag_92:\n        /* \"#utility.yul\":1491:1497   */\n      0x00\n        /* \"#utility.yul\":1542:1544   */\n      0x1f\n        /* \"#utility.yul\":1538:1545   */\n      not\n        /* \"#utility.yul\":1533:1535   */\n      0x1f\n        /* \"#utility.yul\":1526:1531   */\n      dup4\n        /* \"#utility.yul\":1522:1536   */\n      add\n        /* \"#utility.yul\":1518:1546   */\n      and\n        /* \"#utility.yul\":1508:1546   */\n      swap1\n      pop\n        /* \"#utility.yul\":1450:1552   */\n      swap2\n      swap1\n      pop\n      jump\t// out\n        /* \"#utility.yul\":1558:1935   */\n    tag_93:\n        /* \"#utility.yul\":1646:1649   */\n      0x00\n        /* \"#utility.yul\":1674:1713   */\n      tag_140\n        /* \"#utility.yul\":1707:1712   */\n      dup3\n        /* \"#utility.yul\":1674:1713   */\n      tag_89\n      jump\t// in\n    tag_140:\n        /* \"#utility.yul\":1729:1800   */\n      tag_141\n        /* \"#utility.yul\":1793:1799   */\n      dup2\n        /* \"#utility.yul\":1788:1791   */\n      dup6\n        /* \"#utility.yul\":1729:1800   */\n      tag_90\n      jump\t// in\n    tag_141:\n        /* \"#utility.yul\":1722:1800   */\n      swap4\n      pop\n        /* \"#utility.yul\":1809:1874   */\n      tag_142\n        /* \"#utility.yul\":1867:1873   */\n      dup2\n        /* \"#utility.yul\":1862:1865   */\n      dup6\n        /* \"#utility.yul\":1855:1859   */\n      0x20\n        /* \"#utility.yul\":1848:1853   */\n      dup7\n        /* \"#utility.yul\":1844:1860   */\n      add\n        /* \"#utility.yul\":1809:1874   */\n      tag_91\n      jump\t// in\n    tag_142:\n        /* \"#utility.yul\":1899:1928   */\n      tag_143\n        /* \"#utility.yul\":1921:1927   */\n      dup2\n        /* \"#utility.yul\":1899:1928   */\n      tag_92\n      jump\t// in\n    tag_143:\n        /* \"#utility.yul\":1894:1897   */\n      dup5\n        /* \"#utility.yul\":1890:1929   */\n      add\n        /* \"#utility.yul\":1883:1929   */\n      swap2\n      pop\n        /* \"#utility.yul\":1650:1935   */\n      pop\n        /* \"#utility.yul\":1558:1935   */\n      swap3\n      swap2\n      pop\n      pop\n      jump\t// out\n        /* \"#utility.yul\":1941:2031   */\n    tag_94:\n        /* \"#utility.yul\":1975:1982   */\n      0x00\n        /* \"#utility.yul\":2018:2023   */\n      dup2\n        /* \"#utility.yul\":2011:2024   */\n      iszero\n        /* \"#utility.yul\":2004:2025   */\n      iszero\n        /* \"#utility.yul\":1993:2025   */\n      swap1\n      pop\n        /* \"#utility.yul\":1941:2031   */\n      swap2\n      swap1\n      pop\n      jump\t// out\n        /* \"#utility.yul\":2037:2146   */\n    tag_95:\n        /* \"#utility.yul\":2118:2139   */\n      tag_146\n        /* \"#utility.yul\":2133:2138   */\n      dup2\n        /* \"#utility.yul\":2118:2139   */\n      tag_94\n      jump\t// in\n    tag_146:\n        /* \"#utility.yul\":2113:2116   */\n      dup3\n        /* \"#utility.yul\":2106:2140   */\n      mstore\n        /* \"#utility.yul\":2037:2146   */\n      pop\n      pop\n      jump\t// out\n        /* \"#utility.yul\":2152:2563   */\n    tag_20:\n        /* \"#utility.yul\":2287:2291   */\n      0x00\n        /* \"#utility.yul\":2325:2327   */\n      0x40\n        /* \"#utility.yul\":2314:2323   */\n      dup3\n        /* \"#utility.yul\":2310:2328   */\n      add\n        /* \"#utility.yul\":2302:2328   */\n      swap1\n      pop\n        /* \"#utility.yul\":2374:2383   */\n      dup2\n        /* \"#utility.yul\":2368:2372   */\n      dup2\n        /* \"#utility.yul\":2364:2384   */\n      sub\n        /* \"#utility.yul\":2360:2361   */\n      0x00\n        /* \"#utility.yul\":2349:2358   */\n      dup4\n        /* \"#utility.yul\":2345:2362   */\n      add\n        /* \"#utility.yul\":2338:2385   */\n      mstore\n        /* \"#utility.yul\":2402:2480   */\n      tag_148\n        /* \"#utility.yul\":2475:2479   */\n      dup2\n        /* \"#utility.yul\":2466:2472   */\n      dup6\n        /* \"#utility.yul\":2402:2480   */\n      tag_93\n      jump\t// in\n    tag_148:\n        /* \"#utility.yul\":2394:2480   */\n      swap1\n      pop\n        /* \"#utility.yul\":2490:2556   */\n      tag_149\n        /* \"#utility.yul\":2552:2554   */\n      0x20\n        /* \"#utility.yul\":2541:2550   */\n      dup4\n        /* \"#utility.yul\":2537:2555   */\n      add\n        /* \"#utility.yul\":2528:2534   */\n      dup5\n        /* \"#utility.yul\":2490:2556   */\n      tag_95\n      jump\t// in\n    tag_149:\n        /* \"#utility.yul\":2152:2563   */\n      swap4\n      swap3\n      pop\n      pop\n      pop\n      jump\t// out\n        /* \"#utility.yul\":2569:2686   */\n    tag_96:\n        /* \"#utility.yul\":2678:2679   */\n      0x00\n        /* \"#utility.yul\":2675:2676   */\n      0x00\n        /* \"#utility.yul\":2668:2680   */\n      revert\n        /* \"#utility.yul\":2692:2809   */\n    tag_97:\n        /* \"#utility.yul\":2801:2802   */\n      0x00\n        /* \"#utility.yul\":2798:2799   */\n      0x00\n        /* \"#utility.yul\":2791:2803   */\n      revert\n        /* \"#utility.yul\":2815:2995   */\n    tag_98:\n        /* \"#utility.yul\":2863:2940   */\n      0x4e487b7100000000000000000000000000000000000000000000000000000000\n        /* \"#utility.yul\":2860:2861   */\n      0x00\n        /* \"#utility.yul\":2853:2941   */\n      mstore\n        /* \"#utility.yul\":2960:2964   */\n      0x41\n        /* \"#utility.yul\":2957:2958   */\n      0x04\n        /* \"#utility.yul\":2950:2965   */\n      mstore\n        /* \"#utility.yul\":2984:2988   */\n      0x24\n        /* \"#utility.yul\":2981:2982   */\n      0x00\n        /* \"#utility.yul\":2974:2989   */\n      revert\n        /* \"#utility.yul\":3001:3282   */\n    tag_99:\n        /* \"#utility.yul\":3084:3111   */\n      tag_154\n        /* \"#utility.yul\":3106:3110   */\n      dup3\n        /* \"#utility.yul\":3084:3111   */\n      tag_92\n      jump\t// in\n    tag_154:\n        /* \"#utility.yul\":3076:3082   */\n      dup2\n        /* \"#utility.yul\":3072:3112   */\n      add\n        /* \"#utility.yul\":3214:3220   */\n      dup2\n        /* \"#utility.yul\":3202:3212   */\n      dup2\n        /* \"#utility.yul\":3199:3221   */\n      lt\n        /* \"#utility.yul\":3178:3196   */\n      0xffffffffffffffff\n        /* \"#utility.yul\":3166:3176   */\n      dup3\n        /* \"#utility.yul\":3163:3197   */\n      gt\n        /* \"#utility.yul\":3160:3222   */\n      or\n        /* \"#utility.yul\":3157:3245   */\n      iszero\n      tag_155\n      jumpi\n        /* \"#utility.yul\":3225:3243   */\n      tag_156\n      tag_98\n      jump\t// in\n    tag_156:\n        /* \"#utility.yul\":3157:3245   */\n    tag_155:\n        /* \"#utility.yul\":3265:3275   */\n      dup1\n        /* \"#utility.yul\":3261:3263   */\n      0x40\n        /* \"#utility.yul\":3254:3276   */\n      mstore\n        /* \"#utility.yul\":3044:3282   */\n      pop\n        /* \"#utility.yul\":3001:3282   */\n      pop\n      pop\n      jump\t// out\n        /* \"#utility.yul\":3288:3417   */\n    tag_100:\n        /* \"#utility.yul\":3322:3328   */\n      0x00\n        /* \"#utility.yul\":3349:3369   */\n      tag_158\n      tag_83\n      jump\t// in\n    tag_158:\n        /* \"#utility.yul\":3339:3369   */\n      swap1\n      pop\n        /* \"#utility.yul\":3378:3411   */\n      tag_159\n        /* \"#utility.yul\":3406:3410   */\n      dup3\n        /* \"#utility.yul\":3398:3404   */\n      dup3\n        /* \"#utility.yul\":3378:3411   */\n      tag_99\n      jump\t// in\n    tag_159:\n        /* \"#utility.yul\":3288:3417   */\n      swap2\n      swap1\n      pop\n      jump\t// out\n        /* \"#utility.yul\":3423:3731   */\n    tag_101:\n        /* \"#utility.yul\":3485:3489   */\n      0x00\n        /* \"#utility.yul\":3575:3593   */\n      0xffffffffffffffff\n        /* \"#utility.yul\":3567:3573   */\n      dup3\n        /* \"#utility.yul\":3564:3594   */\n      gt\n        /* \"#utility.yul\":3561:3617   */\n      iszero\n      tag_161\n      jumpi\n        /* \"#utility.yul\":3597:3615   */\n      tag_162\n      tag_98\n      jump\t// in\n    tag_162:\n        /* \"#utility.yul\":3561:3617   */\n    tag_161:\n        /* \"#utility.yul\":3635:3664   */\n      tag_163\n        /* \"#utility.yul\":3657:3663   */\n      dup3\n        /* \"#utility.yul\":3635:3664   */\n      tag_92\n      jump\t// in\n    tag_163:\n        /* \"#utility.yul\":3627:3664   */\n      swap1\n      pop\n        /* \"#utility.yul\":3719:3723   */\n      0x20\n        /* \"#utility.yul\":3713:3717   */\n      dup2\n        /* \"#utility.yul\":3709:3724   */\n      add\n        /* \"#utility.yul\":3701:3724   */\n      swap1\n      pop\n        /* \"#utility.yul\":3423:3731   */\n      swap2\n      swap1\n      pop\n      jump\t// out\n        /* \"#utility.yul\":3737:3885   */\n    tag_102:\n        /* \"#utility.yul\":3835:3841   */\n      dup3\n        /* \"#utility.yul\":3830:3833   */\n      dup2\n        /* \"#utility.yul\":3825:3828   */\n      dup4\n        /* \"#utility.yul\":3812:3842   */\n      calldatacopy\n        /* \"#utility.yul\":3876:3877   */\n      0x00\n        /* \"#utility.yul\":3867:3873   */\n      dup4\n        /* \"#utility.yul\":3862:3865   */\n      dup4\n        /* \"#utility.yul\":3858:3874   */\n      add\n        /* \"#utility.yul\":3851:3878   */\n      mstore\n        /* \"#utility.yul\":3737:3885   */\n      pop\n      pop\n      pop\n      jump\t// out\n        /* \"#utility.yul\":3891:4316   */\n    tag_103:\n        /* \"#utility.yul\":3969:3974   */\n      0x00\n        /* \"#utility.yul\":3994:4060   */\n      tag_166\n        /* \"#utility.yul\":4010:4059   */\n      tag_167\n        /* \"#utility.yul\":4052:4058   */\n      dup5\n        /* \"#utility.yul\":4010:4059   */\n      tag_101\n      jump\t// in\n    tag_167:\n        /* \"#utility.yul\":3994:4060   */\n      tag_100\n      jump\t// in\n    tag_166:\n        /* \"#utility.yul\":3985:4060   */\n      swap1\n      pop\n        /* \"#utility.yul\":4083:4089   */\n      dup3\n        /* \"#utility.yul\":4076:4081   */\n      dup2\n        /* \"#utility.yul\":4069:4090   */\n      mstore\n        /* \"#utility.yul\":4121:4125   */\n      0x20\n        /* \"#utility.yul\":4114:4119   */\n      dup2\n        /* \"#utility.yul\":4110:4126   */\n      add\n        /* \"#utility.yul\":4159:4162   */\n      dup5\n        /* \"#utility.yul\":4150:4156   */\n      dup5\n        /* \"#utility.yul\":4145:4148   */\n      dup5\n        /* \"#utility.yul\":4141:4157   */\n      add\n        /* \"#utility.yul\":4138:4163   */\n      gt\n        /* \"#utility.yul\":4135:4247   */\n      iszero\n      tag_168\n      jumpi\n        /* \"#utility.yul\":4166:4245   */\n      tag_169\n      tag_97\n      jump\t// in\n    tag_169:\n        /* \"#utility.yul\":4135:4247   */\n    tag_168:\n        /* \"#utility.yul\":4256:4310   */\n      tag_170\n        /* \"#utility.yul\":4303:4309   */\n      dup5\n        /* \"#utility.yul\":4298:4301   */\n      dup3\n        /* \"#utility.yul\":4293:4296   */\n      dup6\n        /* \"#utility.yul\":4256:4310   */\n      tag_102\n      jump\t// in\n    tag_170:\n        /* \"#utility.yul\":3975:4316   */\n      pop\n        /* \"#utility.yul\":3891:4316   */\n      swap4\n      swap3\n      pop\n      pop\n      pop\n      jump\t// out\n        /* \"#utility.yul\":4336:4676   */\n    tag_104:\n        /* \"#utility.yul\":4392:4397   */\n      0x00\n        /* \"#utility.yul\":4441:4444   */\n      dup3\n        /* \"#utility.yul\":4434:4438   */\n      0x1f\n        /* \"#utility.yul\":4426:4432   */\n      dup4\n        /* \"#utility.yul\":4422:4439   */\n      add\n        /* \"#utility.yul\":4418:4445   */\n      slt\n        /* \"#utility.yul\":4408:4530   */\n      tag_172\n      jumpi\n        /* \"#utility.yul\":4449:4528   */\n      tag_173\n      tag_96\n      jump\t// in\n    tag_173:\n        /* \"#utility.yul\":4408:4530   */\n    tag_172:\n        /* \"#utility.yul\":4566:4572   */\n      dup2\n        /* \"#utility.yul\":4553:4573   */\n      calldataload\n        /* \"#utility.yul\":4591:4670   */\n      tag_174\n        /* \"#utility.yul\":4666:4669   */\n      dup5\n        /* \"#utility.yul\":4658:4664   */\n      dup3\n        /* \"#utility.yul\":4651:4655   */\n      0x20\n        /* \"#utility.yul\":4643:4649   */\n      dup7\n        /* \"#utility.yul\":4639:4656   */\n      add\n        /* \"#utility.yul\":4591:4670   */\n      tag_103\n      jump\t// in\n    tag_174:\n        /* \"#utility.yul\":4582:4670   */\n      swap2\n      pop\n        /* \"#utility.yul\":4398:4676   */\n      pop\n        /* \"#utility.yul\":4336:4676   */\n      swap3\n      swap2\n      pop\n      pop\n      jump\t// out\n        /* \"#utility.yul\":4682:5191   */\n    tag_23:\n        /* \"#utility.yul\":4751:4757   */\n      0x00\n        /* \"#utility.yul\":4800:4802   */\n      0x20\n        /* \"#utility.yul\":4788:4797   */\n      dup3\n        /* \"#utility.yul\":4779:4786   */\n      dup5\n        /* \"#utility.yul\":4775:4798   */\n      sub\n        /* \"#utility.yul\":4771:4803   */\n      slt\n        /* \"#utility.yul\":4768:4887   */\n      iszero\n      tag_176\n      jumpi\n        /* \"#utility.yul\":4806:4885   */\n      tag_177\n      tag_84\n      jump\t// in\n    tag_177:\n        /* \"#utility.yul\":4768:4887   */\n    tag_176:\n        /* \"#utility.yul\":4954:4955   */\n      0x00\n        /* \"#utility.yul\":4943:4952   */\n      dup3\n        /* \"#utility.yul\":4939:4956   */\n      add\n        /* \"#utility.yul\":4926:4957   */\n      calldataload\n        /* \"#utility.yul\":4984:5002   */\n      0xffffffffffffffff\n        /* \"#utility.yul\":4976:4982   */\n      dup2\n        /* \"#utility.yul\":4973:5003   */\n      gt\n        /* \"#utility.yul\":4970:5087   */\n      iszero\n      tag_178\n      jumpi\n        /* \"#utility.yul\":5006:5085   */\n      tag_179\n      tag_85\n      jump\t// in\n    tag_179:\n        /* \"#utility.yul\":4970:5087   */\n    tag_178:\n        /* \"#utility.yul\":5111:5174   */\n      tag_180\n        /* \"#utility.yul\":5166:5173   */\n      dup5\n        /* \"#utility.yul\":5157:5163   */\n      dup3\n        /* \"#utility.yul\":5146:5155   */\n      dup6\n        /* \"#utility.yul\":5142:5164   */\n      add\n        /* \"#utility.yul\":5111:5174   */\n      tag_104\n      jump\t// in\n    tag_180:\n        /* \"#utility.yul\":5101:5174   */\n      swap2\n      pop\n        /* \"#utility.yul\":4897:5184   */\n      pop\n        /* \"#utility.yul\":4682:5191   */\n      swap3\n      swap2\n      pop\n      pop\n      jump\t// out\n        /* \"#utility.yul\":5197:5851   */\n    tag_31:\n        /* \"#utility.yul\":5275:5281   */\n      0x00\n        /* \"#utility.yul\":5283:5289   */\n      0x00\n        /* \"#utility.yul\":5332:5334   */\n      0x40\n        /* \"#utility.yul\":5320:5329   */\n      dup4\n        /* \"#utility.yul\":5311:5318   */\n      dup6\n        /* \"#utility.yul\":5307:5330   */\n      sub\n        /* \"#utility.yul\":5303:5335   */\n      slt\n        /* \"#utility.yul\":5300:5419   */\n      iszero\n      tag_182\n      jumpi\n        /* \"#utility.yul\":5338:5417   */\n      tag_183\n      tag_84\n      jump\t// in\n    tag_183:\n        /* \"#utility.yul\":5300:5419   */\n    tag_182:\n        /* \"#utility.yul\":5458:5459   */\n      0x00\n        /* \"#utility.yul\":5483:5536   */\n      tag_184\n        /* \"#utility.yul\":5528:5535   */\n      dup6\n        /* \"#utility.yul\":5519:5525   */\n      dup3\n        /* \"#utility.yul\":5508:5517   */\n      dup7\n        /* \"#utility.yul\":5504:5526   */\n      add\n        /* \"#utility.yul\":5483:5536   */\n      tag_88\n      jump\t// in\n    tag_184:\n        /* \"#utility.yul\":5473:5536   */\n      swap3\n      pop\n        /* \"#utility.yul\":5429:5546   */\n      pop\n        /* \"#utility.yul\":5613:5615   */\n      0x20\n        /* \"#utility.yul\":5602:5611   */\n      dup4\n        /* \"#utility.yul\":5598:5616   */\n      add\n        /* \"#utility.yul\":5585:5617   */\n      calldataload\n        /* \"#utility.yul\":5644:5662   */\n      0xffffffffffffffff\n        /* \"#utility.yul\":5636:5642   */\n      dup2\n        /* \"#utility.yul\":5633:5663   */\n      gt\n        /* \"#utility.yul\":5630:5747   */\n      iszero\n      tag_185\n      jumpi\n        /* \"#utility.yul\":5666:5745   */\n      tag_186\n      tag_85\n      jump\t// in\n    tag_186:\n        /* \"#utility.yul\":5630:5747   */\n    tag_185:\n        /* \"#utility.yul\":5771:5834   */\n      tag_187\n        /* \"#utility.yul\":5826:5833   */\n      dup6\n        /* \"#utility.yul\":5817:5823   */\n      dup3\n        /* \"#utility.yul\":5806:5815   */\n      dup7\n        /* \"#utility.yul\":5802:5824   */\n      add\n        /* \"#utility.yul\":5771:5834   */\n      tag_104\n      jump\t// in\n    tag_187:\n        /* \"#utility.yul\":5761:5834   */\n      swap2\n      pop\n        /* \"#utility.yul\":5556:5844   */\n      pop\n        /* \"#utility.yul\":5197:5851   */\n      swap3\n      pop\n      swap3\n      swap1\n      pop\n      jump\t// out\n        /* \"#utility.yul\":5857:6037   */\n    tag_36:\n        /* \"#utility.yul\":5905:5982   */\n      0x4e487b7100000000000000000000000000000000000000000000000000000000\n        /* \"#utility.yul\":5902:5903   */\n      0x00\n        /* \"#utility.yul\":5895:5983   */\n      mstore\n        /* \"#utility.yul\":6002:6006   */\n      0x32\n        /* \"#utility.yul\":5999:6000   */\n      0x04\n        /* \"#utility.yul\":5992:6007   */\n      mstore\n        /* \"#utility.yul\":6026:6030   */\n      0x24\n        /* \"#utility.yul\":6023:6024   */\n      0x00\n        /* \"#utility.yul\":6016:6031   */\n      revert\n        /* \"#utility.yul\":6043:6223   */\n    tag_105:\n        /* \"#utility.yul\":6091:6168   */\n      0x4e487b7100000000000000000000000000000000000000000000000000000000\n        /* \"#utility.yul\":6088:6089   */\n      0x00\n        /* \"#utility.yul\":6081:6169   */\n      mstore\n        /* \"#utility.yul\":6188:6192   */\n      0x22\n        /* \"#utility.yul\":6185:6186   */\n      0x04\n        /* \"#utility.yul\":6178:6193   */\n      mstore\n        /* \"#utility.yul\":6212:6216   */\n      0x24\n        /* \"#utility.yul\":6209:6210   */\n      0x00\n        /* \"#utility.yul\":6202:6217   */\n      revert\n        /* \"#utility.yul\":6229:6549   */\n    tag_49:\n        /* \"#utility.yul\":6273:6279   */\n      0x00\n        /* \"#utility.yul\":6310:6311   */\n      0x02\n        /* \"#utility.yul\":6304:6308   */\n      dup3\n        /* \"#utility.yul\":6300:6312   */\n      div\n        /* \"#utility.yul\":6290:6312   */\n      swap1\n      pop\n        /* \"#utility.yul\":6357:6358   */\n      0x01\n        /* \"#utility.yul\":6351:6355   */\n      dup3\n        /* \"#utility.yul\":6347:6359   */\n      and\n        /* \"#utility.yul\":6378:6396   */\n      dup1\n        /* \"#utility.yul\":6368:6449   */\n      tag_191\n      jumpi\n        /* \"#utility.yul\":6434:6438   */\n      0x7f\n        /* \"#utility.yul\":6426:6432   */\n      dup3\n        /* \"#utility.yul\":6422:6439   */\n      and\n        /* \"#utility.yul\":6412:6439   */\n      swap2\n      pop\n        /* \"#utility.yul\":6368:6449   */\n    tag_191:\n        /* \"#utility.yul\":6496:6498   */\n      0x20\n        /* \"#utility.yul\":6488:6494   */\n      dup3\n        /* \"#utility.yul\":6485:6499   */\n      lt\n        /* \"#utility.yul\":6465:6483   */\n      dup2\n        /* \"#utility.yul\":6462:6500   */\n      sub\n        /* \"#utility.yul\":6459:6543   */\n      tag_192\n      jumpi\n        /* \"#utility.yul\":6515:6533   */\n      tag_193\n      tag_105\n      jump\t// in\n    tag_193:\n        /* \"#utility.yul\":6459:6543   */\n    tag_192:\n        /* \"#utility.yul\":6280:6549   */\n      pop\n        /* \"#utility.yul\":6229:6549   */\n      swap2\n      swap1\n      pop\n      jump\t// out\n        /* \"#utility.yul\":6555:6696   */\n    tag_106:\n        /* \"#utility.yul\":6604:6608   */\n      0x00\n        /* \"#utility.yul\":6627:6630   */\n      dup2\n        /* \"#utility.yul\":6619:6630   */\n      swap1\n      pop\n        /* \"#utility.yul\":6650:6653   */\n      dup2\n        /* \"#utility.yul\":6647:6648   */\n      0x00\n        /* \"#utility.yul\":6640:6654   */\n      mstore\n        /* \"#utility.yul\":6684:6688   */\n      0x20\n        /* \"#utility.yul\":6681:6682   */\n      0x00\n        /* \"#utility.yul\":6671:6689   */\n      keccak256\n        /* \"#utility.yul\":6663:6689   */\n      swap1\n      pop\n        /* \"#utility.yul\":6555:6696   */\n      swap2\n      swap1\n      pop\n      jump\t// out\n        /* \"#utility.yul\":6702:6795   */\n    tag_107:\n        /* \"#utility.yul\":6739:6745   */\n      0x00\n        /* \"#utility.yul\":6786:6788   */\n      0x20\n        /* \"#utility.yul\":6781:6783   */\n      0x1f\n        /* \"#utility.yul\":6774:6779   */\n      dup4\n        /* \"#utility.yul\":6770:6784   */\n      add\n        /* \"#utility.yul\":6766:6789   */\n      div\n        /* \"#utility.yul\":6756:6789   */\n      swap1\n      pop\n        /* \"#utility.yul\":6702:6795   */\n      swap2\n      swap1\n      pop\n      jump\t// out\n        /* \"#utility.yul\":6801:6908   */\n    tag_108:\n        /* \"#utility.yul\":6845:6853   */\n      0x00\n        /* \"#utility.yul\":6895:6900   */\n      dup3\n        /* \"#utility.yul\":6889:6893   */\n      dup3\n        /* \"#utility.yul\":6885:6901   */\n      shl\n        /* \"#utility.yul\":6864:6901   */\n      swap1\n      pop\n        /* \"#utility.yul\":6801:6908   */\n      swap3\n      swap2\n      pop\n      pop\n      jump\t// out\n        /* \"#utility.yul\":6914:7307   */\n    tag_109:\n        /* \"#utility.yul\":6983:6989   */\n      0x00\n        /* \"#utility.yul\":7033:7034   */\n      0x08\n        /* \"#utility.yul\":7021:7031   */\n      dup4\n        /* \"#utility.yul\":7017:7035   */\n      mul\n        /* \"#utility.yul\":7056:7153   */\n      tag_198\n        /* \"#utility.yul\":7086:7152   */\n      0xffffffffffffffffffffffffffffffffffffffffffffffffffffffffffffffff\n        /* \"#utility.yul\":7075:7084   */\n      dup3\n        /* \"#utility.yul\":7056:7153   */\n      tag_108\n      jump\t// in\n    tag_198:\n        /* \"#utility.yul\":7174:7213   */\n      tag_199\n        /* \"#utility.yul\":7204:7212   */\n      dup7\n        /* \"#utility.yul\":7193:7202   */\n      dup4\n        /* \"#utility.yul\":7174:7213   */\n      tag_108\n      jump\t// in\n    tag_199:\n        /* \"#utility.yul\":7162:7213   */\n      swap6\n      pop\n        /* \"#utility.yul\":7246:7250   */\n      dup1\n        /* \"#utility.yul\":7242:7251   */\n      not\n        /* \"#utility.yul\":7235:7240   */\n      dup5\n        /* \"#utility.yul\":7231:7252   */\n      and\n        /* \"#utility.yul\":7222:7252   */\n      swap4\n      pop\n        /* \"#utility.yul\":7295:7299   */\n      dup1\n        /* \"#utility.yul\":7285:7293   */\n      dup7\n        /* \"#utility.yul\":7281:7300   */\n      and\n        /* \"#utility.yul\":7274:7279   */\n      dup5\n        /* \"#utility.yul\":7271:7301   */\n      or\n        /* \"#utility.yul\":7261:7301   */\n      swap3\n      pop\n        /* \"#utility.yul\":6990:7307   */\n      pop\n      pop\n        /* \"#utility.yul\":6914:7307   */\n      swap4\n      swap3\n      pop\n      pop\n      pop\n      jump\t// out\n        /* \"#utility.yul\":7313:7373   */\n    tag_110:\n        /* \"#utility.yul\":7341:7344   */\n      0x00\n        /* \"#utility.yul\":7362:7367   */\n      dup2\n        /* \"#utility.yul\":7355:7367   */\n      swap1\n      pop\n        /* \"#utility.yul\":7313:7373   */\n      swap2\n      swap1\n      pop\n      jump\t// out\n        /* \"#utility.yul\":7379:7521   */\n    tag_111:\n        /* \"#utility.yul\":7429:7438   */\n      0x00\n        /* \"#utility.yul\":7462:7515   */\n      tag_202\n        /* \"#utility.yul\":7480:7514   */\n      tag_203\n        /* \"#utility.yul\":7489:7513   */\n      tag_204\n        /* \"#utility.yul\":7507:7512   */\n      dup5\n        /* \"#utility.yul\":7489:7513   */\n      tag_86\n      jump\t// in\n    tag_204:\n        /* \"#utility.yul\":7480:7514   */\n      tag_110\n      jump\t// in\n    tag_203:\n        /* \"#utility.yul\":7462:7515   */\n      tag_86\n      jump\t// in\n    tag_202:\n        /* \"#utility.yul\":7449:7515   */\n      swap1\n      pop\n        /* \"#utility.yul\":7379:7521   */\n      swap2\n      swap1\n      pop\n      jump\t// out\n        /* \"#utility.yul\":7527:7602   */\n    tag_112:\n        /* \"#utility.yul\":7570:7573   */\n      0x00\n        /* \"#utility.yul\":7591:7596   */\n      dup2\n        /* \"#utility.yul\":7584:7596   */\n      swap1\n      pop\n        /* \"#utility.yul\":7527:7602   */\n      swap2\n      swap1\n      pop\n      jump\t// out\n        /* \"#utility.yul\":7608:7877   */\n    tag_113:\n        /* \"#utility.yul\":7718:7757   */\n      tag_207\n        /* \"#utility.yul\":7749:7756   */\n      dup4\n        /* \"#utility.yul\":7718:7757   */\n      tag_111\n      jump\t// in\n    tag_207:\n        /* \"#utility.yul\":7779:7870   */\n      tag_208\n        /* \"#utility.yul\":7828:7869   */\n      tag_209\n        /* \"#utility.yul\":7852:7868   */\n      dup3\n        /* \"#utility.yul\":7828:7869   */\n      tag_112\n      jump\t// in\n    tag_209:\n        /* \"#utility.yul\":7820:7826   */\n      dup5\n        /* \"#utility.yul\":7813:7817   */\n      dup5\n        /* \"#utility.yul\":7807:7818   */\n      sload\n        /* \"#utility.yul\":7779:7870   */\n      tag_109\n      jump\t// in\n    tag_208:\n        /* \"#utility.yul\":7773:7777   */\n      dup3\n        /* \"#utility.yul\":7766:7871   */\n      sstore\n        /* \"#utility.yul\":7684:7877   */\n      pop\n        /* \"#utility.yul\":7608:7877   */\n      pop\n      pop\n      pop\n      jump\t// out\n        /* \"#utility.yul\":7883:7956   */\n    tag_114:\n        /* \"#utility.yul\":7928:7931   */\n      0x00\n        /* \"#utility.yul\":7949:7950   */\n      0x00\n        /* \"#utility.yul\":7942:7950   */\n      swap1\n      pop\n        /* \"#utility.yul\":7883:7956   */\n      swap1\n      jump\t// out\n        /* \"#utility.yul\":7962:8151   */\n    tag_115:\n        /* \"#utility.yul\":8039:8071   */\n      tag_212\n      tag_114\n      jump\t// in\n    tag_212:\n        /* \"#utility.yul\":8080:8145   */\n      tag_213\n        /* \"#utility.yul\":8138:8144   */\n      dup2\n        /* \"#utility.yul\":8130:8136   */\n      dup5\n        /* \"#utility.yul\":8124:8128   */\n      dup5\n        /* \"#utility.yul\":8080:8145   */\n      tag_113\n      jump\t// in\n    tag_213:\n        /* \"#utility.yul\":8015:8151   */\n      pop\n        /* \"#utility.yul\":7962:8151   */\n      pop\n      pop\n      jump\t// out\n        /* \"#utility.yul\":8157:8371   */\n    tag_116:\n        /* \"#utility.yul\":8242:8243   */\n      0x00\n        /* \"#utility.yul\":8227:8365   */\n    tag_215:\n        /* \"#utility.yul\":8252:8261   */\n      dup3\n        /* \"#utility.yul\":8249:8250   */\n      dup2\n        /* \"#utility.yul\":8246:8262   */\n      lt\n        /* \"#utility.yul\":8227:8365   */\n      iszero\n      tag_217\n      jumpi\n        /* \"#utility.yul\":8304:8355   */\n      tag_218\n        /* \"#utility.yul\":8353:8354   */\n      0x00\n        /* \"#utility.yul\":8349:8350   */\n      dup3\n        /* \"#utility.yul\":8338:8347   */\n      dup5\n        /* \"#utility.yul\":8334:8351   */\n      add\n        /* \"#utility.yul\":8304:8355   */\n      tag_115\n      jump\t// in\n    tag_218:\n        /* \"#utility.yul\":8277:8278   */\n      0x01\n        /* \"#utility.yul\":8274:8275   */\n      dup2\n        /* \"#utility.yul\":8270:8279   */\n      add\n        /* \"#utility.yul\":8265:8279   */\n      swap1\n      pop\n        /* \"#utility.yul\":8227:8365   */\n      jump(tag_215)\n    tag_217:\n        /* \"#utility.yul\":8231:8245   */\n      pop\n        /* \"#utility.yul\":8157:8371   */\n      pop\n      pop\n      jump\t// out\n        /* \"#utility.yul\":8377:9123   */\n    tag_117:\n        /* \"#utility.yul\":8478:8480   */\n      0x1f\n        /* \"#utility.yul\":8473:8476   */\n      dup3\n        /* \"#utility.yul\":8470:8481   */\n      gt\n        /* \"#utility.yul\":8467:9116   */\n      iszero\n      tag_220\n      jumpi\n        /* \"#utility.yul\":8507:8517   */\n      dup3\n        /* \"#utility.yul\":8502:8505   */\n      dup3\n        /* \"#utility.yul\":8499:8518   */\n      gt\n        /* \"#utility.yul\":8496:9106   */\n      iszero\n      tag_221\n      jumpi\n        /* \"#utility.yul\":8553:8591   */\n      tag_222\n        /* \"#utility.yul\":8585:8590   */\n      dup2\n        /* \"#utility.yul\":8553:8591   */\n      tag_106\n      jump\t// in\n    tag_222:\n        /* \"#utility.yul\":8628:8650   */\n      tag_223\n        /* \"#utility.yul\":8646:8649   */\n      dup4\n        /* \"#utility.yul\":8628:8650   */\n      tag_107\n      jump\t// in\n    tag_223:\n        /* \"#utility.yul\":8687:8716   */\n      tag_224\n        /* \"#utility.yul\":8705:8715   */\n      dup6\n        /* \"#utility.yul\":8687:8716   */\n      tag_107\n      jump\t// in\n    tag_224:\n        /* \"#utility.yul\":8877:8879   */\n      0x20\n        /* \"#utility.yul\":8865:8875   */\n      dup7\n        /* \"#utility.yul\":8862:8880   */\n      lt\n        /* \"#utility.yul\":8859:8938   */\n      iszero\n      tag_225\n      jumpi\n        /* \"#utility.yul\":8919:8920   */\n      0x00\n        /* \"#utility.yul\":8903:8920   */\n      swap1\n      pop\n        /* \"#utility.yul\":8859:8938   */\n    tag_225:\n        /* \"#utility.yul\":8988:9000   */\n      dup1\n        /* \"#utility.yul\":8978:8986   */\n      dup4\n        /* \"#utility.yul\":8974:9001   */\n      add\n        /* \"#utility.yul\":9018:9092   */\n      tag_226\n        /* \"#utility.yul\":9078:9090   */\n      dup3\n        /* \"#utility.yul\":9064:9076   */\n      dup5\n        /* \"#utility.yul\":9060:9091   */\n      sub\n        /* \"#utility.yul\":9047:9058   */\n      dup3\n        /* \"#utility.yul\":9018:9092   */\n      tag_116\n      jump\t// in\n    tag_226:\n        /* \"#utility.yul\":8519:9106   */\n      pop\n      pop\n      pop\n      pop\n        /* \"#utility.yul\":8496:9106   */\n    tag_221:\n        /* \"#utility.yul\":8467:9116   */\n    tag_220:\n        /* \"#utility.yul\":8377:9123   */\n      pop\n      pop\n      pop\n      jump\t// out\n        /* \"#utility.yul\":9129:9246   */\n    tag_118:\n        /* \"#utility.yul\":9183:9191   */\n      0x00\n        /* \"#utility.yul\":9233:9238   */\n      dup3\n        /* \"#utility.yul\":9227:9231   */\n      dup3\n        /* \"#utility.yul\":9223:9239   */\n      shr\n        /* \"#utility.yul\":9202:9239   */\n      swap1\n      pop\n        /* \"#utility.yul\":9129:9246   */\n      swap3\n      swap2\n      pop\n      pop\n      jump\t// out\n        /* \"#utility.yul\":9252:9421   */\n    tag_119:\n        /* \"#utility.yul\":9296:9302   */\n      0x00\n        /* \"#utility.yul\":9329:9380   */\n      tag_229\n        /* \"#utility.yul\":9377:9378   */\n      0x00\n        /* \"#utility.yul\":9373:9379   */\n      not\n        /* \"#utility.yul\":9365:9370   */\n      dup5\n        /* \"#utility.yul\":9362:9363   */\n      0x08\n        /* \"#utility.yul\":9358:9371   */\n      mul\n        /* \"#utility.yul\":9329:9380   */\n      tag_118\n      jump\t// in\n    tag_229:\n        /* \"#utility.yul\":9325:9381   */\n      not\n        /* \"#utility.yul\":9410:9414   */\n      dup1\n        /* \"#utility.yul\":9404:9408   */\n      dup4\n        /* \"#utility.yul\":9400:9415   */\n      and\n        /* \"#utility.yul\":9390:9415   */\n      swap2\n      pop\n        /* \"#utility.yul\":9303:9421   */\n      pop\n        /* \"#utility.yul\":9252:9421   */\n      swap3\n      swap2\n      pop\n      pop\n      jump\t// out\n        /* \"#utility.yul\":9426:9721   */\n    tag_120:\n        /* \"#utility.yul\":9502:9506   */\n      0x00\n        /* \"#utility.yul\":9648:9677   */\n      tag_231\n        /* \"#utility.yul\":9673:9676   */\n      dup4\n        /* \"#utility.yul\":9667:9671   */\n      dup4\n        /* \"#utility.yul\":9648:9677   */\n      tag_119\n      jump\t// in\n    tag_231:\n        /* \"#utility.yul\":9640:9677   */\n      swap2\n      pop\n        /* \"#utility.yul\":9710:9713   */\n      dup3\n        /* \"#utility.yul\":9707:9708   */\n      0x02\n        /* \"#utility.yul\":9703:9714   */\n      mul\n        /* \"#utility.yul\":9697:9701   */\n      dup3\n        /* \"#utility.yul\":9694:9715   */\n      or\n        /* \"#utility.yul\":9686:9715   */\n      swap1\n      pop\n        /* \"#utility.yul\":9426:9721   */\n      swap3\n      swap2\n      pop\n      pop\n      jump\t// out\n        /* \"#utility.yul\":9726:11121   */\n    tag_57:\n        /* \"#utility.yul\":9843:9880   */\n      tag_233\n        /* \"#utility.yul\":9876:9879   */\n      dup3\n        /* \"#utility.yul\":9843:9880   */\n      tag_89\n      jump\t// in\n    tag_233:\n        /* \"#utility.yul\":9945:9963   */\n      0xffffffffffffffff\n        /* \"#utility.yul\":9937:9943   */\n      dup2\n        /* \"#utility.yul\":9934:9964   */\n      gt\n        /* \"#utility.yul\":9931:9987   */\n      iszero\n      tag_234\n      jumpi\n        /* \"#utility.yul\":9967:9985   */\n      tag_235\n      tag_98\n      jump\t// in\n    tag_235:\n        /* \"#utility.yul\":9931:9987   */\n    tag_234:\n        /* \"#utility.yul\":10011:10049   */\n      tag_236\n        /* \"#utility.yul\":10043:10047   */\n      dup3\n        /* \"#utility.yul\":10037:10048   */\n      sload\n        /* \"#utility.yul\":10011:10049   */\n      tag_49\n      jump\t// in\n    tag_236:\n        /* \"#utility.yul\":10096:10163   */\n      tag_237\n        /* \"#utility.yul\":10156:10162   */\n      dup3\n        /* \"#utility.yul\":10148:10154   */\n      dup3\n        /* \"#utility.yul\":10142:10146   */\n      dup6\n        /* \"#utility.yul\":10096:10163   */\n      tag_117\n      jump\t// in\n    tag_237:\n        /* \"#utility.yul\":10190:10191   */\n      0x00\n        /* \"#utility.yul\":10214:10218   */\n      0x20\n        /* \"#utility.yul\":10201:10218   */\n      swap1\n      pop\n        /* \"#utility.yul\":10246:10248   */\n      0x1f\n        /* \"#utility.yul\":10238:10244   */\n      dup4\n        /* \"#utility.yul\":10235:10249   */\n      gt\n        /* \"#utility.yul\":10263:10264   */\n      0x01\n        /* \"#utility.yul\":10258:10876   */\n      dup2\n      eq\n      tag_239\n      jumpi\n        /* \"#utility.yul\":10920:10921   */\n      0x00\n        /* \"#utility.yul\":10937:10943   */\n      dup5\n        /* \"#utility.yul\":10934:11011   */\n      iszero\n      tag_240\n      jumpi\n        /* \"#utility.yul\":10986:10995   */\n      dup3\n        /* \"#utility.yul\":10981:10984   */\n      dup8\n        /* \"#utility.yul\":10977:10996   */\n      add\n        /* \"#utility.yul\":10971:10997   */\n      mload\n        /* \"#utility.yul\":10962:10997   */\n      swap1\n      pop\n        /* \"#utility.yul\":10934:11011   */\n    tag_240:\n        /* \"#utility.yul\":11037:11104   */\n      tag_241\n        /* \"#utility.yul\":11097:11103   */\n      dup6\n        /* \"#utility.yul\":11090:11095   */\n      dup3\n        /* \"#utility.yul\":11037:11104   */\n      tag_120\n      jump\t// in\n    tag_241:\n        /* \"#utility.yul\":11031:11035   */\n      dup7\n        /* \"#utility.yul\":11024:11105   */\n      sstore\n        /* \"#utility.yul\":10893:11115   */\n      pop\n        /* \"#utility.yul\":10228:11115   */\n      jump(tag_238)\n        /* \"#utility.yul\":10258:10876   */\n    tag_239:\n        /* \"#utility.yul\":10310:10314   */\n      0x1f\n        /* \"#utility.yul\":10306:10315   */\n      not\n        /* \"#utility.yul\":10298:10304   */\n      dup5\n        /* \"#utility.yul\":10294:10316   */\n      and\n        /* \"#utility.yul\":10344:10381   */\n      tag_242\n        /* \"#utility.yul\":10376:10380   */\n      dup7\n        /* \"#utility.yul\":10344:10381   */\n      tag_106\n      jump\t// in\n    tag_242:\n        /* \"#utility.yul\":10403:10404   */\n      0x00\n        /* \"#utility.yul\":10417:10625   */\n    tag_243:\n        /* \"#utility.yul\":10431:10438   */\n      dup3\n        /* \"#utility.yul\":10428:10429   */\n      dup2\n        /* \"#utility.yul\":10425:10439   */\n      lt\n        /* \"#utility.yul\":10417:10625   */\n      iszero\n      tag_245\n      jumpi\n        /* \"#utility.yul\":10510:10519   */\n      dup5\n        /* \"#utility.yul\":10505:10508   */\n      dup10\n        /* \"#utility.yul\":10501:10520   */\n      add\n        /* \"#utility.yul\":10495:10521   */\n      mload\n        /* \"#utility.yul\":10487:10493   */\n      dup3\n        /* \"#utility.yul\":10480:10522   */\n      sstore\n        /* \"#utility.yul\":10561:10562   */\n      0x01\n        /* \"#utility.yul\":10553:10559   */\n      dup3\n        /* \"#utility.yul\":10549:10563   */\n      add\n        /* \"#utility.yul\":10539:10563   */\n      swap2\n      pop\n        /* \"#utility.yul\":10608:10610   */\n      0x20\n        /* \"#utility.yul\":10597:10606   */\n      dup6\n        /* \"#utility.yul\":10593:10611   */\n      add\n        /* \"#utility.yul\":10580:10611   */\n      swap5\n      pop\n        /* \"#utility.yul\":10454:10458   */\n      0x20\n        /* \"#utility.yul\":10451:10452   */\n      dup2\n        /* \"#utility.yul\":10447:10459   */\n      add\n        /* \"#utility.yul\":10442:10459   */\n      swap1\n      pop\n        /* \"#utility.yul\":10417:10625   */\n      jump(tag_243)\n    tag_245:\n        /* \"#utility.yul\":10653:10659   */\n      dup7\n        /* \"#utility.yul\":10644:10651   */\n      dup4\n        /* \"#utility.yul\":10641:10660   */\n      lt\n        /* \"#utility.yul\":10638:10817   */\n      iszero\n      tag_246\n      jumpi\n        /* \"#utility.yul\":10711:10720   */\n      dup5\n        /* \"#utility.yul\":10706:10709   */\n      dup10\n        /* \"#utility.yul\":10702:10721   */\n      add\n        /* \"#utility.yul\":10696:10722   */\n      mload\n        /* \"#utility.yul\":10754:10802   */\n      tag_247\n        /* \"#utility.yul\":10796:10800   */\n      0x1f\n        /* \"#utility.yul\":10788:10794   */\n      dup10\n        /* \"#utility.yul\":10784:10801   */\n      and\n        /* \"#utility.yul\":10773:10782   */\n      dup3\n        /* \"#utility.yul\":10754:10802   */\n      tag_119\n      jump\t// in\n    tag_247:\n        /* \"#utility.yul\":10746:10752   */\n      dup4\n        /* \"#utility.yul\":10739:10803   */\n      sstore\n        /* \"#utility.yul\":10661:10817   */\n      pop\n        /* \"#utility.yul\":10638:10817   */\n    tag_246:\n        /* \"#utility.yul\":10863:10864   */\n      0x01\n        /* \"#utility.yul\":10859:10860   */\n      0x02\n        /* \"#utility.yul\":10851:10857   */\n      dup9\n        /* \"#utility.yul\":10847:10861   */\n      mul\n        /* \"#utility.yul\":10843:10865   */\n      add\n        /* \"#utility.yul\":10837:10841   */\n      dup9\n        /* \"#utility.yul\":10830:10866   */\n      sstore\n        /* \"#utility.yul\":10265:10876   */\n      pop\n      pop\n      pop\n        /* \"#utility.yul\":10228:11115   */\n    tag_238:\n      pop\n        /* \"#utility.yul\":9818:11121   */\n      pop\n      pop\n      pop\n        /* \"#utility.yul\":9726:11121   */\n      pop\n      pop\n      jump\t// out\n\n    auxdata: 0xa264697066735822122042694e774eb1161be2444e74ddbfc07ad920b8959431cb729baaf9f7d940c0f864736f6c63430008220033\n}\n",
				"bytecode": {
					"linkReferences": {},
					"object": "6080604052348015600e575f5ffd5b50610b908061001c5f395ff3fe608060405234801561000f575f5ffd5b5060043610610060575f3560e01c8063455f5024146100645780634cc82215146100805780639507d39a1461009c578063b6a46b3b146100cd578063bc8bc2b4146100e9578063f745630f1461011a575b5f5ffd5b61007e600480360381019061007991906105a0565b610136565b005b61009a600480360381019061009591906105a0565b610188565b005b6100b660048036038101906100b191906105a0565b6101ce565b6040516100c4929190610655565b60405180910390f35b6100e760048036038101906100e291906107af565b61029b565b005b61010360048036038101906100fe91906105a0565b6103f2565b604051610111929190610655565b60405180910390f35b610134600480360381019061012f91906107f6565b6104b2565b005b5f5f828154811061014a57610149610850565b5b905f5260205f2090600202019050806001015f9054906101000a900460ff1615816001015f6101000a81548160ff0219169083151502179055505050565b5f818154811061019b5761019a610850565b5b905f5260205f2090600202015f5f82015f6101b691906104ea565b600182015f6101000a81549060ff0219169055505050565b60605f5f5f84815481106101e5576101e4610850565b5b905f5260205f2090600202019050805f01816001015f9054906101000a900460ff16818054610213906108aa565b80601f016020809104026020016040519081016040528092919081815260200182805461023f906108aa565b801561028a5780601f106102615761010080835404028352916020019161028a565b820191905f5260205f20905b81548152906001019060200180831161026d57829003601f168201915b505050505091509250925050915091565b5f60405180604001604052808381526020015f1515815250908060018154018082558091505060019003905f5260205f2090600202015f909190919091505f820151815f0190816102ec9190610a8b565b506020820151816001015f6101000a81548160ff02191690831515021790555050505f60405180604001604052808381526020015f1515815250908060018154018082558091505060019003905f5260205f2090600202015f909190919091505f820151815f01908161035f9190610a8b565b506020820151816001015f6101000a81548160ff0219169083151502179055505050610389610524565b81815f01819052505f81908060018154018082558091505060019003905f5260205f2090600202015f909190919091505f820151815f0190816103cc9190610a8b565b506020820151816001015f6101000a81548160ff02191690831515021790555050505050565b5f8181548110610400575f80fd5b905f5260205f2090600202015f91509050805f01805461041f906108aa565b80601f016020809104026020016040519081016040528092919081815260200182805461044b906108aa565b80156104965780601f1061046d57610100808354040283529160200191610496565b820191905f5260205f20905b81548152906001019060200180831161047957829003601f168201915b505050505090806001015f9054906101000a900460ff16905082565b5f5f83815481106104c6576104c5610850565b5b905f5260205f209060020201905081815f0190816104e49190610a8b565b50505050565b5080546104f6906108aa565b5f825580601f10610508575050610522565b601f0160209004905f5260205f2090610521919061053f565b5b565b6040518060400160405280606081526020015f151581525090565b5f5b80821115610557578281015f9055600101610541565b505050565b5f604051905090565b5f5ffd5b5f5ffd5b5f819050919050565b61057f8161056d565b8114610589575f5ffd5b50565b5f8135905061059a81610576565b92915050565b5f602082840312156105b5576105b4610565565b5b5f6105c28482850161058c565b91505092915050565b5f81519050919050565b5f82825260208201905092915050565b8281835e5f83830152505050565b5f601f19601f8301169050919050565b5f61060d826105cb565b61061781856105d5565b93506106278185602086016105e5565b610630816105f3565b840191505092915050565b5f8115159050919050565b61064f8161063b565b82525050565b5f6040820190508181035f83015261066d8185610603565b905061067c6020830184610646565b9392505050565b5f5ffd5b5f5ffd5b7f4e487b71000000000000000000000000000000000000000000000000000000005f52604160045260245ffd5b6106c1826105f3565b810181811067ffffffffffffffff821117156106e0576106df61068b565b5b80604052505050565b5f6106f261055c565b90506106fe82826106b8565b919050565b5f67ffffffffffffffff82111561071d5761071c61068b565b5b610726826105f3565b9050602081019050919050565b828183375f83830152505050565b5f61075361074e84610703565b6106e9565b90508281526020810184848401111561076f5761076e610687565b5b61077a848285610733565b509392505050565b5f82601f83011261079657610795610683565b5b81356107a6848260208601610741565b91505092915050565b5f602082840312156107c4576107c3610565565b5b5f82013567ffffffffffffffff8111156107e1576107e0610569565b5b6107ed84828501610782565b91505092915050565b5f5f6040838503121561080c5761080b610565565b5b5f6108198582860161058c565b925050602083013567ffffffffffffffff81111561083a57610839610569565b5b61084685828601610782565b9150509250929050565b7f4e487b71000000000000000000000000000000000000000000000000000000005f52603260045260245ffd5b7f4e487b71000000000000000000000000000000000000000000000000000000005f52602260045260245ffd5b5f60028204905060018216806108c157607f821691505b6020821081036108d4576108d361087d565b5b50919050565b5f819050815f5260205f209050919050565b5f6020601f8301049050919050565b5f82821b905092915050565b5f600883026109367fffffffffffffffffffffffffffffffffffffffffffffffffffffffffffffffff826108fb565b61094086836108fb565b95508019841693508086168417925050509392505050565b5f819050919050565b5f61097b6109766109718461056d565b610958565b61056d565b9050919050565b5f819050919050565b61099483610961565b6109a86109a082610982565b848454610907565b825550505050565b5f5f905090565b6109bf6109b0565b6109ca81848461098b565b505050565b5f5b828110156109f0576109e55f8284016109b7565b6001810190506109d1565b505050565b601f821115610a435782821115610a4257610a0f816108da565b610a18836108ec565b610a21856108ec565b6020861015610a2e575f90505b808301610a3d828403826109cf565b505050505b5b505050565b5f82821c905092915050565b5f610a635f1984600802610a48565b1980831691505092915050565b5f610a7b8383610a54565b9150826002028217905092915050565b610a94826105cb565b67ffffffffffffffff811115610aad57610aac61068b565b5b610ab782546108aa565b610ac28282856109f5565b5f60209050601f831160018114610af3575f8415610ae1578287015190505b610aeb8582610a70565b865550610b52565b601f198416610b01866108da565b5f5b82811015610b2857848901518255600182019150602085019450602081019050610b03565b86831015610b455784890151610b41601f891682610a54565b8355505b6001600288020188555050505b50505050505056fea264697066735822122042694e774eb1161be2444e74ddbfc07ad920b8959431cb729baaf9f7d940c0f864736f6c63430008220033",
					"opcodes": "PUSH1 0x80 PUSH1 0x40 MSTORE CALLVALUE DUP1 ISZERO PUSH1 0xE JUMPI PUSH0 PUSH0 REVERT JUMPDEST POP PUSH2 0xB90 DUP1 PUSH2 0x1C PUSH0 CODECOPY PUSH0 RETURN INVALID PUSH1 0x80 PUSH1 0x40 MSTORE CALLVALUE DUP1 ISZERO PUSH2 0xF JUMPI PUSH0 PUSH0 REVERT JUMPDEST POP PUSH1 0x4 CALLDATASIZE LT PUSH2 0x60 JUMPI PUSH0 CALLDATALOAD PUSH1 0xE0 SHR DUP1 PUSH4 0x455F5024 EQ PUSH2 0x64 JUMPI DUP1 PUSH4 0x4CC82215 EQ PUSH2 0x80 JUMPI DUP1 PUSH4 0x9507D39A EQ PUSH2 0x9C JUMPI DUP1 PUSH4 0xB6A46B3B EQ PUSH2 0xCD JUMPI DUP1 PUSH4 0xBC8BC2B4 EQ PUSH2 0xE9 JUMPI DUP1 PUSH4 0xF745630F EQ PUSH2 0x11A JUMPI JUMPDEST PUSH0 PUSH0 REVERT JUMPDEST PUSH2 0x7E PUSH1 0x4 DUP1 CALLDATASIZE SUB DUP2 ADD SWAP1 PUSH2 0x79 SWAP2 SWAP1 PUSH2 0x5A0 JUMP JUMPDEST PUSH2 0x136 JUMP JUMPDEST STOP JUMPDEST PUSH2 0x9A PUSH1 0x4 DUP1 CALLDATASIZE SUB DUP2 ADD SWAP1 PUSH2 0x95 SWAP2 SWAP1 PUSH2 0x5A0 JUMP JUMPDEST PUSH2 0x188 JUMP JUMPDEST STOP JUMPDEST PUSH2 0xB6 PUSH1 0x4 DUP1 CALLDATASIZE SUB DUP2 ADD SWAP1 PUSH2 0xB1 SWAP2 SWAP1 PUSH2 0x5A0 JUMP JUMPDEST PUSH2 0x1CE JUMP JUMPDEST PUSH1 0x40 MLOAD PUSH2 0xC4 SWAP3 SWAP2 SWAP1 PUSH2 0x655 JUMP JUMPDEST PUSH1 0x40 MLOAD DUP1 SWAP2 SUB SWAP1 RETURN JUMPDEST PUSH2 0xE7 PUSH1 0x4 DUP1 CALLDATASIZE SUB DUP2 ADD SWAP1 PUSH2 0xE2 SWAP2 SWAP1 PUSH2 0x7AF JUMP JUMPDEST PUSH2 0x29B JUMP JUMPDEST STOP JUMPDEST PUSH2 0x103 PUSH1 0x4 DUP1 CALLDATASIZE SUB DUP2 ADD SWAP1 PUSH2 0xFE SWAP2 SWAP1 PUSH2 0x5A0 JUMP JUMPDEST PUSH2 0x3F2 JUMP JUMPDEST PUSH1 0x40 MLOAD PUSH2 0x111 SWAP3 SWAP2 SWAP1 PUSH2 0x655 JUMP JUMPDEST PUSH1 0x40 MLOAD DUP1 SWAP2 SUB SWAP1 RETURN JUMPDEST PUSH2 0x134 PUSH1 0x4 DUP1 CALLDATASIZE SUB DUP2 ADD SWAP1 PUSH2 0x12F SWAP2 SWAP1 PUSH2 0x7F6 JUMP JUMPDEST PUSH2 0x4B2 JUMP JUMPDEST STOP JUMPDEST PUSH0 PUSH0 DUP3 DUP2 SLOAD DUP2 LT PUSH2 0x14A JUMPI PUSH2 0x149 PUSH2 0x850 JUMP JUMPDEST JUMPDEST SWAP1 PUSH0 MSTORE PUSH1 0x20 PUSH0 KECCAK256 SWAP1 PUSH1 0x2 MUL ADD SWAP1 POP DUP1 PUSH1 0x1 ADD PUSH0 SWAP1 SLOAD SWAP1 PUSH2 0x100 EXP SWAP1 DIV PUSH1 0xFF AND ISZERO DUP2 PUSH1 0x1 ADD PUSH0 PUSH2 0x100 EXP DUP2 SLOAD DUP2 PUSH1 0xFF MUL NOT AND SWAP1 DUP4 ISZERO ISZERO MUL OR SWAP1 SSTORE POP POP POP JUMP JUMPDEST PUSH0 DUP2 DUP2 SLOAD DUP2 LT PUSH2 0x19B JUMPI PUSH2 0x19A PUSH2 0x850 JUMP JUMPDEST JUMPDEST SWAP1 PUSH0 MSTORE PUSH1 0x20 PUSH0 KECCAK256 SWAP1 PUSH1 0x2 MUL ADD PUSH0 PUSH0 DUP3 ADD PUSH0 PUSH2 0x1B6 SWAP2 SWAP1 PUSH2 0x4EA JUMP JUMPDEST PUSH1 0x1 DUP3 ADD PUSH0 PUSH2 0x100 EXP DUP2 SLOAD SWAP1 PUSH1 0xFF MUL NOT AND SWAP1 SSTORE POP POP POP JUMP JUMPDEST PUSH1 0x60 PUSH0 PUSH0 PUSH0 DUP5 DUP2 SLOAD DUP2 LT PUSH2 0x1E5 JUMPI PUSH2 0x1E4 PUSH2 0x850 JUMP JUMPDEST JUMPDEST SWAP1 PUSH0 MSTORE PUSH1 0x20 PUSH0 KECCAK256 SWAP1 PUSH1 0x2 MUL ADD SWAP1 POP DUP1 PUSH0 ADD DUP2 PUSH1 0x1 ADD PUSH0 SWAP1 SLOAD SWAP1 PUSH2 0x100 EXP SWAP1 DIV PUSH1 0xFF AND DUP2 DUP1 SLOAD PUSH2 0x213 SWAP1 PUSH2 0x8AA JUMP JUMPDEST DUP1 PUSH1 0x1F ADD PUSH1 0x20 DUP1 SWAP2 DIV MUL PUSH1 0x20 ADD PUSH1 0x40 MLOAD SWAP1 DUP2 ADD PUSH1 0x40 MSTORE DUP1 SWAP3 SWAP2 SWAP1 DUP2 DUP2 MSTORE PUSH1 0x20 ADD DUP3 DUP1 SLOAD PUSH2 0x23F SWAP1 PUSH2 0x8AA JUMP JUMPDEST DUP1 ISZERO PUSH2 0x28A JUMPI DUP1 PUSH1 0x1F LT PUSH2 0x261 JUMPI PUSH2 0x100 DUP1 DUP4 SLOAD DIV MUL DUP4 MSTORE SWAP2 PUSH1 0x20 ADD SWAP2 PUSH2 0x28A JUMP JUMPDEST DUP3 ADD SWAP2 SWAP1 PUSH0 MSTORE PUSH1 0x20 PUSH0 KECCAK256 SWAP1 JUMPDEST DUP2 SLOAD DUP2 MSTORE SWAP1 PUSH1 0x1 ADD SWAP1 PUSH1 0x20 ADD DUP1 DUP4 GT PUSH2 0x26D JUMPI DUP3 SWAP1 SUB PUSH1 0x1F AND DUP3 ADD SWAP2 JUMPDEST POP POP POP POP POP SWAP2 POP SWAP3 POP SWAP3 POP POP SWAP2 POP SWAP2 JUMP JUMPDEST PUSH0 PUSH1 0x40 MLOAD DUP1 PUSH1 0x40 ADD PUSH1 0x40 MSTORE DUP1 DUP4 DUP2 MSTORE PUSH1 0x20 ADD PUSH0 ISZERO ISZERO DUP2 MSTORE POP SWAP1 DUP1 PUSH1 0x1 DUP2 SLOAD ADD DUP1 DUP3 SSTORE DUP1 SWAP2 POP POP PUSH1 0x1 SWAP1 SUB SWAP1 PUSH0 MSTORE PUSH1 0x20 PUSH0 KECCAK256 SWAP1 PUSH1 0x2 MUL ADD PUSH0 SWAP1 SWAP2 SWAP1 SWAP2 SWAP1 SWAP2 POP PUSH0 DUP3 ADD MLOAD DUP2 PUSH0 ADD SWAP1 DUP2 PUSH2 0x2EC SWAP2 SWAP1 PUSH2 0xA8B JUMP JUMPDEST POP PUSH1 0x20 DUP3 ADD MLOAD DUP2 PUSH1 0x1 ADD PUSH0 PUSH2 0x100 EXP DUP2 SLOAD DUP2 PUSH1 0xFF MUL NOT AND SWAP1 DUP4 ISZERO ISZERO MUL OR SWAP1 SSTORE POP POP POP PUSH0 PUSH1 0x40 MLOAD DUP1 PUSH1 0x40 ADD PUSH1 0x40 MSTORE DUP1 DUP4 DUP2 MSTORE PUSH1 0x20 ADD PUSH0 ISZERO ISZERO DUP2 MSTORE POP SWAP1 DUP1 PUSH1 0x1 DUP2 SLOAD ADD DUP1 DUP3 SSTORE DUP1 SWAP2 POP POP PUSH1 0x1 SWAP1 SUB SWAP1 PUSH0 MSTORE PUSH1 0x20 PUSH0 KECCAK256 SWAP1 PUSH1 0x2 MUL ADD PUSH0 SWAP1 SWAP2 SWAP1 SWAP2 SWAP1 SWAP2 POP PUSH0 DUP3 ADD MLOAD DUP2 PUSH0 ADD SWAP1 DUP2 PUSH2 0x35F SWAP2 SWAP1 PUSH2 0xA8B JUMP JUMPDEST POP PUSH1 0x20 DUP3 ADD MLOAD DUP2 PUSH1 0x1 ADD PUSH0 PUSH2 0x100 EXP DUP2 SLOAD DUP2 PUSH1 0xFF MUL NOT AND SWAP1 DUP4 ISZERO ISZERO MUL OR SWAP1 SSTORE POP POP POP PUSH2 0x389 PUSH2 0x524 JUMP JUMPDEST DUP2 DUP2 PUSH0 ADD DUP2 SWAP1 MSTORE POP PUSH0 DUP2 SWAP1 DUP1 PUSH1 0x1 DUP2 SLOAD ADD DUP1 DUP3 SSTORE DUP1 SWAP2 POP POP PUSH1 0x1 SWAP1 SUB SWAP1 PUSH0 MSTORE PUSH1 0x20 PUSH0 KECCAK256 SWAP1 PUSH1 0x2 MUL ADD PUSH0 SWAP1 SWAP2 SWAP1 SWAP2 SWAP1 SWAP2 POP PUSH0 DUP3 ADD MLOAD DUP2 PUSH0 ADD SWAP1 DUP2 PUSH2 0x3CC SWAP2 SWAP1 PUSH2 0xA8B JUMP JUMPDEST POP PUSH1 0x20 DUP3 ADD MLOAD DUP2 PUSH1 0x1 ADD PUSH0 PUSH2 0x100 EXP DUP2 SLOAD DUP2 PUSH1 0xFF MUL NOT AND SWAP1 DUP4 ISZERO ISZERO MUL OR SWAP1 SSTORE POP POP POP POP POP JUMP JUMPDEST PUSH0 DUP2 DUP2 SLOAD DUP2 LT PUSH2 0x400 JUMPI PUSH0 DUP1 REVERT JUMPDEST SWAP1 PUSH0 MSTORE PUSH1 0x20 PUSH0 KECCAK256 SWAP1 PUSH1 0x2 MUL ADD PUSH0 SWAP2 POP SWAP1 POP DUP1 PUSH0 ADD DUP1 SLOAD PUSH2 0x41F SWAP1 PUSH2 0x8AA JUMP JUMPDEST DUP1 PUSH1 0x1F ADD PUSH1 0x20 DUP1 SWAP2 DIV MUL PUSH1 0x20 ADD PUSH1 0x40 MLOAD SWAP1 DUP2 ADD PUSH1 0x40 MSTORE DUP1 SWAP3 SWAP2 SWAP1 DUP2 DUP2 MSTORE PUSH1 0x20 ADD DUP3 DUP1 SLOAD PUSH2 0x44B SWAP1 PUSH2 0x8AA JUMP JUMPDEST DUP1 ISZERO PUSH2 0x496 JUMPI DUP1 PUSH1 0x1F LT PUSH2 0x46D JUMPI PUSH2 0x100 DUP1 DUP4 SLOAD DIV MUL DUP4 MSTORE SWAP2 PUSH1 0x20 ADD SWAP2 PUSH2 0x496 JUMP JUMPDEST DUP3 ADD SWAP2 SWAP1 PUSH0 MSTORE PUSH1 0x20 PUSH0 KECCAK256 SWAP1 JUMPDEST DUP2 SLOAD DUP2 MSTORE SWAP1 PUSH1 0x1 ADD SWAP1 PUSH1 0x20 ADD DUP1 DUP4 GT PUSH2 0x479 JUMPI DUP3 SWAP1 SUB PUSH1 0x1F AND DUP3 ADD SWAP2 JUMPDEST POP POP POP POP POP SWAP1 DUP1 PUSH1 0x1 ADD PUSH0 SWAP1 SLOAD SWAP1 PUSH2 0x100 EXP SWAP1 DIV PUSH1 0xFF AND SWAP1 POP DUP3 JUMP JUMPDEST PUSH0 PUSH0 DUP4 DUP2 SLOAD DUP2 LT PUSH2 0x4C6 JUMPI PUSH2 0x4C5 PUSH2 0x850 JUMP JUMPDEST JUMPDEST SWAP1 PUSH0 MSTORE PUSH1 0x20 PUSH0 KECCAK256 SWAP1 PUSH1 0x2 MUL ADD SWAP1 POP DUP2 DUP2 PUSH0 ADD SWAP1 DUP2 PUSH2 0x4E4 SWAP2 SWAP1 PUSH2 0xA8B JUMP JUMPDEST POP POP POP POP JUMP JUMPDEST POP DUP1 SLOAD PUSH2 0x4F6 SWAP1 PUSH2 0x8AA JUMP JUMPDEST PUSH0 DUP3 SSTORE DUP1 PUSH1 0x1F LT PUSH2 0x508 JUMPI POP POP PUSH2 0x522 JUMP JUMPDEST PUSH1 0x1F ADD PUSH1 0x20 SWAP1 DIV SWAP1 PUSH0 MSTORE PUSH1 0x20 PUSH0 KECCAK256 SWAP1 PUSH2 0x521 SWAP2 SWAP1 PUSH2 0x53F JUMP JUMPDEST JUMPDEST JUMP JUMPDEST PUSH1 0x40 MLOAD DUP1 PUSH1 0x40 ADD PUSH1 0x40 MSTORE DUP1 PUSH1 0x60 DUP2 MSTORE PUSH1 0x20 ADD PUSH0 ISZERO ISZERO DUP2 MSTORE POP SWAP1 JUMP JUMPDEST PUSH0 JUMPDEST DUP1 DUP3 GT ISZERO PUSH2 0x557 JUMPI DUP3 DUP2 ADD PUSH0 SWAP1 SSTORE PUSH1 0x1 ADD PUSH2 0x541 JUMP JUMPDEST POP POP POP JUMP JUMPDEST PUSH0 PUSH1 0x40 MLOAD SWAP1 POP SWAP1 JUMP JUMPDEST PUSH0 PUSH0 REVERT JUMPDEST PUSH0 PUSH0 REVERT JUMPDEST PUSH0 DUP2 SWAP1 POP SWAP2 SWAP1 POP JUMP JUMPDEST PUSH2 0x57F DUP2 PUSH2 0x56D JUMP JUMPDEST DUP2 EQ PUSH2 0x589 JUMPI PUSH0 PUSH0 REVERT JUMPDEST POP JUMP JUMPDEST PUSH0 DUP2 CALLDATALOAD SWAP1 POP PUSH2 0x59A DUP2 PUSH2 0x576 JUMP JUMPDEST SWAP3 SWAP2 POP POP JUMP JUMPDEST PUSH0 PUSH1 0x20 DUP3 DUP5 SUB SLT ISZERO PUSH2 0x5B5 JUMPI PUSH2 0x5B4 PUSH2 0x565 JUMP JUMPDEST JUMPDEST PUSH0 PUSH2 0x5C2 DUP5 DUP3 DUP6 ADD PUSH2 0x58C JUMP JUMPDEST SWAP2 POP POP SWAP3 SWAP2 POP POP JUMP JUMPDEST PUSH0 DUP2 MLOAD SWAP1 POP SWAP2 SWAP1 POP JUMP JUMPDEST PUSH0 DUP3 DUP3 MSTORE PUSH1 0x20 DUP3 ADD SWAP1 POP SWAP3 SWAP2 POP POP JUMP JUMPDEST DUP3 DUP2 DUP4 MCOPY PUSH0 DUP4 DUP4 ADD MSTORE POP POP POP JUMP JUMPDEST PUSH0 PUSH1 0x1F NOT PUSH1 0x1F DUP4 ADD AND SWAP1 POP SWAP2 SWAP1 POP JUMP JUMPDEST PUSH0 PUSH2 0x60D DUP3 PUSH2 0x5CB JUMP JUMPDEST PUSH2 0x617 DUP2 DUP6 PUSH2 0x5D5 JUMP JUMPDEST SWAP4 POP PUSH2 0x627 DUP2 DUP6 PUSH1 0x20 DUP7 ADD PUSH2 0x5E5 JUMP JUMPDEST PUSH2 0x630 DUP2 PUSH2 0x5F3 JUMP JUMPDEST DUP5 ADD SWAP2 POP POP SWAP3 SWAP2 POP POP JUMP JUMPDEST PUSH0 DUP2 ISZERO ISZERO SWAP1 POP SWAP2 SWAP1 POP JUMP JUMPDEST PUSH2 0x64F DUP2 PUSH2 0x63B JUMP JUMPDEST DUP3 MSTORE POP POP JUMP JUMPDEST PUSH0 PUSH1 0x40 DUP3 ADD SWAP1 POP DUP2 DUP2 SUB PUSH0 DUP4 ADD MSTORE PUSH2 0x66D DUP2 DUP6 PUSH2 0x603 JUMP JUMPDEST SWAP1 POP PUSH2 0x67C PUSH1 0x20 DUP4 ADD DUP5 PUSH2 0x646 JUMP JUMPDEST SWAP4 SWAP3 POP POP POP JUMP JUMPDEST PUSH0 PUSH0 REVERT JUMPDEST PUSH0 PUSH0 REVERT JUMPDEST PUSH32 0x4E487B7100000000000000000000000000000000000000000000000000000000 PUSH0 MSTORE PUSH1 0x41 PUSH1 0x4 MSTORE PUSH1 0x24 PUSH0 REVERT JUMPDEST PUSH2 0x6C1 DUP3 PUSH2 0x5F3 JUMP JUMPDEST DUP2 ADD DUP2 DUP2 LT PUSH8 0xFFFFFFFFFFFFFFFF DUP3 GT OR ISZERO PUSH2 0x6E0 JUMPI PUSH2 0x6DF PUSH2 0x68B JUMP JUMPDEST JUMPDEST DUP1 PUSH1 0x40 MSTORE POP POP POP JUMP JUMPDEST PUSH0 PUSH2 0x6F2 PUSH2 0x55C JUMP JUMPDEST SWAP1 POP PUSH2 0x6FE DUP3 DUP3 PUSH2 0x6B8 JUMP JUMPDEST SWAP2 SWAP1 POP JUMP JUMPDEST PUSH0 PUSH8 0xFFFFFFFFFFFFFFFF DUP3 GT ISZERO PUSH2 0x71D JUMPI PUSH2 0x71C PUSH2 0x68B JUMP JUMPDEST JUMPDEST PUSH2 0x726 DUP3 PUSH2 0x5F3 JUMP JUMPDEST SWAP1 POP PUSH1 0x20 DUP2 ADD SWAP1 POP SWAP2 SWAP1 POP JUMP JUMPDEST DUP3 DUP2 DUP4 CALLDATACOPY PUSH0 DUP4 DUP4 ADD MSTORE POP POP POP JUMP JUMPDEST PUSH0 PUSH2 0x753 PUSH2 0x74E DUP5 PUSH2 0x703 JUMP JUMPDEST PUSH2 0x6E9 JUMP JUMPDEST SWAP1 POP DUP3 DUP2 MSTORE PUSH1 0x20 DUP2 ADD DUP5 DUP5 DUP5 ADD GT ISZERO PUSH2 0x76F JUMPI PUSH2 0x76E PUSH2 0x687 JUMP JUMPDEST JUMPDEST PUSH2 0x77A DUP5 DUP3 DUP6 PUSH2 0x733 JUMP JUMPDEST POP SWAP4 SWAP3 POP POP POP JUMP JUMPDEST PUSH0 DUP3 PUSH1 0x1F DUP4 ADD SLT PUSH2 0x796 JUMPI PUSH2 0x795 PUSH2 0x683 JUMP JUMPDEST JUMPDEST DUP2 CALLDATALOAD PUSH2 0x7A6 DUP5 DUP3 PUSH1 0x20 DUP7 ADD PUSH2 0x741 JUMP JUMPDEST SWAP2 POP POP SWAP3 SWAP2 POP POP JUMP JUMPDEST PUSH0 PUSH1 0x20 DUP3 DUP5 SUB SLT ISZERO PUSH2 0x7C4 JUMPI PUSH2 0x7C3 PUSH2 0x565 JUMP JUMPDEST JUMPDEST PUSH0 DUP3 ADD CALLDATALOAD PUSH8 0xFFFFFFFFFFFFFFFF DUP2 GT ISZERO PUSH2 0x7E1 JUMPI PUSH2 0x7E0 PUSH2 0x569 JUMP JUMPDEST JUMPDEST PUSH2 0x7ED DUP5 DUP3 DUP6 ADD PUSH2 0x782 JUMP JUMPDEST SWAP2 POP POP SWAP3 SWAP2 POP POP JUMP JUMPDEST PUSH0 PUSH0 PUSH1 0x40 DUP4 DUP6 SUB SLT ISZERO PUSH2 0x80C JUMPI PUSH2 0x80B PUSH2 0x565 JUMP JUMPDEST JUMPDEST PUSH0 PUSH2 0x819 DUP6 DUP3 DUP7 ADD PUSH2 0x58C JUMP JUMPDEST SWAP3 POP POP PUSH1 0x20 DUP4 ADD CALLDATALOAD PUSH8 0xFFFFFFFFFFFFFFFF DUP2 GT ISZERO PUSH2 0x83A JUMPI PUSH2 0x839 PUSH2 0x569 JUMP JUMPDEST JUMPDEST PUSH2 0x846 DUP6 DUP3 DUP7 ADD PUSH2 0x782 JUMP JUMPDEST SWAP2 POP POP SWAP3 POP SWAP3 SWAP1 POP JUMP JUMPDEST PUSH32 0x4E487B7100000000000000000000000000000000000000000000000000000000 PUSH0 MSTORE PUSH1 0x32 PUSH1 0x4 MSTORE PUSH1 0x24 PUSH0 REVERT JUMPDEST PUSH32 0x4E487B7100000000000000000000000000000000000000000000000000000000 PUSH0 MSTORE PUSH1 0x22 PUSH1 0x4 MSTORE PUSH1 0x24 PUSH0 REVERT JUMPDEST PUSH0 PUSH1 0x2 DUP3 DIV SWAP1 POP PUSH1 0x1 DUP3 AND DUP1 PUSH2 0x8C1 JUMPI PUSH1 0x7F DUP3 AND SWAP2 POP JUMPDEST PUSH1 0x20 DUP3 LT DUP2 SUB PUSH2 0x8D4 JUMPI PUSH2 0x8D3 PUSH2 0x87D JUMP JUMPDEST JUMPDEST POP SWAP2 SWAP1 POP JUMP JUMPDEST PUSH0 DUP2 SWAP1 POP DUP2 PUSH0 MSTORE PUSH1 0x20 PUSH0 KECCAK256 SWAP1 POP SWAP2 SWAP1 POP JUMP JUMPDEST PUSH0 PUSH1 0x20 PUSH1 0x1F DUP4 ADD DIV SWAP1 POP SWAP2 SWAP1 POP JUMP JUMPDEST PUSH0 DUP3 DUP3 SHL SWAP1 POP SWAP3 SWAP2 POP POP JUMP JUMPDEST PUSH0 PUSH1 0x8 DUP4 MUL PUSH2 0x936 PUSH32 0xFFFFFFFFFFFFFFFFFFFFFFFFFFFFFFFFFFFFFFFFFFFFFFFFFFFFFFFFFFFFFFFF DUP3 PUSH2 0x8FB JUMP JUMPDEST PUSH2 0x940 DUP7 DUP4 PUSH2 0x8FB JUMP JUMPDEST SWAP6 POP DUP1 NOT DUP5 AND SWAP4 POP DUP1 DUP7 AND DUP5 OR SWAP3 POP POP POP SWAP4 SWAP3 POP POP POP JUMP JUMPDEST PUSH0 DUP2 SWAP1 POP SWAP2 SWAP1 POP JUMP JUMPDEST PUSH0 PUSH2 0x97B PUSH2 0x976 PUSH2 0x971 DUP5 PUSH2 0x56D JUMP JUMPDEST PUSH2 0x958 JUMP JUMPDEST PUSH2 0x56D JUMP JUMPDEST SWAP1 POP SWAP2 SWAP1 POP JUMP JUMPDEST PUSH0 DUP2 SWAP1 POP SWAP2 SWAP1 POP JUMP JUMPDEST PUSH2 0x994 DUP4 PUSH2 0x961 JUMP JUMPDEST PUSH2 0x9A8 PUSH2 0x9A0 DUP3 PUSH2 0x982 JUMP JUMPDEST DUP5 DUP5 SLOAD PUSH2 0x907 JUMP JUMPDEST DUP3 SSTORE POP POP POP POP JUMP JUMPDEST PUSH0 PUSH0 SWAP1 POP SWAP1 JUMP JUMPDEST PUSH2 0x9BF PUSH2 0x9B0 JUMP JUMPDEST PUSH2 0x9CA DUP2 DUP5 DUP5 PUSH2 0x98B JUMP JUMPDEST POP POP POP JUMP JUMPDEST PUSH0 JUMPDEST DUP3 DUP2 LT ISZERO PUSH2 0x9F0 JUMPI PUSH2 0x9E5 PUSH0 DUP3 DUP5 ADD PUSH2 0x9B7 JUMP JUMPDEST PUSH1 0x1 DUP2 ADD SWAP1 POP PUSH2 0x9D1 JUMP JUMPDEST POP POP POP JUMP JUMPDEST PUSH1 0x1F DUP3 GT ISZERO PUSH2 0xA43 JUMPI DUP3 DUP3 GT ISZERO PUSH2 0xA42 JUMPI PUSH2 0xA0F DUP2 PUSH2 0x8DA JUMP JUMPDEST PUSH2 0xA18 DUP4 PUSH2 0x8EC JUMP JUMPDEST PUSH2 0xA21 DUP6 PUSH2 0x8EC JUMP JUMPDEST PUSH1 0x20 DUP7 LT ISZERO PUSH2 0xA2E JUMPI PUSH0 SWAP1 POP JUMPDEST DUP1 DUP4 ADD PUSH2 0xA3D DUP3 DUP5 SUB DUP3 PUSH2 0x9CF JUMP JUMPDEST POP POP POP POP JUMPDEST JUMPDEST POP POP POP JUMP JUMPDEST PUSH0 DUP3 DUP3 SHR SWAP1 POP SWAP3 SWAP2 POP POP JUMP JUMPDEST PUSH0 PUSH2 0xA63 PUSH0 NOT DUP5 PUSH1 0x8 MUL PUSH2 0xA48 JUMP JUMPDEST NOT DUP1 DUP4 AND SWAP2 POP POP SWAP3 SWAP2 POP POP JUMP JUMPDEST PUSH0 PUSH2 0xA7B DUP4 DUP4 PUSH2 0xA54 JUMP JUMPDEST SWAP2 POP DUP3 PUSH1 0x2 MUL DUP3 OR SWAP1 POP SWAP3 SWAP2 POP POP JUMP JUMPDEST PUSH2 0xA94 DUP3 PUSH2 0x5CB JUMP JUMPDEST PUSH8 0xFFFFFFFFFFFFFFFF DUP2 GT ISZERO PUSH2 0xAAD JUMPI PUSH2 0xAAC PUSH2 0x68B JUMP JUMPDEST JUMPDEST PUSH2 0xAB7 DUP3 SLOAD PUSH2 0x8AA JUMP JUMPDEST PUSH2 0xAC2 DUP3 DUP3 DUP6 PUSH2 0x9F5 JUMP JUMPDEST PUSH0 PUSH1 0x20 SWAP1 POP PUSH1 0x1F DUP4 GT PUSH1 0x1 DUP2 EQ PUSH2 0xAF3 JUMPI PUSH0 DUP5 ISZERO PUSH2 0xAE1 JUMPI DUP3 DUP8 ADD MLOAD SWAP1 POP JUMPDEST PUSH2 0xAEB DUP6 DUP3 PUSH2 0xA70 JUMP JUMPDEST DUP7 SSTORE POP PUSH2 0xB52 JUMP JUMPDEST PUSH1 0x1F NOT DUP5 AND PUSH2 0xB01 DUP7 PUSH2 0x8DA JUMP JUMPDEST PUSH0 JUMPDEST DUP3 DUP2 LT ISZERO PUSH2 0xB28 JUMPI DUP5 DUP10 ADD MLOAD DUP3 SSTORE PUSH1 0x1 DUP3 ADD SWAP2 POP PUSH1 0x20 DUP6 ADD SWAP5 POP PUSH1 0x20 DUP2 ADD SWAP1 POP PUSH2 0xB03 JUMP JUMPDEST DUP7 DUP4 LT ISZERO PUSH2 0xB45 JUMPI DUP5 DUP10 ADD MLOAD PUSH2 0xB41 PUSH1 0x1F DUP10 AND DUP3 PUSH2 0xA54 JUMP JUMPDEST DUP4 SSTORE POP JUMPDEST PUSH1 0x1 PUSH1 0x2 DUP9 MUL ADD DUP9 SSTORE POP POP POP JUMPDEST POP POP POP POP POP POP JUMP INVALID LOG2 PUSH5 0x6970667358 0x22 SLT KECCAK256 TIMESTAMP PUSH10 0x4E774EB1161BE2444E74 0xDD 0xBF 0xC0 PUSH27 0xD920B8959431CB729BAAF9F7D940C0F864736F6C63430008220033 "
				},
				"gasEstimates": {
					"creation": {
						"codeDepositCost": "592000",
						"executionCost": "623",
						"totalCost": "592623"
					},
					"external": {
						"create(string)": "infinite",
						"get(uint256)": "infinite",
						"remove(uint256)": "infinite",
						"todos(uint256)": "infinite",
						"toggleCompleted(uint256)": "28995",
						"update(uint256,string)": "infinite"
					}
				},
				"methodIdentifiers": {
					"create(string)": "b6a46b3b",
					"get(uint256)": "9507d39a",
					"remove(uint256)": "4cc82215",
					"todos(uint256)": "bc8bc2b4",
					"toggleCompleted(uint256)": "455f5024",
					"update(uint256,string)": "f745630f"
				}
			},
			"storageLayout": {
				"storage": [
					{
						"astId": 10,
						"contract": "8.3 Data Structures - Structs/structs.sol:Todos",
						"label": "todos",
						"offset": 0,
						"slot": "0",
						"type": "t_array(t_struct(Todo)6_storage)dyn_storage"
					}
				],
				"types": {
					"t_array(t_struct(Todo)6_storage)dyn_storage": {
						"base": "t_struct(Todo)6_storage",
						"encoding": "dynamic_array",
						"label": "struct Todos.Todo[]",
						"numberOfBytes": "32"
					},
					"t_bool": {
						"encoding": "inplace",
						"label": "bool",
						"numberOfBytes": "1"
					},
					"t_string_storage": {
						"encoding": "bytes",
						"label": "string",
						"numberOfBytes": "32"
					},
					"t_struct(Todo)6_storage": {
						"encoding": "inplace",
						"label": "struct Todos.Todo",
						"members": [
							{
								"astId": 3,
								"contract": "8.3 Data Structures - Structs/structs.sol:Todos",
								"label": "text",
								"offset": 0,
								"slot": "0",
								"type": "t_string_storage"
							},
							{
								"astId": 5,
								"contract": "8.3 Data Structures - Structs/structs.sol:Todos",
								"label": "completed",
								"offset": 0,
								"slot": "1",
								"type": "t_bool"
							}
						],
						"numberOfBytes": "64"
					}
				}
			},
			"userdoc": {
				"kind": "user",
				"methods": {},
				"version": 1
			}
		}
	}
}