{
	"7.2 Control Flow - Loops/loops.sol": {
		"Loop": {
			"abi": [
				{
					"inputs": [],
					"name": "count",
					"outputs": [
						{
							"internalType": "uint256",
							"name": "",
							"type": "uint256"
						}
					],
					"stateMutability": "view",
					"type": "function"
				},
				{
					"inputs": [],
					"name": "loop",
					"outputs": [],
					"stateMutability": "nonpayable",
					"type": "function"
				}
			],
			"devdoc": {
				"kind": "dev",
				"methods": {},
				"version": 1
			},
			"evm": {
				"assembly": "    /* \"7.2 Control Flow - Loops/loops.sol\":57:589  contract Loop {... */\n  mstore(0x40, 0x80)\n  callvalue\n  dup1\n  iszero\n  tag_1\n  jumpi\n  revert(0x00, 0x00)\ntag_1:\n  pop\n  dataSize(sub_0)\n  dup1\n  dataOffset(sub_0)\n  0x00\n  codecopy\n  0x00\n  return\nstop\n\nsub_0: assembly {\n        /* \"7.2 Control Flow - Loops/loops.sol\":57:589  contract Loop {... */\n      mstore(0x40, 0x80)\n      callvalue\n      dup1\n      iszero\n      tag_1\n      jumpi\n      revert(0x00, 0x00)\n    tag_1:\n      pop\n      jumpi(tag_2, lt(calldatasize, 0x04))\n      shr(0xe0, calldataload(0x00))\n      dup1\n      0x06661abd\n      eq\n      tag_3\n      jumpi\n      dup1\n      0xa92100cb\n      eq\n      tag_4\n      jumpi\n    tag_2:\n      revert(0x00, 0x00)\n        /* \"7.2 Control Flow - Loops/loops.sol\":77:94  uint public count */\n    tag_3:\n      tag_5\n      tag_6\n      jump\t// in\n    tag_5:\n      mload(0x40)\n      tag_7\n      swap2\n      swap1\n      tag_8\n      jump\t// in\n    tag_7:\n      mload(0x40)\n      dup1\n      swap2\n      sub\n      swap1\n      return\n        /* \"7.2 Control Flow - Loops/loops.sol\":100:587  function loop() public  {... */\n    tag_4:\n      tag_9\n      tag_10\n      jump\t// in\n    tag_9:\n      stop\n        /* \"7.2 Control Flow - Loops/loops.sol\":77:94  uint public count */\n    tag_6:\n      sload(0x00)\n      dup2\n      jump\t// out\n        /* \"7.2 Control Flow - Loops/loops.sol\":100:587  function loop() public  {... */\n    tag_10:\n        /* \"7.2 Control Flow - Loops/loops.sol\":159:165  uint i */\n      0x00\n        /* \"7.2 Control Flow - Loops/loops.sol\":168:169  0 */\n      0x00\n        /* \"7.2 Control Flow - Loops/loops.sol\":159:169  uint i = 0 */\n      swap1\n      pop\n        /* \"7.2 Control Flow - Loops/loops.sol\":154:490  for (uint i = 0; i < 10; i++) {... */\n    tag_12:\n        /* \"7.2 Control Flow - Loops/loops.sol\":175:177  10 */\n      0x0a\n        /* \"7.2 Control Flow - Loops/loops.sol\":171:172  i */\n      dup2\n        /* \"7.2 Control Flow - Loops/loops.sol\":171:177  i < 10 */\n      lt\n        /* \"7.2 Control Flow - Loops/loops.sol\":154:490  for (uint i = 0; i < 10; i++) {... */\n      iszero\n      tag_13\n      jumpi\n        /* \"7.2 Control Flow - Loops/loops.sol\":207:208  3 */\n      0x03\n        /* \"7.2 Control Flow - Loops/loops.sol\":202:203  i */\n      dup2\n        /* \"7.2 Control Flow - Loops/loops.sol\":202:208  i == 3 */\n      sub\n        /* \"7.2 Control Flow - Loops/loops.sol\":198:307  if (i == 3) {... */\n      iszero\n        /* \"7.2 Control Flow - Loops/loops.sol\":284:292  continue */\n      tag_14\n        /* \"7.2 Control Flow - Loops/loops.sol\":198:307  if (i == 3) {... */\n      jumpi\n        /* \"7.2 Control Flow - Loops/loops.sol\":329:330  5 */\n      0x05\n        /* \"7.2 Control Flow - Loops/loops.sol\":324:325  i */\n      dup2\n        /* \"7.2 Control Flow - Loops/loops.sol\":324:330  i == 5 */\n      sub\n        /* \"7.2 Control Flow - Loops/loops.sol\":320:410  if (i == 5) {... */\n      iszero\n        /* \"7.2 Control Flow - Loops/loops.sol\":390:395  break */\n      tag_13\n        /* \"7.2 Control Flow - Loops/loops.sol\":320:410  if (i == 5) {... */\n      jumpi\n        /* \"7.2 Control Flow - Loops/loops.sol\":419:424  count */\n      0x00\n      0x00\n        /* \"7.2 Control Flow - Loops/loops.sol\":419:426  count++ */\n      dup2\n      sload\n      dup1\n      swap3\n      swap2\n      swap1\n      tag_17\n      swap1\n      tag_18\n      jump\t// in\n    tag_17:\n      swap2\n      swap1\n      pop\n      sstore\n      pop\n        /* \"7.2 Control Flow - Loops/loops.sol\":448:449  9 */\n      0x09\n        /* \"7.2 Control Flow - Loops/loops.sol\":439:444  count */\n      sload(0x00)\n        /* \"7.2 Control Flow - Loops/loops.sol\":439:449  count == 9 */\n      sub\n        /* \"7.2 Control Flow - Loops/loops.sol\":436:480  if(count == 9){... */\n      iszero\n        /* \"7.2 Control Flow - Loops/loops.sol\":464:469  break */\n      tag_13\n        /* \"7.2 Control Flow - Loops/loops.sol\":436:480  if(count == 9){... */\n      jumpi\n        /* \"7.2 Control Flow - Loops/loops.sol\":154:490  for (uint i = 0; i < 10; i++) {... */\n    tag_14:\n        /* \"7.2 Control Flow - Loops/loops.sol\":179:182  i++ */\n      dup1\n      dup1\n      0x01\n      add\n      swap2\n      pop\n      pop\n        /* \"7.2 Control Flow - Loops/loops.sol\":154:490  for (uint i = 0; i < 10; i++) {... */\n      jump(tag_12)\n    tag_13:\n      pop\n        /* \"7.2 Control Flow - Loops/loops.sol\":522:528  uint j */\n      0x00\n        /* \"7.2 Control Flow - Loops/loops.sol\":538:581  while (j < 10) {... */\n    tag_20:\n        /* \"7.2 Control Flow - Loops/loops.sol\":549:551  10 */\n      0x0a\n        /* \"7.2 Control Flow - Loops/loops.sol\":545:546  j */\n      dup2\n        /* \"7.2 Control Flow - Loops/loops.sol\":545:551  j < 10 */\n      lt\n        /* \"7.2 Control Flow - Loops/loops.sol\":538:581  while (j < 10) {... */\n      iszero\n      tag_21\n      jumpi\n        /* \"7.2 Control Flow - Loops/loops.sol\":567:570  j++ */\n      dup1\n      dup1\n      tag_22\n      swap1\n      tag_18\n      jump\t// in\n    tag_22:\n      swap2\n      pop\n      pop\n        /* \"7.2 Control Flow - Loops/loops.sol\":538:581  while (j < 10) {... */\n      jump(tag_20)\n    tag_21:\n        /* \"7.2 Control Flow - Loops/loops.sol\":124:587  {... */\n      pop\n        /* \"7.2 Control Flow - Loops/loops.sol\":100:587  function loop() public  {... */\n      jump\t// out\n        /* \"#utility.yul\":7:84   */\n    tag_23:\n        /* \"#utility.yul\":44:51   */\n      0x00\n        /* \"#utility.yul\":73:78   */\n      dup2\n        /* \"#utility.yul\":62:78   */\n      swap1\n      pop\n        /* \"#utility.yul\":7:84   */\n      swap2\n      swap1\n      pop\n      jump\t// out\n        /* \"#utility.yul\":90:208   */\n    tag_24:\n        /* \"#utility.yul\":177:201   */\n      tag_29\n        /* \"#utility.yul\":195:200   */\n      dup2\n        /* \"#utility.yul\":177:201   */\n      tag_23\n      jump\t// in\n    tag_29:\n        /* \"#utility.yul\":172:175   */\n      dup3\n        /* \"#utility.yul\":165:202   */\n      mstore\n        /* \"#utility.yul\":90:208   */\n      pop\n      pop\n      jump\t// out\n        /* \"#utility.yul\":214:436   */\n    tag_8:\n        /* \"#utility.yul\":307:311   */\n      0x00\n        /* \"#utility.yul\":345:347   */\n      0x20\n        /* \"#utility.yul\":334:343   */\n      dup3\n        /* \"#utility.yul\":330:348   */\n      add\n        /* \"#utility.yul\":322:348   */\n      swap1\n      pop\n        /* \"#utility.yul\":358:429   */\n      tag_31\n        /* \"#utility.yul\":426:427   */\n      0x00\n        /* \"#utility.yul\":415:424   */\n      dup4\n        /* \"#utility.yul\":411:428   */\n      add\n        /* \"#utility.yul\":402:408   */\n      dup5\n        /* \"#utility.yul\":358:429   */\n      tag_24\n      jump\t// in\n    tag_31:\n        /* \"#utility.yul\":214:436   */\n      swap3\n      swap2\n      pop\n      pop\n      jump\t// out\n        /* \"#utility.yul\":442:622   */\n    tag_25:\n        /* \"#utility.yul\":490:567   */\n      0x4e487b7100000000000000000000000000000000000000000000000000000000\n        /* \"#utility.yul\":487:488   */\n      0x00\n        /* \"#utility.yul\":480:568   */\n      mstore\n        /* \"#utility.yul\":587:591   */\n      0x11\n        /* \"#utility.yul\":584:585   */\n      0x04\n        /* \"#utility.yul\":577:592   */\n      mstore\n        /* \"#utility.yul\":611:615   */\n      0x24\n        /* \"#utility.yul\":608:609   */\n      0x00\n        /* \"#utility.yul\":601:616   */\n      revert\n        /* \"#utility.yul\":628:861   */\n    tag_18:\n        /* \"#utility.yul\":667:670   */\n      0x00\n        /* \"#utility.yul\":690:714   */\n      tag_34\n        /* \"#utility.yul\":708:713   */\n      dup3\n        /* \"#utility.yul\":690:714   */\n      tag_23\n      jump\t// in\n    tag_34:\n        /* \"#utility.yul\":681:714   */\n      swap2\n      pop\n        /* \"#utility.yul\":736:802   */\n      0xffffffffffffffffffffffffffffffffffffffffffffffffffffffffffffffff\n        /* \"#utility.yul\":729:734   */\n      dup3\n        /* \"#utility.yul\":726:803   */\n      sub\n        /* \"#utility.yul\":723:826   */\n      tag_35\n      jumpi\n        /* \"#utility.yul\":806:824   */\n      tag_36\n      tag_25\n      jump\t// in\n    tag_36:\n        /* \"#utility.yul\":723:826   */\n    tag_35:\n        /* \"#utility.yul\":853:854   */\n      0x01\n        /* \"#utility.yul\":846:851   */\n      dup3\n        /* \"#utility.yul\":842:855   */\n      add\n        /* \"#utility.yul\":835:855   */\n      swap1\n      pop\n        /* \"#utility.yul\":628:861   */\n      swap2\n      swap1\n      pop\n      jump\t// out\n\n    auxdata: 0xa2646970667358221220fea2e6934d8f1941b9580162626d548589eab207dbe21560ee1d20db6ae6aa8864736f6c63430008220033\n}\n",
				"bytecode": {
					"linkReferences": {},
					"object": "6080604052348015600e575f5ffd5b506101b08061001c5f395ff3fe608060405234801561000f575f5ffd5b5060043610610034575f3560e01c806306661abd14610038578063a92100cb14610056575b5f5ffd5b610040610060565b60405161004d91906100ed565b60405180910390f35b61005e610065565b005b5f5481565b5f5f90505b600a8110156100b35760038103156100a65760058103156100b3575f5f81548092919061009690610133565b919050555060095f5403156100b3575b808060010191505061006a565b505f5b600a8110156100d25780806100ca90610133565b9150506100b6565b50565b5f819050919050565b6100e7816100d5565b82525050565b5f6020820190506101005f8301846100de565b92915050565b7f4e487b71000000000000000000000000000000000000000000000000000000005f52601160045260245ffd5b5f61013d826100d5565b91507fffffffffffffffffffffffffffffffffffffffffffffffffffffffffffffffff820361016f5761016e610106565b5b60018201905091905056fea2646970667358221220fea2e6934d8f1941b9580162626d548589eab207dbe21560ee1d20db6ae6aa8864736f6c63430008220033",
					"opcodes": "PUSH1 0x80 PUSH1 0x40 MSTORE CALLVALUE DUP1 ISZERO PUSH1 0xE JUMPI PUSH0 PUSH0 REVERT JUMPDEST POP PUSH2 0x1B0 DUP1 PUSH2 0x1C PUSH0 CODECOPY PUSH0 RETURN INVALID PUSH1 0x80 PUSH1 0x40 MSTORE CALLVALUE DUP1 ISZERO PUSH2 0xF JUMPI PUSH0 PUSH0 REVERT JUMPDEST POP PUSH1 0x4 CALLDATASIZE LT PUSH2 0x34 JUMPI PUSH0 CALLDATALOAD PUSH1 0xE0 SHR DUP1 PUSH4 0x6661ABD EQ PUSH2 0x38 JUMPI DUP1 PUSH4 0xA92100CB EQ PUSH2 0x56 JUMPI JUMPDEST PUSH0 PUSH0 REVERT JUMPDEST PUSH2 0x40 PUSH2 0x60 JUMP JUMPDEST PUSH1 0x40 MLOAD PUSH2 0x4D SWAP2 SWAP1 PUSH2 0xED JUMP JUMPDEST PUSH1 0x40 MLOAD DUP1 SWAP2 SUB SWAP1 RETURN JUMPDEST PUSH2 0x5E PUSH2 0x65 JUMP JUMPDEST STOP JUMPDEST PUSH0 SLOAD DUP2 JUMP JUMPDEST PUSH0 PUSH0 SWAP1 POP JUMPDEST PUSH1 0xA DUP2 LT ISZERO PUSH2 0xB3 JUMPI PUSH1 0x3 DUP2 SUB ISZERO PUSH2 0xA6 JUMPI PUSH1 0x5 DUP2 SUB ISZERO PUSH2 0xB3 JUMPI PUSH0 PUSH0 DUP2 SLOAD DUP1 SWAP3 SWAP2 SWAP1 PUSH2 0x96 SWAP1 PUSH2 0x133 JUMP JUMPDEST SWAP2 SWAP1 POP SSTORE POP PUSH1 0x9 PUSH0 SLOAD SUB ISZERO PUSH2 0xB3 JUMPI JUMPDEST DUP1 DUP1 PUSH1 0x1 ADD SWAP2 POP POP PUSH2 0x6A JUMP JUMPDEST POP PUSH0 JUMPDEST PUSH1 0xA DUP2 LT ISZERO PUSH2 0xD2 JUMPI DUP1 DUP1 PUSH2 0xCA SWAP1 PUSH2 0x133 JUMP JUMPDEST SWAP2 POP POP PUSH2 0xB6 JUMP JUMPDEST POP JUMP JUMPDEST PUSH0 DUP2 SWAP1 POP SWAP2 SWAP1 POP JUMP JUMPDEST PUSH2 0xE7 DUP2 PUSH2 0xD5 JUMP JUMPDEST DUP3 MSTORE POP POP JUMP JUMPDEST PUSH0 PUSH1 0x20 DUP3 ADD SWAP1 POP PUSH2 0x100 PUSH0 DUP4 ADD DUP5 PUSH2 0xDE JUMP JUMPDEST SWAP3 SWAP2 POP POP JUMP JUMPDEST PUSH32 0x4E487B7100000000000000000000000000000000000000000000000000000000 PUSH0 MSTORE PUSH1 0x11 PUSH1 0x4 MSTORE PUSH1 0x24 PUSH0 REVERT JUMPDEST PUSH0 PUSH2 0x13D DUP3 PUSH2 0xD5 JUMP JUMPDEST SWAP2 POP PUSH32 0xFFFFFFFFFFFFFFFFFFFFFFFFFFFFFFFFFFFFFFFFFFFFFFFFFFFFFFFFFFFFFFFF DUP3 SUB PUSH2 0x16F JUMPI PUSH2 0x16E PUSH2 0x106 JUMP JUMPDEST JUMPDEST PUSH1 0x1 DUP3 ADD SWAP1 POP SWAP2 SWAP1 POP JUMP INVALID LOG2 PUSH5 0x6970667358 0x22 SLT KECCAK256 INVALID LOG2 DUPN 0x93 0x4D DUP16 NOT COINBASE 0xB9 PC ADD PUSH3 0x626D54 DUP6 DUP10 0xEA 0xB2 SMOD 0xDB 0xE2 ISZERO PUSH1 0xEE SAR KECCAK256 0xDB PUSH11 0xE6AA8864736F6C63430008 0x22 STOP CALLER "
				},
				"gasEstimates": {
					"creation": {
						"codeDepositCost": "86400",
						"executionCost": "133",
						"totalCost": "86533"
					},
					"external": {
						"count()": "2402",
						"loop()": "infinite"
					}
				},
				"methodIdentifiers": {
					"count()": "06661abd",
					"loop()": "a92100cb"
				}
			},
			"storageLayout": {
				"storage": [
					{
						"astId": 3,
						"contract": "7.2 Control Flow - Loops/loops.sol:Loop",
						"label": "count",
						"offset": 0,
						"slot": "0",
						"type": "t_uint256"
					}
				],
				"types": {
					"t_uint256": {
						"encoding": "inplace",
						"label": "uint256",
						"numberOfBytes": "32"
					}
				}
			},
			"userdoc": {
				"kind": "user",
				"methods": {},
				"version": 1
			}
		}
	}
}