{
	"data": {
		"bytecode": {
			"linkReferences": {},
			"object": "60806040526040518060600160405280600160ff168152602001600260ff168152602001600360ff16815250600190816100399190610285565b5060405180606001604052805f60ff168152602001600160ff168152602001600260ff16815250600c908161006e919061039f565b5034801561007a575f5ffd5b50610423565b7f4e487b71000000000000000000000000000000000000000000000000000000005f52604160045260245ffd5b5f81549050919050565b5f819050919050565b5f8190506001806001038301049050919050565b5f819050815f5260205f209050919050565b5f82821b905092915050565b5f600883026101217fffffffffffffffffffffffffffffffffffffffffffffffffffffffffffffffff826100e6565b61012b86836100e6565b95508019841693508086168417925050509392505050565b5f819050919050565b5f61016661016161015c846100b7565b610143565b6100b7565b9050919050565b5f819050919050565b61017f8361014c565b61019361018b8261016d565b8484546100f2565b825550505050565b5f5f905090565b6101aa61019b565b6101b5818484610176565b505050565b5f5b828110156101db576101d05f8284016101a2565b6001810190506101bc565b505050565b81831015610217576101f1826100c0565b6101fa846100c0565b610203836100d4565b818101610212838503826101ba565b505050505b505050565b6801000000000000000082111561023657610235610080565b5b61023f816100ad565b82825561024d8382846101e0565b505050565b5f60039050919050565b5f60ff82169050919050565b5f610273825161025c565b80915050919050565b5f819050919050565b61028e82610252565b67ffffffffffffffff8111156102a7576102a6610080565b5b6102b1818361021c565b6102ba8361027c565b6102c3836100d4565b600183045f5b81811015610300575f6102db85610268565b6102e48161016d565b80925060208701965050508082850155506001810190506102c9565b50505050505050565b5f60039050919050565b5f8190506001806001038301049050919050565b5f819050919050565b818310156103675761034182610313565b61034a84610313565b61035383610327565b818101610362838503826101ba565b505050505b505050565b6801000000000000000082111561038657610385610080565b5b61038f81610309565b61039a838284610330565b505050565b6103a882610252565b67ffffffffffffffff8111156103c1576103c0610080565b5b6103cb818361036c565b6103d48361027c565b6103dd83610327565b600183045f5b8181101561041a575f6103f585610268565b6103fe8161016d565b80925060208701965050508082850155506001810190506103e3565b50505050505050565b610562806104305f395ff3fe608060405234801561000f575f5ffd5b506004361061009c575f3560e01c8063959ac48411610064578063959ac4841461017c578063a4ece52c14610198578063be1c766b146101a2578063edf0099b146101c0578063fb8cbced146101f05761009c565b806338a067ce146100a05780634cc82215146100d057806371e5ee5f146100ec5780638732ded81461011c5780639507d39a1461014c575b5f5ffd5b6100ba60048036038101906100b591906103c1565b61020e565b6040516100c791906103fb565b60405180910390f35b6100ea60048036038101906100e591906103c1565b610227565b005b610106600480360381019061010191906103c1565b610248565b60405161011391906103fb565b60405180910390f35b610136600480360381019061013191906103c1565b610267565b60405161014391906103fb565b60405180910390f35b610166600480360381019061016191906103c1565b610280565b60405161017391906103fb565b60405180910390f35b610196600480360381019061019191906103c1565b6102a4565b005b6101a06102cc565b005b6101aa6102f2565b6040516101b791906103fb565b60405180910390f35b6101da60048036038101906101d591906103c1565b6102fd565b6040516101e791906103fb565b60405180910390f35b6101f861031d565b60405161020591906104b9565b60405180910390f35b600281600a811061021d575f80fd5b015f915090505481565b5f818154811061023a576102396104d2565b5b905f5260205f20015f905550565b5f8181548110610256575f80fd5b905f5260205f20015f915090505481565b600c8160038110610276575f80fd5b015f915090505481565b5f5f8281548110610294576102936104d2565b5b905f5260205f2001549050919050565b5f81908060018154018082558091505060019003905f5260205f20015f909190919091505550565b5f8054806102dd576102dc6104ff565b5b600190038181905f5260205f20015f90559055565b5f5f80549050905090565b6001818154811061030c575f80fd5b905f5260205f20015f915090505481565b610325610368565b600c60038060200260405190810160405280929190826003801561035e576020028201915b81548152602001906001019080831161034a575b5050505050905090565b6040518060600160405280600390602082028036833780820191505090505090565b5f5ffd5b5f819050919050565b6103a08161038e565b81146103aa575f5ffd5b50565b5f813590506103bb81610397565b92915050565b5f602082840312156103d6576103d561038a565b5b5f6103e3848285016103ad565b91505092915050565b6103f58161038e565b82525050565b5f60208201905061040e5f8301846103ec565b92915050565b5f60039050919050565b5f81905092915050565b5f819050919050565b61043a8161038e565b82525050565b5f61044b8383610431565b60208301905092915050565b5f602082019050919050565b61046c81610414565b610476818461041e565b925061048182610428565b805f5b838110156104b15781516104988782610440565b96506104a383610457565b925050600181019050610484565b505050505050565b5f6060820190506104cc5f830184610463565b92915050565b7f4e487b71000000000000000000000000000000000000000000000000000000005f52603260045260245ffd5b7f4e487b71000000000000000000000000000000000000000000000000000000005f52603160045260245ffdfea2646970667358221220e32f931b13beeca13e2f95a8ab04e09836d00d6028cc7984d83c597f9ce3389464736f6c63430008220033",
			"opcodes": "PUSH1 0x80 PUSH1 0x40 MSTORE PUSH1 0x40 MLOAD DUP1 PUSH1 0x60 ADD PUSH1 0x40 MSTORE DUP1 PUSH1 0x1 PUSH1 0xFF AND DUP2 MSTORE PUSH1 0x20 ADD PUSH1 0x2 PUSH1 0xFF AND DUP2 MSTORE PUSH1 0x20 ADD PUSH1 0x3 PUSH1 0xFF AND DUP2 MSTORE POP PUSH1 0x1 SWAP1 DUP2 PUSH2 0x39 SWAP2 SWAP1 PUSH2 0x285 JUMP JUMPDEST POP PUSH1 0x40 MLOAD DUP1 PUSH1 0x60 ADD PUSH1 0x40 MSTORE DUP1 PUSH0 PUSH1 0xFF AND DUP2 MSTORE PUSH1 0x20 ADD PUSH1 0x1 PUSH1 0xFF AND DUP2 MSTORE PUSH1 0x20 ADD PUSH1 0x2 PUSH1 0xFF AND DUP2 MSTORE POP PUSH1 0xC SWAP1 DUP2 PUSH2 0x6E SWAP2 SWAP1 PUSH2 0x39F JUMP JUMPDEST POP CALLVALUE DUP1 ISZERO PUSH2 0x7A JUMPI PUSH0 PUSH0 REVERT JUMPDEST POP PUSH2 0x423 JUMP JUMPDEST PUSH32 0x4E487B7100000000000000000000000000000000000000000000000000000000 PUSH0 MSTORE PUSH1 0x41 PUSH1 0x4 MSTORE PUSH1 0x24 PUSH0 REVERT JUMPDEST PUSH0 DUP2 SLOAD SWAP1 POP SWAP2 SWAP1 POP JUMP JUMPDEST PUSH0 DUP2 SWAP1 POP SWAP2 SWAP1 POP JUMP JUMPDEST PUSH0 DUP2 SWAP1 POP PUSH1 0x1 DUP1 PUSH1 0x1 SUB DUP4 ADD DIV SWAP1 POP SWAP2 SWAP1 POP JUMP JUMPDEST PUSH0 DUP2 SWAP1 POP DUP2 PUSH0 MSTORE PUSH1 0x20 PUSH0 KECCAK256 SWAP1 POP SWAP2 SWAP1 POP JUMP JUMPDEST PUSH0 DUP3 DUP3 SHL SWAP1 POP SWAP3 SWAP2 POP POP JUMP JUMPDEST PUSH0 PUSH1 0x8 DUP4 MUL PUSH2 0x121 PUSH32 0xFFFFFFFFFFFFFFFFFFFFFFFFFFFFFFFFFFFFFFFFFFFFFFFFFFFFFFFFFFFFFFFF DUP3 PUSH2 0xE6 JUMP JUMPDEST PUSH2 0x12B DUP7 DUP4 PUSH2 0xE6 JUMP JUMPDEST SWAP6 POP DUP1 NOT DUP5 AND SWAP4 POP DUP1 DUP7 AND DUP5 OR SWAP3 POP POP POP SWAP4 SWAP3 POP POP POP JUMP JUMPDEST PUSH0 DUP2 SWAP1 POP SWAP2 SWAP1 POP JUMP JUMPDEST PUSH0 PUSH2 0x166 PUSH2 0x161 PUSH2 0x15C DUP5 PUSH2 0xB7 JUMP JUMPDEST PUSH2 0x143 JUMP JUMPDEST PUSH2 0xB7 JUMP JUMPDEST SWAP1 POP SWAP2 SWAP1 POP JUMP JUMPDEST PUSH0 DUP2 SWAP1 POP SWAP2 SWAP1 POP JUMP JUMPDEST PUSH2 0x17F DUP4 PUSH2 0x14C JUMP JUMPDEST PUSH2 0x193 PUSH2 0x18B DUP3 PUSH2 0x16D JUMP JUMPDEST DUP5 DUP5 SLOAD PUSH2 0xF2 JUMP JUMPDEST DUP3 SSTORE POP POP POP POP JUMP JUMPDEST PUSH0 PUSH0 SWAP1 POP SWAP1 JUMP JUMPDEST PUSH2 0x1AA PUSH2 0x19B JUMP JUMPDEST PUSH2 0x1B5 DUP2 DUP5 DUP5 PUSH2 0x176 JUMP JUMPDEST POP POP POP JUMP JUMPDEST PUSH0 JUMPDEST DUP3 DUP2 LT ISZERO PUSH2 0x1DB JUMPI PUSH2 0x1D0 PUSH0 DUP3 DUP5 ADD PUSH2 0x1A2 JUMP JUMPDEST PUSH1 0x1 DUP2 ADD SWAP1 POP PUSH2 0x1BC JUMP JUMPDEST POP POP POP JUMP JUMPDEST DUP2 DUP4 LT ISZERO PUSH2 0x217 JUMPI PUSH2 0x1F1 DUP3 PUSH2 0xC0 JUMP JUMPDEST PUSH2 0x1FA DUP5 PUSH2 0xC0 JUMP JUMPDEST PUSH2 0x203 DUP4 PUSH2 0xD4 JUMP JUMPDEST DUP2 DUP2 ADD PUSH2 0x212 DUP4 DUP6 SUB DUP3 PUSH2 0x1BA JUMP JUMPDEST POP POP POP POP JUMPDEST POP POP POP JUMP JUMPDEST PUSH9 0x10000000000000000 DUP3 GT ISZERO PUSH2 0x236 JUMPI PUSH2 0x235 PUSH2 0x80 JUMP JUMPDEST JUMPDEST PUSH2 0x23F DUP2 PUSH2 0xAD JUMP JUMPDEST DUP3 DUP3 SSTORE PUSH2 0x24D DUP4 DUP3 DUP5 PUSH2 0x1E0 JUMP JUMPDEST POP POP POP JUMP JUMPDEST PUSH0 PUSH1 0x3 SWAP1 POP SWAP2 SWAP1 POP JUMP JUMPDEST PUSH0 PUSH1 0xFF DUP3 AND SWAP1 POP SWAP2 SWAP1 POP JUMP JUMPDEST PUSH0 PUSH2 0x273 DUP3 MLOAD PUSH2 0x25C JUMP JUMPDEST DUP1 SWAP2 POP POP SWAP2 SWAP1 POP JUMP JUMPDEST PUSH0 DUP2 SWAP1 POP SWAP2 SWAP1 POP JUMP JUMPDEST PUSH2 0x28E DUP3 PUSH2 0x252 JUMP JUMPDEST PUSH8 0xFFFFFFFFFFFFFFFF DUP2 GT ISZERO PUSH2 0x2A7 JUMPI PUSH2 0x2A6 PUSH2 0x80 JUMP JUMPDEST JUMPDEST PUSH2 0x2B1 DUP2 DUP4 PUSH2 0x21C JUMP JUMPDEST PUSH2 0x2BA DUP4 PUSH2 0x27C JUMP JUMPDEST PUSH2 0x2C3 DUP4 PUSH2 0xD4 JUMP JUMPDEST PUSH1 0x1 DUP4 DIV PUSH0 JUMPDEST DUP2 DUP2 LT ISZERO PUSH2 0x300 JUMPI PUSH0 PUSH2 0x2DB DUP6 PUSH2 0x268 JUMP JUMPDEST PUSH2 0x2E4 DUP2 PUSH2 0x16D JUMP JUMPDEST DUP1 SWAP3 POP PUSH1 0x20 DUP8 ADD SWAP7 POP POP POP DUP1 DUP3 DUP6 ADD SSTORE POP PUSH1 0x1 DUP2 ADD SWAP1 POP PUSH2 0x2C9 JUMP JUMPDEST POP POP POP POP POP POP POP JUMP JUMPDEST PUSH0 PUSH1 0x3 SWAP1 POP SWAP2 SWAP1 POP JUMP JUMPDEST PUSH0 DUP2 SWAP1 POP PUSH1 0x1 DUP1 PUSH1 0x1 SUB DUP4 ADD DIV SWAP1 POP SWAP2 SWAP1 POP JUMP JUMPDEST PUSH0 DUP2 SWAP1 POP SWAP2 SWAP1 POP JUMP JUMPDEST DUP2 DUP4 LT ISZERO PUSH2 0x367 JUMPI PUSH2 0x341 DUP3 PUSH2 0x313 JUMP JUMPDEST PUSH2 0x34A DUP5 PUSH2 0x313 JUMP JUMPDEST PUSH2 0x353 DUP4 PUSH2 0x327 JUMP JUMPDEST DUP2 DUP2 ADD PUSH2 0x362 DUP4 DUP6 SUB DUP3 PUSH2 0x1BA JUMP JUMPDEST POP POP POP POP JUMPDEST POP POP POP JUMP JUMPDEST PUSH9 0x10000000000000000 DUP3 GT ISZERO PUSH2 0x386 JUMPI PUSH2 0x385 PUSH2 0x80 JUMP JUMPDEST JUMPDEST PUSH2 0x38F DUP2 PUSH2 0x309 JUMP JUMPDEST PUSH2 0x39A DUP4 DUP3 DUP5 PUSH2 0x330 JUMP JUMPDEST POP POP POP JUMP JUMPDEST PUSH2 0x3A8 DUP3 PUSH2 0x252 JUMP JUMPDEST PUSH8 0xFFFFFFFFFFFFFFFF DUP2 GT ISZERO PUSH2 0x3C1 JUMPI PUSH2 0x3C0 PUSH2 0x80 JUMP JUMPDEST JUMPDEST PUSH2 0x3CB DUP2 DUP4 PUSH2 0x36C JUMP JUMPDEST PUSH2 0x3D4 DUP4 PUSH2 0x27C JUMP JUMPDEST PUSH2 0x3DD DUP4 PUSH2 0x327 JUMP JUMPDEST PUSH1 0x1 DUP4 DIV PUSH0 JUMPDEST DUP2 DUP2 LT ISZERO PUSH2 0x41A JUMPI PUSH0 PUSH2 0x3F5 DUP6 PUSH2 0x268 JUMP JUMPDEST PUSH2 0x3FE DUP2 PUSH2 0x16D JUMP JUMPDEST DUP1 SWAP3 POP PUSH1 0x20 DUP8 ADD SWAP7 POP POP POP DUP1 DUP3 DUP6 ADD SSTORE POP PUSH1 0x1 DUP2 ADD SWAP1 POP PUSH2 0x3E3 JUMP JUMPDEST POP POP POP POP POP POP POP JUMP JUMPDEST PUSH2 0x562 DUP1 PUSH2 0x430 PUSH0 CODECOPY PUSH0 RETURN INVALID PUSH1 0x80 PUSH1 0x40 MSTORE CALLVALUE DUP1 ISZERO PUSH2 0xF JUMPI PUSH0 PUSH0 REVERT JUMPDEST POP PUSH1 0x4 CALLDATASIZE LT PUSH2 0x9C JUMPI PUSH0 CALLDATALOAD PUSH1 0xE0 SHR DUP1 PUSH4 0x959AC484 GT PUSH2 0x64 JUMPI DUP1 PUSH4 0x959AC484 EQ PUSH2 0x17C JUMPI DUP1 PUSH4 0xA4ECE52C EQ PUSH2 0x198 JUMPI DUP1 PUSH4 0xBE1C766B EQ PUSH2 0x1A2 JUMPI DUP1 PUSH4 0xEDF0099B EQ PUSH2 0x1C0 JUMPI DUP1 PUSH4 0xFB8CBCED EQ PUSH2 0x1F0 JUMPI PUSH2 0x9C JUMP JUMPDEST DUP1 PUSH4 0x38A067CE EQ PUSH2 0xA0 JUMPI DUP1 PUSH4 0x4CC82215 EQ PUSH2 0xD0 JUMPI DUP1 PUSH4 0x71E5EE5F EQ PUSH2 0xEC JUMPI DUP1 PUSH4 0x8732DED8 EQ PUSH2 0x11C JUMPI DUP1 PUSH4 0x9507D39A EQ PUSH2 0x14C JUMPI JUMPDEST PUSH0 PUSH0 REVERT JUMPDEST PUSH2 0xBA PUSH1 0x4 DUP1 CALLDATASIZE SUB DUP2 ADD SWAP1 PUSH2 0xB5 SWAP2 SWAP1 PUSH2 0x3C1 JUMP JUMPDEST PUSH2 0x20E JUMP JUMPDEST PUSH1 0x40 MLOAD PUSH2 0xC7 SWAP2 SWAP1 PUSH2 0x3FB JUMP JUMPDEST PUSH1 0x40 MLOAD DUP1 SWAP2 SUB SWAP1 RETURN JUMPDEST PUSH2 0xEA PUSH1 0x4 DUP1 CALLDATASIZE SUB DUP2 ADD SWAP1 PUSH2 0xE5 SWAP2 SWAP1 PUSH2 0x3C1 JUMP JUMPDEST PUSH2 0x227 JUMP JUMPDEST STOP JUMPDEST PUSH2 0x106 PUSH1 0x4 DUP1 CALLDATASIZE SUB DUP2 ADD SWAP1 PUSH2 0x101 SWAP2 SWAP1 PUSH2 0x3C1 JUMP JUMPDEST PUSH2 0x248 JUMP JUMPDEST PUSH1 0x40 MLOAD PUSH2 0x113 SWAP2 SWAP1 PUSH2 0x3FB JUMP JUMPDEST PUSH1 0x40 MLOAD DUP1 SWAP2 SUB SWAP1 RETURN JUMPDEST PUSH2 0x136 PUSH1 0x4 DUP1 CALLDATASIZE SUB DUP2 ADD SWAP1 PUSH2 0x131 SWAP2 SWAP1 PUSH2 0x3C1 JUMP JUMPDEST PUSH2 0x267 JUMP JUMPDEST PUSH1 0x40 MLOAD PUSH2 0x143 SWAP2 SWAP1 PUSH2 0x3FB JUMP JUMPDEST PUSH1 0x40 MLOAD DUP1 SWAP2 SUB SWAP1 RETURN JUMPDEST PUSH2 0x166 PUSH1 0x4 DUP1 CALLDATASIZE SUB DUP2 ADD SWAP1 PUSH2 0x161 SWAP2 SWAP1 PUSH2 0x3C1 JUMP JUMPDEST PUSH2 0x280 JUMP JUMPDEST PUSH1 0x40 MLOAD PUSH2 0x173 SWAP2 SWAP1 PUSH2 0x3FB JUMP JUMPDEST PUSH1 0x40 MLOAD DUP1 SWAP2 SUB SWAP1 RETURN JUMPDEST PUSH2 0x196 PUSH1 0x4 DUP1 CALLDATASIZE SUB DUP2 ADD SWAP1 PUSH2 0x191 SWAP2 SWAP1 PUSH2 0x3C1 JUMP JUMPDEST PUSH2 0x2A4 JUMP JUMPDEST STOP JUMPDEST PUSH2 0x1A0 PUSH2 0x2CC JUMP JUMPDEST STOP JUMPDEST PUSH2 0x1AA PUSH2 0x2F2 JUMP JUMPDEST PUSH1 0x40 MLOAD PUSH2 0x1B7 SWAP2 SWAP1 PUSH2 0x3FB JUMP JUMPDEST PUSH1 0x40 MLOAD DUP1 SWAP2 SUB SWAP1 RETURN JUMPDEST PUSH2 0x1DA PUSH1 0x4 DUP1 CALLDATASIZE SUB DUP2 ADD SWAP1 PUSH2 0x1D5 SWAP2 SWAP1 PUSH2 0x3C1 JUMP JUMPDEST PUSH2 0x2FD JUMP JUMPDEST PUSH1 0x40 MLOAD PUSH2 0x1E7 SWAP2 SWAP1 PUSH2 0x3FB JUMP JUMPDEST PUSH1 0x40 MLOAD DUP1 SWAP2 SUB SWAP1 RETURN JUMPDEST PUSH2 0x1F8 PUSH2 0x31D JUMP JUMPDEST PUSH1 0x40 MLOAD PUSH2 0x205 SWAP2 SWAP1 PUSH2 0x4B9 JUMP JUMPDEST PUSH1 0x40 MLOAD DUP1 SWAP2 SUB SWAP1 RETURN JUMPDEST PUSH1 0x2 DUP2 PUSH1 0xA DUP2 LT PUSH2 0x21D JUMPI PUSH0 DUP1 REVERT JUMPDEST ADD PUSH0 SWAP2 POP SWAP1 POP SLOAD DUP2 JUMP JUMPDEST PUSH0 DUP2 DUP2 SLOAD DUP2 LT PUSH2 0x23A JUMPI PUSH2 0x239 PUSH2 0x4D2 JUMP JUMPDEST JUMPDEST SWAP1 PUSH0 MSTORE PUSH1 0x20 PUSH0 KECCAK256 ADD PUSH0 SWAP1 SSTORE POP JUMP JUMPDEST PUSH0 DUP2 DUP2 SLOAD DUP2 LT PUSH2 0x256 JUMPI PUSH0 DUP1 REVERT JUMPDEST SWAP1 PUSH0 MSTORE PUSH1 0x20 PUSH0 KECCAK256 ADD PUSH0 SWAP2 POP SWAP1 POP SLOAD DUP2 JUMP JUMPDEST PUSH1 0xC DUP2 PUSH1 0x3 DUP2 LT PUSH2 0x276 JUMPI PUSH0 DUP1 REVERT JUMPDEST ADD PUSH0 SWAP2 POP SWAP1 POP SLOAD DUP2 JUMP JUMPDEST PUSH0 PUSH0 DUP3 DUP2 SLOAD DUP2 LT PUSH2 0x294 JUMPI PUSH2 0x293 PUSH2 0x4D2 JUMP JUMPDEST JUMPDEST SWAP1 PUSH0 MSTORE PUSH1 0x20 PUSH0 KECCAK256 ADD SLOAD SWAP1 POP SWAP2 SWAP1 POP JUMP JUMPDEST PUSH0 DUP2 SWAP1 DUP1 PUSH1 0x1 DUP2 SLOAD ADD DUP1 DUP3 SSTORE DUP1 SWAP2 POP POP PUSH1 0x1 SWAP1 SUB SWAP1 PUSH0 MSTORE PUSH1 0x20 PUSH0 KECCAK256 ADD PUSH0 SWAP1 SWAP2 SWAP1 SWAP2 SWAP1 SWAP2 POP SSTORE POP JUMP JUMPDEST PUSH0 DUP1 SLOAD DUP1 PUSH2 0x2DD JUMPI PUSH2 0x2DC PUSH2 0x4FF JUMP JUMPDEST JUMPDEST PUSH1 0x1 SWAP1 SUB DUP2 DUP2 SWAP1 PUSH0 MSTORE PUSH1 0x20 PUSH0 KECCAK256 ADD PUSH0 SWAP1 SSTORE SWAP1 SSTORE JUMP JUMPDEST PUSH0 PUSH0 DUP1 SLOAD SWAP1 POP SWAP1 POP SWAP1 JUMP JUMPDEST PUSH1 0x1 DUP2 DUP2 SLOAD DUP2 LT PUSH2 0x30C JUMPI PUSH0 DUP1 REVERT JUMPDEST SWAP1 PUSH0 MSTORE PUSH1 0x20 PUSH0 KECCAK256 ADD PUSH0 SWAP2 POP SWAP1 POP SLOAD DUP2 JUMP JUMPDEST PUSH2 0x325 PUSH2 0x368 JUMP JUMPDEST PUSH1 0xC PUSH1 0x3 DUP1 PUSH1 0x20 MUL PUSH1 0x40 MLOAD SWAP1 DUP2 ADD PUSH1 0x40 MSTORE DUP1 SWAP3 SWAP2 SWAP1 DUP3 PUSH1 0x3 DUP1 ISZERO PUSH2 0x35E JUMPI PUSH1 0x20 MUL DUP3 ADD SWAP2 JUMPDEST DUP2 SLOAD DUP2 MSTORE PUSH1 0x20 ADD SWAP1 PUSH1 0x1 ADD SWAP1 DUP1 DUP4 GT PUSH2 0x34A JUMPI JUMPDEST POP POP POP POP POP SWAP1 POP SWAP1 JUMP JUMPDEST PUSH1 0x40 MLOAD DUP1 PUSH1 0x60 ADD PUSH1 0x40 MSTORE DUP1 PUSH1 0x3 SWAP1 PUSH1 0x20 DUP3 MUL DUP1 CALLDATASIZE DUP4 CALLDATACOPY DUP1 DUP3 ADD SWAP2 POP POP SWAP1 POP POP SWAP1 JUMP JUMPDEST PUSH0 PUSH0 REVERT JUMPDEST PUSH0 DUP2 SWAP1 POP SWAP2 SWAP1 POP JUMP JUMPDEST PUSH2 0x3A0 DUP2 PUSH2 0x38E JUMP JUMPDEST DUP2 EQ PUSH2 0x3AA JUMPI PUSH0 PUSH0 REVERT JUMPDEST POP JUMP JUMPDEST PUSH0 DUP2 CALLDATALOAD SWAP1 POP PUSH2 0x3BB DUP2 PUSH2 0x397 JUMP JUMPDEST SWAP3 SWAP2 POP POP JUMP JUMPDEST PUSH0 PUSH1 0x20 DUP3 DUP5 SUB SLT ISZERO PUSH2 0x3D6 JUMPI PUSH2 0x3D5 PUSH2 0x38A JUMP JUMPDEST JUMPDEST PUSH0 PUSH2 0x3E3 DUP5 DUP3 DUP6 ADD PUSH2 0x3AD JUMP JUMPDEST SWAP2 POP POP SWAP3 SWAP2 POP POP JUMP JUMPDEST PUSH2 0x3F5 DUP2 PUSH2 0x38E JUMP JUMPDEST DUP3 MSTORE POP POP JUMP JUMPDEST PUSH0 PUSH1 0x20 DUP3 ADD SWAP1 POP PUSH2 0x40E PUSH0 DUP4 ADD DUP5 PUSH2 0x3EC JUMP JUMPDEST SWAP3 SWAP2 POP POP JUMP JUMPDEST PUSH0 PUSH1 0x3 SWAP1 POP SWAP2 SWAP1 POP JUMP JUMPDEST PUSH0 DUP2 SWAP1 POP SWAP3 SWAP2 POP POP JUMP JUMPDEST PUSH0 DUP2 SWAP1 POP SWAP2 SWAP1 POP JUMP JUMPDEST PUSH2 0x43A DUP2 PUSH2 0x38E JUMP JUMPDEST DUP3 MSTORE POP POP JUMP JUMPDEST PUSH0 PUSH2 0x44B DUP4 DUP4 PUSH2 0x431 JUMP JUMPDEST PUSH1 0x20 DUP4 ADD SWAP1 POP SWAP3 SWAP2 POP POP JUMP JUMPDEST PUSH0 PUSH1 0x20 DUP3 ADD SWAP1 POP SWAP2 SWAP1 POP JUMP JUMPDEST PUSH2 0x46C DUP2 PUSH2 0x414 JUMP JUMPDEST PUSH2 0x476 DUP2 DUP5 PUSH2 0x41E JUMP JUMPDEST SWAP3 POP PUSH2 0x481 DUP3 PUSH2 0x428 JUMP JUMPDEST DUP1 PUSH0 JUMPDEST DUP4 DUP2 LT ISZERO PUSH2 0x4B1 JUMPI DUP2 MLOAD PUSH2 0x498 DUP8 DUP3 PUSH2 0x440 JUMP JUMPDEST SWAP7 POP PUSH2 0x4A3 DUP4 PUSH2 0x457 JUMP JUMPDEST SWAP3 POP POP PUSH1 0x1 DUP2 ADD SWAP1 POP PUSH2 0x484 JUMP JUMPDEST POP POP POP POP POP POP JUMP JUMPDEST PUSH0 PUSH1 0x60 DUP3 ADD SWAP1 POP PUSH2 0x4CC PUSH0 DUP4 ADD DUP5 PUSH2 0x463 JUMP JUMPDEST SWAP3 SWAP2 POP POP JUMP JUMPDEST PUSH32 0x4E487B7100000000000000000000000000000000000000000000000000000000 PUSH0 MSTORE PUSH1 0x32 PUSH1 0x4 MSTORE PUSH1 0x24 PUSH0 REVERT JUMPDEST PUSH32 0x4E487B7100000000000000000000000000000000000000000000000000000000 PUSH0 MSTORE PUSH1 0x31 PUSH1 0x4 MSTORE PUSH1 0x24 PUSH0 REVERT INVALID LOG2 PUSH5 0x6970667358 0x22 SLT KECCAK256 CALLF 0x2F93 SHL SGT 0xBE EOFCREATE 0xA1 RETURNDATACOPY 0x2F SWAP6 0xA8 0xAB DIV RJUMP 0x9836 0xD0 0xD PUSH1 0x28 0xCC PUSH26 0x84D83C597F9CE3389464736F6C63430008220033000000000000 "
		},
		"gasEstimates": {
			"creation": {
				"codeDepositCost": "275600",
				"executionCost": "infinite",
				"totalCost": "infinite"
			},
			"external": {
				"arr(uint256)": "infinite",
				"arr2(uint256)": "infinite",
				"arr3(uint256)": "infinite",
				"get(uint256)": "infinite",
				"getArr()": "infinite",
				"getLength()": "2483",
				"myFixedSizeArr(uint256)": "infinite",
				"pop()": "29462",
				"push(uint256)": "46820",
				"remove(uint256)": "7609"
			}
		},
		"methodIdentifiers": {
			"arr(uint256)": "71e5ee5f",
			"arr2(uint256)": "edf0099b",
			"arr3(uint256)": "8732ded8",
			"get(uint256)": "9507d39a",
			"getArr()": "fb8cbced",
			"getLength()": "be1c766b",
			"myFixedSizeArr(uint256)": "38a067ce",
			"pop()": "a4ece52c",
			"push(uint256)": "959ac484",
			"remove(uint256)": "4cc82215"
		}
	},
	"abi": [
		{
			"inputs": [
				{
					"internalType": "uint256",
					"name": "",
					"type": "uint256"
				}
			],
			"name": "arr",
			"outputs": [
				{
					"internalType": "uint256",
					"name": "",
					"type": "uint256"
				}
			],
			"stateMutability": "view",
			"type": "function"
		},
		{
			"inputs": [
				{
					"internalType": "uint256",
					"name": "",
					"type": "uint256"
				}
			],
			"name": "arr2",
			"outputs": [
				{
					"internalType": "uint256",
					"name": "",
					"type": "uint256"
				}
			],
			"stateMutability": "view",
			"type": "function"
		},
		{
			"inputs": [
				{
					"internalType": "uint256",
					"name": "",
					"type": "uint256"
				}
			],
			"name": "arr3",
			"outputs": [
				{
					"internalType": "uint256",
					"name": "",
					"type": "uint256"
				}
			],
			"stateMutability": "view",
			"type": "function"
		},
		{
			"inputs": [
				{
					"internalType": "uint256",
					"name": "i",
					"type": "uint256"
				}
			],
			"name": "get",
			"outputs": [
				{
					"internalType": "uint256",
					"name": "",
					"type": "uint256"
				}
			],
			"stateMutability": "view",
			"type": "function"
		},
		{
			"inputs": [],
			"name": "getArr",
			"outputs": [
				{
					"internalType": "uint256[3]",
					"name": "",
					"type": "uint256[3]"
				}
			],
			"stateMutability": "view",
			"type": "function"
		},
		{
			"inputs": [],
			"name": "getLength",
			"outputs": [
				{
					"internalType": "uint256",
					"name": "",
					"type": "uint256"
				}
			],
			"stateMutability": "view",
			"type": "function"
		},
		{
			"inputs": [
				{
					"internalType": "uint256",
					"name": "",
					"type": "uint256"
				}
			],
			"name": "myFixedSizeArr",
			"outputs": [
				{
					"internalType": "uint256",
					"name": "",
					"type": "uint256"
				}
			],
			"stateMutability": "view",
			"type": "function"
		},
		{
			"inputs": [],
			"name": "pop",
			"outputs": [],
			"stateMutability": "nonpayable",
			"type": "function"
		},
		{
			"inputs": [
				{
					"internalType": "uint256",
					"name": "i",
					"type": "uint256"
				}
			],
			"name": "push",
			"outputs": [],
			"stateMutability": "nonpayable",
			"type": "function"
		},
		{
			"inputs": [
				{
					"internalType": "uint256",
					"name": "index",
					"type": "uint256"
				}
			],
			"name": "remove",
			"outputs": [],
			"stateMutability": "nonpayable",
			"type": "function"
		}
	]
}